:100000000C947F000C94090C0C94360C0C94A700F3
:100010000C94A7000C94A7000C94A7000C94A700C4
:100020000C94A7000C94A7000C94A7000C94580BF8
:100030000C94A7000C94A7000C94A7000C94A700A4
:100040000C94630C0C94A7000C94BC0D0C94A700AA
:100050000C94A7000C94A7000C94A7000C94A70084
:100060000C94A7000C94A700DF076B09ED07F607B7
:1000700000080C0818088F08A308B608C908F60875
:1000800011091E092B093A094C095009530958094D
:100090005809BE096509BE096B096E09920900007D
:1000A0000000240027002A0000000000250028008E
:1000B0002B00000000002300260029000404040493
:1000C0000404040402020202020203030303030302
:1000D00001020408102040800102040810200102DF
:1000E00004081020000000070002010000030406BD
:1000F0000000000000000000C007DD0BB10E11245D
:100100001FBECFEFD4E0DEBFCDBF11E0A0E0B1E075
:10011000ECE3F6E202C005900D92AE35B107D9F7D7
:1001200012E0AEE5B1E001C01D92AC3AB107E1F7D3
:1001300010E0CEEFD0E004C02297FE010E94181319
:10014000C83FD107C9F70E9496030C941C130C9466
:100150000000FC0110828FEF81830895EF92FF92DF
:100160000F931F93CF93DF93EC019B0177FF03C0A5
:1001700020E030E005C0653B710514F024EB30E071
:100180002983EA806B8170E06E197109882777FDF9
:100190008095982F982F872F762F662730E040E0A4
:1001A00050E00E94931224EB30E040E050E00E94C7
:1001B000E712FF2400E010E0102F0F2DFE2CEE249C
:1001C000E20EF31E041F151FC801B70128E030E03E
:1001D00040E050E00E94E7128881893029F4309392
:1001E00089002093880006C08A3021F430938B0068
:1001F00020938A00DF91CF911F910F91FF90EF9094
:100200000895CF93DF93EC018881893059F41092DF
:100210005E01809180008F738093800089E060E0B0
:100220000E94BC0F88818A3059F410925F0180913E
:1002300080008F7C809380008AE060E00E94BC0F89
:10024000DF91CF910895CF93DF93EC01FB01CB01B8
:100250000997029710F080E054C0CA0160E170E095
:100260000E94B2126A83C90160E170E00E94B2127A
:100270006B83E8838FEF89838E2F60E00E94DC0F11
:10028000888161E00E94BC0F80915E01882311F596
:1002900080915F018823F1F42FB7F89482E0809376
:1002A00080008AE18093810088EB9BE09093890035
:1002B0008093880090938B0080938A0080E49CE96F
:1002C000909387008093860080916F00887F809351
:1002D0006F002FBF8881893041F481E080935E01F7
:1002E000809180008F73806809C08A3049F481E072
:1002F00080935F01809180008F7C8062809380007A
:1003000081E0DF91CF91089540E252E020E639E0AC
:100310000E9423010895DC0113961C92139708C0D4
:10032000FD01E80FF11D14828F5F13968C931397D4
:1003300013968C911397803298F395961C9295970B
:1003400008C0FD01E80FF11D16A28F5F95968C93F2
:10035000959795968C919597803298F311961C926B
:100360001E92A95BBF4F81E090E011969C938E9303
:10037000A754B04012961C92129713961C92139792
:1003800094961C92949795961C929597AA5BBF4F52
:100390001C920895FC01E75BFF4F71836083E95471
:1003A000F040CF010E948B010895CF93DF93EC01C1
:1003B000288139812115310541F4653D09F046C098
:1003C0000E948B0181E090E03FC02130310561F453
:1003D0006A831B8282E090E099838883613208F40B
:1003E00035C0C95BDF4F2EC022303105F9F49B8147
:1003F0008A819817A0F48CA1862728E03CE880FB2E
:1004000086950EF483272A95D1F78CA3903220F499
:10041000FE01E90FF11D64838B818F5F8B839B81CC
:100420008A81981798F083E090E00EC02330310560
:1004300069F48CA1861731F0C95BDF4F39832883BB
:10044000C754D04084E090E099838883DF91CF91B6
:100450000895FC0120E080819181049709F421E056
:10046000822F0895FC01E95BFF4F82E090E09183C9
:10047000808308956F927F928F929F92AF92BF92E6
:10048000DF92EF92FF920F931F93CF93DF93EC01D4
:1004900096E4A92EB12CAC0EBD1E8E01095B1F4F38
:1004A000D8019C9180E0892798E02CE880FB869514
:1004B0000EF482279A95D1F7F501808389E4E82E1E
:1004C000F12CEC0EFD1ED701ED91FC9185ED099507
:1004D0008DA1D701ED91FC918F5F0995D701ED9129
:1004E000FC91D8018C910995DD24450137011AC092
:1004F0008E010D0D111DD301ED91FC91D801969641
:100500008C910995F4018081D80196969C91892758
:1005100098E02CE880FB86950EF482279A95D1F717
:100520008083D3948DA1D81618F3D701ED91FC9157
:10053000D5018C910995CE010E948B01DF91CF915D
:100540001F910F91FF90EF90DF90BF90AF909F9021
:100550008F907F906F900895DC01952F95968C91E8
:100560009597803240F4FD01E80FF11D46A38F5F9F
:1005700095968C93959795968C919597803240F4AB
:10058000FD01E80FF11D96A38F5F95968C939597CB
:10059000AB0166277727952F95968C91959780329A
:1005A00040F4FD01E80FF11D46A38F5F95968C93F3
:1005B000959795968C919597803238F4FD01E80FC8
:1005C000F11D96A38F5F95968C930895DC01959607
:1005D0008C919597803240F4FD01E80FF11D66A3E0
:1005E0008F5F95968C93959795968C919597803281
:1005F00038F4FD01E80FF11D76A38F5F95968C937B
:100600000895DC0195968C919597803238F4FD0120
:10061000E80FF11D66A38F5F95968C930895FC01FA
:10062000E60FF11D84810895FC016F5FDC01A60FC8
:10063000B11D615014969C9180E0E60FF11D24815C
:1006400030E0282B392BC90108950F931F938C019B
:10065000862F8E5F6D5FF801E60FF11D348120E07B
:10066000F801E80FF11D848190E0282B392B40E040
:1006700050E0A901332722276250F801E60FF11D4F
:100680006150948180E0060F111DF801648170E0D3
:10069000862B972BA0E0B0E0282B392B4A2B5B2B25
:1006A000B901CA011F910F910895F999FECF72BD4A
:1006B00061BDF89A80B50895F999FECF1FBA72BD51
:1006C00061BD40BD0FB6F894FA9AF99A0FBE08952D
:1006D0000E94D9098091C201882311F00E94D2049E
:1006E0008091AE01882311F40E949C07089584E054
:1006F00061E00E94BC0F80E161E00E94BC0F84E0D9
:1007000060E00E94DC0F8AE992E040E056E960E098
:1007100070E00E94F90D08951092AE010E94360516
:1007200008950E9477030E948C0308950E940B0D88
:100730000E9491030E946803FDCF1F9310E0609117
:10074000B1017091B201882777FD8095982F0E94A2
:100750007C1123E333E343E75FE30E9430120E94FE
:1007600049112091AF013091B001621773070CF469
:1007700011E0812F1F9108958FE060E00E94DC0F4F
:1007800008958FE061E00E94DC0F08958CE060E046
:100790000E94DC0F08958CE061E00E94DC0F089558
:1007A0008091C5019091C601009731F486E060E028
:1007B00070E00E94630D0895019731F41092DB01FF
:1007C0001092DA010E94810A08958091B5019091FA
:1007D000B601009779F485E060E070E00E94630D57
:1007E0008091B7019091B801892BD1F481E0809379
:1007F000C20108958130910539F41092DB01109205
:10080000DA010E94810A0895029751F40E94810A38
:1008100085E060E00E94DC0F86E060E00E94DC0F73
:1008200008958091C5019091C6010097A1F480912F
:10083000C7019091C801892B19F488E061E002C0DA
:1008400088E060E00E94DC0F6091C90186E070E002
:100850000E94630D08950197C1F41092DB0110927C
:10086000DA016091CA017091CB018091CC01909125
:10087000CD0120E130E040E050E00E94E712CA01E3
:10088000B9010E94D50A0E947B0A08958091B501A2
:100890009091B6010097B1F41092C2018091B70116
:1008A0009091B801892B19F487E061E002C087E0DC
:1008B00060E00E94DC0F6091B90185E070E00E9469
:1008C000630D08958130910599F41092DB01109227
:1008D000DA010E94810A6091BA017091BB01809196
:1008E000BC019091BD010E94D50A0E947B0A089527
:1008F000029761F46091E1017091E2018091E3015E
:100900009091E4010E94D50A0E947B0A0895FF920B
:100910000F931F93CF93DF938C01F62E8091C2012A
:100920008823D1F1C0E0D0E034C061E070E080E025
:1009300090E00E94E10C21E0F21631F48091C301B5
:100940009091C401019608C082E0F81649F48091A4
:10095000C3019091C40101979093C4018093C30196
:100960008091C3019091C40197FF02C080E090E0A4
:1009700021E08D32920714F08CE291E09093C40153
:100980008093C3010E94D9098091C201882321F07C
:100990002196C017D10748F2DF91CF911F910F9197
:1009A000FF90089585E090E060E00E9487048091C8
:1009B000C201882379F087E060E00E94DC0F60913B
:1009C000B90185E070E00E94630D8CE291E061E086
:1009D0000E9487048091C201882329F085E090E07D
:1009E00060E00E9487048091C201882379F087E04B
:1009F00061E00E94DC0F6091B90185E070E00E9427
:100A0000630D8CE291E062E00E9487041092C401C1
:100A10001092C3018091C201882329F085E060E033
:100A200070E00E94630D1092C201089582E00E945E
:100A30002910019731F483E00E942910892B31F4A9
:100A40000BC083E00E942910892B31F48091DA01D8
:100A50009091DB01019705C08091DA019091DB0153
:100A600001969093DB018093DA0108951092B6010C
:100A70001092B5011092B8011092B7011092B9010D
:100A80001092BA011092BB011092BC011092BD01EC
:100A90001092BE011092BF011092C0011092C101CC
:100AA0001092C6011092C5011092C8011092C701A0
:100AB0001092C9011092CA011092CB011092CC0180
:100AC0001092CD011092CE011092CF011092D00160
:100AD0001092D10182ED91E00E94010186ED91E03A
:100AE0000E9401011092DB011092DA011092DD01E7
:100AF0001092DC011092DF011092DE0181E090E0A3
:100B0000909351018093500184E690E090935301BB
:100B1000809352018AE090E09093550180935401B4
:100B200081E08093E7011092FA011092FB0110928C
:100B3000FC011092FD011092F9011092F80180E081
:100B400090E0A0EAB0E48093EC019093ED01A093D3
:100B5000EE01B093EF018DEC9CECACECBDE3809327
:100B6000F0019093F101A093F201B093F30180E0C2
:100B700090E0A8ECB2E48093F4019093F501A09387
:100B8000F601B093F7010E94050782E060E00E9441
:100B9000BC0F83E060E00E94BC0F82E061E00E9435
:100BA000DC0F83E061E00E94DC0F80E066E175E02D
:100BB00041E050E00E94E60B85E061E00E94BC0F3E
:100BC00086E061E00E94BC0F87E061E00E94BC0FFC
:100BD00088E061E00E94BC0F85E060E00E94DC0FCD
:100BE00086E060E00E94DC0F87E061E00E94DC0F9D
:100BF00088E061E00E94DC0F8BE061E00E94BC0FA6
:100C00008CE061E00E94BC0F8FE061E00E94BC0FAD
:100C10008BE060E00E94DC0F8CE060E00E94DC0F63
:100C20008FE060E00E94DC0F8DE061E00E94BC0F6D
:100C30008DE060E00E94DC0F80E090E00E942306DF
:100C40000E941D0B08959093B2018093B101AA27D1
:100C500097FDA095BA2FBC01CD010E947C112DEC0F
:100C60003CEC4CE85FE30E9430120E944911709303
:100C7000B4016093B30108954F925F926F927F9297
:100C80008F929F92AF92BF92CF92DF92EF92FF929C
:100C90000F931F93CF93DF938091E701882309F48B
:100CA000A0C08090AF019090B001C091B101D091EF
:100CB000B201C819D9094090EC015090ED01609043
:100CC000EE017090EF01BE01882777FD8095982F87
:100CD0002091FA013091FB014091FC015091FD01FE
:100CE000620F731F841F951F0E947C117B018C0172
:100CF000A0900202B0900302C0900402D0900502BE
:100D0000A60195010E94DD10882384F0A090FE01C9
:100D1000B090FF01C0900002D0900102C801B7015D
:100D2000A60195010E942C1218161CF4C601B501EB
:100D300002C0C801B7010E9449116093FA01709383
:100D4000FB018093FC019093FD010E947C11209196
:100D5000F0013091F1014091F2015091F3010E94B4
:100D600030125B016C018091F8019091F901B4019E
:100D7000681B790B882777FD8095982F0E947C113E
:100D80002091F4013091F5014091F6015091F70165
:100D90000E9430127B018C019092F9018092F8013F
:100DA000BE01882777FD8095982F0E947C119B01BA
:100DB000AC01C301B2010E943012A60195010E944C
:100DC0007910A80197010E9478100E944911CB0167
:100DD0006F3F710519F014F08FEF90E09C0197FFC1
:100DE00002C020E030E0C901DF91CF911F910F9147
:100DF000FF90EF90DF90CF90BF90AF909F908F903B
:100E00007F906F905F904F900895EF92FF920F93B5
:100E10001F93E090F001F090F1010091F201109128
:100E2000F30160E070E08CED92ECA80197010E9464
:100E3000E110609302027093030280930402909386
:100E4000050260E070E08CED92E4A80197010E9439
:100E5000E1106093FE017093FF0180930002909374
:100E600001021F910F91FF90EF9008950F931F9330
:100E7000CF93DF93082FC0E0D0E010E0802F0E94D6
:100E8000450DC80FD91F1F5F1530C1F7CE0165E0B2
:100E900070E00E94B212CB01DF91CF911F910F91B0
:100EA0000895CF93DF9383E00E943607AC01E4E01E
:100EB000F1E0C1E0D0E060817181461757078CF501
:100EC000FE013197EE0FFF1FEE0FFF1FDF01A05055
:100ED000BF4F2D913C91EE5FFE4F0190F081E02DD0
:100EE000421B530BCC0FDD1FCC0FDD1FCE5FDE4F3F
:100EF000888199818E1B9F0B621B730B9C01429F03
:100F0000C001439F900D529F900D11240E94B21278
:100F10006E0F7F1F6F3F710559F054F06FEF70E057
:100F200007C021963496C431D10529F660E070E0FF
:100F3000CB01DF91CF9108950E9451079093B001AA
:100F40008093AF010E94D30C9B01AC018091E8011A
:100F50009091E901B901681B790BCB01693C7105DE
:100F600074F02093E8013093E9014093EA01509333
:100F7000EB010E943C06BC018BE00E94630D0895CA
:100F800081E691E06CE37AE00E94CA010895FF9245
:100F90000F931F93CF93DF9381E691E061E00E946E
:100FA0000F03E82FF0E0EB31F10508F0E7C1EC5C4E
:100FB000FF4FEE0FFF1F0590F491E02D099481E69D
:100FC00091E062E00E9414039093AD018093AC0124
:100FD00081E691E06AE670E006C06091AF01709131
:100FE000B00181E691E00E94E602C8C181E691E08D
:100FF00062E00E9414039093B2018093B101BEC1DC
:101000001092B6011092B50181E691E062E00E9473
:101010000F038093B901B2C11092C6011092C501AD
:1010200081E691E062E00E940F038093C901A6C1AE
:1010300081E691E062E00E94250324E0660F771FBD
:10104000881F991F2A95D1F76093BA017093BB014D
:101050008093BC019093BD0182E090E09093B60133
:101060008093B5016091BA017091BB018091BC0180
:101070009091BD0120E931E040E050E00E94E7128C
:10108000C901DA018093E1019093E201A093E301A9
:10109000B093E4018091B9018093E5016091B901B9
:1010A00070E080E090E00E947A112DEC3CEC4CEC7A
:1010B0005EE30E94301220E030E040E050E00E9409
:1010C0002C128823A4F06091B90170E080E090E0D8
:1010D0000E947A112DEC3CEC4CEC5EE30E94301245
:1010E00020E030E040E05FE30E94791013C060919F
:1010F000B90170E080E090E00E947A112DEC3CECA8
:101100004CEC5EE30E94301220E030E040E05FE310
:101110000E9478100E9449116093E6012FC181E07E
:1011200090E09093C6018093C50181E691E062E072
:101130000E9425036093CA017093CB018093CC0178
:101140009093CD011BC181E691E062E00E940F0304
:1011500080FF05C01092B8011092B7010FC181E065
:1011600090E09093B8018093B70108C181E691E0C7
:1011700062E00E940F0380FF05C01092C801109228
:10118000C701FCC081E090E09093C8018093C70143
:10119000F5C081E691E062E00E940F03282F81FFF5
:1011A00005C01092B8011092B70106C081E090E02E
:1011B0009093B8018093B70120FF15C00E944604A8
:1011C0002091C3013091C401121613063CF4B901F9
:1011D000882777FD8095982F0E94E10C1092C4011A
:1011E0001092C301CBC00E94E503C8C081E691E024
:1011F00062E00E940F03282F81FF05C01092C801F2
:101200001092C70106C081E090E09093C8018093DE
:10121000C70120FF03C00E941104B0C00E94D00388
:10122000ADC081E691E062E00E940F0380FF03C041
:101230000E94CB03A3C00E94C603A0C081E691E038
:1012400062E00E940F0380FF03C00E94C10396C0AA
:101250000E94BC0393C082ED91E069E070E00E94BF
:10126000840181E691E062E00E940F03682F82ED25
:1012700091E00EC086ED91E06AE070E00E9484018A
:1012800081E691E062E00E940F03682F86ED91E015
:1012900070E00E94AE0072C081E691E06FEF6CC01A
:1012A0006091B90115C081E691E06091C90164C007
:1012B0004091BE015091BF016091C0017091C10188
:1012C00081E691E00E94AC0259C00E949D03682F04
:1012D00081E691E051C00E948C0350C081E691E00C
:1012E00062E00E941403F82E192F81E691E064E079
:1012F0000E940F03082F813140F58F2D912F9C0103
:10130000E9010BC080E691E0BE010E945503682F01
:1013100081E691E00E94010321969E012F1920177A
:1013200088F32CC081E691E062E00E941403EC0196
:1013300081E691E064E00E940F03082F813128F4D8
:1013400015E085E0F82EF00E12C081E691E00E94D3
:10135000320214C081E691E0612F0E940F03482FF2
:1013600080E691E0BE010E945C031F5F21961F157D
:1013700089F781E691E0602F0E940103DF91CF9110
:101380001F910F91FF90089582E390E00E94D30B8C
:1013900080E161E00E94DC0F8AE090E00E94D30BC4
:1013A00081E691E00E943A0280E160E00E94DC0F59
:1013B0000895EF92FF920F931F938AE992E00E94A3
:1013C000620E882309F453C00E94D30C7B018C0168
:1013D00084E690E0A0E0B0E0E80EF91E0A1F1B1FB3
:1013E0002AC08AE992E00E94620E8823E9F08DE02B
:1013F00061E00E94DC0F8AE992E00E94760E682F7D
:1014000081E691E00E94D5010E94D30C7B018C0102
:1014100084E690E0A0E0B0E0E80EF91E0A1F1B1F72
:101420008DE060E00E94DC0F0E94D30C6E157F05FA
:1014300080079107E0F481E691E00E942902882369
:1014400081F281E691E00E942902882361F081E621
:1014500091E060E00E940F03882329F40E94C707EF
:101460000E94C40904C081E691E00E948B011F9193
:101470000F91FF90EF900895CF92DF92EF92FF923D
:101480000F931F93CF93DF93182F482F50E060E006
:1014900070E08AE992E020E030E00E94A70F0E940D
:1014A000D30C6B017C018AE090E0A0E0B0E0C80EB4
:1014B000D91EEA1EFB1E8AE992E00E94760EEC011C
:1014C000012F10E00CC08AE992E00E94760EEC0138
:1014D0000E94D30CC616D706E806F90618F0C01706
:1014E000D10789F7DF91CF911F910F91FF90EF9076
:1014F000DF90CF900895EFE6F0E0808182608083F6
:101500000895EFE6F0E080818F7D808380818D7F7C
:1015100080830895603020E0720721E0820720E098
:10152000920708F440C0693F2FEF720727E0820757
:1015300020E0920740F453E096958795779567955C
:101540005A95D1F730C0613C2FEF72072FE3820725
:1015500020E0920740F446E0969587957795679549
:101560004A95D1F720C061302FEF72072FEF820725
:1015700020E0920730F4BB27A92F982F872FBC01BA
:1015800012C061302CEF72072FEF820723E0920721
:1015900018F06FEF7FEF07C02AE096958795779553
:1015A00067952A95D1F7CB010895EF92FF920F939B
:1015B0001F937B018C010E948A0A9093890080937B
:1015C000880080E0E81680E0F80681E0080780E007
:1015D000180710F491E022C089EFE8168FEFF806A3
:1015E00087E0080780E0180710F492E017C081EC4C
:1015F000E8168FEFF8068FE3080780E0180710F46D
:1016000093E00CC081E0E8168FEFF8068FEF080733
:1016100080E0180710F095E001C094E0809181000F
:10162000887F8093810080918100982B9093810026
:101630001F910F91FF90EF900895CF93DF93E0E813
:10164000F0E01082A1E8B0E01C92109282002FE638
:1016500030E0E90118828C918F7E8C938C918860A8
:101660008C9380818D7F808380818E7F8083808139
:101670008F77808380818F7B808380818F7D808343
:1016800080818F7E80838C91887F8C938C91856004
:101690008C938FEF9FEF90938900809388008881CF
:1016A0008F7D888388818D7F8883DF91CF91089596
:1016B0001F920F920FB60F9211242F933F934F93C7
:1016C0005F936F937F938F939F93AF93BF93EF93AA
:1016D000FF938091B7019091B801892B49F48091D3
:1016E000E00190E0019768E070E00E94B21206C04D
:1016F0008091E00190E00196877090708093E00106
:101700008091E00161E070E002C0660F771F8A956A
:10171000E2F7637C87E00E94DC0F2091E00189E919
:1017200090E002C0959587952A95E2F780FF03C067
:101730006091E50102C06091E60185E070E00E94E1
:10174000630D8091E00161E070E002C0660F771FD9
:101750008A95E2F7607F88E00E94DC0F2091E0012B
:1017600086E690E002C0959587952A95E2F780FF7E
:1017700003C06091E50102C06091E60186E070E07F
:101780000E94630DFF91EF91BF91AF919F918F9157
:101790007F916F915F914F913F912F910F900FBE6D
:1017A0000F901F901895019739F0880F991F880F97
:1017B000991F02970197F1F7089582ED91E00E9439
:1017C000A90086ED91E00E94A9000895823000F5FD
:1017D000E82FF0E0EE0FFF1FEA5FFD4F718360839B
:1017E000882319F08130A1F408C0809169008C7FB2
:1017F000842B80936900E89A089580916900440FD2
:10180000551F440F551F837F842B80936900E99AED
:1018100008951F920F920FB60F9211242F933F93AA
:101820004F935F936F937F938F939F93AF93BF93E8
:10183000EF93FF938091060290910702892B29F084
:10184000E0910602F09107020995FF91EF91BF9197
:10185000AF919F918F917F916F915F914F913F9148
:101860002F910F900FBE0F901F9018951F920F92FF
:101870000FB60F9211242F933F934F935F936F9363
:101880007F938F939F93AF93BF93EF93FF93809139
:10189000080290910902892B29F0E0910802F09149
:1018A00009020995FF91EF91BF91AF919F918F919F
:1018B0007F916F915F914F913F912F910F900FBE4C
:1018C0000F901F9018951F920F920FB60F92112430
:1018D0002F938F939F93AF93BF9380910A02909120
:1018E0000B02A0910C02B0910D020196A11DB11D39
:1018F00080930A0290930B02A0930C02B0930D0206
:1019000080910E0290910F02A0911002B0911102ED
:101910008050904CAF4FBF4F80930E0290930F02B8
:10192000A0931002B093110227C080910E029091F3
:101930000F02A0911002B091110280589E43A04066
:10194000B04080930E0290930F02A0931002B093C8
:1019500011028091120290911302A0911402B09191
:1019600015020196A11DB11D8093120290931302DE
:10197000A0931402B093150280910E0290910F0271
:10198000A0911002B091110281589E43A040B04036
:1019900060F6BF91AF919F918F912F910F900FBEE5
:1019A0000F901F9018958FB7F894209112023091E4
:1019B000130240911402509115028FBFB901CA0160
:1019C0000895EF92FF920F931F937B018C018FB7C5
:1019D000F894409112025091130260911402709198
:1019E00015028FBF2FB7F8948091120290911302C5
:1019F000A0911402B09115022FBF841B950BA60B6A
:101A0000B70BE816F9060A071B0760F71F910F913D
:101A1000FF90EF900895789484B5826084BD84B57A
:101A2000816084BD85B5826085BD85B5816085BDD9
:101A3000EEE6F0E0808181608083E1E8F0E0808183
:101A400082608083808181608083E0E8F0E0808133
:101A500081608083E1EBF0E0808184608083E0EB53
:101A6000F0E0808181608083EAE7F0E0808184603B
:101A70008083808182608083808181608083808197
:101A8000806880831092C1000895877090915601FC
:101A90009295990F990F907C982B90937C00809150
:101AA0007A00806480937A0080917A0086FDFCCF72
:101AB0002091780040917900942F80E030E0282B2D
:101AC000392BC90108951F93CF93DF93182FEB0192
:101AD00061E00E94BC0FE12FF0E0EC51FF4F8491D8
:101AE000833051F480918000806880938000D0938F
:101AF0008900C09388003CC0843051F480918000FC
:101B0000806280938000D0938B00C0938A0030C0A5
:101B1000813039F4209729F184B5806884BDC7BD30
:101B200027C0823039F42097E1F084B5806284BD0B
:101B3000C8BD1EC0863041F48091B000806880939B
:101B4000B000C093B30014C0873041F48091B0005E
:101B500080628093B000C093B4000AC0C038D10541
:101B60001CF4812F60E002C0812F61E00E94DC0F35
:101B7000DF91CF911F9108951F920F920FB60F9290
:101B800011242F933F934F935F936F937F938F9382
:101B90009F93AF93BF93EF93FF934091C600E09163
:101BA0009602F0919702CF01019660E870E00E94E2
:101BB000B2129C01809198029091990228173907DE
:101BC00039F0EA5EFD4F40833093970220939602EE
:101BD000FF91EF91BF91AF919F918F917F916F9105
:101BE0005F914F913F912F910F900FBE0F901F90DB
:101BF0001895AF92BF92CF92DF92EF92FF920F9320
:101C00001F93CF93DF936C017A018B01DC01149653
:101C1000AD90BC901597CB01BA0122E030E040E0D6
:101C200050E00E94E712205C3D4B404F5F4FCA01DD
:101C3000B901A80197010E94E712C901DA010197D1
:101C4000A109B109292F3A2F4B2F552747FD5A9546
:101C50000196A11DB11DE5012883E601EE81FF81FA
:101C600081508083EA85FB85208141E050E0CA01F4
:101C70000E8402C0880F991F0A94E2F7282B208354
:101C8000EA85FB852081CA010F8402C0880F991F55
:101C90000A94E2F7282B2083EA85FB858081088857
:101CA00002C0440F551F0A94E2F7842B8083DF9112
:101CB000CF911F910F91FF90EF90DF90CF90BF9049
:101CC000AF900895DC011296ED91FC911397E058C6
:101CD000FF4F8191919180589F4F20813181821BCC
:101CE000930B60E870E00E94B2120895CF93DF93E7
:101CF000DC011296ED91FC911397EF01CE57DF4F67
:101D000048815981E058FF4F80819181E058F0402F
:101D10008417950719F42FEF3FEF0CC0E40FF51F60
:101D20002081CA01019660E870E00E94B212998396
:101D3000888330E0C901DF91CF910895FC01A0852F
:101D4000B18521898C9190E0022E02C095958795EE
:101D50000A94E2F780FFF6CF0484F585E02D6083D6
:101D600008958BE591E090939B0280939A0286E11F
:101D700092E090939D0280939C0285EC90E090937A
:101D80009F0280939E0284EC90E09093A102809346
:101D9000A00280EC90E09093A3028093A20281ECD9
:101DA00090E09093A5028093A40286EC90E090933B
:101DB000A7028093A60284E08093A80283E0809328
:101DC000A90287E08093AA0285E08093AB02089580
:101DD0002F923F924F925F926F927F928F929F923B
:101DE000AF92BF92CF92DF92EF92FF920F931F9329
:101DF000DF93CF93CDB7DEB7A0970FB6F894DEBFD1
:101E00000FBECDBF1C016A017B0141155105610563
:101E1000710549F4DC01ED91FC910190F081E02D18
:101E200060E3099554C0882499245401422E552416
:101E30006624772401E010E00C0F1D1F080D191D0A
:101E4000C701B601A30192010E94C512F801608387
:101E50000894811C911CA11CB11CC701B601A301EF
:101E600092010E94C512C901DA016C017D01C11401
:101E7000D104E104F104F1F681E0E82EF12CEC0E3E
:101E8000FD1EE80CF91C3E010894611C711CD50173
:101E9000C4010197A109B1096C01C818D90814C07F
:101EA000F601EE0DFF1D60816A3010F4605D01C027
:101EB000695CD101ED91FC910190F081E02DC101AF
:101EC00009950894E108F1086E147F0449F7A0967B
:101ED0000FB6F894DEBF0FBECDBFCF91DF911F913B
:101EE0000F91FF90EF90DF90CF90BF90AF909F90B9
:101EF0008F907F906F905F904F903F902F900895BC
:101F0000EF92FF920F931F93CF93DF93EC017A012F
:101F10008B0177FF0FC0E881F9810190F081E02DFE
:101F20006DE2099510950095F094E094E11CF11C88
:101F3000011D111DCE01B801A7012AE00E94E80E83
:101F4000DF91CF911F910F91FF90EF900895DC01E9
:101F50002115310541F4ED91FC910190F081E02DC6
:101F6000642F099508952A30310519F40E94800FD5
:101F700008950E94E80E0895282F30E0C90180538B
:101F80009F4FFC01949124543F4FF9018491882381
:101F900091F0E82FF0E0EE0FFF1FE256FF4FA59102
:101FA000B491662329F48C91909589238C9308959C
:101FB0008C91892B8C930895482F50E0CA018C5145
:101FC0009F4FFC012491CA0180539F4FFC019491C3
:101FD00044545F4FFA0134913323D1F1222331F17C
:101FE000233021F4809180008F7705C0243031F4B4
:101FF000809180008F7D8093800018C0213019F47B
:1020000084B58F7704C0223021F484B58F7D84BDE0
:102010000DC0263021F48091B0008F7705C02730A5
:1020200029F48091B0008F7D8093B000E32FF0E021
:10203000EE0FFF1FE855FF4FA591B491662329F4D9
:102040008C91909589238C9308958C91892B8C93F6
:102050000895682F70E0CB018C519F4FFC012491B3
:10206000CB0180539F4FFC01449164547F4FFB018F
:102070009491992319F420E030E038C0222331F103
:10208000233021F4809180008F7705C0243031F413
:10209000809180008F7D8093800018C0213019F4DA
:1020A00084B58F7704C0223021F484B58F7D84BD40
:1020B0000DC0263021F48091B0008F7705C0273005
:1020C00029F48091B0008F7D8093B000892F90E03B
:1020D000880F991F8E549F4FFC01A591B4918C914C
:1020E00020E030E0842311F021E030E0C9010895C0
:1020F0005058BB27AA270ED075C166D130F06BD1DE
:1021000020F031F49F3F11F41EF45BC10EF4E09512
:10211000E7FB51C1E92F77D180F3BA176207730744
:102120008407950718F071F49EF58FC10EF4E095C1
:102130000B2EBA2FA02D0B01B90190010C01CA0181
:10214000A0011124FF27591B99F0593F50F4503E2C
:1021500068F11A16F040A22F232F342F4427585F1E
:10216000F3CF469537952795A795F0405395C9F736
:102170007EF41F16BA0B620B730B840BBAF09150EE
:10218000A1F0FF0FBB1F661F771F881FC2F70EC08D
:10219000BA0F621F731F841F48F487957795679560
:1021A000B795F7959E3F08F0B3CF9395880F08F049
:1021B0009927EE0F979587950895D9D008F481E077
:1021C00008950CD00FC107D140F0FED030F021F4BB
:1021D0005F3F19F0F0C0511139C1F3C014D198F329
:1021E0009923C9F35523B1F3951B550BBB27AA2798
:1021F00062177307840738F09F5F5F4F220F331F0A
:10220000441FAA1FA9F333D00E2E3AF0E0E830D0D5
:1022100091505040E695001CCAF729D0FE2F27D0D8
:10222000660F771F881FBB1F261737074807AB07A6
:10223000B0E809F0BB0B802DBF01FF2793585F4F1B
:102240002AF09E3F510568F0B6C000C15F3FECF335
:10225000983EDCF3869577956795B795F7959F5FE0
:10226000C9F7880F911D9695879597F90895E1E034
:10227000660F771F881FBB1F621773078407BA0793
:1022800020F0621B730B840BBA0BEE1F88F7E095EE
:10229000089504D06894B111D9C00895BCD088F0D5
:1022A0009F5790F0B92F9927B751A0F0D1F0660F42
:1022B000771F881F991F1AF0BA95C9F712C0B1305D
:1022C00081F0C3D0B1E00895C0C0672F782F882770
:1022D000B85F39F0B93FCCF3869577956795B3959C
:1022E000D9F73EF490958095709561957F4F8F4F0B
:1022F0009F4F0895E89409C097FB3EF49095809510
:10230000709561957F4F8F4F9F4F9923A9F0F92FBB
:1023100096E9BB279395F695879577956795B79539
:10232000F111F8CFFAF4BB0F11F460FF1BC06F5F1F
:102330007F4F8F4F9F4F16C0882311F096E911C031
:10234000772321F09EE8872F762F05C0662371F052
:1023500096E8862F70E060E02AF09A95660F771F66
:10236000881FDAF7880F9695879597F90895990F42
:102370000008550FAA0BE0E8FEEF16161706E8074F
:10238000F907C0F012161306E407F50798F0621B70
:10239000730B840B950B39F40A2661F0232B242B45
:1023A000252B21F408950A2609F4A140A6958FEF64
:1023B000811D811D089597F99F6780E870E060E0B6
:1023C00008959FEF80EC089500240A9416161706CE
:1023D00018060906089500240A9412161306140616
:1023E00005060895092E0394000C11F4882352F079
:1023F000BB0F40F4BF2B11F460FF04C06F5F7F4F31
:102400008F4F9F4F089557FD9058440F551F59F017
:102410005F3F71F04795880F97FB991F61F09F3FD1
:1024200079F087950895121613061406551FF2CFFA
:102430004695F1DF08C0161617061806991FF1CF4A
:1024400086957105610508940895E894BB27662771
:102450007727CB0197F908958ADF08F48FEF089565
:102460000BD0C0CFB1DF28F0B6DF18F0952309F00C
:10247000A2CFA7CF1124EACFC6DFA0F3959FD1F357
:10248000950F50E0551F629FF001729FBB27F00D22
:10249000B11D639FAA27F00DB11DAA1F649F662777
:1024A000B00DA11D661F829F2227B00DA11D621FC6
:1024B000739FB00DA11D621F839FA00D611D221F80
:1024C000749F3327A00D611D231F849F600D211D64
:1024D000822F762F6A2F11249F5750408AF0E1F007
:1024E00088234AF0EE0FFF1FBB1F661F771F881F50
:1024F00091505040A9F79E3F510570F05CCFA6CF98
:102500005F3FECF3983EDCF3869577956795B7953A
:10251000F795E7959F5FC1F7FE2B880F911D969564
:10252000879597F90895629FD001739FF001829F6C
:10253000E00DF11D649FE00DF11D929FF00D839F52
:10254000F00D749FF00D659FF00D9927729FB00DEF
:10255000E11DF91F639FB00DE11DF91FBD01CF0102
:102560001124089597FB092E07260AD077FD04D081
:1025700049D006D000201AF4709561957F4F0895D8
:10258000F6F7909581959F4F0895A1E21A2EAA1B08
:10259000BB1BFD010DC0AA1FBB1FEE1FFF1FA21713
:1025A000B307E407F50720F0A21BB30BE40BF50B10
:1025B000661F771F881F991F1A9469F76095709599
:1025C000809590959B01AC01BD01CF01089597FBCB
:1025D000092E05260ED057FD04D0D7DF0AD0001CE7
:1025E00038F450954095309521953F4F4F4F5F4FB0
:1025F0000895F6F790958095709561957F4F8F4F70
:102600009F4F0895AA1BBB1B51E107C0AA1FBB1F08
:10261000A617B70710F0A61BB70B881F991F5A956E
:10262000A9F780959095BC01CD010895EE0FFF1F8D
:0C2630000590F491E02D0994F894FFCF80
:10263C00010049033600FF006B00D100A000B80078
:10264C00D500A6000A0199003F018E007401840098
:10265C00A9017C00DE01740013026C0048026500C5
:10266C007D025D00B2025600E7024E001C034600DC
:10267C0051033D0086033200BB032200F00303002C
:0E268C00010064000A0001000000009E0E0024
:00000001FF
