:100000000C947E000C94E40A0C94110B0C94A60042
:100010000C94A6000C94A6000C94A6000C94A600C8
:100020000C94A6000C94A6000C94A6000C94580402
:100030000C94A6000C94A6000C94A6000C94A600A8
:100040000C943E0B0C94A6000C94970C0C94A600F8
:100050000C94A6000C94A6000C94A6000C94A60088
:100060000C94A6000C94A6004D07F4085B076407E7
:100070006E077A078607FD07110824083708640809
:100080007F088C089908A808BA08BE08C308C808E1
:10009000C8084709D5084709F408F7081B090000F4
:1000A0000000240027002A0000000000250028008E
:1000B0002B00000000002300260029000404040493
:1000C0000404040402020202020203030303030302
:1000D00001020408102040800102040810200102DF
:1000E00004081020000000070002010000030406BD
:1000F000000000000000000035048C0D11241FBE1C
:10010000CFEFD4E0DEBFCDBF11E0A0E0B1E0EAE187
:10011000F3E202C005900D92A236B107D9F712E0C2
:10012000A2E6B1E001C01D92A539B107E1F710E0E8
:10013000CCEFD0E004C02297FE010E948711C83F97
:10014000D107C9F70E947B0A0C948B110C94000014
:10015000FC0110828FEF81830895EF92FF920F933D
:100160001F93CF93DF93EC019B0177FF03C020E047
:1001700030E005C0653B710514F024EB30E02983C5
:10018000EA806B8170E06E197109882777FD809590
:10019000982F982F872F762F662730E040E050E089
:1001A0000E94021124EB30E040E050E00E94561122
:1001B000FF2400E010E0102F0F2DFE2CEE24E20EA5
:1001C000F31E041F151FC801B70128E030E040E00E
:1001D00050E00E94561188818D3029F430938900B7
:1001E0002093880006C08C3021F430938B0020933C
:1001F0008A00DF91CF911F910F91FF90EF900895AA
:10020000CF93DF93EC0188818D3059F41092620115
:10021000809180008F73809380008DE060E00E9469
:10022000970E88818C3059F4109263018091800080
:100230008F7C809380008CE060E00E94970EDF91BD
:10024000CF910895CF93DF93EC01FB01CB010C9785
:10025000029710F080E054C0CA0160E170E00E9493
:1002600021116A83C90160E170E00E9421116B8352
:10027000E8838FEF89838E2F60E00E94B70E88811C
:1002800061E00E94970E80916201882311F58091B0
:1002900063018823F1F42FB7F89482E08093800003
:1002A0008AE18093810088EB9BE0909389008093A2
:1002B000880090938B0080938A0080E49CE990935F
:1002C00087008093860080916F00887F80936F0005
:1002D0002FBF88818D3041F481E08093620180914D
:1002E00080008F73806809C08C3049F481E080936E
:1002F0006301809180008F7C80628093800081E028
:10030000DF91CF91089540E252E020E639E00E946B
:1003100022010895DC0113961C92139708C0FD0179
:10032000E80FF11D14828F5F13968C931397139629
:100330008C911397803298F395961C92959708C0EC
:10034000FD01E80FF11D16A28F5F95968C9395978E
:1003500095968C919597803298F311961C921E92E7
:10036000A95BBF4F81E090E011969C938E93A754B8
:10037000B04012961C92129713961C921397949663
:100380001C92949795961C929597AA5BBF4F1C92CE
:100390000895FC01E75BFF4F71836083E954F040EF
:1003A000CF010E948A010895CF93DF93EC01288149
:1003B00039812115310541F4653D09F046C00E949F
:1003C0008A0181E090E03FC02130310561F46A8309
:1003D0001B8282E090E099838883613208F435C003
:1003E000C95BDF4F2EC022303105F9F49B818A8131
:1003F0009817A0F48CA1862728E03CE880FB86951E
:100400000EF483272A95D1F78CA3903220F4FE01B5
:10041000E90FF11D64838B818F5F8B839B818A81C0
:10042000981798F083E090E00EC02330310569F40E
:100430008CA1861731F0C95BDF4F39832883C754FD
:10044000D04084E090E099838883DF91CF91089534
:10045000FC0120E080819181049709F421E0822F42
:100460000895FC01E95BFF4F82E090E09183808377
:1004700008956F927F928F929F92AF92BF92DF9278
:10048000EF92FF920F931F93CF93DF93EC0196E4CB
:10049000A92EB12CAC0EBD1E8E01095B1F4FD801D9
:1004A0009C9180E0892798E02CE880FB86950EF4EB
:1004B00082279A95D1F7F501808389E4E82EF12C03
:1004C000EC0EFD1ED701ED91FC9185ED09958DA1F6
:1004D000D701ED91FC918F5F0995D701ED91FC91CA
:1004E000D8018C910995DD24450137011AC08E0190
:1004F0000D0D111DD301ED91FC91D80196968C91B3
:100500000995F4018081D80196969C91892798E0FD
:100510002CE880FB86950EF482279A95D1F780838C
:10052000D3948DA1D81618F3D701ED91FC91D50184
:100530008C910995CE010E948A01DF91CF911F9184
:100540000F91FF90EF90DF90BF90AF909F908F90B2
:100550007F906F900895DC01952F95968C919597DB
:10056000803240F4FD01E80FF11D46A38F5F9596A0
:100570008C93959795968C919597803240F4FD01D8
:10058000E80FF11D96A38F5F95968C939597AB011D
:1005900066277727952F95968C919597803240F412
:1005A000FD01E80FF11D46A38F5F95968C939597FB
:1005B00095968C919597803238F4FD01E80FF11DE6
:1005C00096A38F5F95968C930895DC0195968C91F8
:1005D0009597803240F4FD01E80FF11D66A38F5F0F
:1005E00095968C93959795968C919597803238F443
:1005F000FD01E80FF11D76A38F5F95968C9308950A
:10060000DC0195968C919597803238F4FD01E80FC6
:10061000F11D66A38F5F95968C930895FC01E60FFC
:10062000F11D84810895FC016F5FDC01A60FB11DEF
:10063000615014969C9180E0E60FF11D248130E01A
:10064000282B392BC90108950F931F938C01862FF6
:100650008E5F6D5FF801E60FF11D348120E0F80137
:10066000E80FF11D848190E0282B392B40E050E009
:10067000A901332722276250F801E60FF11D6150CE
:10068000948180E0060F111DF801648170E0862BD3
:10069000972BA0E0B0E0282B392B4A2B5B2BB9011C
:1006A000CA011F910F910895F999FECF72BD61BDE6
:1006B000F89A80B50895F999FECF1FBA72BD61BD51
:1006C00040BD0FB6F894FA9AF99A0FBE08956030BB
:1006D00020E0720721E0820720E0920708F440C082
:1006E000693F2FEF720727E0820720E0920740F46E
:1006F00053E096958795779567955A95D1F730C0D1
:10070000613C2FEF72072FE3820720E0920740F44D
:1007100046E096958795779567954A95D1F720C0DD
:1007200061302FEF72072FEF820720E0920730F43D
:10073000BB27A92F982F872FBC0112C061302CEF47
:1007400072072FEF820723E0920718F06FEF7FEF19
:1007500007C02AE096958795779567952A95D1F7F2
:10076000CB010895EF92FF920F931F937B018C01B1
:100770000E946703909389008093880080E0E816C8
:1007800080E0F80681E0080780E0180710F491E0A7
:1007900022C089EFE8168FEFF80687E0080780E0AF
:1007A000180710F492E017C081ECE8168FEFF806F6
:1007B0008FE3080780E0180710F493E00CC081E095
:1007C000E8168FEFF8068FEF080780E0180710F0A3
:1007D00095E001C094E080918100887F8093810042
:1007E00080918100982B909381001F910F91FF9031
:1007F000EF900895CF93DF93E0E8F0E01082A1E856
:10080000B0E01C92109282002FE630E0E9011882DD
:100810008C918F7E8C938C9188608C9380818D7F5E
:10082000808380818E7F808380818F7780838081A9
:100830008F7B808380818F7D808380818F7E80838A
:100840008C91887F8C938C9185608C938FEF9FEF38
:10085000909389008093880088818F7D8883888128
:100860008D7F8883DF91CF9108958FE891E00E947A
:10087000A80083E991E00E94A8008DE991E062E878
:100880007AE00E94C90108958FE060E00E94B70EEF
:1008900008958FE061E00E94B70E08958CE060E05B
:1008A0000E94B70E08958CE061E00E94B70E089593
:1008B0001F920F920FB60F9211242F933F934F93D5
:1008C0005F936F937F938F939F93AF93BF93EF93B8
:1008D000FF938091740190917501892B49F4809167
:1008E000E80190E0019768E070E00E94211106C0E5
:1008F0008091E80190E00196877090708093E80104
:100900008091E80161E070E002C0660F771F8A9570
:10091000E2F7637C87E00E94B70E2091E80189E945
:1009200090E002C0959587952A95E2F780FF03C075
:100930006091ED0102C06091EE0185E070E00E94DF
:100940003E0C8091E80161E070E002C0660F771F05
:100950008A95E2F7607F88E00E94B70E2091E80157
:1009600086E690E002C0959587952A95E2F780FF8C
:1009700003C06091ED0102C06091EE0186E070E07D
:100980000E943E0CFF91EF91BF91AF919F918F918B
:100990007F916F915F914F913F912F910F900FBE7B
:1009A0000F901F901895809182019091830100977C
:1009B00031F486E060E070E00E943E0C08950197FB
:1009C00071F4109298011092970180916F008F7DC1
:1009D00080936F0080916F008D7F80936F000895EA
:1009E00080918201909183010097A1F4809184010C
:1009F00090918501892B19F488E061E002C088E0BC
:100A000060E00E94B70E6091860186E070E00E946F
:100A10003E0C08950197D9F4109298011092970115
:100A200060918701709188018091890190918A017C
:100A300020E130E040E050E00E945611CA01B901C7
:100A40000E94B20380916F00826080936F000895CE
:100A50008091720190917301009779F485E060E0D4
:100A600070E00E943E0C8091740190917501892B79
:100A700051F581E080937F0108958130910579F4EB
:100A8000109298011092970180916F008F7D809352
:100A90006F0080916F008D7F80936F0008950297A3
:100AA00091F480916F008F7D80936F0080916F0033
:100AB0008D7F80936F0085E060E00E94B70E86E036
:100AC00060E00E94B70E08958091720190917301C9
:100AD0000097B1F410927F0180917401909175019B
:100AE000892B19F487E061E002C087E060E00E9492
:100AF000B70E6091760185E070E00E943E0C08958B
:100B000081309105F1F41092980110929701809133
:100B10006F008F7D80936F0080916F008D7F809339
:100B20006F006091770170917801809179019091C7
:100B30007A010E94B20380916F00826080936F00FF
:100B40000895029779F46091E9017091EA0180912A
:100B5000EB019091EC010E94B20380916F008260E2
:100B600080936F00089582EC90E00197F1F780E1A7
:100B700061E00E94B70E82E290E00197F1F78DE903
:100B800091E00E94390280E160E00E94B70E089572
:100B90000F931F93CF93DF93082FC0E0D0E010E0B6
:100BA000802F0E94200CC80FD91F1F5F1530C1F77E
:100BB000CE0165E070E00E942111CB01DF91CF9161
:100BC0001F910F910895CF93DF9383E00E94C80592
:100BD000AC01EEE0F1E0C1E0D0E060817181461748
:100BE00057078CF5FE013197EE0FFF1FEE0FFF1F29
:100BF000DF01A65FBE4F2D913C91E45FFE4F019057
:100C0000F081E02D421B530BCC0FDD1FCC0FDD1FFD
:100C1000C45FDE4F888199818E1B9F0B621B730B13
:100C20009C01429FC001439F900D529F900D112443
:100C30000E9421116E0F7F1F6F3F710559F054F014
:100C40006FEF70E007C021963496C431D10529F6C4
:100C500060E070E0CB01DF91CF9108950E94E30541
:100C60009C0190936D0180936C0180916E01909135
:100C70006F01281739072CF460910201709103016C
:100C80000BC080917001909171012817390734F4DD
:100C900060910001709101018BE003C08BE060E086
:100CA00070E00E943E0C089582E00E94040F0197BC
:100CB00031F483E00E94040F892B31F40BC083E0F0
:100CC0000E94040F892B31F4809197019091980133
:100CD000019705C08091970190919801019690939A
:100CE00098018093970108951092730110927201F8
:100CF0001092750110927401109276011092770192
:100D0000109278011092790110927A0110927B0171
:100D100010927C0110927D0110927E01109283014D
:100D20001092820110928501109284011092860126
:100D300010928701109288011092890110928A0105
:100D400010928B0110928C0110928D0110928E01E5
:100D50008FE891E00E94000183E991E00E94000188
:100D6000109298011092970110929A011092990195
:100D700010929C0110929B0181E090E090930501FC
:100D80008093040184E690E090930701809306012C
:100D90008AE090E0909309018093080182E060E08E
:100DA0000E94970E83E060E00E94970E82E061E06F
:100DB0000E94B70E83E061E00E94B70E80E064E518
:100DC00076E041E050E00E94C10A85E061E00E94C7
:100DD000970E86E061E00E94970E87E061E00E9436
:100DE000970E88E061E00E94970E85E060E00E9427
:100DF000B70E86E060E00E94B70E87E061E00E94D7
:100E0000B70E88E061E00E94B70E8BE061E00E94BF
:100E1000970E8CE061E00E94970E8FE061E00E94E7
:100E2000970E8BE060E00E94B70E8CE060E00E94BD
:100E3000B70E8FE060E00E94B70E8DE061E00E9487
:100E4000970E8DE060E00E94B70E10926F01109235
:100E50006E0110927101109270010E94FA030895C0
:100E600010926B010E9474060895FF920F931F93D6
:100E7000CF93DF938DE991E061E00E940E03E82FAC
:100E8000F0E0EB31F10508F002C2EC5CFF4FEE0F31
:100E9000FF1F0590F491E02D09948DE991E062E047
:100EA0000E94130390936601809365018DE991E0A0
:100EB00069E670E006C060916C0170916D018DE98A
:100EC00091E00E94E502E3C18DE991E062E00E94B9
:100ED000130390936F0180936E01D9C11092730137
:100EE000109272018DE991E062E00E940E038093FE
:100EF0007601CDC110928301109282018DE991E0BB
:100F000062E00E940E0380938601C1C18DE991E0E9
:100F100062E00E94240324E0660F771F881F991F58
:100F20002A95D1F7609377017093780180937901C6
:100F300090937A0182E090E0909373018093720124
:100F400060917701709178018091790190917A0197
:100F500020E931E040E050E00E945611C901DA0179
:100F60008093E9019093EA01A093EB01B093EC0127
:100F7000809176018093ED016091760170E080E0D0
:100F800090E00E94E90F2DEC3CEC4CEC5EE30E94FB
:100F90009F1020E030E040E050E00E949B1088234A
:100FA000A4F06091760170E080E090E00E94E90F8B
:100FB0002DEC3CEC4CEC5EE30E949F1020E030E016
:100FC00040E05FE30E94540F13C06091760170E02F
:100FD00080E090E00E94E90F2DEC3CEC4CEC5EE3ED
:100FE0000E949F1020E030E040E05FE30E94530F3A
:100FF0000E94B80F6093EE014AC181E090E09093A7
:101000008301809382018DE991E062E00E942403D4
:1010100060938701709388018093890190938A017E
:1010200036C18DE991E062E00E940E0380FF05C0A9
:1010300010927501109274012AC181E090E09093A2
:1010400075018093740123C18DE991E062E00E94F3
:101050000E0380FF05C0109285011092840117C114
:1010600081E090E0909385018093840110C18DE927
:1010700091E062E00E940E03282F81FF05C01092CC
:1010800075011092740106C081E090E090937501A3
:101090008093740120FF15C00E9464052091800197
:1010A00030918101121613063CF4B901882777FDAF
:1010B0008095982F0E94BC0B1092810110928001A4
:1010C000E6C00E942805E3C08DE991E062E00E943D
:1010D0000E03282F81FF05C0109285011092840114
:1010E00006C081E090E0909385018093840120FF09
:1010F00003C00E94F004CBC00E94D304C8C08DE995
:1011000091E062E00E940E0380FF03C00E9453043E
:10111000BEC00E944E04BBC08DE991E062E00E9417
:101120000E0380FF03C00E944904B1C00E94440422
:10113000AEC08FE891E069E070E00E9483018DE924
:1011400091E062E00E940E03682F8FE891E00EC0EC
:1011500083E991E06AE070E00E9483018DE991E00B
:1011600062E00E940E03682F83E991E070E00E9424
:10117000AD008DC08DE991E06FEF87C06091760181
:101180008DE991E082C08DE991E0609186017DC09A
:1011900040917B0150917C0160917D0170917E01B5
:1011A0008DE991E00E94AB0272C010E060916E0187
:1011B00070916F01882777FD8095982F0E94EB0F23
:1011C00023E333E343E75FE30E949F100E94B80FDD
:1011D00020916C0130916D01621773070CF411E0DE
:1011E0008DE991E0612F51C00E94300750C08DE918
:1011F00091E062E00E941303F82E192F8DE991E02F
:1012000064E00E940E03082F813140F58F2D912F4D
:101210009C01E9010BC084E691E0BE010E945403E9
:10122000682F8DE991E00E94000321969E012F19FD
:10123000201788F32CC08DE991E062E00E9413032F
:10124000EC018DE991E064E00E940E03082F8131EA
:1012500028F415E095E0F92EF80E12C08DE991E022
:101260000E94310214C08DE991E0612F0E940E03AB
:10127000482F84E691E0BE010E945B031F5F219628
:101280001F1589F78DE991E0602F0E940003DF911F
:10129000CF911F910F91FF900895EF92FF920F93BE
:1012A0001F9383E892E00E943D0D882309F466C0F5
:1012B0000E94AE0B7B018C0184E690E0A0E0B0E0E0
:1012C000E80EF91E0A1F1B1F2AC083E892E00E9445
:1012D0003D0D8823E9F08DE061E00E94B70E83E8C0
:1012E00092E00E94510D682F8DE991E00E94D40197
:1012F0000E94AE0B7B018C0184E690E0A0E0B0E0A0
:10130000E80EF91E0A1F1B1F8DE060E00E94B70E59
:101310000E94AE0B6E157F058007910778F58DE969
:1013200091E00E942802882381F28DE991E00E94D9
:1013300028028823F9F08DE991E060E00E940E0315
:101340008823C1F40E9435070E94B305809167018C
:1013500090916801A0916901B0916A010196A11D67
:10136000B11D8093670190936801A0936901B093C8
:101370006A0104C08DE991E00E948A011F910F91DA
:10138000FF90EF900895FF920F931F93CF93DF93F9
:101390008C01F62E80917F018823D1F1C0E0D0E04E
:1013A00034C061E070E080E090E00E94BC0B21E07E
:1013B000F21631F48091800190918101019608C06C
:1013C00082E0F81649F480918001909181010197A3
:1013D000909381018093800180918001909181019F
:1013E00097FF02C080E090E021E08D32920714F078
:1013F0008CE291E090938101809380010E944D09DD
:1014000080917F01882321F02196C017D10748F2EF
:10141000DF91CF911F910F91FF90089585E090E0AB
:1014200060E00E94C30980917F01882379F087E002
:1014300060E00E94B70E6091760185E070E00E9446
:101440003E0C8CE291E061E00E94C30980917F0133
:10145000882329F085E090E060E00E94C309809134
:101460007F01882379F087E061E00E94B70E6091E8
:10147000760185E070E00E943E0C8CE291E062E033
:101480000E94C309109281011092800180917F0116
:10149000882329F085E060E070E00E943E0C109205
:1014A0007F0108950E944D0980917F01882311F0EA
:1014B0000E940E0A80916B01882311F40E942E066F
:1014C000089584E061E00E94970E80E161E00E944F
:1014D000970E84E060E00E94B70E83E892E040E05F
:1014E00056E960E070E00E94D40C08950E94610A01
:1014F0000E94300708950E94E60B0E94760A0E941F
:10150000520AFDCFCF92DF92EF92FF920F931F937B
:10151000CF93DF93182F482F50E060E070E083E80E
:1015200092E020E030E00E94820E0E94AE0B6B0140
:101530007C018AE090E0A0E0B0E0C80ED91EEA1E6F
:10154000FB1E83E892E00E94510DEC01012F10E098
:101550000CC083E892E00E94510DEC010E94AE0B9A
:10156000C616D706E806F90618F0C017D10789F79E
:10157000DF91CF911F910F91FF90EF90DF90CF906F
:101580000895823000F5E82FF0E0EE0FFF1FE151E3
:10159000FE4F71836083882319F08130A1F408C065
:1015A000809169008C7F842B80936900E89A08956C
:1015B00080916900440F551F440F551F837F842B72
:1015C00080936900E99A08951F920F920FB60F92C7
:1015D00011242F933F934F935F936F937F938F9338
:1015E0009F93AF93BF93EF93FF938091EF019091FF
:1015F000F001892B29F0E091EF01F091F0010995BC
:10160000FF91EF91BF91AF919F918F917F916F91DA
:101610005F914F913F912F910F900FBE0F901F90B0
:1016200018951F920F920FB60F9211242F933F938C
:101630004F935F936F937F938F939F93AF93BF93DA
:10164000EF93FF938091F1019091F201892B29F0A2
:10165000E091F101F091F2010995FF91EF91BF91B5
:10166000AF919F918F917F916F915F914F913F913A
:101670002F910F900FBE0F901F9018951F920F92F1
:101680000FB60F9211242F938F939F93AF93BF9315
:101690008091F3019091F401A091F501B091F601D0
:1016A0000196A11DB11D8093F3019093F401A093C5
:1016B000F501B093F6018091F7019091F801A091A6
:1016C000F901B091FA018050904CAF4FBF4F809319
:1016D000F7019093F801A093F901B093FA0127C0A4
:1016E0008091F7019091F801A091F901B091FA0170
:1016F00080589E43A040B0408093F7019093F8013A
:10170000A093F901B093FA018091FB019091FC0143
:10171000A091FD01B091FE010196A11DB11D809324
:10172000FB019093FC01A093FD01B093FE01809119
:10173000F7019091F801A091F901B091FA01815857
:101740009E43A040B04060F6BF91AF919F918F91B2
:101750002F910F900FBE0F901F9018958FB7F89490
:101760002091FB013091FC014091FD015091FE015F
:101770008FBFB901CA010895EF92FF920F931F9393
:101780007B018C018FB7F8944091FB015091FC01D3
:101790006091FD017091FE018FBF2FB7F894809189
:1017A000FB019091FC01A091FD01B091FE012FBFC2
:1017B000841B950BA60BB70BE816F9060A071B0747
:1017C00060F71F910F91FF90EF900895789484B582
:1017D000826084BD84B5816084BD85B5826085BD2D
:1017E00085B5816085BDEEE6F0E080818160808313
:1017F000E1E8F0E080818260808380818160808385
:10180000E0E8F0E0808181608083E1EBF0E08081BE
:1018100084608083E0EBF0E0808181608083EAE790
:10182000F0E0808184608083808182608083808119
:10183000816080838081806880831092C1000895D8
:10184000877090915A019295990F990F907C982BDF
:1018500090937C0080917A00806480937A008091DC
:101860007A0086FDFCCF2091780040917900942F7A
:1018700080E030E0282B392BC90108951F93CF93C6
:10188000DF93182FEB0161E00E94970EE12FF0E04B
:10189000EC51FF4F8491833051F480918000806837
:1018A00080938000D0938900C09388003CC084302E
:1018B00051F480918000806280938000D0938B00EF
:1018C000C0938A0030C0813039F4209729F184B563
:1018D000806884BDC7BD27C0823039F42097E1F00D
:1018E00084B5806284BDC8BD1EC0863041F480913D
:1018F000B00080688093B000C093B30014C08730FC
:1019000041F48091B00080628093B000C093B40035
:101910000AC0C038D1051CF4812F60E002C0812FBD
:1019200061E00E94B70EDF91CF911F9108951F9241
:101930000F920FB60F9211242F933F934F935F9303
:101940006F937F938F939F93AF93BF93EF93FF9387
:101950004091C600E0917F02F0918002CF01019694
:1019600060E870E00E9421119C01809181029091B9
:1019700082022817390739F0E150FE4F4083309337
:10198000800220937F02FF91EF91BF91AF919F91D1
:101990008F917F916F915F914F913F912F910F9018
:1019A0000FBE0F901F901895AF92BF92CF92DF920B
:1019B000EF92FF920F931F93CF93DF936C017A0105
:1019C0008B01DC011496AD90BC901597CB01BA0148
:1019D00022E030E040E050E00E945611205C3D4B98
:1019E000404F5F4FCA01B901A80197010E945611EB
:1019F000C901DA010197A109B109292F3A2F4B2F0B
:101A0000552747FD5A950196A11DB11DE501288373
:101A1000E601EE81FF8181508083EA85FB8520818C
:101A200041E050E0CA010E8402C0880F991F0A9459
:101A3000E2F7282B2083EA85FB852081CA010F84E9
:101A400002C0880F991F0A94E2F7282B2083EA85A9
:101A5000FB858081088802C0440F551F0A94E2F775
:101A6000842B8083DF91CF911F910F91FF90EF9096
:101A7000DF90CF90BF90AF900895DC011296ED916A
:101A8000FC911397E058FF4F8191919180589F4F9F
:101A900020813181821B930B60E870E00E9421114C
:101AA0000895CF93DF93DC011296ED91FC9113978B
:101AB000EF01CE57DF4F48815981E058FF4F8081B9
:101AC0009181E058F0408417950719F42FEF3FEF0C
:101AD0000CC0E40FF51F2081CA01019660E870E098
:101AE0000E9421119983888330E0C901DF91CF9151
:101AF0000895FC01A085B18521898C9190E0022E8A
:101B000002C0959587950A94E2F780FFF6CF04848A
:101B1000F585E02D608308958FE591E09093840230
:101B2000809383028FEF91E09093860280938502E9
:101B300085EC90E0909388028093870284EC90E09B
:101B400090938A028093890280EC90E090938C02BB
:101B500080938B0281EC90E090938E0280938D02B3
:101B600086EC90E09093900280938F0284E08093C3
:101B7000910283E08093920287E08093930285E054
:101B80008093940208952F923F924F925F926F92AA
:101B90007F928F929F92AF92BF92CF92DF92EF92FD
:101BA000FF920F931F93DF93CF93CDB7DEB7A0972C
:101BB0000FB6F894DEBF0FBECDBF1C016A017B01DA
:101BC000411551056105710549F4DC01ED91FC9168
:101BD0000190F081E02D60E3099554C08824992498
:101BE0005401422E55246624772401E010E00C0FA6
:101BF0001D1F080D191DC701B601A30192010E9406
:101C00003411F80160830894811C911CA11CB11C43
:101C1000C701B601A30192010E943411C901DA0182
:101C20006C017D01C114D104E104F104F1F681E0FD
:101C3000E82EF12CEC0EFD1EE80CF91C3E01089478
:101C4000611C711CD501C4010197A109B1096C0186
:101C5000C818D90814C0F601EE0DFF1D60816A3066
:101C600010F4605D01C0695CD101ED91FC910190BF
:101C7000F081E02DC10109950894E108F1086E1486
:101C80007F0449F7A0960FB6F894DEBF0FBECDBF14
:101C9000CF91DF911F910F91FF90EF90DF90CF9048
:101CA000BF90AF909F908F907F906F905F904F907C
:101CB0003F902F900895EF92FF920F931F93CF9331
:101CC000DF93EC017A018B0177FF0FC0E881F98186
:101CD0000190F081E02D6DE2099510950095F0944A
:101CE000E094E11CF11C011D111DCE01B801A701FA
:101CF0002AE00E94C30DDF91CF911F910F91FF90B9
:101D0000EF900895DC012115310541F4ED91FC912E
:101D10000190F081E02D642F099508952A30310556
:101D200019F40E945B0E08950E94C30D0895282F98
:101D300030E0C90180539F4FFC01949124543F4FE0
:101D4000F9018491882391F0E82FF0E0EE0FFF1F56
:101D5000E256FF4FA591B491662329F48C9190959A
:101D600089238C9308958C91892B8C930895482F07
:101D700050E0CA018C519F4FFC012491CA0180534D
:101D80009F4FFC01949144545F4FFA0134913323E7
:101D9000D1F1222331F1233021F4809180008F771B
:101DA00005C0243031F4809180008F7D80938000C5
:101DB00018C0213019F484B58F7704C0223021F483
:101DC00084B58F7D84BD0DC0263021F48091B00094
:101DD0008F7705C0273029F48091B0008F7D8093E4
:101DE000B000E32FF0E0EE0FFF1FE855FF4FA59185
:101DF000B491662329F48C91909589238C9308954E
:101E00008C91892B8C930895682F70E0CB018C51B5
:101E10009F4FFC012491CB0180539F4FFC014491C3
:101E200064547F4FFB019491992319F420E030E032
:101E300038C0222331F1233021F4809180008F7744
:101E400005C0243031F4809180008F7D8093800024
:101E500018C0213019F484B58F7704C0223021F4E2
:101E600084B58F7D84BD0DC0263021F48091B000F3
:101E70008F7705C0273029F48091B0008F7D809343
:101E8000B000892F90E0880F991F8E549F4FFC015E
:101E9000A591B4918C9120E030E0842311F021E0F1
:101EA00030E0C90108955058BB27AA270ED009C1B8
:101EB000FAD030F0FFD020F031F49F3F11F41EF43F
:101EC000EFC00EF4E095E7FBE5C0E92F0BD180F3FE
:101ED000BA17620773078407950718F071F49EF527
:101EE00023C10EF4E0950B2EBA2FA02D0B01B901E2
:101EF00090010C01CA01A0011124FF27591B99F080
:101F0000593F50F4503E68F11A16F040A22F232F8B
:101F1000342F4427585FF3CF469537952795A795DB
:101F2000F0405395C9F77EF41F16BA0B620B730B82
:101F3000840BBAF09150A1F0FF0FBB1F661F771FF3
:101F4000881FC2F70EC0BA0F621F731F841F48F4A8
:101F5000879577956795B795F7959E3F08F0B3CF2E
:101F60009395880F08F09927EE0F97958795089518
:101F700004D06894B111D9C00895BCD088F09F579F
:101F800090F0B92F9927B751A0F0D1F0660F771FC5
:101F9000881F991F1AF0BA95C9F712C0B13081F0A5
:101FA000C3D0B1E00895C0C0672F782F8827B85FED
:101FB00039F0B93FCCF3869577956795B395D9F706
:101FC0003EF490958095709561957F4F8F4F9F4F10
:101FD0000895E89409C097FB3EF49095809570951C
:101FE00061957F4F8F4F9F4F9923A9F0F92F96E965
:101FF000BB279395F695879577956795B795F111DA
:10200000F8CFFAF4BB0F11F460FF1BC06F5F7F4F76
:102010008F4F9F4F16C0882311F096E911C0772388
:1020200021F09EE8872F762F05C0662371F096E891
:10203000862F70E060E02AF09A95660F771F881F60
:10204000DAF7880F9695879597F90895990F000804
:10205000550FAA0BE0E8FEEF16161706E807F9077A
:10206000C0F012161306E407F50798F0621B730B15
:10207000840B950B39F40A2661F0232B242B252B96
:1020800021F408950A2609F4A140A6958FEF811D39
:10209000811D089597F99F6780E870E060E00895DA
:1020A0009FEF80EC089500240A9416161706180670
:1020B0000906089500240A9412161306140605064C
:1020C0000895092E0394000C11F4882352F0BB0FDD
:1020D00040F4BF2B11F460FF04C06F5F7F4F8F4F40
:1020E0009F4F089557FD9058440F551F59F05F3F7B
:1020F00071F04795880F97FB991F61F09F3F79F02A
:1021000087950895121613061406551FF2CF4695AB
:10211000F1DF08C0161617061806991FF1CF86952D
:102120007105610508940895E894BB276627772711
:10213000CB0197F908958ADF08F48FEF08950BD04B
:10214000C0CFB1DF28F0B6DF18F0952309F0A2CF99
:10215000A7CF1124EACFC6DFA0F3959FD1F3950F47
:1021600050E0551F629FF001729FBB27F00DB11D1B
:10217000639FAA27F00DB11DAA1F649F6627B00DAB
:10218000A11D661F829F2227B00DA11D621F739F94
:10219000B00DA11D621F839FA00D611D221F749FA2
:1021A0003327A00D611D231F849F600D211D822FE9
:1021B000762F6A2F11249F5750408AF0E1F0882330
:1021C0004AF0EE0FFF1FBB1F661F771F881F91503D
:1021D0005040A9F79E3F510570F05CCFA6CF5F3FFE
:1021E000ECF3983EDCF3869577956795B795F79570
:1021F000E7959F5FC1F7FE2B880F911D96958795F8
:1022000097F90895629FD001739FF001829FE00DBE
:10221000F11D649FE00DF11D929FF00D839FF00D65
:10222000749FF00D659FF00D9927729FB00DE11D11
:10223000F91F639FB00DE11DF91FBD01CF011124EE
:10224000089597FB092E07260AD077FD04D049D0C0
:1022500006D000201AF4709561957F4F0895F6F727
:10226000909581959F4F0895A1E21A2EAA1BBB1B42
:10227000FD010DC0AA1FBB1FEE1FFF1FA217B30752
:10228000E407F50720F0A21BB30BE40BF50B661F68
:10229000771F881F991F1A9469F76095709580952C
:1022A00090959B01AC01BD01CF01089597FB092ECC
:1022B00005260ED057FD04D0D7DF0AD0001C38F415
:1022C00050954095309521953F4F4F4F5F4F089562
:1022D000F6F790958095709561957F4F8F4F9F4F42
:1022E0000895AA1BBB1B51E107C0AA1FBB1FA6175D
:1022F000B70710F0A61BB70B881F991F5A95A9F7AF
:1023000080959095BC01CD010895EE0FFF1F0590BB
:0A231000F491E02D0994F894FFCF3A
:10231A004000FF00010064000A0001004903360082
:10232A00FF006B00D100A000B800D500A6000A018A
:10233A0099003F018E0074018400A9017C00DE012E
:10234A00740013026C00480265007D025D00B2024F
:10235A005600E7024E001C03460051033D00860367
:10236A003200BB032200F0030300010000000079E1
:02237A000D0054
:00000001FF
