:100000000C9484000C9416080C9443080C94AC00D7
:100010000C94AC000C94AC000C94AC000C94AC00B0
:100020000C94AC000C94AC000C94AC000C948317B2
:100030000C94AC000C94AC000C94AC000C94AC0090
:100040000C94E7080C94AC000C945D0A0C94AC0082
:100050000C94AC000C94AC000C94AC000C94AC0070
:100060000C94AC000C94AC001914A6152714311490
:10007000481454146014D714EB14FE1411153E15D3
:100080005915F9156615751587158B158E15931568
:100090009315F915A015F915A615A915CD15F9157E
:1000A000F915F9153A143D1400000000240027004A
:1000B0002A0000000000250028002B00000000009E
:1000C000230026002900040404040404040402029A
:1000D00002020202030303030303010204081020C7
:1000E00040800102040810200102040810200000D2
:1000F00000070002010000030406000000000000E9
:100100000000E20BFA136C1811241FBECFEFD4E0ED
:10011000DEBFCDBF12E0A0E0B1E0EEE6F2E302C048
:1001200005900D92AA36B107D9F713E0AAE6B2E01E
:1001300001C01D92A63EB107E1F711E0C8E0D1E091
:1001400004C02297FE010E943119C230D107C9F7BD
:100150000E94EC070C9435190C940000A0E0B0E06C
:10016000E4EBF0E00C94F818DC012B01FA019C910F
:10017000923008F439C1EB018881823008F433C130
:10018000943069F4843009F02FC111969C91119735
:100190008981981709F428C1A0E0B1E025C1843015
:1001A00009F421C18230A9F4923009F01DC19A01ED
:1001B000AD0188E0EA010990AE01E90109929E01D2
:1001C0008150C1F7E201898111969C918923818335
:1001D00008C1923009F407C112962D903C901397F4
:1001E000EB018A819B811496AD90BD90CD90DC90FF
:1001F0001797EC80FD800E811F819101281B390B20
:10020000B90137FF04C066277727621B730B603282
:1002100071050CF061C0121613066CF53701480128
:10022000062E04C096948794779467940A94D2F724
:1002300021E030E040E050E004C0220F331F441FB3
:10024000551F6A95D2F721503040404050402E2132
:100250003F2140235123211531054105510521F04E
:1002600021E030E040E050E079018A01E628F728FB
:10027000082919293CC0232BD1F1260E371E350140
:100280004601062E04C096948794779467940A9446
:10029000D2F721E030E040E050E004C0220F331FED
:1002A000441F551F6A95D2F72150304040405040BE
:1002B0002A213B214C215D212115310541055105A4
:1002C00021F021E030E040E050E059016A01A62829
:1002D000B728C828D9280BC0821593052CF01C011B
:1002E000AA24BB24650103C0EE24FF2487011196D4
:1002F0009C91D20111968C91981709F445C09923CD
:1003000039F0A80197012A193B094C095D0906C07B
:10031000A60195012E193F09400B510B57FD08C04E
:1003200011823382228224833583468357831DC002
:1003300081E081833382228288279927DC01821B16
:10034000930BA40BB50B84839583A683B7830DC051
:10035000220F331F441F551F248335834683578341
:1003600082819381019793838283248135814681A1
:100370005781DA01C9010197A109B1098F5F9F4F28
:10038000AF4FBF4328F30BC0918333822282EA0C24
:10039000FB1C0C1D1D1DE482F5820683178383E080
:1003A0008083248135814681578157FF1AC0C90156
:1003B000AA2797FDA095BA2F81709070A070B07099
:1003C0005695479537952795822B932BA42BB52BC4
:1003D00084839583A683B7838281938101969383D7
:1003E0008283DF0101C0D201CD01CDB7DEB7E2E1EA
:1003F0000C941419A0E2B0E0E0E0F2E00C940419CF
:1004000069837A838B839C832D833E834F835887B4
:10041000E9E0EE2EF12CEC0EFD1ECE010196B701A7
:100420000E94DD068E010F5E1F4FCE010596B801BA
:100430000E94DD068A8991E089278A8BC701B8016D
:10044000AE01475E5F4F0E94AE000E940806A09674
:10045000E6E00C942019A0E2B0E0E1E3F2E00C94B5
:10046000041969837A838B839C832D833E834F8316
:100470005887F9E0EF2EF12CEC0EFD1ECE0101960F
:10048000B7010E94DD068E010F5E1F4FCE0105965B
:10049000B8010E94DD06C701B801AE01475E5F4F9B
:1004A0000E94AE000E940806A096E6E00C94201977
:1004B000A0E2B0E0EEE5F2E00C94F81869837A83EC
:1004C0008B839C832D833E834F835887CE01019677
:1004D000BE01675F7F4F0E94DD06CE010596BE011B
:1004E0006F5E7F4F0E94DD069985923088F0898982
:1004F0008230C8F0943019F4823051F404C0843052
:1005000029F4923081F480E091E0C6C0923049F441
:1005100020E09A858A89981321E02A87CE010996DE
:10052000BBC0823049F420E09A858A89981321E083
:100530002A8BCE014196B0C02D843E844F845888CA
:100540006D887E888F88988CEE24FF248701AA24EA
:10055000BB24650140E050E060E070E0E0E0F0E0E6
:10056000C10181709070892BE9F0E60CF71C081D21
:10057000191D9A01AB012A0D3B1D4C1D5D1D80E02C
:1005800090E0A0E0B0E0E614F7040805190520F4B7
:1005900081E090E0A0E0B0E0BA01A901480F591F46
:1005A0006A1F7B1FAA0CBB1CCC1CDD1C97FE08C05D
:1005B00081E090E0A0E0B0E0A82AB92ACA2ADB2AAC
:1005C0003196E032F10549F0660C771C881C991CC5
:1005D0005694479437942794C3CFFA85EA892B8998
:1005E0003C898B859C85280F391F2E5F3F4F17C094
:1005F000CA0181709070892B61F016950795F79468
:10060000E79480E090E0A0E0B0E8E82AF92A0A2B1D
:100610001B2B76956795579547952F5F3F4F77FD35
:10062000E7CF0CC0440F551F661F771F17FD4160B1
:10063000EE0CFF1C001F111F21503040403090E095
:10064000590790E0690790E4790760F32B8F3C8F9E
:10065000DB01CA018F779070A070B0708034910573
:10066000A105B10561F447FD0AC0E114F1040105DB
:10067000110529F0405C5F4F6F4F7F4F40781A8E15
:10068000FE1711F081E08A8F4D8F5E8F6F8F78A3F8
:1006900083E0898FCE0149960E940806A096E2E188
:1006A0000C941419A8E1B0E0E8E5F3E00C9400190B
:1006B00069837A838B839C832D833E834F83588702
:1006C000B9E0EB2EF12CEC0EFD1ECE010196B70128
:1006D0000E94DD068E010F5E1F4FCE010596B80108
:1006E0000E94DD062985223008F47EC03989323027
:1006F00010F4B8017CC08A859A8989278A872430BA
:1007000011F0223031F4231709F06EC060E071E07F
:100710006EC0343039F41D861E861F86188A1C86EA
:100720001B8604C0323021F484E08987B7015FC0A2
:100730002B853C858B899C89281B390B3C872B8713
:10074000ED84FE840F851889AD88BE88CF88D88C4B
:10075000EA14FB040C051D0540F4EE0CFF1C001F01
:10076000111F215030403C872B8720E030E040E0D3
:1007700050E080E090E0A0E0B0E460E070E0EA14D7
:10078000FB040C051D0540F0282B392B4A2B5B2B55
:10079000EA18FB080C091D09B695A795979587954A
:1007A000EE0CFF1C001F111F6F5F7F4F6F31710533
:1007B00031F7DA01C9018F779070A070B070803482
:1007C0009105A105B10561F427FD0AC0E114F1040A
:1007D0000105110529F0205C3F4F4F4F5F4F2078F6
:1007E0002D873E874F87588BBE01675F7F4FCB01B8
:1007F0000E9408066896EAE00C941C19A8E1B0E093
:10080000E4E0F4E00C94041969837A838B839C837D
:100810002D833E834F83588789E0E82EF12CEC0E20
:10082000FD1ECE010196B7010E94DD068E010F5E0E
:100830001F4FCE010596B8010E94DD0689858230E2
:1008400040F08989823028F0C701B8010E9455071D
:1008500001C08FEF6896E6E00C942019A8E1B0E0A3
:10086000E4E3F4E00C94041969837A838B839C831A
:100870002D833E834F83588789E0E82EF12CEC0EC0
:10088000FD1ECE010196B7010E94DD068E010F5EAE
:100890001F4FCE010596B8010E94DD068985823082
:1008A00040F08989823028F0C701B8010E945507BD
:1008B00001C08FEF6896E6E00C942019A8E1B0E043
:1008C000E4E6F4E00C94041969837A838B839C83B7
:1008D0002D833E834F83588789E0E82EF12CEC0E60
:1008E000FD1ECE010196B7010E94DD068E010F5E4E
:1008F0001F4FCE010596B8010E94DD068985823022
:1009000040F08989823028F0C701B8010E9455075C
:1009100001C081E06896E6E00C942019A8E0B0E000
:10092000E4E9F4E00C9401199B01AC0183E08983B4
:10093000DA01C9018827B7FD83959927AA27BB2724
:10094000B82E211531054105510519F482E089833E
:100950003AC08823A9F0203080E0380780E04807BB
:1009600080E8580729F460E070E080E09FEC30C038
:10097000EE24FF248701E21AF30A040B150B02C0D0
:1009800079018A018EE1C82ED12CDC82CB82ED82E6
:10099000FE820F831887C801B7010E94B90501972D
:1009A0001816190684F4082E04C0EE0CFF1C001F54
:1009B000111F0A94D2F7ED82FE820F831887C81A9E
:1009C000D90ADC82CB82BA82CE0101960E94080647
:1009D0002896E9E00C941D19ACE0B0E0E2EFF4E0F9
:1009E0000C94081969837A838B839C83CE010196CA
:1009F000BE016B5F7F4F0E94DD068D81823061F109
:100A0000823050F1843021F48E81882351F12EC040
:100A10002F81388537FD20C06E812F3131051CF0C4
:100A20006623F9F023C08EE190E0821B930B2985A9
:100A30003A854B855C8504C0569547953795279533
:100A40008A95D2F76623B1F050954095309521955F
:100A50003F4F4F4F5F4F0EC020E030E040E050E08E
:100A600009C02FEF3FEF4FEF5FE704C020E030E019
:100A700040E050E8B901CA012C96E2E00C94241938
:100A8000A8E0B0E0E6E4F5E00C9400197B018C01ED
:100A9000611571058105910519F482E0898360C0B3
:100AA00083E089838EE1C82ED12CDC82CB82ED825B
:100AB000FE820F831887C801B7010E94B905FC01A7
:100AC0003197F7FF3BC0222733272E1B3F0B5701DF
:100AD0006801022E04C0D694C794B794A7940A94D0
:100AE000D2F740E050E060E070E081E090E0A0E00C
:100AF000B0E004C0880F991FAA1FBB1F2A95D2F728
:100B00000197A109B1098E219F21A023B12300974C
:100B1000A105B10521F041E050E060E070E04A2914
:100B20005B296C297D294D835E836F8378878EE1F5
:100B300090E08E1B9F0B9C838B8312C0309781F0BB
:100B40000E2E04C0EE0CFF1C001F111F0A94D2F7DA
:100B5000ED82FE820F831887CE1ADF0ADC82CB82F9
:100B60001A82CE0101960E9408062896EAE00C94AB
:100B70001C19EF92FF920F931F937B018C0180E071
:100B8000E81680E0F80681E0080780E0180788F49E
:100B90008FEFE816F1040105110531F028F088E027
:100BA00090E0A0E0B0E017C080E090E0A0E0B0E00E
:100BB00012C080E0E81680E0F80680E0080781E0D7
:100BC000180728F088E190E0A0E0B0E004C080E1E0
:100BD00090E0A0E0B0E020E230E040E050E0281BF0
:100BE000390B4A0B5B0B04C016950795F794E794F5
:100BF0008A95D2F7F701E85FFE4F8081281B310903
:100C000041095109C9011F910F91FF90EF9008957B
:100C1000DF92EF92FF920F931F93FC01E480F58027
:100C200006811781D1808081823048F480E090E095
:100C3000A0E1B0E0E82AF92A0A2B1B2BA5C08430DA
:100C400009F49FC0823021F4EE24FF24870105C0FF
:100C5000E114F1040105110519F4E0E0F0E096C09B
:100C6000628173819FEF623879070CF05BC022E8E4
:100C70003FEF261B370B2A3131052CF020E030E006
:100C800040E050E02AC0B801A701022E04C07695CA
:100C90006795579547950A94D2F781E090E0A0E0D8
:100CA000B0E004C0880F991FAA1FBB1F2A95D2F776
:100CB0000197A109B1098E219F21A023B12300979B
:100CC000A105B10521F081E090E0A0E0B0E09A013B
:100CD000AB01282B392B4A2B5B2BDA01C9018F770B
:100CE0009070A070B07080349105A105B10539F401
:100CF00027FF09C0205C3F4F4F4F5F4F04C0215C6E
:100D00003F4F4F4F5F4FE0E0F0E02030A0E03A0768
:100D1000A0E04A07A0E45A0710F0E1E0F0E0790112
:100D20008A0127C06038710564F5FB01E158FF4F67
:100D3000D801C7018F779070A070B0708034910592
:100D4000A105B10539F4E7FE0DC080E490E0A0E014
:100D5000B0E004C08FE390E0A0E0B0E0E80EF91E40
:100D60000A1F1B1F17FF05C016950795F794E794F8
:100D7000319687E016950795F794E7948A95D1F711
:100D800005C0EE24FF248701EFEFF0E06E2F67959A
:100D900066276795902F9F77D794DD24D7948E2F61
:100DA0008695492F462B582F5D29B701CA011F91FF
:100DB0000F91FF90EF90DF900895FC01DB014081DF
:100DC00051812281622F6F7770E0221F2227221F1C
:100DD0009381892F880F822B282F30E0991F992724
:100DE000991F11969C93119721153105A9F541156D
:100DF00051056105710511F482E037C082E89FEF6B
:100E000013969C938E9312979A01AB0167E0220F81
:100E1000331F441F551F6A95D1F783E08C930DC093
:100E2000220F331F441F551F12968D919C911397CB
:100E3000019713969C938E931297203080E0380789
:100E400080E0480780E4580758F314962D933D93AB
:100E50004D935C93179708952F3F310579F4411511
:100E600051056105710519F484E08C93089564FFC0
:100E700003C081E08C9312C01C9210C02F573040E9
:100E800013963C932E93129783E08C9387E0440F44
:100E9000551F661F771F8A95D1F7706414964D937E
:100EA0005D936D937C93179708951F93DC01FB016D
:100EB0009C91923008F447C08081823008F443C08E
:100EC000943051F411961C91843099F58181682FEA
:100ED00070E0611B71093FC0843021F0923031F421
:100EE0008230B9F18181882389F12DC011961C913E
:100EF00011978230F1F081811817D9F412962D9153
:100F00003C911397828193818217930794F028175D
:100F10003907BCF014968D919D910D90BC91A02D38
:100F20002481358146815781281739074A075B0795
:100F300018F4112341F00AC082179307A407B507DC
:100F400040F4112319F061E070E005C06FEF7FEF0E
:100F500002C060E070E0CB011F9108950E940C1662
:100F60008091C103882311F00E940A1180915F03D0
:100F7000882341F480E693E00E94D9138AE893E045
:100F80000E94D913089584E061E00E94A10980E1E4
:100F900061E00E94A10984E060E00E94C1098BEF3A
:100FA00092E040E056E960E070E00E949A0A0895FD
:100FB0008DE061E00E94A1098DE060E00E94C1091E
:100FC00010925F030E944B180E946E1108950E94B8
:100FD000C3070E94D80708950E9467090E94E70787
:100FE0000E94AE07FDCF823000F5E82FF0E0EE0F53
:100FF000FF1FE659FD4F71836083882319F081300C
:10100000A1F408C0809169008C7F842B80936900D3
:10101000E89A089580916900440F551F440F551FA9
:10102000837F842B80936900E99A08951F920F9221
:101030000FB60F9211242F933F934F935F936F93AB
:101040007F938F939F93AF93BF93EF93FF93809181
:101050006A0290916B02892B29F0E0916A02F0916B
:101060006B020995FF91EF91BF91AF919F918F9185
:101070007F916F915F914F913F912F910F900FBE94
:101080000F901F9018951F920F920FB60F92112478
:101090002F933F934F935F936F937F938F939F9380
:1010A000AF93BF93EF93FF9380916C0290916D0289
:1010B000892B29F0E0916C02F0916D020995FF9166
:1010C000EF91BF91AF919F918F917F916F915F91C0
:1010D0004F913F912F910F900FBE0F901F90189539
:1010E0008F70909108029295990F990F907C982B90
:1010F00090937C0080917A00806480937A00809144
:101100007A0086FDFCCF2091780040917900942FE1
:1011100080E030E0282B392BC90108951F93CF932D
:10112000DF93182FEB0161E00E94A109E12FF0E0AD
:10113000E251FF4F8491833051F4809180008068A8
:1011400080938000D0938900C09388003CC0843095
:1011500051F480918000806280938000D0938B0056
:10116000C0938A0030C0813039F4209729F184B5CA
:10117000806884BDC7BD27C0823039F42097E1F074
:1011800084B5806284BDC8BD1EC0863041F48091A4
:10119000B00080688093B000C093B30014C0873063
:1011A00041F48091B00080628093B000C093B4009D
:1011B0000AC0C038D1051CF4812F60E002C0812F25
:1011C00061E00E94C109DF91CF911F9108951F92A4
:1011D0000F920FB60F9211242F933F938F939F93EB
:1011E000AF93BF938091720290917302A0917402A9
:1011F000B0917502309176020196A11DB11D232F89
:101200002D5F2D3720F02D570196A11DB11D209384
:1012100076028093720290937302A0937402B0934B
:10122000750280916E0290916F02A0917002B09150
:1012300071020196A11DB11D80936E0290936F0201
:10124000A0937002B0937102BF91AF919F918F9163
:101250003F912F910F900FBE0F901F9018958FB751
:10126000F89420917202309173024091740250916F
:1012700075028FBFB901CA010895EF92FF920F93D3
:101280001F937B018C018FB7F894409172025091AB
:10129000730260917402709175028FBF2FB7F8943A
:1012A0008091720290917302A0917402B0917502C4
:1012B0002FBF841B950BA60BB70BE816F9060A0780
:1012C0001B0760F71F910F91FF90EF90089578949E
:1012D00084B5826084BD84B5816084BD85B582603B
:1012E00085BD85B5816085BDEEE6F0E080818160D9
:1012F0008083E1E8F0E0808182608083808181608A
:101300008083E0E8F0E0808181608083E1EBF0E0C1
:10131000808184608083E0EBF0E080818160808365
:10132000EAE7F0E08081846080838081826080834E
:101330008081816080838081806880831092C10079
:101340000895282F30E0C90186529F4FFC019491E7
:101350002A533F4FF9018491882391F0E82FF0E060
:10136000EE0FFF1FE855FF4FA591B491662329F4B6
:101370008C91909589238C9308958C91892B8C93D3
:101380000895482F50E0CA0182519F4FFC012491DB
:10139000CA0186529F4FFC0194914A535F4FFA0154
:1013A00034913323D1F1222331F1233021F4809180
:1013B00080008F7705C0243031F4809180008F7DCC
:1013C0008093800018C0213019F484B58F7704C051
:1013D000223021F484B58F7D84BD0DC0263021F4E8
:1013E0008091B0008F7705C0273029F48091B0003C
:1013F0008F7D8093B000E32FF0E0EE0FFF1FEE54DF
:10140000FF4FA591B491662329F48C91909589237F
:101410008C9308958C91892B8C930895682F70E09C
:10142000CB0182519F4FFC012491CB0186529F4FEB
:10143000FC0144916A537F4FFB019491992319F465
:1014400020E030E038C0222331F1233021F48091B4
:1014500080008F7705C0243031F4809180008F7D2B
:101460008093800018C0213019F484B58F7704C0B0
:10147000223021F484B58F7D84BD0DC0263021F447
:101480008091B0008F7705C0273029F48091B0009B
:101490008F7D8093B000892F90E0880F991F84542E
:1014A0009F4FFC01A591B4918C9120E030E0842302
:1014B00011F021E030E0C90108951F920F920FB69C
:1014C0000F9211242F933F934F935F936F937F93CA
:1014D0008F939F93AF93BF93EF93FF934091C60079
:1014E000E091F702F091F802CF01019660E870E018
:1014F0000E9494189C018091F9029091FA02281799
:10150000390739F0E958FD4F40833093F8022093B2
:10151000F702FF91EF91BF91AF919F918F917F91D2
:101520006F915F914F913F912F910F900FBE0F9050
:101530001F9018955F926F927F928F929F92AF92B9
:10154000BF92CF92DF92EF92FF920F931F93CF93B0
:10155000DF93EC013A014B01413482E458078FE0FC
:10156000680780E078070CF07FC060E874E88EE1DF
:1015700090E0A40193010E94C918215030404040DE
:101580005040CA01B90122E030E040E050E00E9442
:10159000C91859016A01A601950120953095409519
:1015A000509594E0220F331F441F551F9A95D1F791
:1015B00060E074E284EF90E00E94C918CA01B901AA
:1015C0002FEF30E040E050E00E947518A401930135
:1015D0000E94C918C90181509F4F181619061CF4A2
:1015E000522E5A9403C055245394521A60E079E065
:1015F0008DE390E0A40193010E94C918215030406E
:1016000040405040CA01B90122E030E040E050E0E3
:101610000E94C918209530954095509583E0220F7F
:10162000331F441F551F8A95D1F760E074E284EFA1
:1016300090E00E94C918CA01B9012FEF30E040E0E4
:1016400050E00E947518A40193010E94C918C901B5
:1016500081509F4F181619061CF4822F815002C02A
:1016600081E0821B851500F5E885F98581E090E031
:101670000A8802C0880F991F0A94E2F7808360E00D
:1016800079E08DE390E0A40193010E94C9182150F4
:10169000304040405040CA01B90122E030E040E013
:1016A00050E00E94C91804C0E885F98510829501B0
:1016B000EC81FD813083EE81FF812083EA85FB850B
:1016C000208141E050E0CA010E8402C0880F991FBA
:1016D0000A94E2F7282B2083EA85FB852081CA0142
:1016E0000F8402C0880F991F0A94E2F7282B2083E9
:1016F000EA85FB858081088802C0440F551F0A9443
:10170000E2F7842B8083DF91CF911F910F91FF909F
:10171000EF90DF90CF90BF90AF909F908F907F9091
:101720006F905F900895DC011296ED91FC911397F4
:10173000E058FF4F8191919180589F4F20813181D6
:10174000821B930B60E870E00E9494180895CF9379
:10175000DF93DC011296ED91FC911397EF01CE57C8
:10176000DF4F48815981E058FF4F80819181E058D7
:10177000F0408417950719F42FEF3FEF0CC0E40FEA
:10178000F51F2081CA01019660E870E00E9494185C
:101790009983888330E0C901DF91CF910895FC01DE
:1017A000A085B18521898C9190E0022E02C095958B
:1017B00087950A94E2F780FFF6CF0484F585E02D43
:1017C0006083089583E692E09093FC028093FB028D
:1017D00087E792E09093FE028093FD0285EC90E013
:1017E000909300038093FF0284EC90E090930203B7
:1017F0008093010380EC90E09093040380930303B3
:1018000081EC90E0909306038093050386EC90E0D2
:10181000909308038093070384E08093090383E097
:1018200080930A0387E080930B0385E080930C0389
:1018300081E080930D0308950F931F93CF93DF935F
:101840008C01EB0109C02196D801ED91FC9101902A
:10185000F081E02DC801099568816623A1F7DF9129
:10186000CF911F910F910895EF92FF920F931F93C5
:10187000CF93DF938C017B01EA010CC0D7016D91FE
:101880007D01D801ED91FC910190F081E02DC8011E
:1018900009952197209791F7DF91CF911F910F9193
:1018A000FF90EF9008952F923F924F925F926F9228
:1018B0007F928F929F92AF92BF92CF92DF92EF92E0
:1018C000FF920F931F93DF93CF93CDB7DEB7A0970F
:1018D0000FB6F894DEBF0FBECDBF1C016A017B01BD
:1018E000411551056105710549F4DC01ED91FC914B
:1018F0000190F081E02D60E3099554C0882499247B
:101900005401422E55246624772401E010E00C0F88
:101910001D1F080D191DC701B601A30192010E94E8
:10192000A718F80160830894811C911CA11CB11CAC
:10193000C701B601A30192010E94A718C901DA01EB
:101940006C017D01C114D104E104F104F1F681E0E0
:10195000E82EF12CEC0EFD1EE80CF91C3E0108945B
:10196000611C711CD501C4010197A109B1096C0169
:10197000C818D90814C0F601EE0DFF1D60816A3049
:1019800010F4605D01C0695CD101ED91FC910190A2
:10199000F081E02DC10109950894E108F1086E1469
:1019A0007F0449F7A0960FB6F894DEBF0FBECDBFF7
:1019B000CF91DF911F910F91FF90EF90DF90CF902B
:1019C000BF90AF909F908F907F906F905F904F905F
:1019D0003F902F900895EF92FF920F931F93CF9314
:1019E000DF93EC017A018B0177FF0FC0E881F98169
:1019F0000190F081E02D6DE2099510950095F0942D
:101A0000E094E11CF11C011D111DCE01B801A701DC
:101A10002AE00E94530CDF91CF911F910F91FF900C
:101A2000EF900895DC012115310541F4ED91FC9111
:101A30000190F081E02D642F099508952A30310539
:101A400019F40E94EB0C08950E94530C0895DC01D8
:101A5000A55BBF4F1C92AB54B04013961C921397DA
:101A600008C0FD01E80FF11D14828F5F13968C935F
:101A7000139713968C911397803298F395961C9236
:101A8000959708C0FD01E80FF11D16A28F5F95968E
:101A90008C93959795968C919597803298F31196A3
:101AA0001C921E92A95BBF4F81E090E011969C931F
:101AB0008E93A754B04012961C92129713961C92C4
:101AC000139794961C92949795961C929597AA5B5F
:101AD000BF4F1C920895FC01E75BFF4F7183608349
:101AE000E954F040CF010E94270D0895CF93DF9372
:101AF000EC01288139812115310541F4653D09F05A
:101B000046C00E94270D81E090E03FC021303105A2
:101B100061F46A831B8282E090E09983888361325A
:101B200008F435C0C95BDF4F2EC022303105F9F40F
:101B30009B818A819817A0F48CA1862728E03CE835
:101B400080FB86950EF483272A95D1F78CA39032DB
:101B500020F4FE01E90FF11D64838B818F5F8B837D
:101B60009B818A81981798F083E090E00EC0233023
:101B7000310569F48CA1861731F0C95BDF4F3983D9
:101B80002883C754D04084E090E099838883DF9114
:101B9000CF910895FC0120E080819181049709F4A0
:101BA00021E0822F0895FC01E95BFF4F82E090E085
:101BB000918380830895AF92BF92CF92DF92EF928C
:101BC000FF920F931F93CF93DF93EC0136E4C32E64
:101BD000D12CC80ED91ED6011C9229E4E22EF12C7C
:101BE000E80EF91ED701ED91FC9185ED09958E0166
:101BF000055B1F4FF801808191E089279DA1D701E6
:101C0000ED91FC91890F0995F80180818823B1F449
:101C1000D6019C91C95BDF4F8881C754D04098277B
:101C200028E03CE890FB96950EF493272A95D1F78F
:101C3000F6019083D701ED91FC910995DD2496E49E
:101C4000E92EF12CEC0EFD1E89E4A82EB12CAC0E71
:101C5000BD1E1AC08E010D0D111DD501ED91FC9117
:101C6000D80196968C910995F7018081D8019696B6
:101C70009C91892798E02CE880FB86950EF48227BA
:101C80009A95D1F78083D3948DA1D81618F3D501F6
:101C9000ED91FC91D7018C910995CE010E94270D01
:101CA000DF91CF911F910F91FF90EF90DF90CF9038
:101CB000BF90AF900895DC01952F95968C919597E4
:101CC000803240F4FD01E80FF11D46A38F5F959629
:101CD0008C93959795968C919597803240F4FD0161
:101CE000E80FF11D96A38F5F95968C939597AB01A6
:101CF00066277727952F95968C919597803240F49B
:101D0000FD01E80FF11D46A38F5F95968C93959783
:101D100095968C919597803238F4FD01E80FF11D6E
:101D200096A38F5F95968C930895DC0195968C9180
:101D30009597803240F4FD01E80FF11D66A38F5F97
:101D400095968C93959795968C919597803238F4CB
:101D5000FD01E80FF11D76A38F5F95968C93089592
:101D6000DC0195968C919597803238F4FD01E80F4F
:101D7000F11D66A38F5F95968C930895FC01E60F85
:101D8000F11D84810895FC016F5FDC01A60FB11D78
:101D9000615014969C9180E0E60FF11D248130E0A3
:101DA000282B392BC90108950F931F938C01862F7F
:101DB0008E5F6D5FF801E60FF11D348120E0F801C0
:101DC000E80FF11D848190E0282B392B40E050E092
:101DD000A901332722276250F801E60FF11D615057
:101DE000948180E0060F111DF801648170E0862B5C
:101DF000972BA0E0B0E0282B392B4A2B5B2BB901A5
:101E0000CA011F910F910895F999FECF72BD61BD6E
:101E1000F89A80B50895F999FECF1FBA72BD61BDD9
:101E200040BD0FB6F894FA9AF99A0FBE0895FC01D6
:101E300010828FEF81830895EF92FF920F931F938B
:101E4000CF93DF93EC019B0177FF03C020E030E0EC
:101E500005C0653B710514F024EB30E02983EA806E
:101E60006B8170E06E197109882777FD8095982F36
:101E7000982F872F762F662730E040E050E00E94B1
:101E8000751824EB30E040E050E00E94C918FF24B0
:101E900000E010E0102F0F2DFE2CEE24E20EF31EBA
:101EA000041F151FC801B70128E030E040E050E0F2
:101EB0000E94C9188881893029F4309389002093C1
:101EC000880006C08A3021F430938B0020938A006A
:101ED000DF91CF911F910F91FF90EF900895CF93D5
:101EE000DF93EC018881893059F410920F038091BF
:101EF00080008F738093800089E060E00E94A109D8
:101F000088818A3059F410921003809180008F7C70
:101F1000809380008AE060E00E94A109DF91CF9168
:101F20000895CF93DF93EC01FB01CB010997029752
:101F300010F080E054C0CA0160E170E00E94941883
:101F40006A83C90160E170E00E9494186B83E883A2
:101F50008FEF89838E2F60E00E94C109888161E044
:101F60000E94A10980910F03882311F5809110032D
:101F70008823F1F42FB7F89482E0809380008AE1FF
:101F80008093810088EB9BE0909389008093880088
:101F900090938B0080938A0080E49CE99093870063
:101FA0008093860080916F00887F80936F002FBFA1
:101FB0008881893041F481E080930F038091800013
:101FC0008F73806809C08A3049F481E080931003E0
:101FD000809180008F7C80628093800081E0DF911F
:101FE000CF91089540E252E020E639E00E94910F3F
:101FF000089580E693E00E945D1208958CE060E011
:102000000E94C10908958CE061E00E94C109089511
:102010008091C4039091C503009731F486E060E09D
:1020200070E00E948E080895019731F41092DA034F
:102030001092D9030E94AC1608958091B403909138
:10204000B503009779F485E060E070E00E948E08A7
:102050008091B6039091B703892BD1F481E08093EE
:10206000C10308958130910539F41092DA0310927A
:10207000D9030E94AC160895029751F40E94AC1641
:1020800085E060E00E94C10986E060E00E94C1092D
:1020900008958091C4039091C5030097A1F48091A5
:1020A000C6039091C703892B19F488E061E002C050
:1020B00088E060E00E94C1096091C80386E070E09A
:1020C0000E948E0808950197C1F41092DA031092CD
:1020D000D9036091C9037091CA038091CB03909199
:1020E000CC0320E130E040E050E00E94C918CA0172
:1020F000B9010E9400170E94A61608958091B403AA
:102100009091B5030097B1F41092C1038091B6038A
:102110009091B703892B19F487E061E002C087E052
:1021200060E00E94C1096091B80385E070E00E9400
:102130008E0808958130910599F41092DA03109277
:10214000D9030E94AC166091B9037091BA038091D3
:10215000BB039091BC030E9400170E94A61608952D
:10216000029761F46091E0037091E1038091E203D2
:102170009091E3030E9400170E94A6160895FF9213
:102180000F931F93CF93DF938C01F62E8091C103A1
:102190008823D1F1C0E0D0E034C061E070E080E09D
:1021A00090E00E943D0921E0F21631F48091C203D3
:1021B0009091C303019608C082E0F81649F480911B
:1021C000C2039091C30301979093C3038093C2030A
:1021D0008091C2039091C30397FF02C080E090E01A
:1021E00021E08D32920714F08CE291E09093C303CA
:1021F0008093C2030E940C168091C103882321F0B2
:102200002196C017D10748F2DF91CF911F910F910E
:10221000FF90089585E090E060E00E94BF108091FB
:10222000C103882379F087E060E00E94C1096091D2
:10223000B80385E070E00E948E088CE291E061E0D6
:102240000E94BF108091C103882329F085E090E0AF
:1022500060E00E94BF108091C103882379F087E07D
:1022600061E00E94C1096091B80385E070E00E94BE
:102270008E088CE291E062E00E94BF101092C303CE
:102280001092C2038091C103882329F085E060E0A9
:1022900070E00E948E081092C103089582E00E94AF
:1022A0000E0A019731F483E00E940E0A892B31F463
:1022B0000BC083E00E940E0A892B31F48091D90370
:1022C0009091DA03019705C08091D9039091DA03C8
:1022D00001969093DA038093D90308950F931F9387
:1022E0001092B5031092B4031092B7031092B60384
:1022F0001092B8031092B9031092BA031092BB0364
:102300001092BC031092BD031092BE031092BF0343
:102310001092C0031092C5031092C4031092C70319
:102320001092C6031092C8031092C9031092CA03F8
:102330001092CB031092CC031092CD031092CE03D7
:102340001092CF031092D00381ED93E00E946F0FA3
:1023500085ED93E00E946F0F1092DA031092D9037B
:102360001092DC031092DB031092DE031092DD0367
:1023700081E090E090935A028093590284E690E0C5
:1023800090935C0280935B028AE090E090935E02FF
:1023900080935D0200E613E0C80163E070E04BE06B
:1023A00050E020E00E94541382E060E00E94A10906
:1023B00083E060E00E94A10982E061E00E94C1091F
:1023C00083E061E00E94C10980E06EE471E141E0D8
:1023D00050E00E94F30785E061E00E94A10986E0D9
:1023E00061E00E94A10987E061E00E94A10988E004
:1023F00061E00E94A10985E060E00E94C10986E0D9
:1024000060E00E94C10987E061E00E94C10988E0A4
:1024100061E00E94C1098BE061E00E94A1098CE0AB
:1024200061E00E94A1098FE061E00E94A1098BE0B8
:1024300060E00E94C1098CE060E00E94C1098FE069
:1024400060E00E94C109C80160E070E00E94431290
:102450000E9448171F910F9108958EE093E060E06D
:1024600070E00E94040F8A3511F090E00AC08EE0FF
:1024700093E061E070E00E94040F90E0883709F477
:1024800091E0892F08950F931F938C01FC017087B1
:102490006783882777FD8095982F0E948E042DEC06
:1024A0003CEC4CE85FE30E9458020E94EC04F80107
:1024B000728761871F910F910895FF920F931F9369
:1024C0008C01FF24FC0167817085882777FD80954A
:1024D000982F0E948E0423E333E343E75FE30E94D7
:1024E00058020E94EC04F8012581368162177307B7
:1024F00014F4FF24F3948F2D1F910F91FF900895F2
:102500002F923F924F925F926F927F928F929F9203
:10251000AF92BF92CF92DF92EF92FF920F931F93F1
:10252000CF93DF93EC018B85882309F482C06F8001
:1025300078848D819E81681A790A288839884A882A
:102540005B88B301882777FD8095982F2E8D3F8D6E
:1025500048A159A1620F731F841F951F6E8F7F8F33
:1025600088A399A30E948E047B018C01AEA0BFA01A
:10257000C8A4D9A4A60195010E945E04882364F032
:10258000AAA0BBA0CCA0DDA0C801B701A6019501FF
:102590000E94FE0318161CF4C601B50102C0C80152
:1025A000B7010E94EC046E8F7F8F88A399A30E94CD
:1025B0008E042C893D894E895F890E9458024B0107
:1025C0005C010D811E818C8D9D8DB801681B790B7E
:1025D000882777FD8095982F0E948E04288D398D4D
:1025E0004A8D5B8D0E9458026B017C011D8F0C8F00
:1025F000B301882777FD8095982F0E948E049B0158
:10260000AC01C201B1010E945802A50194010E94CF
:102610002B02A70196010E94FA010E94EC04CB0153
:102620006F3F710519F014F08FEF90E09C0197FF58
:1026300002C020E030E0C901DF91CF911F910F91DE
:10264000FF90EF90DF90CF90BF90AF909F908F90D2
:102650007F906F905F904F903F902F9008950F93D1
:102660001F938C0160E070E08CED92ECF8012489FE
:102670003589468957890E945203F80166A377A3DA
:1026800080A791A760E070E08CED92E42489358901
:10269000468957890E945203F80162A373A384A359
:1026A00095A31F910F9108950F931F938C01FC0127
:1026B0002083728361835483438381E08387168EF2
:1026C000178E10A211A2158E148E80E090E0A0EA61
:1026D000B0E4808B918BA28BB38B8DEC9CECACEC3B
:1026E000BDE3848B958BA68BB78B80E090E0A8EC44
:1026F000B2E4808F918FA28FB38FC8010E942F13F5
:10270000F8011682158210861782128611861F9193
:102710000F910895EF92FF921F93CF93DF937C0167
:10272000C0E0D0E010E0F70181810E947008C80F7E
:10273000D91F1F5F1530B9F7CE0165E070E00E9428
:102740009418CB01DF91CF911F91FF90EF900895E6
:102750000E948A13AA2797FDA095BA2FBC01CD012C
:102760000E948E0420E030E040EA50E40E945802CB
:1027700020E030E048EC52E40E94580220E030E0D3
:1027800040E85AE30E9458020E94EC04CB010895ED
:102790000E948A130E94FE170895FC0180818823FD
:1027A00021F0CF010E94A8130895CF010E94C81301
:1027B0000895CF93DF93EC010E94CD139E838D8308
:1027C0000E942F099B01AC018C859D85B901681B76
:1027D000790B693C71055CF02C873D874E875F87DC
:1027E000CE010E948012BC018B810E948E08DF9175
:1027F000CF91089581E193E067E676E10E946B0D49
:102800000895FF920F931F93CF93DF9381E193E09D
:1028100061E00E94BE0EE82FF0E0E032F10508F022
:10282000E8C1EC5CFF4FEE0FFF1F0590F491E02D27
:10283000099481E193E062E00E94C30E90935E03ED
:1028400080935D0381E193E06CE670E007C080E671
:1028500093E00E94CD13BC0181E193E00E94950EAC
:10286000C8C181E193E062E00E94C30EBC0180E632
:1028700093E00BC08AE893E0ECCF81E193E062E063
:102880000E94C30EBC018AE893E00E944312B1C1CA
:102890001092B5031092B40381E193E062E00E94CC
:1028A000BE0E8093B803A5C11092C5031092C40355
:1028B00081E193E062E00E94BE0E8093C80399C15B
:1028C00081E193E062E00E94D40E24E0660F771F5E
:1028D000881F991F2A95D1F76093B9037093BA03A3
:1028E0008093BB039093BC0382E090E09093B50388
:1028F0008093B4036091B9037091BA038091BB03D4
:102900009091BC0320E931E040E050E00E94C918FA
:10291000C901DA018093E0039093E103A093E203FD
:10292000B093E3038091B8038093E4036091B8030C
:1029300070E080E090E00E9440052DEC3CEC4CEC17
:102940005EE30E94580220E030E040E050E00E9448
:102950002E048823A4F06091B80370E080E090E03A
:102960000E9440052DEC3CEC4CEC5EE30E945802CA
:1029700020E030E040E05FE30E942B0213C0609152
:10298000B80370E080E090E00E9440052DEC3CEC44
:102990004CEC5EE30E94580220E030E040E05FE350
:1029A0000E94FA010E94EC046093E50322C181E0D9
:1029B00090E09093C5038093C40381E193E062E0CB
:1029C0000E94D40E6093C9037093CA038093CB0313
:1029D0009093CC030EC181E193E062E00E94BE0EB1
:1029E00080FF05C01092B7031092B60302C181E0C8
:1029F00090E09093B7038093B603FBC081E193E02E
:102A000062E00E94BE0E80FF05C01092C7031092C4
:102A1000C603EFC081E090E09093C7038093C603A4
:102A2000E8C081E193E062E00E94BE0E282F81FFA2
:102A300005C01092B7031092B60306C081E090E083
:102A40009093B7038093B60320FF15C00E947E10B9
:102A50002091C2033091C303121613063CF4B9014E
:102A6000882777FD8095982F0E943D091092C30317
:102A70001092C203BEC00E941D10BBC081E193E052
:102A800062E00E94BE0E282F81FF05C01092C7038E
:102A90001092C60306C081E090E09093C703809334
:102AA000C60320FF03C00E944910A3C00E94081063
:102AB000A0C081E193E062E00E94BE0E80FF03C0EF
:102AC0000E94031096C00E94FE0F93C081ED93E018
:102AD00069E070E00E94F20F81E193E062E00E9401
:102AE000BE0E682F81ED93E00EC085ED93E06AE0A5
:102AF00070E00E94F20F81E193E062E00E94BE0E5E
:102B0000682F85ED93E070E00E941C0F72C081E198
:102B100093E06FEF6CC06091B80315C081E193E062
:102B20006091C80364C04091BD035091BE036091A1
:102B3000BF037091C00381E193E00E945B0E59C016
:102B40000E94F90F682F81E193E051C00E94D807DD
:102B500050C081E193E062E00E94C30EF82E192F6D
:102B600081E193E064E00E94BE0E082F813140F5C0
:102B70008F2D912F9C01E9010BC08EE093E0BE01E7
:102B80000E94040F682F81E193E00E94B00E21960D
:102B90009E012F19201788F32CC081E193E062E099
:102BA0000E94C30EEC0181E193E064E00E94BE0E3E
:102BB000082F813128F415E085E0F82EF00E12C0C0
:102BC00081E193E00E94D30D14C081E193E0612F75
:102BD0000E94BE0E482F8EE093E0BE010E940B0FB4
:102BE0001F5F21961F1589F781E193E0602F0E94F6
:102BF000B00EDF91CF911F910F91FF90089580E16A
:102C000061E00E94C10981E193E00E94DB0D80E157
:102C100060E00E94C1090895EF92FF920F931F9305
:102C20008BEF92E00E94930B882309F44BC00E9423
:102C30002F097B018C0184E690E0A0E0B0E0E80E73
:102C4000F91E0A1F1B1F22C08BEF92E00E94930BFC
:102C50008823A9F08BEF92E00E94A70B682F81E1F7
:102C600093E00E94760D0E942F097B018C0184E67F
:102C700090E0A0E0B0E0E80EF91E0A1F1B1F0E94C2
:102C80002F096E157F0580079107E0F481E193E03D
:102C90000E94CA0D8823C1F281E193E00E94CA0D0F
:102CA000882361F081E193E060E00E94BE0E8823FA
:102CB00029F40E9401140E94FF1504C081E193E0F1
:102CC0000E94270D1F910F91FF90EF900895CF92D2
:102CD000DF92EF92FF920F931F93CF93DF93182F02
:102CE000482F50E060E070E08BEF92E020E030E0B1
:102CF0000E94120D0E942F096B017C018AE090E076
:102D0000A0E0B0E0C80ED91EEA1EFB1E8BEF92E0D9
:102D10000E94A70BEC01012F10E00CC08BEF92E09A
:102D20000E94A70BEC010E942F09C616D706E806E1
:102D3000F90618F0C017D10789F7DF91CF911F91DD
:102D40000F91FF90EF90DF90CF900895EFE6F0E0C5
:102D50008081826080830895EFE6F0E080818F7D3E
:102D6000808380818D7F80830895603020E07207AA
:102D700021E0820720E0920708F440C0693F2FEF6E
:102D8000720727E0820720E0920740F453E096950F
:102D90008795779567955A95D1F730C0613C2FEFAD
:102DA00072072FE3820720E0920740F446E09695F1
:102DB0008795779567954A95D1F720C061302FEFB9
:102DC00072072FEF820720E0920730F4BB27A92F6C
:102DD000982F872FBC0112C061302CEF72072FEFA4
:102DE000820723E0920718F06FEF7FEF07C02AE019
:102DF00096958795779567952A95D1F7CB01089594
:102E0000EF92FF920F931F937B018C010E94B516E6
:102E1000909389008093880080E0E81680E0F806AF
:102E200081E0080780E0180710F491E022C089EFE4
:102E3000E8168FEFF80687E0080780E0180710F41F
:102E400092E017C081ECE8168FEFF8068FE30807D1
:102E500080E0180710F493E00CC081E0E8168FEFD3
:102E6000F8068FEF080780E0180710F095E001C022
:102E700094E080918100887F80938100809181001F
:102E8000982B909381001F910F91FF90EF900895E0
:102E9000CF93DF93E0E8F0E01082A1E8B0E01C926D
:102EA000109282002FE630E0E90118828C918F7E2B
:102EB0008C938C9188608C9380818D7F80838081BE
:102EC0008E7F808380818F77808380818F7B8083DA
:102ED00080818F7D808380818F7E80838C91887FAD
:102EE0008C938C9185608C938FEF9FEF90938900EA
:102EF0008093880088818F7D888388818D7F8883F7
:102F0000DF91CF9108951F920F920FB60F92112467
:102F10002F933F934F935F936F937F938F939F93E1
:102F2000AF93BF93EF93FF938091B6039091B70354
:102F3000892B49F48091DF0390E0019768E070E00D
:102F40000E94941806C08091DF0390E0019687707C
:102F500090708093DF038091DF0361E070E002C036
:102F6000660F771F8A95E2F7637C87E00E94C109AC
:102F70002091DF0389E990E002C0959587952A9515
:102F8000E2F780FF03C06091E40302C06091E503B3
:102F900085E070E00E948E088091DF0361E070E0C0
:102FA00002C0660F771F8A95E2F7607F88E00E9473
:102FB000C1092091DF0386E690E002C095958795D0
:102FC0002A95E2F780FF03C06091E40302C060919C
:102FD000E50386E070E00E948E08FF91EF91BF91BB
:102FE000AF919F918F917F916F915F914F913F91A1
:102FF0002F910F900FBE0F901F901895CF93DF93D6
:10300000AC01EDE0F2E0C1E0D0E0608171814617F3
:1030100057077CF5FE013197EE0FFF1FEE0FFF1FE4
:10302000DF01A75FBD4F2D913C91E55FFD4F019002
:10303000F081E02D421B530BCC0FDD1FCC0FDD1FA9
:10304000C55FDD4F888199818E1B9F0B621B730BBF
:103050009C01429FC001439F900D529F900D1124EF
:103060000E9494186E0F7F1F6F3F710581F07CF0F6
:1030700009C09E012F5F21963496C431D10529F6EF
:10308000243119F46FEF70E002C060E070E0CB0112
:10309000DF91CF910895CF93DF938DE060E00E94A0
:1030A000C1090E942D128823A1F08DE061E00E94E9
:1030B000C109C1E0D1E08EE093E0BE010E94040F9F
:1030C000FE01E75FFE4F8083219681E0C035D8077F
:1030D00091F7DF91CF91089581ED93E00E94170F52
:1030E00085ED93E00E94170F0895629FD001739FB2
:1030F000F001829FE00DF11D649FE00DF11D929F94
:10310000F00D839FF00D749FF00D659FF00D9927D2
:10311000729FB00DE11DF91F639FB00DE11DF91FF6
:10312000BD01CF011124089597FB092E07260AD06F
:1031300077FD04D049D006D000201AF4709561952F
:103140007F4F0895F6F7909581959F4F0895A1E2DE
:103150001A2EAA1BBB1BFD010DC0AA1FBB1FEE1F11
:10316000FF1FA217B307E407F50720F0A21BB30B5C
:10317000E40BF50B661F771F881F991F1A9469F7D8
:1031800060957095809590959B01AC01BD01CF0134
:10319000089597FB092E05260ED057FD04D0D7DFE2
:1031A0000AD0001C38F450954095309521953F4F3A
:1031B0004F4F5F4F0895F6F7909580957095619504
:1031C0007F4F8F4F9F4F0895AA1BBB1B51E107C034
:1031D000AA1FBB1FA617B70710F0A61BB70B881FA7
:1031E000991F5A95A9F780959095BC01CD01089536
:1031F0002F923F924F925F926F927F928F929F9207
:10320000AF92BF92CF92DF92EF92FF920F931F93F4
:10321000CF93DF93CDB7DEB7CA1BDB0B0FB6F894A5
:10322000DEBF0FBECDBF09942A88398848885F84E5
:103230006E847D848C849B84AA84B984C884DF8056
:10324000EE80FD800C811B81AA81B981CE0FD11D3A
:103250000FB6F894DEBF0FBECDBFED010895EE0F9F
:0E326000FF1F0590F491E02D0994F894FFCF24
:10326E00000000000000000000010202030303033F
:10327E0004040404040404040505050505050505F8
:10328E0005050505050505050606060606060606D8
:10329E0006060606060606060606060606060606C0
:1032AE0006060606060606060707070707070707A8
:1032BE000707070707070707070707070707070790
:1032CE000707070707070707070707070707070780
:1032DE000707070707070707070707070707070770
:1032EE000707070707070707080808080808080858
:1032FE000808080808080808080808080808080840
:10330E00080808080808080808080808080808082F
:10331E00080808080808080808080808080808081F
:10332E00080808080808080808080808080808080F
:10333E0008080808080808080808080808080808FF
:10334E0008080808080808080808080808080808EF
:10335E0008080808080808080808080808080808DF
:10336E00080808080808080801010049033600FF8C
:10337E00006B00D100A000B800D500A6000A01998C
:10338E00003F018E0074018400A9017C00DE0174EF
:10339E000013026C00480265007D025D00B2025609
:1033AE0000E7024E001C03460051033D0086033227
:1033BE0000BB032200F0030300010064000A0000BA
:0A33CE00000000CF0B1C0C340C00B3
:00000001FF
