:100000000C9490000C94B8000C94B8000C94B800B8
:100010000C94B8000C94B8000C94B8000C94B80080
:100020000C94B8000C94B8000C94B8000C94B80070
:100030000C94B8000C94A9390C94B8000C94B80036
:100040000C94B8000C94B8000C94FB400C94B800CD
:100050000C94DC420C94B8000C94B8000C94B800DA
:100060000C94B8000C94B8000C94B8000C94B80030
:100070000C9419430C94B8000C94B8008C2F9A2F50
:100080009D2FAC2FB92FD82FF12F153018302831D4
:100090002C30313044306A309830B930C230E630DC
:1000A000F230002124272A002225282B0020232695
:1000B00029020202020202020204040404040404EB
:1000C000040303030303030303010101010101010D
:1000D00001010204081020408001020408102040A1
:1000E0008001020408102040808040201008040293
:1000F00001000000010200000000000000040307EE
:1001000006000000000000000000000000000000E9
:100110000000082DB9324D38933EDD41072D54388B
:1001200011241FBECFEFD0E1DEBFCDBF11E0A0E0B4
:10013000B1E0E2EEFBE802C005900D92A436B107F3
:10014000D9F719E0A4E6B1E001C01D92A63CB107C1
:10015000E1F711E0CCE1D1E004C02297FE010E945A
:10016000E045C231D107C9F70E94E62B0C94E44563
:100170000C940000A0E3B0E0E0ECF0E00C94A745A4
:10018000A8E04E010894811C911CF401BA2F119231
:10019000BA95E9F729833A834B835C836D837E8329
:1001A0008F839887CE010996FC011192AA95E9F7F1
:1001B000A986BA86CB86DC86ED86FE860F87188BED
:1001C00029813A814B815C812DA73EA74FA758AB6F
:1001D00079018A018FEF9FEFA0E0B0E0E822F922D9
:1001E0000A231B231A014424552429853A854B856B
:1001F0005C8529A73AA74BA75CA759016A01A822E9
:10020000B922CA22DB223A0188249924C601B50109
:10021000A80197010E9424456DA37EA38FA398A7F0
:10022000C401B3010E94244569A37AA38BA39CA3B4
:10023000C601B501A20191010E9424457B018C01F8
:10024000C401B3010E9424455B016C0189A19AA1FC
:10025000ABA1BCA18E0D9F1DA01FB11F89A39AA3A6
:10026000ABA3BCA32DA13EA14FA158A5CA01AA27AB
:10027000BB2729A13AA14BA15CA1280F391F4A1F16
:100280005B1F29A33AA34BA35CA32E153F05400790
:10029000510740F480E090E0A1E0B0E0A80EB91E64
:1002A000CA1EDB1E89A19AA1ABA1BCA19D01442756
:1002B00055272A0D3B1D4C1D5D1D2D8F3E8F4F8FE9
:1002C00058A36C01BB24AA248DA19EA1AFA1B8A5FF
:1002D000A070B070A80EB91ECA1EDB1EA98EBA8E01
:1002E000CB8EDC8E9A8C8B8C7C8C9E8D6F8D78A1C6
:1002F000FE01719688E0DF011D928A95E9F72D8B4A
:100300009E8B6F8B788F2D853E854F8558896DA587
:100310007EA58FA598A90E9424457B018C012D8183
:100320003E814F81588569A57AA58BA59CA50E9421
:100330002445E60EF71E081F191F6D897E898F89D7
:10034000988D6E0D7F1D801F911F6D8B7E8B8F8B07
:10035000988FEE892A2D392D482D572D7E2F8F8984
:10036000988DE096E2E10C94C345EF92FF920F93D3
:10037000DF93CF93CDB7DEB760970FB6F894DEBFAB
:100380000FBECDBFA82F002309F461C07E010894E1
:10039000E11CF11C88E0F70111928A95E9F72983A5
:1003A0003A834B835C836D837E83AF83988780E23F
:1003B000801BE82FFF27E7FDF0954D815E816F815F
:1003C0007885181684F01D861E861F86188A882751
:1003D00099278E1B9F0B04C0769567955795479577
:1003E0008A95D2F728C0202F332727FD3095DB01CF
:1003F000CA01022E04C0B695A795979587950A94D1
:10040000D2F78D879E87AF87B88B04C0440F551FE6
:10041000661F771FEA95D2F789819A81AB81BC81EB
:1004200004C0B695A795979587952A95D2F7482B3E
:10043000592B6A2B7B2B49875A876B877C872985A9
:100440003A854B855C856D857E85AF8598898A2F39
:1004500060960FB6F894DEBF0FBECDBFCF91DF918F
:100460000F91FF90EF900895EF92FF920F93DF931B
:10047000CF93CDB7DEB760970FB6F894DEBF0FBE4F
:10048000CDBFA82F002309F461C07E010894E11CB0
:10049000F11C88E0F70111928A95E9F729833A83E4
:1004A0004B835C836D837E83AF83988780E2801B60
:1004B000E82FFF27E7FDF09549815A816B817C8108
:1004C000181684F019861A861B861C868827992799
:1004D0008E1B9F0B04C0440F551F661F771F8A9504
:1004E000D2F728C0202F332727FD3095DB01CA0122
:1004F000022E04C0880F991FAA1FBB1F0A94D2F7AF
:1005000089879A87AB87BC8704C07695679557958E
:100510004795EA95D2F78D819E81AF81B88504C059
:10052000880F991FAA1FBB1F2A95D2F7482B592B5A
:100530006A2B7B2B4D875E876F87788B29853A8561
:100540004B855C856D857E85AF8598898A2F609601
:100550000FB6F894DEBF0FBECDBFCF91DF910F91E4
:10056000FF90EF900895FB01DC0102C001900D9215
:1005700041505040D8F70895DC0101C06D934150BF
:100580005040E0F70895FC018191861721F08823FF
:10059000D9F7992708953197CF010895FB01DC0120
:1005A0008D91019080190110D9F3990B0895FB01E9
:1005B000DC014150504030F08D910190801919F4C8
:1005C0000020B9F7881B990B0895FB01DC0141500D
:1005D000504048F001900D920020C9F701C01D92D3
:1005E00041505040E0F70895FC0181E090E0019017
:1005F000061609F4CF010020D1F701970895FC01F8
:10060000009711F480E00895108681E008954F92DC
:100610005F926F927F928F929F92BF92CF92DF9262
:10062000EF92FF920F931F93DF93CF93CDB7DEB777
:1006300060970FB6F894DEBF0FBECDBF6C014B01C3
:100640003A012901B02E009709F49CC0611571058B
:1006500009F498C083E080170CF494C007FD25C00E
:10066000802F992787FD9095B4E0880F991FBA9540
:10067000E1F782549E4FFC01FF0FEE0BFE2F9C0111
:100680004E2F5E2F6E2F7E2F8E2F9E2F8E010F5F8F
:100690001F4FE0E1EE2EF12CF6010995882309F4B5
:1006A00071C08D81882309F46DC080916C0188230D
:1006B00009F068C080C08D8180936C012A8530E08C
:1006C00040E050E0542F432F322F22278B8590E0BB
:1006D000A0E0B0E0DC0199278827282B392B4A2B92
:1006E0005B2B898590E0A0E0B0E0282B392B4A2BCA
:1006F0005B2B8C8590E0A0E0B0E0B82FAA2799276B
:100700008827282B392B4A2B5B2B20936D013093A4
:100710006E0140936F01509370012E8530E040E0F0
:1007200050E0542F432F322F22278F8590E0A0E0F6
:10073000B0E0DC0199278827282B392B4A2B5B2B2B
:100740008D8590E0A0E0B0E0282B392B4A2B5B2B65
:10075000888990E0A0E0B0E0B82FAA2799278827E1
:10076000282B392B4A2B5B2B20937101309372017C
:10077000409373015093740103C08FEF80936C0119
:100780009F0102C020E030E0C90160960FB6F894E6
:10079000DEBF0FBECDBFCF91DF911F910F91FF90B4
:1007A000EF90DF90CF90BF909F908F907F906F9051
:1007B0005F904F900895E4E6F1E081E1DF011D9242
:1007C0008A95E9F7D0926501C09264019092670121
:1007D00080926601709269016092680150926B018B
:1007E00040926A01B7FE67CFC8CFFC011182108228
:1007F00013821282158214820895DF92EF92FF9283
:100800000F931F93DF93CF93CDB7DEB7E1970FB66A
:10081000F894DEBF0FBECDBF8B01D42EFC018481C6
:1008200095817E010894E11CF11CB7010E94C41C53
:100830008823D1F0A0E0B0E04D2D50E04150504071
:10084000B70105C0F801EA0FFB1F80831196A417BA
:10085000B50734F4FB01EA0FFB1F8081882391F771
:10086000A00FB11F1C9202C0F801108280E0E19637
:100870000FB6F894DEBF0FBECDBFCF91DF911F91B1
:100880000F91FF90EF90DF900895FC018481958196
:100890000E94111A80E00895CB010E9417280E943F
:1008A000F0070895CB01BA01422F50E00E945A167A
:1008B0000895DF93CF93CDB7DEB7E1970FB6F894E5
:1008C000DEBF0FBECDBFFC0184819581AE014F5FBD
:1008D0005F4F0E94A727E1960FB6F894DEBF0FBEC8
:1008E000CDBFCF91DF910895EF92FF920F931F93A9
:1008F000CF93DF93EB018A0179010BC0C701B801E7
:100900000E94CE02009729F4CE010E94111A81E0C4
:1009100006C0CE01B7010E94C41C882379F7DF917D
:10092000CF911F910F91FF90EF900895EF92FF925A
:100930000F931F93DF93CF93CDB7DEB7E1970FB639
:10094000F894DEBF0FBECDBF8C01AB01FC0164810A
:100950007581828193817E010894E11CF11C9701CD
:100960000E947404882339F0F80182819381B701D1
:100970000E94151B81E0E1960FB6F894DEBF0FBE12
:10098000CDBFCF91DF911F910F91FF90EF90089510
:10099000CF92DF92EF92FF920F931F93DF93CF934B
:1009A000CDB7DEB7E1970FB6F894DEBF0FBECDBF6F
:1009B0008C0169017E010894E11CF11C97010E94E1
:1009C0007404882341F0C801B7010E946828F60129
:1009D0009183808381E0E1960FB6F894DEBF0FBE6D
:1009E000CDBFCF91DF911F910F91FF90EF90DF90DE
:1009F000CF900895FC01DB019A01648175818281A9
:100A00009381AD010E94C8040895EF92FF920F9365
:100A10001F93DF93CF93CDB7DEB7E1970FB6F8946E
:100A2000DEBF0FBECDBF8C01FC018281938160E0EF
:100A300071E07E010894E11CF11CA7010E94B0281E
:100A4000F80182819381B7010E942728F8019583DC
:100A5000848320E0892B09F021E0822FE1960FB6F4
:100A6000F894DEBF0FBECDBFCF91DF911F910F91E4
:100A7000FF90EF9008950F931F938C01FC018081EC
:100A800091810E945D1EF8019383828320E0892B6F
:100A900009F021E0822F1F910F9108950F93CF93BA
:100AA000DF93EC018BE198E067EC79E049E156E0F7
:100AB00020ED3BE000E00E94070399838883892BA7
:100AC00069F48BE198E067EC79E049E156E020EDCC
:100AD0003BE00FEF0E9407039983888320E0888121
:100AE0009981892B09F021E0822FDF91CF910F911D
:100AF00008950E94A705811181E008950E94AE0526
:100B000090E0813009F491E0892F08950E94950AC0
:100B10000895CF93DF93EC018C819D81009721F0A4
:100B20000E940B1A1D821C828A819B81009721F0F2
:100B30000E94970C1B821A8288819981009721F06C
:100B40000E94FF0219821882DF91CF91089583B12C
:100B500086958695869580958170089583B190E0FD
:100B6000969587959695879581700895282F8FEF94
:100B70008EBD0DB407FEFDCF8DB58F778DBD8EB5C3
:100B8000822F80648EBD0DB407FEFDCF8DB58F77AB
:100B90008DBD872F9927AA27BB278EBD0DB407FED1
:100BA000FDCF8DB58F778DBDCB01AA27BB278EBD1D
:100BB0000DB407FEFDCF8DB58F778DBDBB27A72F59
:100BC000962F852F8EBD0DB407FEFDCF8DB58F7787
:100BD0008DBD4EBD0DB407FEFDCF8DB58F778DBD9C
:100BE000222319F0283069F406C085E98EBD0DB4C2
:100BF00007FEFDCF0BC087E88EBD0DB407FEFDCF0D
:100C000005C08FEF8EBD0DB407FEFDCF8DB58F777C
:100C10008DBD90E02FEF2EBD0DB407FEFDCF8DB53D
:100C20008F778DBD8EB58F3F19F49F5F9A3099F7FE
:100C300008952F923F924F925F926F927F928F9280
:100C40009F92AF92BF92CF92DF92EF92FF920F935B
:100C50001F93DF93CF93CDB7DEB72C970FB6F894E1
:100C6000DEBF0FBECDBF39014A015B016C011A83A3
:100C70000983FC82EB821A9B91C196C1FFEF4F2E34
:100C8000F1E05F2E462057209201A62DA419AA87D5
:100C9000E1E06A1608F0E0E0872D831B21E078167A
:100CA00008F020E0B82FBE1BBD8391E08B1708F041
:100CB00090E0292BE82DE21BEE8331E08E1608F040
:100CC00030E0F92DF31BFF8361E09F1608F060E030
:100CD0002A2D261B288771E0A21608F070E02B2C25
:100CE000271A91E0B21408F090E03C2C391A91E0F8
:100CF000C31408F090E03D2D391B398780E092E065
:100D0000841995099C878B87AB81BC81A817B9078B
:100D100010F4BC87AB8780917701BA858B1709F5F2
:100D200080917801ED818E17E1F480917901FE8147
:100D30008F17B9F480917A012F81821791F48091F5
:100D40007B013885831769F480917C01821549F411
:100D500080917D01831529F480917E019985891701
:100D6000A9F10E94F007882309F41EC1411451041F
:100D700029F4AB85BC85A050B24090F42A853D8112
:100D80004E815F816885722D832D99850FE711E073
:100D9000E12CE2E0FE2E0E941B08882309F404C126
:100DA000FA85F09377012D81209378013E8130936D
:100DB00079018F8180937A01988590937B012092AD
:100DC0007C0130927D01A985A0937E01E981FA81A1
:100DD000EF57F140A1F0920121583E4FC9016981BE
:100DE0007A814B855C850E94B302109276018B81DB
:100DF0009C81AB85BC858A179B0709F4D7C02C98CA
:100E00008091750182FF0FC02A853D814E815F81EF
:100E10006885722D832D998509E00E94B501BA017C
:100E2000A9019B0105C08A859D812E813F81AC016E
:100E300088E1B9010E94B605882311F02C9AB4C04C
:100E4000BEEFBEBD0DB407FEFDCF8DB58F778DBD56
:100E5000EFE7F1E081918EBD0DB407FEFDCF8DB5BA
:100E60008F778DBD23E0EF37F207A1F73FEF3EBD4F
:100E70000DB407FEFDCF8DB58F778DBD8FEF8EBD85
:100E80000DB407FEFDCF8DB58F778DBD9FEF9EBD55
:100E90000DB407FEFDCF8DB58F778DBD8EB58F3F1D
:100EA000A9F78EBD0DB407FEFDCF8DB58F778DBD33
:100EB0008EB52C9AA981BA81EB85FC85AE0FBF1F38
:100EC000BA83A9839F0140E050E060E070E080E0D9
:100ED00090E0462C4E0EF1E0461408F0F0E0E72DCD
:100EE000E30FA1E0E71508F0A0E05F2E5E0EF1E051
:100EF0005E1608F0F0E0AF2BE82DE40FB1E0E81546
:100F000008F0B0E0EA2EEE0EF1E0EE1608F0F0E0A8
:100F1000BF2BE92DE50FA1E0E91508F0A0E0FB2EBD
:100F2000FE0EF1E0FE1608F0F0E0AF2BEA2DE60F22
:100F3000B1E0EA1508F0B0E00A2F0E0FF1E00E174D
:100F400008F0F0E0BF2BEB2DE70FA1E0EB1508F068
:100F5000A0E01B2F1E0FF1E01E1708F0F0E0AF2BF2
:100F6000EC2DE80FB1E0EC1508F0B0E0AE0FF1E0C9
:100F7000AE1708F0F0E0BF2B8D2D890F320147012D
:100F800058016D01D80E2B813C818B859C85281BD7
:100F9000390B3C832B8391E090937601AB81BC812C
:100FA000AB2B09F06BCE02C080E001C081E02C9633
:100FB0000FB6F894DEBF0FBECDBFCF91DF911F916A
:100FC0000F91FF90EF90DF90CF90BF90AF909F90E8
:100FD0008F907F906F905F904F903F902F900895EB
:100FE000EF92FF920F931F9380917601882311F067
:100FF00081E01CC020917701309178014091790106
:1010000050917A0160917B0170917C0180917D010A
:1010100090917E010FE711E0E12CA2E0FA2E0E94F0
:101020001906882319F081E0809376011F910F91B2
:10103000FF90EF9008952F923F924F925F926F92A0
:101040007F928F929F92AF92BF92CF92DF92EF9258
:10105000FF920F931F93DF93CF93CDB7DEB72997FE
:101060000FB6F894DEBF0FBECDBF39014A015B0158
:101070006C012801FA82E9826BC1BFEFEB2EB1E06F
:10108000FB2EE620F7209701A62DAE19AF83E1E0F5
:101090006A1608F0E0E0872D831B21E0781608F03F
:1010A00020E0B82FBE1BBB8391E08B1708F090E0C7
:1010B000292B382C321A31E0831408F030E0192D36
:1010C000131B61E0911608F060E0EA2DE61BEC834B
:1010D00071E0AE1608F070E0FB2DF71BFD8391E088
:1010E000BF1608F090E02C2C291A91E0C21408F0E9
:1010F00090E02D2D291B2E8380E092E08E199F0910
:1011000099878887A981BA81A817B90710F4B98788
:10111000A88780917701BF818B1709F580917801AD
:10112000EB818E17E1F4809179018315C1F48091F0
:101130007A018117A1F480917B01FC818F1779F4EA
:1011400080917C012D81821751F480917D0182155F
:1011500031F480917E013E81831709F483C00E949F
:10116000F007882309F4FAC02C988091750182FF5A
:101170000FC02F813B81432D512F6C817D81822DAA
:101180009E8109E00E94B501BA01A9019B0105C039
:101190008F819B81232D312FAC0181E1B9010E9408
:1011A000B605882319F02C9A80E0D8C08FEF8EBD49
:1011B0000DB407FEFDCF8DB58F778DBD8EB58E3FFB
:1011C000A9F7EFE7F1E09FEF9EBD0DB407FEFDCF5D
:1011D0008DB58F778DBD8EB58083A3E0EE37FA078E
:1011E00011F03196F0CFBF81B0937701EB81E0939E
:1011F00078013092790110937A01FC81F0937B01A0
:101200002D8120937C0120927D013E8130937E01CF
:10121000970121583E4FC201B901488559850E9466
:10122000B3028FEF8EBD0DB407FEFDCF8DB58F7766
:101230008DBD8EB59FEF9EBD0DB407FEFDCF8DB564
:101240008F778DBD8EB52C9AAFEFAEBD0DB407FE76
:10125000FDCFE885F9854E0E5F1E8DB58F778DBD6C
:101260008EB50DC0970121583E4FC201B901488586
:1012700059850E94B30228853985420E531E898103
:101280009A81A885B9858A1B9B0B9A838983AD01B6
:1012900060E070E080E090E0A0E0B0E0262C240E5A
:1012A00031E0261408F030E0272D250FE1E0271566
:1012B00008F0E0E0332E320E31E0321608F030E074
:1012C000E32B282D260FF1E0281508F0F0E0EE2E94
:1012D000E20E31E0E21608F030E0F32B292D270F63
:1012E000E1E0291508F0E0E0FF2EF20E31E0F21601
:1012F00008F030E0E32B2A2D280FF1E02A1508F042
:10130000F0E00E2F020F31E0021708F030E0F32B6F
:101310002B2D290FE1E02B1508F0E0E01F2F120F15
:1013200031E0121708F030E0E32B2C2D2A0FF1E00A
:101330002C1508F0F0E0E20F31E0E21708F030E0A1
:10134000F32B8D2D8B0F3101470158016F01D80E02
:10135000E981FA81EF2B09F090CE81E029960FB652
:10136000F894DEBF0FBECDBFCF91DF911F910F91DB
:10137000FF90EF90DF90CF90BF90AF909F908F90B5
:101380007F906F905F904F903F902F9008952F9295
:101390003F924F925F926F927F928F929F92AF9205
:1013A000BF92CF92DF92EF92FF920F931F93DF9342
:1013B000CF93CDB7DEB760970FB6F894DEBF0FBE00
:1013C000CDBF522E432E4B835C836D837E838F83F0
:1013D0009887180137019A8289820115110509F44D
:1013E00088C0E114F10409F484C0CE14DF0408F4C9
:1013F00080C0A114B10409F47CC0882499248E18FB
:101400009F08CE18DF08970140E050E060E070E0F0
:1014100080E090E0E9863A874B875C876D877E871E
:101420008F87988B252D342D4B815C816D817E813A
:101430008F819885810173010E941B08882309F41C
:1014400058C0C101052D142D2B813C814D815E8139
:101450006F817885E980FA80F5010995882309F480
:101460004AC0C80CD91CC601860D971D8615970564
:1014700008F441C03985350D91E0351508F090E04C
:101480008A85840D21E0841508F020E0192F180FBB
:1014900091E0181708F090E0922B4B81940F81E0B7
:1014A000941708F080E06C81680F81E05C8165171B
:1014B00008F080E05D81580F81E07D81571708F0CA
:1014C00080E04E81480F81E02E81421708F080E0D5
:1014D0007F81870F21E0871708F020E0532E412EEF
:1014E0009B836C835D834E838F838885820F88877F
:1014F00099CF80E001C081E060960FB6F894DEBF1E
:101500000FBECDBFCF91DF911F910F91FF90EF9054
:10151000DF90CF90BF90AF909F908F907F906F9013
:101520005F904F903F902F9008958F929F92BF921F
:10153000CF92DF92EF92FF920F931F93CF93DF939F
:1015400023982298259A279A249A26982C9A83E5FC
:101550008CBD8DB58E7F8DBD109275011B9913C109
:1015600090E02FEF2EBD0DB407FEFDCF8DB58F7728
:101570008DBD8EB59F5F9A30A9F72C9800E010E0E2
:1015800080E040E050E060E070E00E94B605F82E98
:1015900081E0F81641F081E00F3F180709F4C3C05D
:1015A0000F5F1F4FEDCF88E04AEA51E060E070E046
:1015B0000E94B60582FD2DC08FEF8EBD0DB407FED3
:1015C000FDCF8DB58F778DBD8EB58FEF8EBD0DB4F0
:1015D00007FEFDCF8DB58F778DBD8EB58FEF8EBD9C
:1015E0000DB407FEFDCF8DB58F778DBD0EB400FE17
:1015F000CAC08FEF8EBD0DB407FEFDCF8DB58F77BE
:101600008DBD8EB58A3A09F0BEC082E08093750127
:1016100012C087E340E050E060E070E00E94B60551
:1016200089E240E050E060E070E00E94B60582FD93
:1016300002C0F0927501B09075018B2D90E0B3E07F
:101640008B2E912C88229922A2E0CA2ED12CC8225E
:10165000D922C0E0D0E081149104B9F0C114D104C2
:1016600031F0E12CF12C012DF0E41F2F03C0EE240A
:10167000FF24870187E340E050E060E070E00E94D3
:10168000B60589E2B801A70105C081E040E050E05D
:1016900060E070E00E94B60580FF07C08FE7CF3F93
:1016A000D80709F440C02196D6CFCD2899F18AE316
:1016B00040E050E060E070E00E94B605882399F5B4
:1016C0008FEF8EBD0DB407FEFDCF8DB58F778DBD2D
:1016D0000EB406FE04C084E0B82AB09275018FEF04
:1016E0008EBD0DB407FEFDCF8DB58F778DBD8EB548
:1016F0008FEF8EBD0DB407FEFDCF8DB58F778DBDFD
:101700008EB58FEF8EBD0DB407FEFDCF8DB58F77F3
:101710008DBD8EB580E140E052E060E070E00E9457
:10172000B605882311F02C9A2EC02C9A8CB58C7F8C
:101730008CBD8DB581608DBD8FEF809377018093D7
:1017400078018093790180937A0180937B01809363
:101750007C0180937D0180937E0181E080937601FE
:1017600020E030E040E050E060E070E080E090E0B9
:101770000FE711E0E12CE2E0FE2E0E941B08882317
:1017800019F081E001C080E0DF91CF911F910F91AE
:10179000FF90EF90DF90CF90BF909F908F90089533
:1017A0002F923F924F925F926F927F928F929F9271
:1017B000AF92BF92CF92DF92EF92FF920F931F935F
:1017C000DF93CF93CDB7DEB728970FB6F894DEBF7F
:1017D0000FBECDBF922E832E542E452E362E272E91
:1017E0008D839E833801F886EF82DA82C982BC82BB
:1017F000AB820115110509F47EC0CD2809F47BC028
:10180000BB24EF2809F06EC0BB24B3946BC0C301A6
:10181000092D182D252D342D432D522D6D817E81BE
:10182000EB80FC80A981BA81FD0109956C010097CC
:1018300009F463C0BB2031F4EF81F885E817F9079C
:1018400008F459C0292D382D452D542D632D722DA6
:101850008D819E81830176010E941906882309F4F7
:101860004AC09601F92DFC0DE1E0F91508F0E0E021
:10187000882D830F21E0881508F020E01E2F180F17
:1018800091E0181708F090E0922B950D81E09515E6
:1018900008F080E0682F640D81E0641508F080E0B6
:1018A000582F530D81E0531508F080E0482F420D6A
:1018B00081E0421508F080E02D81820F21E03D811A
:1018C000831708F020E09F2E812E592E462E1A01F4
:1018D0008D838E81820F8E83AF81B885AC19BD094F
:1018E000B887AF83BB2009F092CFEF81F885EF2B4B
:1018F00009F08DCF02C080E001C081E028960FB6CC
:10190000F894DEBF0FBECDBFCF91DF911F910F9135
:10191000FF90EF90DF90CF90BF90AF909F908F900F
:101920007F906F905F904F903F902F900895FC01B3
:10193000009711F01182108208957F928F929F92EA
:10194000AF92BF92CF92DF92EF92FF920F931F93CD
:10195000DF93CF9300D000D000D0CDB7DEB7DC014D
:10196000009709F441C1423051056105710508F441
:101970003BC1ED91FC91119780851A962C911A9795
:101980001B961C911B971C96CC901C971D96BC9087
:101990001D971E96FC901E971F96EC901F975096D1
:1019A000DC90509751967C908B3009F090C0B2E05B
:1019B000440F551F661F771FBA95D1F780E090E05E
:1019C000A0E0B0E0822E840E31E0841608F030E012
:1019D000150F21E0151708F020E0932E910E01E07D
:1019E000911608F000E0202B1C2D160F31E0161781
:1019F00008F030E0A22EA10E01E0A11608F000E0F0
:101A0000302B1B2D170F01E0171708F000E0B32E45
:101A1000B10E21E0B11608F020E0022B11E0F8161B
:101A200008F010E0C02ECF0C01E0CF1408F000E069
:101A3000102B01E0E91608F000E0F12EFE0C11E099
:101A4000FE1408F010E0012B11E0DA1608F010E0A7
:101A5000802F8D0DA1E08D1508F0A0E01A2B0190CC
:101A6000F081E02D9401A5016C2D7F2D912F970D14
:101A70008E010D5F1F4FA4E0EA2EF12C09958823FB
:101A800009F4B2C02B813C814D815E812115310565
:101A90004105510509F4ACC0273F8FEF38078FEFA0
:101AA00048078FE0580709F49FC0DA01C901805F39
:101AB0009F4FAF4FBF400797A105B10508F494C0F1
:101AC000DA01C901885F9F4FAF4FBF4089C0440F03
:101AD000551F661F771F80E090E0A0E0B0E0822EE7
:101AE000840E31E0841608F030E0150F21E0151760
:101AF00008F020E0932E910E01E0911608F000E02E
:101B0000202B1C2D160F31E0161708F030E0A22E06
:101B1000A10E01E0A11608F000E0302B1B2D170FDD
:101B200001E0171708F000E0B32EB10E21E0B11666
:101B300008F020E0022B11E0F81608F010E0C02EAB
:101B4000CF0C01E0CF1408F000E0102B01E0E91603
:101B500008F000E0F12EFE0C11E0FE1408F010E099
:101B6000012B11E0DA1608F010E0802F8D0DA1E0B6
:101B70008D1508F0A0E01A2B0190F081E02D940162
:101B8000A5016C2D7F2D912F970D8E010F5F1F4F9B
:101B9000A2E0EA2EF12C0995882331F189819A81FE
:101BA0009C0140E050E0211531054105510501F14E
:101BB000273F8FEF380780E0480780E05807A1F003
:101BC000DA01C901805F9F4FA040B0400797A1058F
:101BD000B10550F0DA01C901885F9F4FA040B040C5
:101BE0000897A105B10520F420E030E040E050E086
:101BF000B901CA0126960FB6F894DEBF0FBECDBF5D
:101C0000CF91DF911F910F91FF90EF90DF90CF90D8
:101C1000BF90AF909F908F907F9008952F923F92AA
:101C20004F925F926F927F928F929F92AF92BF92EC
:101C3000CF92DF92EF92FF920F931F93DF93CF9398
:101C4000CDB7DEB760970FB6F894DEBF0FBECDBF3D
:101C50004C01009709F482C14230510561057105BC
:101C600008F47CC1DC011A96BC91B887FC01F385AD
:101C7000F987DC011C96BC91BA87FC01F585FB87CE
:101C8000DC011E96BC91BC87FC01F785FD87DC0159
:101C90005096BC91BE87FC01F189FF87DC01ED9174
:101CA000FC9180858B3009F0BAC012E0440F551FBB
:101CB000661F771F1A95D1F780E090E0A0E0B0E0B2
:101CC000E885E40FE88B31E0E41708F030E029857F
:101CD000250FE1E0251708F0E0E0320F3F8331E007
:101CE000FF81F21708F030E0E32B2A85260FF1E0A0
:101CF000261708F0F0E02E2E220E31E0221608F012
:101D000030E0F32B2B85270F31E0271708F030E068
:101D10003F2E320EE1E0321608F0E0E03E2B21E0EB
:101D2000EC85E81708F020E04C84430E31E0FC8598
:101D30004F1608F030E0232B31E0ED85E91708F06D
:101D400030E05D84520E21E0FD855F1608F020E052
:101D5000322B21E0EE85EA1708F020E06E84630E56
:101D600091E0FE856F1608F090E0722E792A2F859B
:101D7000720ED401ED91FC910190F081E02D288943
:101D80003F81A101B201C3018E010D5F1F4FB4E07D
:101D9000EB2EF12C0995882309F4E0C0AB80BC80C0
:101DA000CD80DE80A114B104C104D10409F4D8C0EF
:101DB000D601C501805F9F4FAF4FBF400897A10577
:101DC000B10508F4CBC0D601C501885F9F4FAF4F66
:101DD000BF400897A105B10518F4AA24BB246501EA
:101DE0001B821C821D821E82D401ED91FC91048015
:101DF000F581E02D28893F81A101B201C3018E0147
:101E00000D5F1F4FA4E0EA2EF12C0995B601A50144
:101E1000A114B104C104D10409F047CFA1C0440FFB
:101E2000551F661F771F80E090E0A0E0B0E0288497
:101E3000240E31E0241608F030E02985250FE1E07A
:101E4000251708F0E0E0332E320E31E0321608F0AC
:101E500030E0E32B2A85260FF1E0261708F0F0E0AA
:101E60004E2E420E31E0421608F030E0F32B2B8567
:101E7000270F31E0271708F030E05F2E520EE1E027
:101E8000521608F0E0E03E2B21E0EC85E81708F060
:101E900020E06C84630E31E0FC856F1608F030E0C2
:101EA000232B31E0ED85E91708F030E07D84720ED8
:101EB00021E0FD857F1608F020E0322B21E0EE8541
:101EC000EA1708F020E0AE84A30E91E0FE85AF167D
:101ED00008F090E0B22EB92A2F85B20ED401ED9110
:101EE000FC910190F081E02D9101A201B301C501A7
:101EF0008E010F5F1F4FB2E0EB2EF12C0995882366
:101F000069F1C980DA80C114D10451F1C60140964B
:101F1000089720F1B8EFCB16BFEFDB0610F0CC240A
:101F2000DD241A821982D401ED91FC910480F5819F
:101F3000E02D9101A201B301C5018E010F5F1F4F7A
:101F4000A2E0EA2EF12C0995A60160E070E04115AF
:101F500051056105710509F062CF02C080E001C042
:101F600081E060960FB6F894DEBF0FBECDBFCF9173
:101F7000DF911F910F91FF90EF90DF90CF90BF9076
:101F8000AF909F908F907F906F905F904F903F9019
:101F90002F9008952F923F924F925F926F927F926F
:101FA0008F929F92AF92BF92CF92DF92EF92FF9269
:101FB0000F931F93DF93CF93CDB7DEB7AD970FB6D7
:101FC000F894DEBF0FBECDBF9D8F8C8F3A014B01C1
:101FD000B901009709F4EDC2DC01ED91FC91119774
:101FE000E080F180FB8EEA8E24813581398F288F45
:101FF0001A963C911A973CA31B964C911B974DA3A4
:102000001C965C911C975EA31D968C911D978FA3C7
:102010001E969C911E9798A71F96AC91A9A7AC8D70
:10202000BD8D5096BC91BAA7AC8DBD8D5196BC911B
:10203000BBA71F8680858B3011F4E1E0EF87EC8D24
:10204000FD8D82899389A489B589FF85FF2351F08D
:102050009C01AD0182E056954795379527958A9565
:10206000D1F706C09C01AD01569547953795279548
:10207000288B398B4A8B5B8BC801DB018C8B9D8B4A
:10208000AE8BBF8BAA24BB24650182E090E0A0E068
:10209000B0E08B879C87AD87BE87A4E0EA2EF12C49
:1020A000012D112DEF82F88609871A8778C1FF84E8
:1020B000FF2009F47BC08F819885A985BA85880F98
:1020C000991FAA1FBB1F9C01AD0160E070E080E07A
:1020D00090E00CA1020F0CA7F1E0021708F0F0E06D
:1020E000EDA1E30FA1E0E31708F0A0E0FE0FFE8FE3
:1020F000F1E01E8D1E1708F0F0E0AF2BEEA1E40F0B
:10210000B1E0E41708F0B0E0AE0FAF8FF1E0AE172A
:1021100008F0F0E0BF2BEFA1E50FF1E0E51708F0C4
:10212000F0E0BE0FB8A3A1E0BE1708F0A0E0FA2BC4
:10213000E1E0A8A5A61708F0E0E028A42F0EF1E042
:10214000B8A52B1608F0F0E0EF2BF1E0E9A4E716B4
:1021500008F0F0E039A43E0EE1E0F9A43F1408F0E5
:10216000E0E0FE2BE1E00AA5081708F0E0E04AA451
:102170004F0E91E01AA5411608F090E05E2E592A04
:102180002BA5520E2CA53E8D4F8D58A1B101C20139
:102190008E010D5F1F4FE4E0EE2EF12CAA8DBB8D5A
:1021A000FD010995882309F07EC003C2EF80F88401
:1021B00009851A85A801970160E070E080E090E051
:1021C000FCA0F20EFDA6F1E0F21608F0F0E0EDA1A1
:1021D000E30FA1E0E31708F0A0E0FE0FF9A3F1E0A0
:1021E00009A10E1708F0F0E0AF2BEEA1E40FB1E06B
:1021F000E41708F0B0E0AE0FAAA3F1E0AE1708F0C4
:10220000F0E0BF2BEFA1E50FA1E0E51708F0A0E09B
:10221000BE0FBBA3F1E0BE1708F0F0E0AF2BE8A5BE
:10222000E60FB1E0E61708F0B0E02A2E2E0EF1E03E
:102230002E1608F0F0E0BF2BE9A5E70FA1E0E717A5
:1022400008F0A0E03B2E3E0EF1E03E1608F0F0E074
:10225000AF2BEAA5E80FB1E0E81708F0B0E04A2E8E
:102260004E0EF1E04E1608F0F0E05B2E5F2A8BA5D3
:10227000890F580E2DA539A14AA15BA1B101C20158
:102280008E010F5F1F4FB2E0EB2EF12CAA8DBB8D9C
:10229000FD010995882309F48CC189819A81892BD4
:1022A00009F066C02CC08B819C81AD81BE810097F6
:1022B000A105B10509F05CC0A114B104C104D104A9
:1022C00069F4AFEFEA2EAFEFFA2EAFEF0A2FAFE0CF
:1022D0001A2FEB82FC820D831E8304C0AB82BC826A
:1022E000CD82DE822CA53E8D4F8D58A1B101C20159
:1022F0008E010D5F1F4FF4E0EF2EF12C18C0A114DA
:10230000B104C104D10429F4EFEFFFEFFA83E983AC
:1023100002C0BA82A9822DA539A14AA15BA1B1014F
:10232000C2018E010F5F1F4FE2E0EE2EF12CA88D4F
:10233000B98DFD010995882309F43FC00C891D89D9
:102340002E893F8901501040204030400C8B1D8B5E
:102350002E8B3F8B011511052105310529F4AB8426
:10236000BC84CD84DE8432C0AB84BC84CD84DE8466
:102370002B853C854D855E852F5F3F4F4F4F5F4FCF
:102380002B873C874D875E878F819885A985BA8585
:102390000296A11DB11D8F839887A987BA87EB8408
:1023A000FC840D851E85288939894A895B89E21656
:1023B000F3060407150708F47ACE8C899D89AE8947
:1023C000BF890097A105B10509F0EDC092E069163B
:1023D00071048104910408F4EFC0AF85AA2309F4C5
:1023E00071C0AB82BC82CD82DE82B2E0660C771C0B
:1023F000881C991CBA95D1F7B401A30180E090E044
:10240000A0E0B0E02CA1260D31E0261508F030E068
:10241000EDA1E50F11E0E51708F010E03E0FF1E047
:102420003E1708F0F0E01F2BEEA1E60F01E0E617E3
:1024300008F000E0912E9E0EF1E09E1608F0F0E00C
:102440000F2BEFA1E70FF1E0E71708F0F0E0E02E27
:10245000EE0E11E0EE1608F010E0F12BE1E0F8A42A
:10246000F81608F0E0E0F8A4FF0EF1E008A5F01679
:1024700008F0F0E0EF2BF1E019A5191708F0F0E0F3
:1024800009A50E0FE1E019A5011708F0E0E0FE2B09
:1024900011E0EAA5EA1708F010E08AA58F0FE1E045
:1024A000FAA58F1708F0E0E01E2B492D5E2D6F2D49
:1024B000702F9BA5910F8E010D5F1F4FA4E0EA2E98
:1024C000F12C6BC0BA82A982660C771C881C991CFF
:1024D000B401A30180E090E0A0E0B0E02CA1260DC3
:1024E00031E0261508F030E0EDA1E50F11E0E51729
:1024F00008F010E03E0FF1E03E1708F0F0E01F2B6F
:10250000EEA1E60F01E0E61708F000E0912E9E0E26
:10251000F1E09E1608F0F0E00F2BEFA1E70FF1E0DD
:10252000E71708F0F0E0E02EEE0E11E0EE1608F0EE
:1025300010E0F12BE1E0F8A4F81608F0E0E0F8A4D0
:10254000FF0EF1E008A5F01608F0F0E0EF2BF1E047
:1025500019A5191708F0F0E009A50E0FE1E019A57B
:10256000011708F0E0E0FE2B11E0EAA5EA1708F0F9
:1025700010E08AA58F0FE1E0FAA58F1708F0E0E0E0
:102580001E2B492D5E2D6F2D702F9BA5910F8E0157
:102590000F5F1F4FE2E0EE2EF12CA88DB98DFD01EB
:1025A0000995882349F48C8D9D8DB601A5010E9463
:1025B0000E0EAA24BB246501B501C601AD960FB667
:1025C000F894DEBF0FBECDBFCF91DF911F910F9169
:1025D000FF90EF90DF90CF90BF90AF909F908F9043
:1025E0007F906F905F904F903F902F90089580E183
:1025F00090E008952F923F924F925F926F927F9258
:102600008F929F92AF92BF92CF92DF92EF92FF9202
:102610000F931F93DF93CF93CDB7DEB768970FB6B5
:10262000F894DEBF0FBECDBF988F8F8B7E876D87EE
:10263000588B4F87009709F41EC3672B09F41BC3FF
:102640004115510509F417C3DC01D396AC90D3971B
:10265000D496BC90D497D596CC90D597D696DC904E
:10266000D697D796EC90D797D896FC90D897D996CE
:102670000C91D997DA961C91DA9797962D903D9008
:102680004D905C909A979A0140E050E060E070E0D5
:1026900080E090E0B22FBA0DBA8BF1E0B21708F0EB
:1026A000F0E0E32FEB0D99249394E31708F09924BD
:1026B000FE0FF98BF1E0A989AE1708F0F0E09F2A30
:1026C000E42FEC0DB1E0E41708F0B0E0692C6E0ED9
:1026D000F1E06E1608F0F0E0BF2BE52FED0DA1E064
:1026E000E51708F0A0E07B2E7E0EF1E07E1608F0E4
:1026F000F0E0AF2BE62FEE0DB1E0E61708F0B0E00A
:102700008A2E8E0EF1E08E1608F0F0E0BF2BE72F38
:10271000EF0DA1E0E71708F0A0E09B2E9E0EF1E080
:102720009E1608F0F0E0AF2BE82FE00FB1E0E817BD
:1027300008F0B0E0AE0FF1E0AE1708F0F0E0EB2FDC
:10274000EF2B892F810FE80FA201910160E070E06B
:1027500080E090E09E17F0F0E91721F58A17D0F09D
:10276000A81701F57915B0F09716E1F4681590F007
:102770008616C1F4571570F07516A1F4461550F081
:10278000641681F4B9893B1728F0B31759F4EA8924
:102790002E1640F491012A193B09388B2F87232BE1
:1027A00009F46CC2AF89B88DED91FC911197208D21
:1027B000318D3C872B87DB968D919D910D90BC913F
:1027C000A02D8F839887A987BA870097A105B105A7
:1027D00009F059C0AF89B88D93962D913D914D91D7
:1027E0005C9196972F83388749875A872115310541
:1027F0004105510559F48A2D8B298C298D298E2963
:102800008F29802B812B09F439C235C28A2D8B295F
:102810008C298D298E298F29802B812BA1F13501BF
:102820004601EB85FC851F014424552422273327CC
:10283000A90122193309440955092B8B3C8B4D8B77
:102840005E8B1CC0AF89B88D8D919C914F8158854E
:1028500069857A850E949D0C6F83788789879A871E
:10286000611571058105910509F405C22B893C8923
:102870004D895E89620E731E841E951E6214730458
:1028800084049504F8F64B855C85415050405C8784
:102890004B874A215B215C834B838B859C8501960A
:1028A0009C878B87AF85B889BE83AD83EF89F88D10
:1028B0000190F081E02DFA83E983309709F48EC00E
:1028C0002F81388549855A852230310541055105CA
:1028D00008F484C0225030404040504059016A0101
:1028E0002E5F3F4F4F4F5F4F2F83388749875A875F
:1028F000208C318C9501A60160E070E080E090E0D2
:102900005101CC24DD24EE24FF2400E010E00E94DD
:10291000BA00E981FA81A28DF38CB48D058DE68C25
:10292000D78CC0A011A1A20FF1E0A21708F0F0E02F
:10293000232F2F0DE1E0231708F0E0E0FF2EF20E29
:1029400031E0F21608F030E0E32B242F2B0FF1E0FA
:10295000241708F0F0E0BE2FB20F31E0B21708F0F4
:1029600030E0F32B252F200F41E0251708F040E041
:10297000F20F31E0F21708F030E0432B262F2E0D36
:1029800051E0261708F050E0E42FE20F31E0E217A3
:1029900008F030E0532B272F2D0D41E0271708F0CA
:1029A00040E0520F31E0521708F030E0432B282F5F
:1029B0002C0D31E0281708F030E0420F81E042177B
:1029C00008F080E0732E782A190F2A2F9F2D6B2F85
:1029D0007F2FAE2FB52F342E710E08C020E090E06F
:1029E00060E070E0A0E0B0E0332477248B849C8426
:1029F0004B815C81841A950AED81FE81E815F90509
:102A000008F44F01E981FA81408051804B815C815B
:102A10005A01CC24DD24EE24FF248701622E640EAB
:102A200031E0621608F030E0892F8B0D41E0891704
:102A300008F040E0380F91E0381708F090E0492B9B
:102A4000862F8C0D51E0861708F050E0480F91E07A
:102A5000481708F090E0592B872F8D0D61E08717FC
:102A600008F060E0580F91E0581708F090E0692BEB
:102A70008A2F8E0D71E08A1708F070E0680F91E0E0
:102A8000681708F090E0792B9B2F9F0D81E09B1732
:102A900008F080E0790FA1E0791708F0A0E08A2B18
:102AA000A32DA00F91E0A31508F090E08A0FB1E0EC
:102AB0008A1708F0B0E09B2B710ED201ED91FC91CA
:102AC000262D970D0D851E8574010995882309F41F
:102AD000AFC02D813E81281939093E832D83940191
:102AE00040E050E060E070E080E090E0AF89B88DB9
:102AF000D3961C91D397D496DC90D497D596BC915D
:102B0000EF89F88D06A9E7A8A0AC71ACF2AC180D5E
:102B1000F1E0181508F0F0E0ED2DE30FA1E0E31768
:102B200008F0A0E0BF2EBE0EF1E0BE1608F0F0E007
:102B3000AF2BE42FEB0FB1E0E41708F0B0E0CA2EA2
:102B4000CE0EF1E0CE1608F0F0E0BF2BE52FE00F3F
:102B5000A1E0E51708F0A0E0DB2EDE0EF1E0DE16C6
:102B600008F0F0E0AF2BE62FEE0DB1E0E61708F02D
:102B7000B0E0EA2EEE0EF1E0EE1608F0F0E0BF2B2A
:102B8000E72FEA0DA1E0E71708F0A0E00B2F0E0FEA
:102B9000F1E00E1708F0F0E0AF2BE82FE70DF1E0C1
:102BA000E81708F0F0E0AA2EAE0EA1E0AE1608F08D
:102BB000A0E0FA2BF90EFF0DAF89B88DD3961C93C8
:102BC000D397D496BC92D497D596CC92D597D696D7
:102BD000DC92D697D796EC92D797D8960C93D89745
:102BE000D996AC92D997DA96FC93DA978B819C812F
:102BF000880D991DEB85FC858E179F0710F18D912F
:102C00009C914F81588569857A850E949D0C6F83C0
:102C1000788789879A87611571058105910579F40F
:102C2000AF89B88DDB961D921D921D921C92DE9786
:102C30004F855889ED81FE814E1B5F0B21C01C82A0
:102C40001B822F81388549855A85AF89B88DDB96DF
:102C50002D933D934D935C93DE97ED81FE81EF2B99
:102C600039F02D853E85280D391D3E872D871ECED6
:102C70004F85588905C04FEF5FEF02C040E050E03C
:102C8000CA0168960FB6F894DEBF0FBECDBFCF91D4
:102C9000DF911F910F91FF90EF90DF90CF90BF9049
:102CA000AF909F908F907F906F905F904F903F90EC
:102CB0002F9008952F923F924F925F926F927F9242
:102CC0008F929F92AF92BF92CF92DF92EF92FF923C
:102CD0000F931F93DF93CF93CDB7DEB766970FB6F1
:102CE000F894DEBF0FBECDBF9E8B8D8B7E876D8728
:102CF000588B4F87009709F472C3672B09F46FC391
:102D0000452B09F46CC3DC01D3968C90D397D496F1
:102D10009C90D497D596AC90D597D696BC90D697E4
:102D2000D796CC90D797D896DC90D897D996EC9038
:102D3000D997DA96FC90FC0187A190A5A1A5B2A530
:102D40009C01AD0160E070E080E090E09F1508F428
:102D500046C3F91609F58E1508F441C3E816E1F4E7
:102D60007D1508F43CC3D716B9F46C1508F437C3C5
:102D7000C61691F45B1508F432C3B51669F44A150A
:102D800008F42DC3A41641F4391508F428C393168A
:102D900019F4281508F423C3AD89BE892D913C91FF
:102DA0001197F901008CF18DE02DFC87EB87DB9604
:102DB0008D919D910D90BC91A02D8F839887A987AF
:102DC000BA870097A105B10509F0AEC0AD89BE89EB
:102DD00093968D919D910D90BC91A02D8F83988796
:102DE000A987BA870097A105B10529F5882D8929FA
:102DF0008A298B298C298D298E298F2909F0EFC2E8
:102E0000C90140E050E060E070E001E010E020E047
:102E100030E00E94CA0F6F83788789879A87ED898F
:102E2000FE8963A374A385A396A36115710581052B
:102E3000910509F4D4C2AD89BE89D3966C91D3971C
:102E4000D4967C91D497D596EC91D597D696FC9153
:102E5000D697D7969C91D797D8962C91D897D996F4
:102E60003C91D997DA964C91862F872B8E2B8F2BFE
:102E7000892B822B832B842B09F456C09B01AF0135
:102E8000C901DA012C013D014B855C859A0140E0C6
:102E900050E0298B3A8B4B8B5C8B3CC089899A899B
:102EA000AB89BC89481A590A6A0A7B0AAD89BE896E
:102EB0008D919C914F81588569857A850E949D0CE2
:102EC000611571058105910529F06F8378878987E0
:102ED0009A8720C0411451046104710409F07FC233
:102EE000ED89FE89808191814F81588569857A8538
:102EF00001E010E020E030E00E94CA0FAB01BC010D
:102F0000411551056105710509F469C24F83588760
:102F100069877A8729893A894B895C8942165306E1
:102F20006406750608F0BACF4B855C854150504069
:102F30005C874B87482159215C834B838B859C851B
:102F400001969C878B87AF85B889BE83AD83ED8959
:102F5000FE890190F081E02DFA83E983309709F42E
:102F60008EC02F81388549855A852230310541052B
:102F7000510508F484C0225030404040504059016F
:102F80006A012E5F3F4F4F4F5F4F2F83388749872E
:102F90005A87208C318C9501A60160E070E080E0BA
:102FA00090E05101CC24DD24EE24FF2400E010E069
:102FB0000E94BA00E981FA81B28DF38CA48D058D4F
:102FC000D68CC78CB0A011A1B20FF1E0B21708F0F7
:102FD000F0E0232F2F0DE1E0231708F0E0E0EF2EC3
:102FE000E20E31E0E21608F030E0E32B242F2A0F46
:102FF000F1E0241708F0F0E0FE2EF20E31E0F216B8
:1030000008F030E0F32B252F200F41E0251708F0C2
:1030100040E0F20F31E0F21708F030E0432B262FAA
:103020002D0D51E0261708F050E0E42FE20F31E0BB
:10303000E21708F030E0532B272F2C0D41E0271723
:1030400008F040E0520F31E0521708F030E0432B17
:10305000282F2B0D31E0281708F030E0420F81E0D7
:10306000421708F080E0A32FA82B190F2B2F9E2DBD
:103070006F2D7F2F4E2E252EB42FA10F08C020E0DC
:1030800090E060E070E044242224B0E0A0E08B8473
:103090009C844B815C81841A950AED81FE81E81540
:1030A000F90508F44F01E981FA81608071804B8154
:1030B0005C815A01CC24DD24EE24FF248701522EAA
:1030C000540E31E0521608F030E0892F8B0D41E0AC
:1030D000891708F040E0380F91E0381708F090E0C9
:1030E000492B862F8C0D51E0861708F050E0480FD1
:1030F00091E0481708F090E0592B872F8D0D61E083
:10310000871708F060E0580F91E0581708F090E03A
:10311000692B842D8E0D71E0841508F070E0680F26
:1031200091E0681708F090E0792B922D9F0D81E0D7
:10313000921508F080E0790FE1E0791708F0E0E0FF
:103140008E2BEB2FE00F91E0EB1708F090E08E0F45
:10315000F1E08E1708F0F0E09F2BA10FF301C4807F
:10316000D580252D9A0F0D851E857401F6010995D0
:10317000882309F4E5C02D813E81281939093E8351
:103180002D83940140E050E060E070E080E090E04A
:10319000AD89BE89D3961C91D397D496DC90D497F1
:1031A000D596BC91ED89FE8906A9E7A8A0AC71ACC3
:1031B000F2AC180DF1E0181508F0F0E0ED2DE30F7A
:1031C000A1E0E31708F0A0E0BF2EBE0EF1E0BE16AE
:1031D00008F0F0E0AF2BE42FEB0FB1E0E41708F0BC
:1031E000B0E0CA2ECE0EF1E0CE1608F0F0E0BF2B14
:1031F000E52FE00FA1E0E51708F0A0E0DB2EDE0EE2
:10320000F1E0DE1608F0F0E0AF2BE62FEE0DB1E0B6
:10321000E61708F0B0E0EA2EEE0EF1E0EE1608F048
:10322000F0E0BF2BE72FEA0DA1E0E71708F0A0E0E0
:103230000B2F0E0FF1E00E1708F0F0E0AF2BE82F88
:10324000E70DF1E0E81708F0F0E0AA2EAE0EA1E0DD
:10325000AE1608F0A0E0FA2BF90EFF0DAD89BE897D
:10326000D3961C93D397D496BC92D497D596CC92F0
:10327000D597D696DC92D697D796EC92D797D896D4
:103280000C93D897D996AC92D997DA96FC93DA97A3
:103290008B819C81880D991DEB85FC858E179F077E
:1032A000C0F18D919C914F81588569857A850E94E6
:1032B0009D0C611571058105910529F06F83788753
:1032C00089879A8724C02D813E81232BA9F0AD895F
:1032D000BE898D919C914F81588569857A8501E0E1
:1032E00010E020E030E00E94CA0FAB01BC014115A4
:1032F00051056105710539F4ED89FE8913AE14AEEF
:1033000015AE16AE1DC04F83588769877A871C8219
:103310001B822F81388549855A85AD89BE89DB9608
:103320002D933D934D935C93DE97ED81FE81EF2BC2
:1033300039F02D853E85280D391D3E872D8707CE16
:10334000AD89BE89D396CC90D397D4960C91D4975F
:10335000D596FC90D597D696EC90D697D796DC90DC
:10336000D797D8961C91D897D996FC91D997DA9689
:10337000EC91DA9797962D913D914D915C919A97AA
:1033800060E070E080E090E09E17E0F0E91701F562
:103390008F17C0F0F817E1F47117A0F01717C1F4F8
:1033A0006D1580F0D616A1F45E1560F0E51681F477
:1033B0004F1540F0F41661F4301720F0031741F474
:1033C0002C1530F4ED89FE89C7A200A7F1A6E2A66C
:1033D0004F8558892D813E81421B530B02C04FEF10
:1033E0005FEFCA0166960FB6F894DEBF0FBECDBF81
:1033F000CF91DF911F910F91FF90EF90DF90CF90D1
:10340000BF90AF909F908F907F906F905F904F9004
:103410003F902F900895FC01009711F011821082C7
:103420000895FC01009711F480E0089583A194A110
:10343000A5A1B6A183AB94ABA5ABB6AB10AE17AA52
:1034400081E008950F931F93CF93DF93EC010097D2
:1034500009F4A3C06115710509F49FC0DB019C91BB
:10346000992309F49AC01B968C918F3029F5892FE6
:1034700090E08F7390702DE030E0829FA001839FD9
:10348000500D929F500D11244D505040A0E5B1E0D9
:10349000C40FD51F0DC08D91FB01E80FF11D808178
:1034A00089934F5F5F4FE1E0AD35BE0709F477C008
:1034B0004F31510580F373C08881882309F04DC0D6
:1034C000AB01DE018B0120E0F8019081903299F090
:1034D0009C93FB01848583FF08C0F80180818134BF
:1034E00020F08B3510F4905E9C932F5F0F5F1F4F81
:1034F0001196283049F78881853011F485EE88834C
:10350000DB0118968C91803221F1FE01E20FF11D52
:103510008EE28083322F3F5F2C5FFA0190859032DC
:10352000B9F0FE01E30FF11D9083DB011C968C9135
:1035300084FF09C0DA0118968C91813420F08B3514
:1035400010F4905E90833F5F4F5F5F4F321729F713
:10355000232FFE01E20FF11D1082FB01838588A35A
:10356000228D338D40E050E084899589A0E0B0E061
:10357000DC0199278827822B932BA42BB52B89A3B9
:103580009AA3ABA3BCA3848D958DA68DB78D8DA377
:103590009EA3AFA3B8A782E003C080E001C081E092
:1035A000DF91CF911F910F910895EF92FF920F93AA
:1035B0001F93CF93DF93DC01E701E881F9818A81D2
:1035C0009B8180969B838A838C91853E31F18823F1
:1035D00021F181A592A5892B93A5892B94A5892BEF
:1035E00095A5892B96A5892B97A5892B90A9892B21
:1035F00041F401A712A723A734A745A756A767A799
:1036000070ABCF01BD010E94221A813031F08230AF
:1036100011F481E08C8380E001C081E0DF91CF91E3
:103620001F910F91FF90EF9008952F923F924F922C
:103630005F926F927F928F929F92AF92BF92CF9242
:10364000DF92EF92FF920F931F93DF93CF93CDB74B
:10365000DEB72C970FB6F894DEBF0FBECDBF3C018E
:103660006B01009709F498C06115710509F494C0C5
:10367000DB019996BC9099979A96AC909A979B96F5
:103680009C909B979C968C909C979D965C909D9708
:103690009E964C909E979F963C909F97D0962C908C
:1036A0008B2D8A298929882985298429832982299A
:1036B00009F472C0D301ED91FC910190F081E02DED
:1036C0002B2D3A2D492D582D652D742D832D922D9E
:1036D0008E010F5F1F4FACE0EA2EF12C0995882375
:1036E00009F45AC0B5EEB983D301ED91FC91048081
:1036F000F581E02D2B2D3A2D492D582D652D742D5A
:10370000832D922D8E010F5F1F4F0995882309F499
:1037100043C08C858F3079F57B2D705E81E07B1501
:1037200008F080E0682F6A0D81E06A1508F080E0FB
:10373000582F590D81E0591508F080E0482F480DA9
:1037400081E0481508F080E0382F350D81E035150F
:1037500008F080E0282F240D81E0241508F080E097
:10376000830D91E0831508F090E05B014A01290187
:10377000382E290E9FCFF60141A152A163A174A159
:10378000411551056105710529F0C3010E940E0E16
:10379000882319F081E001C080E02C960FB6F894E0
:1037A000DEBF0FBECDBFCF91DF911F910F91FF9074
:1037B000EF90DF90CF90BF90AF909F908F907F90D1
:1037C0006F905F904F903F902F9008952F923F926F
:1037D0004F925F926F927F928F929F92AF92BF9221
:1037E000CF92DF92EF92FF920F931F93DF93CF93CD
:1037F000CDB7DEB762970FB6F894DEBF0FBECDBF70
:103800009A8B898B423051056105710510F480E077
:10381000A2C089899A89892B49F420E030E040E0F0
:1038200050E060E070E010E090E07BC0425050401B
:10383000604070405A016B01E989FA89208C318C13
:103840009A01A60160E070E080E090E05101CC2494
:10385000DD24EE24FF2400E010E00E94BA00C92E0F
:10386000E989FA89B28DB38CA48D158DF68CE78C1D
:10387000D0A001A1B20FE1E0B21708F0E0E0232FE1
:103880002B0DF1E0231708F0F0E03E2F320FE1E0BE
:10389000321708F0E0E0FE2B242F2A0FA1E02417B6
:1038A00008F0A0E04F2F420FE1E0421708F0E0E0FF
:1038B000AE2B252F210FF1E0251708F0F0E05A2F4D
:1038C000520FE1E0521708F0E0E0FE2B262F2F0DFB
:1038D000A1E0261708F0A0E06F2F620FE1E0621769
:1038E00008F0E0E0AE2B272F2E0DF1E0271708F0AF
:1038F000F0E07A2F720FE1E0721708F0E0E0FE2BA3
:10390000282F2D0DE1E0281708F0E0E08F2F820F1F
:1039100091E0821708F090E09E2B0C0D2B2F182FB2
:10392000900FDE01119680E1FD0111928A95E9F771
:10393000E989FA89C080D180E08CF18CF60186801B
:103940009780812F8D01E7EFCE2EE2E1DE2EAA24B3
:10395000BB24F401099562960FB6F894DEBF0FBE42
:10396000CDBFCF91DF911F910F91FF90EF90DF902E
:10397000CF90BF90AF909F908F907F906F905F900F
:103980004F903F902F9008952F923F924F925F92C9
:103990006F927F928F929F92AF92BF92CF92DF925F
:1039A000EF92FF920F931F93DF93CF93CDB7DEB7C4
:1039B000E7970FB6F894DEBF0FBECDBF9DAB8CABC3
:1039C0007FAB6EAB009709F45EC16115710509F418
:1039D0005AC1DC010D90BC91A02DBBABAAAB58968F
:1039E000ED91FC915997F9ABE8ABDC01D3962D91A1
:1039F0003D914D915C91D6972CA73DA74EA75FA70F
:103A0000D796ED91FC91D897FBA7EAA781E3DB015C
:103A10001D928A95E9F7FE01319685E0DF011D923E
:103A20008A95E9F7211531054105510509F00AC1CB
:103A3000AAA9BBA9ED91FC91119780858B3059F40F
:103A40009A962D913D914D915C919D972CA73DA704
:103A50004EA75FA7F7C0EAA9FBA9028CF38DE02D62
:103A6000AAA9BBA992968D919C919397E81BF90BFB
:103A7000F9ABE8ABE7C04AA55BA59A0140E050E08E
:103A80002EA33FA348A759A78CA59DA5AEA5BFA56A
:103A90000097A105B10539F4EAA9FBA982A193A178
:103AA000A4A1B5A173C02AA93BA92115310509F428
:103AB00065C08CA59DA5AEA5BFA582309105A105C9
:103AC000B10508F45BC00297A109B1095C016D0161
:103AD0000296A11DB11D8CA79DA7AEA7BFA7D901B6
:103AE00058962D903C9059979501A60160E070E0A2
:103AF00080E090E05101CC24DD24EE24FF2400E09E
:103B000010E00E94BA00EAA9FBA9A28DF38CB48D43
:103B1000058DD68CA20FF1E0A21708F0F0E0232F5C
:103B20002F0DE1E0231708F0E0E0CF2EC20E31E0C8
:103B3000C21608F030E0E32B242F2B0FF1E02417FE
:103B400008F0F0E0EE2EE20E31E0E21608F030E090
:103B5000F32B252F200F41E0251708F040E0FF2E22
:103B6000F20E31E0F21608F030E0432B262F2D0D37
:103B7000042F020F2A2F3C2DA70104C020E030E0C3
:103B800040E050E08EA19FA1A8A5B9A5820F931F88
:103B9000A41FB51F1C821B82EAA9FBA920813181C9
:103BA0002C013D01C8A8D9A84AA55BA5C41AD50A0D
:103BB000D9011296ED91FC9113979201A30160E057
:103BC00070E080E090E08E010A5F1F4FB0E2EB2EC4
:103BD000F12CA5EDAA2EAAE1BA2E4E010894811C63
:103BE000911C0995882309F44EC08B819C81EAA51C
:103BF000FBA5E80FF91FFBA7EAA728A939A9E21737
:103C0000F30720F18AA99BA94CA55DA56EA57FA508
:103C10000E949D0C6CA77DA78EA79FA71BA61AA626
:103C2000611571058105910589F4ACA9BDA993962B
:103C30008D919D910D90BC91A02D8CA79DA7AEA7B5
:103C4000BFA708C0EEA9FFA9FA83E9838D81882365
:103C500009F411CF2CA53DA54EA55FA5ACA9BDA922
:103C6000D3962D933D934D935C93D697EAA5FBA5F0
:103C7000D896FC93EE93D797AEA9BFA98C918823D1
:103C800019F081E001C080E0E7960FB6F894DEBF3E
:103C90000FBECDBFCF91DF911F910F91FF90EF909D
:103CA000DF90CF90BF90AF909F908F907F906F905C
:103CB0005F904F903F902F9008952F923F924F9298
:103CC0005F926F927F928F929F92AF92BF92CF92AC
:103CD000DF92EF92FF920F931F93DF93CF93CDB7B5
:103CE000DEB7CD54D0400FB6F894DEBF0FBECDBFC7
:103CF0002C01009709F4D9C3DC0114968D919C9195
:103D00001597892B09F4D1C316968D919C9117971D
:103D1000892B09F4CAC3E6C3E0E3F4E08EE2DF01D5
:103D20001D928A95E9F75092310440923004F201D5
:103D3000A184B284C384D4849501A60160E070E0BC
:103D400080E090E009E00E9434022EAF3FAF219660
:103D50004FAF219722965FAF229723966FAF23979D
:103D600024967FAF249725968FAF259726969FAFF1
:103D70002697255F31E0FEAD2F1708F030E0EFAC5D
:103D80003E0D41E03E1508F040E02196FFAC219742
:103D90004F0D51E04F1508F050E022960FAD2297DD
:103DA000500F61E0501708F060E023961FAD239795
:103DB000610F71E0611708F070E024968FAD2497D1
:103DC000780F81E024969FAD2497791708F080E062
:103DD0002596AFAD25978A0F91E08A1708F090E0FD
:103DE000D201ED91FC912696BFAD26979B0F8E01D7
:103DF0000F5F1F4FA5E2EA2EF12C0995882309F4E5
:103E000078C329803A80EC81FD81FFA7EEA7FB8172
:103E1000F8ABEE80E9AA0F8118851BAB0AAB898548
:103E20009A852C853D853DAB2CABAE88BF88C88C70
:103E3000D98C4A8D5B8D6C8D7D8D4EAB5FAB68AF41
:103E400079AFEAA0FBA00CA11DA1EAAEFBAE0CAFBE
:103E50001DAFA114B104C104D10431F4009709F4D9
:103E600048C35C01CC24DD240CA91DA90115110552
:103E700041F0980140E050E02EAB3FAB48AF59AF66
:103E80000AC06EA97FA988AD99AD6115710581053C
:103E9000910509F42EC3EEA5FFA5CF01A0E0B0E087
:103EA00086017501E81AF90A0A0B1B0BF9A92F2FD5
:103EB00030E040E050E06EA97FA988AD99AD0E9446
:103EC0002445E61AF70A080B190BC10101972AA924
:103ED0003BA945E0220F331F4A95E1F7820F931F5C
:103EE000B1010E94434580E090E0E61AF70A080B12
:103EF000190B68A9262F30E040E050E0C801B70157
:103F00000E946A4539014A0175EF67167FE077061E
:103F100070E0870670E0970608F4EBC285EF68163C
:103F20008FEF780680E0880680E0980628F486E027
:103F3000D20118968C9303C08BE0F20180878CE24B
:103F4000E2E3F4E0DF011D928A95E9F7710100E0F8
:103F500010E020E030E040E050E02EA2FFA208A7F1
:103F600019A72AA73BA74CA75DA79501A60160E06A
:103F700070E080E090E0AEA0BFA0CC24DD24EE2471
:103F8000FF2400E010E00E94BA0020933204309336
:103F90003304409334045093350460933604709393
:103FA000370480933804909339040EA51FA5980117
:103FB00040E050E060E070E080E090E000E010E081
:103FC0000E94BA00A32FB42F152F062FF72ED82E3C
:103FD000CEACC20EF1E0C21608F0F0E03FAD3A0FF1
:103FE000E1E03A1708F0E0E0EF2EE30E21E0E316FF
:103FF00008F020E0E22B21964FAD21974B0F31E0E6
:104000004B1708F030E0AE2FA40F21E0A41708F002
:1040100020E0322B22965FAD2297510F41E05117DD
:1040200008F040E0F32FF50F21E0F51708F020E04D
:10403000422B23966FAD2397600F31E0601708F095
:1040400030E0E42FE60F21E0E61708F020E0322B05
:1040500024967FAD24977F0D41E07F1508F040E066
:10406000532F570F21E0571708F020E0422B2596D9
:104070008FAD25978D0D21E08D1508F020E0480FBC
:1040800031E0481708F030E0232B26961FAD269725
:10409000910F290FC0923A04E0923B04A0933C0494
:1040A000F0933D04E0933E0450933F04409340045A
:1040B00020934104D20118968C91863029F064E057
:1040C00070E080E090E004C062E070E080E090E0AA
:1040D00022E0E22EF12C012D112D6E0C7F1C801E92
:1040E000911EA40193010E942445609342047093A1
:1040F00043048093440490934504309247042092F3
:104100004604F8A88F2D90E08C01029DC001039D0C
:10411000900D129D900D11249093490480934804B2
:10412000D20118968C91F9A8EF2CFF2400E010E042
:1041300020E030E040E050E02796EFAE2797289649
:10414000FFAE289729960FAF29972A961FAF2A9777
:104150002B962FAF2B972C963FAF2C972D964FAFCA
:104160002D972E965FAF2E97863009F0FAC00CA9D6
:104170001DA92EA13FA140E050E060E070E080E08A
:1041800090E05801CC24DD24EE24FF2400E010E070
:104190000E94BA002796AFAC2797BB240E94BA00B2
:1041A000F0903A04E0913B04B0913C0410913D043E
:1041B00000913E04A0903F0490904004A0914104DF
:1041C000F20EF1E0F21608F0F0E0232F2E0FE1E0FE
:1041D000231708F0E0E0EF2EE20E31E0E21608F0DF
:1041E00030E0E32B242F2B0FF1E0241708F0F0E050
:1041F000DE2ED20E31E0D21608F030E0F32B252F60
:10420000210F41E0251708F040E0CF2EC20E31E02B
:10421000C21608F030E0432B262F200F51E026175E
:1042200008F050E0B42EB20E31E0B21608F030E0E3
:10423000532B272F2A0D41E0271708F040E0A52E29
:10424000A20E31E0A21608F030E0432B282F290DF2
:1042500031E0281708F030E0942E920E81E092169B
:1042600008F080E0132F182BA90F1A0FF0925204B8
:10427000E0925304D0925404C0925504B092560474
:10428000A092570490925804109359042AA93BA96C
:1042900040E050E060E070E080E090E005E00E94E7
:1042A00034022F0DE1E02F1508F0E0E03E0DF1E0C3
:1042B0003E1508F0F0E0BE2FB30FE1E0B31708F0B1
:1042C000E0E0FE2B4D0DE1E04D1508F0E0E0AF2FF2
:1042D000A40F31E0A41708F030E0E32B5C0D41E0BF
:1042E0005C1508F040E0FE2FF50F31E0F51708F0FF
:1042F00030E0432B6B0D51E06B1508F050E0E42FDC
:10430000E60F31E0E61708F030E0532B7A0D41E07C
:104310007A1508F040E0652F670F31E0671708F065
:1043200030E0432B890D31E0891508F030E0542F3F
:10433000580F41E0581708F040E0342B190F310FA7
:1043400020934A04B0934B04A0934C04F0934D0483
:10435000E0934E0460934F04509350043093510403
:10436000A1C02796AFAC27972EA13FA140E050E017
:1043700060E070E080E090E0BB24CC24DD24EE24FB
:10438000FF2400E010E00E94BA00EEA8FFA808ADEC
:1043900019AD1701280157016201EE24FF2400E046
:1043A00010E00E94BA00A0913A04E0913B04109101
:1043B0003C0400913D04F0903E04D0903F04C09036
:1043C0004004B0914104A20FF1E0A21708F0F0E020
:1043D000232F2E0FE1E0231708F0E0E0EF2EE20E8E
:1043E00031E0E21608F030E0E32B242F210FF1E05A
:1043F000241708F0F0E01E2F120F31E0121708F01A
:1044000030E0F32B252F200F41E0251708F040E086
:10441000EF2FE20F31E0E21708F030E0432B262FB8
:104420002F0D51E0261708F050E0642F620F31E0A5
:10443000621708F030E0532B272F2D0D41E027178E
:1044400008F040E0520F31E0521708F030E0432B03
:10445000282F2C0D31E0281708F030E0420F81E0C2
:10446000421708F080E0382BB90F3B0FA0934A04A5
:10447000E0924B0410934C04E0934D0460934E047F
:1044800050934F0440935004309351040AAD1BAD38
:104490002CAD3DAD00935A0410935B0420935C0453
:1044A00030935D0420E334E002C020E030E0C90135
:1044B000C35BDF4F0FB6F894DEBF0FBECDBFCF9109
:1044C000DF911F910F91FF90EF90DF90CF90BF9001
:1044D000AF909F908F907F906F905F904F903F90A4
:1044E0002F9008958091300490913104892BE9F642
:1044F00013CC1092310410923004D7CF2F923F92F8
:104500004F925F926F927F928F929F92AF92BF92E3
:10451000CF92DF92EF92FF920F931F93DF93CF938F
:10452000CDB7DEB769970FB6F894DEBF0FBECDBF2B
:104530009D878C879B01892B09F4E2C241155105A7
:1045400009F4DEC2DA010D900020E9F7A41BB50BD7
:10455000CD010B966DE070E00E944345462F4F5F02
:104560004B87D90193968D919D910D90BC91A02D73
:104570008E839F83A887B987AC85BD85ED91FC911B
:1045800080852E813F81488559852115310541055A
:10459000510571F48B3029F5AC85BD859A968D91C6
:1045A0009D910D90BC91A02D8E839F83A887B98784
:1045B0001E8A1F8A188E198E33244424552466249B
:1045C000DD24CC24BB24AA24222499248824772403
:1045D0001E861F86188A198A1A8A1B8A1C8A1D8AB7
:1045E00034C0EC85FD85D2A0C3A0B4A0A5A026A0B0
:1045F00097A080A471A4F28DFE87AC85BD855B96E3
:10460000BC91BF87EC85FD85F48DF88BAC85BD85AD
:104610005D96BC91B98BEC85FD85F68DFA8BAC85EA
:10462000BD855F96BC91BB8BEC85FD85F0A1FC8BB5
:10463000AC85BD859196BC91BD8BDE8ACF8AB88E44
:10464000A98E322C492C582C672C1A86EE85DE1642
:1046500009F0D1C1FF85CF1609F0CDC12889B21666
:1046600009F0C9C13989A31609F0C5C14A892416C0
:1046700009F0C1C15B89951609F0BDC18C89881606
:1046800009F0B9C19D89791609F0B5C12E813F8124
:1046900048855985211531054105510509F430C278
:1046A0008D2D8C298B298A29822989298829872976
:1046B00009F4BAC08C859D85BA01A9010E949D0CA0
:1046C000611571058105910509F0AAC08C859D854C
:1046D0004E815F816885798501E010E020E030E05F
:1046E0000E94CA0F6A837B838C839D836115710549
:1046F0008105910509F404C2DC01CB010297A109EF
:10470000B1095C016D010296A11DB11D8A839B83D5
:10471000AC83BD83AC85BD8558962D903C90599750
:104720009501A60160E070E080E090E05101CC24AA
:10473000DD24EE24FF2400E010E00E94BA00C92E20
:10474000EC85FD85B28DB38CA48D058DF68CE78C40
:10475000D0A011A1B20FE1E0B21708F0E0E0232FE2
:104760002B0DF1E0231708F0F0E03E2F320FE1E0CF
:10477000321708F0E0E0FE2B242F2A0FA1E02417C7
:1047800008F0A0E04F2F420FE1E0421708F0E0E010
:10479000AE2B252F200FF1E0251708F0F0E05A2F5F
:1047A000520FE1E0521708F0E0E0FE2B262F2F0D0C
:1047B000A1E0261708F0A0E06F2F620FE1E062177A
:1047C00008F0E0E0AE2B272F2E0DF1E0271708F0C0
:1047D000F0E07A2F720FE1E0721708F0E0E0FE2BB4
:1047E000282F2D0DE1E0281708F0E0E08F2F820F31
:1047F00091E0821708F090E06E2E692A1C0DBE8BA6
:104800003F8B488F598F362E472E582E610E8C8540
:104810009D854A815B816C817D810E94E61B78C108
:104820006E837F83888799872E813F81488559854C
:10483000223031054105510548F4DD24CC24BB2448
:10484000AA2422249924882477248DC08E819F81D4
:10485000A885B9850297A109B1095C016D0102968D
:10486000A11DB11D8E839F83A887B987AC85BD85A7
:1048700058962D903C9059979501A60160E070E004
:1048800080E090E05101CC24DD24EE24FF2400E000
:1048900010E00E94BA00C92EEC85FD85B28DB38C64
:1048A000A48D058DF68CE78CD0A011A1B20FE1E0AC
:1048B000B21708F0E0E0232F2B0DF1E0231708F0EA
:1048C000F0E03E2F320FE1E0321708F0E0E0FE2B7F
:1048D000242F2A0FA1E0241708F0A0E04F2F420F49
:1048E000E1E0421708F0E0E0AE2B252F200FF1E0C9
:1048F000251708F0F0E05A2F520FE1E0521708F0A8
:10490000E0E0FE2B262F2F0DA1E0261708F0A0E0F7
:104910006F2F620FE1E0621708F0E0E0AE2B272F67
:104920002E0DF1E0271708F0F0E07A2F720FE1E08A
:10493000721708F0E0E0FE2B282F2D0DE1E028177C
:1049400008F0E0E08F2F820F91E0821708F090E0EE
:104950007E2E792A1C0DDB2EC32EB42EA52E262EDC
:10496000972E882E710EAC85BD8558968D919C91A1
:1049700059979C01FD2DF80FE1E0FD1508F0E0E0EE
:104980008C2D830F21E08C1508F020E06E2F680F2E
:1049900091E0681708F090E0922B9B0D81E09B1549
:1049A00008F080E0582F5A0D81E05A1508F080E099
:1049B000482F420D81E0421508F080E0382F390D74
:1049C00081E0391508F080E0880D21E0881508F0B5
:1049D00020E0FE876F87988B598B4A8B3B8B8C8BA3
:1049E000270D2D8BDE8ACF8AB88EA98E322C492CCA
:1049F000582C672C1A86AC85BD85ED91FC910190F1
:104A0000F081E02D2D2D3C2D4B2D5A2D622D792D31
:104A1000882D972D8E010F5F1F4FB1E0EB2EF12CEB
:104A20000995882309F46CC08981853E11F088239B
:104A3000B9F5BA85BF5FBA87EB85BE1708F068C0C5
:104A40007D2D705E81E07D1508F080E0682F6C0D93
:104A500081E06C1508F080E0582F5B0D81E05B155C
:104A600008F080E0482F4A0D81E04A1508F080E008
:104A7000382F320D81E0321508F080E0282F290D03
:104A800081E0291508F080E0880D91E0881508F094
:104A900090E06B015A01232E922E882E790ED6CDEE
:104AA0007D2D705E81E07D1508F080E0682F6C0D33
:104AB00081E06C1508F080E0582F5B0D81E05B15FC
:104AC00008F080E0482F4A0D81E04A1508F080E0A8
:104AD000382F320D81E0321508F080E0282F290DA3
:104AE00081E0291508F080E0880D91E0881508F034
:104AF00090E06B015A01232E922E882E790E9DCDC7
:104B00001E8A1F8A188E198E332444245524662445
:104B10002E893F89488D598D632D742D852D962DB5
:104B200069960FB6F894DEBF0FBECDBFCF91DF916F
:104B30001F910F91FF90EF90DF90CF90BF90AF90BB
:104B40009F908F907F906F905F904F903F902F90AD
:104B500008952F923F924F925F926F927F928F9221
:104B60009F92AF92BF92CF92DF92EF92FF920F93FC
:104B70001F93DF93CF93CDB7DEB7A5970FB6F89409
:104B8000DEBF0FBECDBFFC016B01009709F4C5C1AC
:104B90006115710509F4C1C10190F081E02D848196
:104BA00095819BA38AA3DB0199962C9099979A965D
:104BB000BC91BCA3FB0173A464A455A446A437A470
:104BC000F0A9FDA3062FFD2CFB0101900020E9F7C1
:104BD00031971E2F161B812F90E00C966DE070E030
:104BE0000E94574569A3CE01019660E270E04BE058
:104BF00050E00E94BC02C6016EE270E00E94F40226
:104C0000FC010097E1F09C012F5F3F4F81818823D9
:104C1000B1F0D9010D900020E9F71197A21BB30B59
:104C20008A2F8095180FBE01675F7F4F4A2FA430EF
:104C300008F043E0CB01B90150E00E94B302CE017D
:104C400001961930A0F4602F7F2D412F50E00E9473
:104C5000B302D6018C918E32A1F511968C911197E9
:104C60008E3211F412968C91882351F12AC0DC0106
:104C7000802F9F2D9C01F90188E001900D928150B9
:104C8000E1F7F60121A1822F90E0203A40F414E0F0
:104C9000959587951A95E1F7982F905D07C0B4E038
:104CA00095958795BA95E1F7982F9F59822F8F7028
:104CB0008A3010F4805D01C08F599F83888701C0BE
:104CC00019A28981853E11F485E0898385E1FE0181
:104CD0003C96DF011D928A95E9F7F60180A18C8749
:104CE00021A132A143A154A1CA01AA27BB279E8BAF
:104CF0008D8B3C8F2B8F85A196A1A7A1B0A58D8F01
:104D00009E8FAF8FB8A3F9A18F2F90E0F5E0880FA9
:104D1000991FFA95E1F79C0140E050E060E070E0F7
:104D200080E090E0B22EB20CA1E0B21608F0A0E054
:104D3000ECA1E30FF1E0E31708F0F0E0EA2EEE0E4D
:104D4000A1E0EE1608F0A0E0FA2BE1E0741608F0FE
:104D5000E0E0FF2EF70CF1E0F71408F0F0E0EF2BA5
:104D6000F1E0651608F0F0E00E2F060DE1E0061503
:104D700008F0E0E0FE2BE1E0561608F0E0E01F2F1F
:104D8000150DF1E0151508F0F0E0EF2BF1E04716F6
:104D900008F0F0E0BE2FB40DE1E0B41508F0E0E05B
:104DA000FE2BA1E0381608F0A0E08F2F830DE1E084
:104DB000831508F0E0E0AE2B2B2D3E2D4F2D502F0C
:104DC000612F7B2F9DA19A0F8E010F5F1F4FE0E295
:104DD000EE2EF12CAAA1BBA1FD010995882309F4AF
:104DE0009CC0A980FE013296AE01445F5F4F8A2DC0
:104DF00090E09C01359527959695982F8827979553
:104E00008795A82EA22A8191A80EE417F50779F7B5
:104E1000B9A04E010894811C911C7AC0C4016FEFA7
:104E200070E040E250E00E94BC02EDE0BE9ED00186
:104E300011241D97AC0DBD1D91E0F401E90FF11D8A
:104E40008C918083892F8F5FF401E80FF11D108210
:104E50009E5F9B3019F09A3121F402C09EE001C0A0
:104E60009CE18C91882321F09F3110F41196E5CFBD
:104E7000B982F9A1BF1619F48B2D806489832FE0C4
:104E80002C87AE861D861B8E1C8E222D3CA1472DA5
:104E9000562D652D742D832D9DA18401E0E2EE2E0B
:104EA000F12CAAA1BBA1FD010995722D705E81E0D4
:104EB000721508F080E06CA1680F81E0BCA16B174F
:104EC00008F080E0582F570D81E0571508F080E07A
:104ED000482F460D81E0461508F080E0382F350D4B
:104EE00081E0351508F080E0282F240D81E024159D
:104EF00008F080E0830D91E0831508F090E0272E04
:104F00006CA33A012901382EEDA1E90FEDA3BA9463
:104F1000BB2009F083CF81E001C080E0A5960FB6E9
:104F2000F894DEBF0FBECDBFCF91DF911F910F91DF
:104F3000FF90EF90DF90CF90BF90AF909F908F90B9
:104F40007F906F905F904F903F902F900895AF9219
:104F5000BF92CF92DF92EF92FF920F931F93CF9366
:104F6000DF938C017B01EA01009709F454C06115BD
:104F7000710509F450C0FB018081882309F44BC0FE
:104F80004115510509F447C0B42EAD2EC801BE012C
:104F90000E94C41C882399F0C7016B2D7A2D0E94B2
:104FA000CE02009799F7F80183A194A1A5A1B6A11B
:104FB00083AB94ABA5ABB6AB10AE17AA2CC0F8016F
:104FC000C080D18081E3FE0111928A95E9F78B2D93
:104FD0009A2DB7014FE150E00E94E502C601B801E9
:104FE000AE010E947E2229A73AA74BA75CA76DA716
:104FF0007EA78FA798AB232B242B252B262B272B83
:10500000282B292B41F0C601BE010E94A925882327
:1050100019F081E001C080E0DF91CF911F910F91E5
:10502000FF90EF90DF90CF90BF90AF900895CF9317
:10503000DF93EC01009741F0FC0181919191BF0158
:105040000E94A92519821882DF91CF910895CF93EC
:10505000DF93AC01DB010097A9F16115710591F1B6
:1050600090968C91909784FF2DC080917F039091B2
:105070008003892B19F4EFE7F3E008C08091B803AF
:105080009091B903892BF1F4E8EBF3E09F012E5FD7
:105090003F4FBD0181E3EB010990BE01E901099297
:1050A0009E018150C1F75183408391968D919D91CE
:1050B0000D90BC91A02D83AB94ABA5ABB6AB10AE5D
:1050C00017AA02C0E0E0F0E0CF01DF91CF91089590
:1050D000CF93DF939C01DB01009741F061157105CF
:1050E00029F090968C91909784FF33C020E030E0B7
:1050F000C901DF91CF910895C3EFD3E0FD0181E3B2
:10510000019009928150E1F73093F2032093F1036B
:105110001092240410922504109226041092270461
:10512000109228041092290410922A0410922B0441
:1051300091968D919D910D90BC91A02D80932C0402
:1051400090932D04A0932E04B0932F0421EF33E00D
:10515000CFCF8091F1039091F203892B39F6CCCF18
:105160006F927F928F929F92AF92BF92CF92DF9277
:10517000EF92FF920F931F93CF93DF934C01EB01BC
:105180007A01009709F467C06115710509F463C0DD
:105190008881882309F45FC04115510509F45BC07B
:1051A0008F3209F4219681E3F70111928A95E9F78C
:1051B00080E1F70180A3370101C0E50188818823E0
:1051C00009F44BC0C401B7010E9427286C01009765
:1051D00009F441C0CE016FE270E00E94C302009763
:1051E00039F0482F4C1B5C010894A11CB11C2AC04B
:1051F000FE0101900020E9F731974E2F4C1B5E0114
:10520000A40EB11C1FC0F30101900020E9F73197F3
:10521000E619F709E017F107B9F4CE01B301A801C7
:105220000E94D702009781F4F601118210820C0FC0
:105230001D1FF8018081882381F0F70180A184FD82
:10524000BCCF09C0042F10E0C601B7010E94C41CE6
:105250008823C9F612C080E001C081E0DF91CF91C0
:105260001F910F91FF90EF90DF90CF90BF90AF9084
:105270009F908F907F906F900895F6011182108219
:105280009DCFDC0113961C92139708C0FD01E80F17
:10529000F11D14828F5F13968C93139713968C9144
:1052A0001397803298F395961C92959708C0FD014C
:1052B000E80FF11D16A28F5F95968C9395979596A2
:1052C0008C919597803298F311961C921E92A95B4F
:1052D000BF4F81E090E011969C938E93A754B0400D
:1052E00012961C92129713961C92139794961C92E6
:1052F000949795961C929597AA5BBF4F1C92089520
:10530000FC01E75BFF4F71836083E954F040CF01FC
:105310000E9441290895CF93DF93EC0128813981C0
:105320002115310541F4653D09F046C00E9441292F
:1053300081E090E03FC02130310561F46A831B8237
:1053400082E090E099838883613208F435C0C95BBC
:10535000DF4F2EC022303105F9F49B818A819817E6
:10536000A0F48CA1862728E03CE880FB86950EF40B
:1053700083272A95D1F78CA3903220F4FE01E90F00
:10538000F11D64838B818F5F8B839B818A8198174A
:1053900098F083E090E00EC02330310569F48CA1D1
:1053A000861731F0C95BDF4F39832883C754D0405B
:1053B00084E090E099838883DF91CF910895FC0188
:1053C00020E080819181049709F421E0822F0895E3
:1053D000FC0183810895FC01E95BFF4F808191818D
:1053E0000895FC01E95BFF4F85E090E091838083A5
:1053F0000895FC01E95BFF4F82E090E09183808398
:1054000008956F927F928F929F92AF92BF92DF9298
:10541000EF92FF920F931F93CF93DF93EC0196E4EB
:10542000A92EB12CAC0EBD1E8E01095B1F4FD801F9
:105430009C9180E0892798E02CE880FB86950EF40B
:1054400082279A95D1F7F501808389E4E82EF12C23
:10545000EC0EFD1ED701ED91FC9185ED09958DA116
:10546000D701ED91FC918F5F0995D701ED91FC91EA
:10547000D8018C910995DD24450137011AC08E01B0
:105480000D0D111DD301ED91FC91D80196968C91D3
:105490000995F4018081D80196969C91892798E01E
:1054A0002CE880FB86950EF482279A95D1F78083AD
:1054B000D3948DA1D81618F3D701ED91FC91D501A5
:1054C0008C910995CE010E944129DF91CF911F91C6
:1054D0000F91FF90EF90DF90BF90AF909F908F90D3
:1054E0007F906F9008956F927F928F929F92BF925C
:1054F000CF92DF92EF92FF920F931F93CF93DF93A0
:10550000EC0136E4C32ED12CC80ED91ED6011C9254
:1055100029E4E22EF12CE80EF91ED701ED91FC9161
:1055200085ED0995D701ED91FC918DA10995BB24DD
:10553000460137011AC08E010B0D111DD301ED91EB
:10554000FC91D80196968C910995F4018081D8013F
:1055500096969C91892798E02CE880FB86950EF41E
:1055600082279A95D1F78083B3948DA1B81618F34A
:10557000D701ED91FC91D6018C910995DF91CF91E6
:105580001F910F91FF90EF90DF90CF90BF909F9071
:105590008F907F906F900895DC01952F95968C9158
:1055A0009597803240F4FD01E80FF11D46A38F5F0F
:1055B00095968C93959795968C919597803240F41B
:1055C000FD01E80FF11D96A38F5F95968C9395973B
:1055D000AB0166277727952F95968C91959780320A
:1055E00040F4FD01E80FF11D46A38F5F95968C9363
:1055F000959795968C919597803238F4FD01E80F38
:10560000F11D96A38F5F95968C930895DC01959676
:105610008C919597803240F4FD01E80FF11D66A34F
:105620008F5F95968C93959795968C9195978032F0
:1056300038F4FD01E80FF11D76A38F5F95968C93EA
:105640000895DC0195968C919597803238F4FD0190
:10565000E80FF11D66A38F5F95968C930895FC016A
:10566000E60FF11D84810895FC016F5FDC01A60F38
:10567000B11D615014969C9180E0E60FF11D2481CC
:1056800030E0282B392BC90108950F931F938C010B
:10569000862F8E5F6D5FF801E60FF11D348120E0EB
:1056A000F801E80FF11D848190E0282B392B40E0B0
:1056B00050E0A901332722276250F801E60FF11DBF
:1056C0006150948180E0060F111DF801648170E043
:1056D000862B972BA0E0B0E0282B392B4A2B5B2B95
:1056E000B901CA011F910F910895F999FECF72BDBA
:1056F00061BDF89A80B50895F999FECF1FBA72BDC1
:1057000061BD40BD0FB6F894FA9AF99A0FBE08959C
:1057100088EB98E00E94F741882311F00E94413104
:105720008091AB08882319F40E94272D08958130B9
:1057300011F40E941B4008958DE061E00E946F44C7
:105740008CE061E00E946F448DE060E00E948D4437
:1057500088EB98E040E056E960E070E00E94FC4190
:105760008BEB98E040E056E960E070E00E94FC417D
:1057700008951092AA080E940E2C0E94FE2C0E94EE
:10578000B93D0E94913E0E94FE3208950E947A3FE8
:105790000E9424390E94B92B08950F931F930E94F1
:1057A0009C2B0E94B92B08EB18E0C80162E071E065
:1057B0000E945643C8014AE650E060E070E02AE0EB
:1057C00030E00E9464441F910F9108950E94A3410C
:1057D0000E94CD2B0E94882BFDCF8EE594E060E0E7
:1057E00070E00E94752B8A3511F090E00AC08EE5BA
:1057F00094E061E070E00E94752B90E0883709F436
:1058000091E0892F08958EE060E00E948D4460ED64
:1058100077E080E090E00E94794108958EE061E0B9
:105820000E946F440E94032C0895CF92DF92EF9262
:10583000FF920F931F936C01DC01ED90FC90119788
:1058400012968D919C9113979C012F5F3F4F139659
:105850003C932E931297F7014681578162817381A1
:10586000840F951F0E94434500811181F801E80FC4
:10587000F91FE081F0E02F5F3F4FD60113963C9374
:105880002E93129721503040D70116968D919C91FE
:10589000179712966D917C911397820F931F0E9418
:1058A0004345080F191FD8019C9180E0E82BF92B84
:1058B000CF011F910F91FF90EF90DF90CF9008954F
:1058C0002F923F924F925F926F927F928F929F9210
:1058D000AF92BF92CF92DF92EF92FF920F931F93FE
:1058E0002C01FC01C080D180828193818C010F5FEB
:1058F0001F4F13830283F6012681378162817381F2
:10590000820F931F0E94434520803180F101E80FF0
:10591000F91F80809924AA24BB2438010894611CB3
:10592000711CF20173826282F60186819781628125
:105930007381800F911F0E944345F101E80FF91F09
:10594000008110E020E030E0322F212F102F0027BF
:1059500073010894E11CF11CF201F382E282F6016A
:105960008681978162817381860D971D0E944345D0
:10597000F101E80FF91F808190E0A0E0B0E0DC01C8
:10598000992788270894E11CF11CF201F382E28236
:105990000894E108F108082919292A293B29082B2C
:1059A000192B2A2B3B2BF60186819781628173810B
:1059B0008E0D9F1D0E944345280E391EF1018081E6
:1059C00090E0A0E0B0E0B82FAA2799278827082BFD
:1059D000192B2A2B3B2BB801C9011F910F91FF9066
:1059E000EF90DF90CF90BF90AF909F908F907F907F
:1059F0006F905F904F903F902F9008951092B40554
:105A00001092B5051092B6051092B7050895089545
:105A10008FE594E061E372E30E94802980E091E0E9
:105A20009093AD058093AC058AEA94E09093AB0522
:105A30008093AA051092B1051092B0051092AF059F
:105A40001092AE051092B3051092B20508952F92F0
:105A50003F924F925F926F927F928F929F92AF92FE
:105A6000BF92CF92DF92EF92FF920F931F93DF933B
:105A7000CF93CDB7DEB760970FB6F894DEBF0FBEF9
:105A8000CDBF8091DD05882321F542C0E091AA05B4
:105A9000F091AB058091AE059091AF05E80FF91F2D
:105AA00040838091AE059091AF056091AC057091F7
:105AB000AD0501960E9443459093AF058093AE05D6
:105AC0008091B2059091B30501969093B3058093B0
:105AD000B2052091AC053091AD058091B205909151
