:100000000C948F000C94B7000C94B7000C94B700BC
:100010000C94B7000C94B7000C94B7000C94B70084
:100020000C94B7000C94B7000C94B7000C94B70074
:100030000C94B7000C94FA200C94B7000C94B70001
:100040000C94B7000C94B7000C94512A0C94B70090
:100050000C94322C0C94B7000C94B7000C94B7009D
:100060000C94B7000C94B7000C94B7000C94B70034
:100070000C946F2C0C94B7000C94B70039174717E9
:100080004A175917661785179E17C217C517A01864
:10009000D917DE17F1171718451866186F18951835
:1000A000002124272A002225282B0020232629028C
:1000B000020202020202020404040404040404030F
:1000C0000303030303030301010101010101010112
:1000D0000204081020408001020408102040800122
:1000E0000204081020408080402010080402010013
:1000F00000000102000000000000000403070600E9
:1001000000000000000000000000000000000000EF
:1001100062147C1AF11EE927332B61146A1F112423
:100120001FBECFEFD0E1DEBFCDBF11E0A0E0B1E058
:10013000E0E2FEE502C005900D92A635B107D9F7C1
:1001400019E0A6E5B1E001C01D92AB32B107E1F7BD
:1001500011E0CAE1D1E004C02297FE010E94FF2E07
:10016000C031D107C9F70E94D7190C94032F0C9402
:100170000000FB01DC0102C001900D924150504093
:10018000D8F70895DC0101C06D9341505040E0F76D
:100190000895FB01DC018D91019080190110D9F3C4
:1001A000990B0895FB01DC014150504048F001904B
:1001B0000D920020C9F701C01D9241505040E0F758
:1001C0000895FC0181E090E00190061609F4CF014A
:1001D0000020D1F701970895FC01009711F480E009
:1001E0000895108681E008958F929F92AF92BF92FA
:1001F000CF92DF92EF92FF920F93DF93CF93CDB721
:10020000DEB760970FB6F894DEBF0FBECDBF7C019E
:100210006B015A01490104300CF08CC007FD1DC070
:10022000602F772767FD7095E4E0660F771FEA95EA
:10023000E1F762547E4F882777FD8095982FAE01B5
:100240004F5F5F4F20E130E0F7010995882309F403
:1002500071C08D81882309F46DC080915E0188236F
:1002600009F068C07CC08D8180935E012A8530E0F2
:1002700040E050E0542F432F322F22278B8590E00F
:10028000A0E0B0E0DC0199278827282B392B4A2BE6
:100290005B2B898590E0A0E0B0E0282B392B4A2B1E
:1002A0005B2B8C8590E0A0E0B0E0B82FAA279927BF
:1002B0008827282B392B4A2B5B2B20935F01309307
:1002C000600140936101509362012E8530E040E06F
:1002D00050E0542F432F322F22278F8590E0A0E04B
:1002E000B0E0DC0199278827282B392B4A2B5B2B80
:1002F0008D8590E0A0E0B0E0282B392B4A2B5B2BBA
:10030000888990E0A0E0B0E0B82FAA279927882735
:10031000282B392B4A2B5B2B2093630130936401EC
:10032000409365015093660103C08FEF80935E0197
:100330009F0102C020E030E0C90160960FB6F8943A
:10034000DEBF0FBECDBFCF91DF910F91FF90EF9039
:10035000DF90CF90BF90AF909F908F900895E6E58B
:10036000F1E081E1DF011D928A95E9F7F0925701F2
:10037000E0925601D0925901C0925801B0925B01AF
:10038000A0925A0190925D0180925C0107FF6BCFB1
:10039000CCCFFC011182108213821282158214824A
:1003A0000895CB010E94BA100E94F0050895CB0178
:1003B000BA01422F50E00E942C0D0895DF93CF9395
:1003C000CDB7DEB768970FB6F894DEBF0FBECDBFCE
:1003D000FC0184819581AE014F5F5F4F0E94670FE2
:1003E00068960FB6F894DEBF0FBECDBFCF91DF91F8
:1003F0000895EF92FF920F931F93CF93DF93EB013A
:100400008A0179010BC0C701B8010E94C900009799
:1004100029F4CE010E94770781E006C0CE01B70122
:100420000E94D707882379F7DF91CF911F910F9111
:10043000FF90EF900895EF92FF920F931F93DF9339
:10044000CF93CDB7DEB768970FB6F894DEBF0FBE77
:10045000CDBF8C017E010894E11CF11C97010E9424
:10046000F901882319F420E030E005C0C801B70184
:100470000E94F7109C01C90168960FB6F894DEBF80
:100480000FBECDBFCF91DF911F910F91FF90EF90E5
:100490000895FC01AB0164817581828193810E9482
:1004A0001B020895EF92FF920F931F93DF93CF9358
:1004B000CDB7DEB768970FB6F894DEBF0FBECDBFDD
:1004C0008C01FC01828193817E010894E11CF11C66
:1004D000B7010E948907F80182819381B7010E94C8
:1004E000D010F8019583848320E0892B09F021E066
:1004F000822F68960FB6F894DEBF0FBECDBFCF91A6
:10050000DF911F910F91FF90EF9008950F931F932C
:100510008C01FC01808191810E94550AF80193832E
:10052000828320E0892B09F021E0822F1F910F9117
:1005300008950F93CF93DF93EC018CE394E06CE08C
:1005400075E043E553E027E036E000E00E94F40068
:1005500099838883892B69F48CE394E06CE075E0DF
:1005600043E553E027E036E00FEF0E94F400998363
:10057000888320E088819981892B09F021E0822FEE
:10058000DF91CF910F9108950E94F00208950E948B
:10059000F70290E0882309F491E0892F08950E94E2
:1005A0007C050895CF93DF93EC018C819D810097AA
:1005B00021F00E9471071D821C828A819B81009715
:1005C00021F00E9462061B821A828881998100971D
:1005D00021F00E94EC0019821882DF91CF910895DA
:1005E00083B186958695869580958170089583B1AF
:1005F00086958695809581700895282F8FEF8EBD02
:100600000DB407FEFDCF8DB58F778DBD8EB5822FD2
:1006100080648EBD0DB407FEFDCF8DB58F778DBD87
:10062000872F9927AA27BB278EBD0DB407FEFDCFC4
:100630008DB58F778DBDCB01AA27BB278EBD0DB49D
:1006400007FEFDCF8DB58F778DBDBB27A72F962FCA
:10065000852F8EBD0DB407FEFDCF8DB58F778DBD77
:100660004EBD0DB407FEFDCF8DB58F778DBD222316
:1006700011F08FEF01C085E98EBD0DB407FEFDCFEF
:100680008DB58F778DBD90E02FEF2EBD0DB407FE99
:10069000FDCF8DB58F778DBD8EB58F3F19F49F5FE0
:1006A0009A3099F708952F923F924F925F926F92EE
:1006B0007F928F929F92AF92BF92CF92DF92EF92F2
:1006C000FF920F931F93CF93DF934B015C012A019D
:1006D00039011A9BB2C0BAC0E12C4EEFF42E4FEF95
:1006E000042F4FEF142FE820F9200A211B213FEFA0
:1006F000C32E31E0D32EC820D920C0E0D2E0CC19DF
:10070000DD096C167D0608F4E30120916703309142
:1007100068034091690350916A03E216F3060407E7
:10072000150749F180916B03882359F4CA01B90177
:1007300047E651E020E032E00E945303882309F4A9
:1007400085C0C114D10421F482E0C030D80758F428
:10075000C801B70147E651E020E032E00E943C04C6
:10076000882309F473C0E0926703F0926803009352
:10077000690310936A0387E6481681E0580671F012
:10078000960129593E4FC901B201AE010E94B9003C
:1007900010926B036C167D0609F45AC02C9888E100
:1007A000B801A7010E94FD02882311F02C9A4EC0C7
:1007B0008EEF8EBD0DB407FEFDCF8DB58F778DBD4D
:1007C000E7E6F1E081918EBD0DB407FEFDCF8DB55A
:1007D0008F778DBD83E0E736F807A1F73EBC0DB4F7
:1007E00007FEFDCF8DB58F778DBD3EBC0DB407FEE6
:1007F000FDCF8DB58F778DBD3EBC0DB407FEFDCF0F
:100800008DB58F778DBD8EB58F3FB1F78EBD0DB491
:1008100007FEFDCF4C0E5D1E8DB58F778DBD8EB55D
:100820002C9A6C1A7D0ACE01A0E0B0E0880E991EC9
:10083000AA1EBB1E20926B0304C033243A942224C8
:1008400023946114710409F047CF02C080E001C015
:1008500081E0DF91CF911F910F91FF90EF90DF909A
:10086000CF90BF90AF909F908F907F906F905F9050
:100870004F903F902F9008953F924F925F926F92CA
:100880007F928F929F92AF92BF92CF92DF92EF9220
:10089000FF920F931F93CF93DF934B015C016A018B
:1008A000290133243A94A1C0E12C6EEFF62E6FEFAC
:1008B000062F6FEF162FE820F9200A211B215FEF8A
:1008C000652E51E0752E68207920C0E0D2E0C6196F
:1008D000D7094C165D0608F4E201209167033091B8
:1008E00068034091690350916A03E216F306040716
:1008F000150709F467C080916B03882359F4CA0176
:10090000B90147E651E020E032E00E94530388231A
:1009100009F470C02C9881E1B801A7010E94FD0282
:10092000882339F003C02150304029F42C9A80E00C
:1009300061C020E030E03EBC0DB407FEFDCF8DB5B8
:100940008F778DBD8EB58E3F71F7E7E6F1E03EBC47
:100950000DB407FEFDCF8DB58F778DBD8EB580832D
:1009600083E0E636F80711F03196F1CFE0926703A5
:10097000F09268030093690310936A039301295965
:100980003E4FC601B901AE010E94B9003EBC0DB494
:1009900007FEFDCF8DB58F778DBD8EB53EBC0DB4F6
:1009A00007FEFDCF8DB58F778DBD8EB52C9A3EBCE1
:1009B0000DB407FEFDCFCC0EDD1E8DB58F778DBD3E
:1009C0008EB50AC0930129593E4FC601B901AE0147
:1009D0000E94B900CC0EDD1E4C1A5D0ACE01A0E0CB
:1009E000B0E0880E991EAA1EBB1E4114510409F0E6
:1009F0005BCF81E0DF91CF911F910F91FF90EF903E
:100A0000DF90CF90BF90AF909F908F907F906F902E
:100A10005F904F903F9008952F923F924F925F9238
:100A20006F927F928F929F92AF92BF92CF92DF92FE
:100A3000EF92FF920F931F93DF93CF9300D000D0DC
:100A4000CDB7DEB74B015C013A013C832B83270114
:100A5000DA82C98241155105A9F12115310591F1BB
:100A60000217130778F1E114F10461F119013094D0
:100A7000219431083394021B130B6901EE24FF24E7
:100A8000C501B401A3012B813C810E943C04882351
:100A9000C9F0C301B501A40129813A81F201099588
:100AA000882391F0020D131D8B819C81800F911F73
:100AB0002B813C818217930738F08C0C9D1CAE1C57
:100AC000BF1CDECF80E001C081E00F900F900F903F
:100AD0000F90CF91DF911F910F91FF90EF90DF90DA
:100AE000CF90BF90AF909F908F907F906F905F90CE
:100AF0004F903F902F900895CF93DF9323982298A3
:100B0000259A279A249A26982C9A83E58CBD8DB530
:100B10008E7F8DBD1B9921C020E030E09FEF9EBDF0
:100B20000DB407FEFDCF8DB58F778DBD8EB52F5FD0
:100B30003F4F2A30310599F72C98C0E0D0E080E093
:100B400040E050E060E070E00E94FD02813049F03A
:100B500081E0CF3FD80719F42C9A80E03EC021965F
:100B6000EECFC0E0D0E081E040E050E060E070E037
:100B70000E94FD0280FF06C08FE7CF3FD80761F3D8
:100B80002196F1CF80E140E052E060E070E00E9409
:100B9000FD02882309F72C9A8CB58C7F8CBD8DB50E
:100BA00081608DBD8FEF9FEFAFEFBFEF8093670345
:100BB00090936803A0936903B0936A0381E08093E4
:100BC0006B0360E070E080E090E047E651E020E0F9
:100BD00032E00E943C04811181E0DF91CF910895C1
:100BE00080916B03882311F081E008956091670381
:100BF000709168038091690390916A0347E651E020
:100C000020E032E00E945303811181E008954F9269
:100C10005F926F927F928F929F92AF92BF92CF928C
:100C2000DF92EF92FF920F931F93CF93DF935B01BD
:100C30006C014A01E901380127014115510571F1A3
:100C40000115110559F1FF242115310511F5FF2476
:100C5000F3941FC0C401B601A5019201F3010995E7
:100C60008C010097E9F0FF2019F4C817D907B0F0FC
:100C7000C601B501A40198010E945303882371F0B5
:100C8000C801A0E0B0E0A80EB91ECA1EDB1EC01B42
:100C9000D10BFF20F9F62097E9F602C080E001C0F1
:100CA00081E0DF91CF911F910F91FF90EF90DF9046
:100CB000CF90BF90AF909F908F907F906F905F90FC
:100CC0004F900895FC01009711F011821082089551
:100CD000DC018C91853E39F1882329F1F9012081CD
:100CE0003181828193812817390799F44483558390
:100CF000668377831B968C911B978F3011F080E26F
:100D000005C08C918295880F807E805E808780E010
:100D100008951B968C918F3031F02F5F3F4F3183B8
:100D2000208381E0089581E00895EF92FF920F9370
:100D30001F93CF93DF93EC017A018B018881853E6D
:100D400009F4C7C0882309F4C4C0B901F901848932
:100D50009589A689B7890097A105B10521F4E48A90
:100D6000F58A068B178B6115710509F4B2C02097BF
:100D700009F4AFC09881992309F4ABC08B858F30FB
:100D8000C9F5892F90E08F7390702DE030E0AC01B1
:100D9000429FC001439F900D529F900D11249C01D2
:100DA0002D503040AC01415050404D30510500F5C0
:100DB000FB01E20FF31F898180838B8181838D8109
:100DC00082838F818383898584838E8585838889C7
:100DD00086838A8987838C8980878E898187888D9D
:100DE00082878C8D8387640F751F8E8DFB018083B6
:100DF00081E070C0FB0180818823A9F5AE01DE018E
:100E000080E090E0282F3C91303251F0FB01E80F58
:100E1000F91F30832F5F019611968830910591F765
:100E2000FB018081853011F485EE808388858032D6
:100E3000B1F0FB01E20FF11D8EE28083822F8F5F04
:100E40002C5FFA019085903249F0FB01E80FF11D0B
:100E500090838F5F4F5F5F4F821799F7282FFB01B9
:100E6000E20FF11D10828B85FB0185879B8D80E051
:100E70002A8D30E0822B932B978786872D8D30E04B
:100E800040E050E0542F432F322F22278E8D90E0E8
:100E9000A0E0B0E0DC0199278827282B392B4A2BCA
:100EA0005B2B8C8D90E0A0E0B0E0282B392B4A2BF7
:100EB0005B2B8F8D90E0A0E0B0E0B82FAA27992798
:100EC0008827282B392B4A2B5B2B208B318B428B8D
:100ED000538B80E0DF91CF911F910F91FF90EF90A6
:100EE0000895FC01009711F0118210820895FC0111
:100EF000009711F480E00895138E128E81E008951A
:100F0000FC0180E1DF011D928A95E9F780E190E024
:100F10000895FB01892B61F06115710549F088E1A5
:100F2000DB011D928A95E9F780E1858781E00895CC
:100F300080E00895DF93CF9300D0CDB7DEB7FC01FA
:100F4000009769F16230710550F1660F771F80E0FC
:100F500090E02681378140855185620F731F841F81
:100F6000951FAE014F5F5F4F22E030E00E943C04CE
:100F70008823A9F09A8180E0298130E0282B392B41
:100F80002115310571F08FEF273F380741F0C90176
:100F90004096079720F08FEF283F380710F020E0A9
:100FA00030E0C9010F900F90CF91DF9108952F92FB
:100FB0003F924F925F926F927F928F929F92AF92E9
:100FC000BF92CF92DF92EF92FF920F931F93DF9326
:100FD000CF93CDB7DEB7E1970FB6F894DEBF0FBE63
:100FE000CDBF3C012B01009709F4D6C061157105F6
:100FF00009F4D2C0DC015096AD90BC9051978D9011
:101000009C9011975A96ED91FC915B97FBA7EAA7EC
:10101000A114B10409F03FC08114910409F4B9C0CE
:10102000FE01319689E0DF011D928A95E9F72AA534
:101030003BA53C832B83D40152966D917D918D917C
:101040009C9155971AE0A12EB12CAC0EBD1E569660
:101050000D911C915797061B170BA50120E230E05C
:10106000A8E6EA2EA6E0FA2E6F010E940C0588235E
:1010700009F48FC02D813E814F815885211531059E
:101080004105510509F485C0A1C0F2018081882382
:1010900009F0B2C07EC08114910409F47AC0DC0169
:1010A0001F968C9184FF75C0F40120883188C1019E
:1010B000A0E0B0E08CA79DA7AEA7BFA7DE01119668
:1010C000B9ABA8ABEEEFFFEFAE0EBF1EB50180E0EF
:1010D00090E022E030E0A20EB31E2CA53DA54EA567
:1010E0005FA50E947A2E9B01AC01D40156966D91AA
:1010F0007D918D919C915997620F731F841F951F4D
:10110000E8A9F9A929E011922A95E9F7AAA5BBA5B2
:10111000BC83AB83AE01465F5F4F20E230E08101CC
:10112000F8E6EF2EF6E0FF2E6E010894C11CD11CEC
:101130000E940C05882369F12D813E814F815885DD
:10114000211531054105510549F4C401B5010E943D
:101150009A075C01009709F0B5CF1BC088E1F20146
:1011600011928A95E9F70985CA01B901AE01465F76
:101170005F4F20E230E010E0E5E9EE2EE6E0FE2EE3
:1011800062010E940C05882321F0D2018C918823F2
:10119000D1F5F301138E128E80E0E1960FB6F8942C
:1011A000DEBF0FBECDBFCF91DF911F910F91FF909A
:1011B000EF90DF90CF90BF90AF909F908F907F90F7
:1011C0006F905F904F903F902F90089588E1D201EB
:1011D0001D928A95E9F70985CA01B901A50120E2A6
:1011E00030E010E0B5E9EB2EB6E0FB2E62010E9484
:1011F0000C05882371F249CFF301828D938D0196FE
:10120000938F828F0AC0D3015A968D919C915B97E0
:1012100001965B969C938E935A9781E0BECF2F9256
:101220003F924F925F926F927F928F929F92AF9276
:10123000BF92CF92DF92EF92FF920F931F93DF93B3
:10124000CF93CDB7DEB72A970FB6F894DEBF0FBEA7
:10125000CDBF2C017C836B831A01009709F406C172
:10126000672B09F403C14115510509F4FFC0DC01E6
:101270005A96AD90BD90CD90DC905D9752962D9191
:101280003D914D915C915597C101A0E0B0E08A0D70
:101290009B1DAC1DBD1D281739074A075B0728F4A5
:1012A00019012A183B0809F4E4C0D201ED91FC9120
:1012B0001197208931893A8329835E968D919C917B
:1012C0005F979A878987390188249924892BD9F5D2
:1012D00050960D90BC91A02DBA87A987AB2B39F4FD
:1012E000A114B104C104D10409F4C3C0BFC0A11446
:1012F000B104C104D10439F1860175018827992709
:10130000DC0186199709A809B9098D839E83AF83EB
:10131000B88714C0D2018D919C9169857A850E940D
:101320009A079A878987892B09F4A0C08D819E81AD
:10133000AF81B885E80EF91E0A1F1B1FE614F704DB
:101340000805190538F7C601B501A40193010E94EB
:10135000C02E5B016101D201ED90FC90E114F1041B
:1013600009F1E985FA85E230F105E0F03297BF0135
:1013700080E090E03296FA87E987D70150962D9168
:101380003C91519740E050E00E947A2E9B01AC01C5
:10139000F70186899789A08DB18D280F391F4A1FC3
:1013A0005B1F04C020E030E040E050E009811A817A
:1013B0000A191B09C016D10608F48601D701ED9160
:1013C000FC91C501A0E0B0E0280F391F4A1F5B1F48
:1013D0000190F081E02DCA01B9014B815C81980137
:1013E0000995882361F1C01AD10AC801A0E0B0E0D4
:1013F000F201228D338D448D558D280F391F4A1FE0
:101400005B1FD2015A962D933D934D935C935D974C
:10141000C8018A0D9B1DE981FA818E179F07A8F0EC
:101420008D919C9169857A850E949A079A87898710
:10143000892B49F4D2015F961C921E925E97A101FE
:101440004C195D0918C0AA24BB2429853A85F201EC
:10145000378F268FC114D10439F08B819C81800F86
:10146000911F9C838B8377CFA10105C04FEF5FEF66
:1014700002C040E050E0CA012A960FB6F894DEBFE1
:101480000FBECDBFCF91DF911F910F91FF90EF90D5
:10149000DF90CF90BF90AF909F908F907F906F9094
:1014A0005F904F903F902F9008952F923F924F92D0
:1014B0005F926F927F928F929F92AF92BF92CF92E4
:1014C000DF92EF92FF920F931F93DF93CF93CDB7ED
:1014D000DEB7E0970FB6F894DEBF0FBECDBF6C014C
:1014E000009709F48FC1AAC1ECE6F3E08AE1DF01BD
:1014F0001D928A95E9F7D0926D03C0926C03D601D4
:1015000019962D913D914D915C911C97B9E0220F58
:10151000331F441F551FBA95D1F72AA33BA34CA3F1
:101520005DA3CA01B901655F7F4F8F4F9F4FAE0129
:101530004F5F5F4F29E130E00E943C04882309F4AB
:1015400084C1A9804A80BB81BEA30C81FD801E811D
:101550003F81588469847A849D8580E02C85E22FC0
:10156000F0E0E82BF92B8E883F88288DE98C3097A6
:1015700009F46BC1432D50E060E070E0962F852F99
:10158000742F662769A77AA78BA79CA7822F90E064
:10159000A0E0B0E0BC015527442789A59AA5ABA5DA
:1015A000BCA5842B952BA62BB72B482D50E060E0D3
:1015B00070E0842B952BA62BB72B89A79AA7ABA7F6
:1015C000BCA78E2D90E0A0E0B0E0782F66275527CD
:1015D000442789A59AA5ABA5BCA5842B952BA62B42
:1015E000B72B89A79AA7ABA7BCA70097A105B10500
:1015F00089F4972D80E0662D70E0682B792B6115BA
:10160000710509F422C1CB01A0E0B0E089A79AA737
:10161000ABA7BCA7942D80E02A2C3324282A392A92
:10162000952D80E0A32FB0E0A82BB92BB8A7AFA3CE
:101630009F2D80E0202F30E0822B932B9C0140E0F7
:1016400050E02A8F3B8F4C8F5D8FBF0180E090E090
:10165000212F30E040E050E00E947A2E6E8F7F8F85
:1016600088A399A3E9A4FAA40BA51CA54A8D5B8DB8
:101670006C8D7D8DE41AF50A060B170B6E8D7F8D30
:1016800088A199A1E61AF70A080B190BC101019765
:101690002FA138A545E0220F331F4A95E1F7820FAD
:1016A000931FB1010E94992E80E090E0E61AF70A9C
:1016B000080B190B7EA1272F30E040E050E0C80155
:1016C000B7010E94C02E29013A01D301C201855FF2
:1016D0009F40A040B0408050904FA040B04008F0E4
:1016E000B4C086E0D60118968C939EE6892E93E0CE
:1016F000992E88E1F40111928A95E9F75101CC24E1
:10170000DD2469A57AA58BA59CA5A60195010E945B
:101710007A2E60936E0370936F038093700390939F
:101720007103C601B5012A8D3B8D4C8D5D8D0E94E4
:101730007A2E7B018C012AA13BA14CA15DA1E20E76
:10174000F31E041F151FE0927203F09273030093BF
:1017500074031093750342E050E060E070E0440EC3
:10176000551E661E771E440C551C661C771C409245
:1017700076035092770360927803709279033092E7
:101780007B0320927A035EA1852F90E0BC01269E08
:10179000C001279E900D369E900D112490937D03DD
:1017A00080937C036E8D7F8D88A199A1A601950100
:1017B0000E947A2E6E0D7F1D801F911F60937E0305
:1017C00070937F038093800390938103AFA1B8A5AA
:1017D0009D0140E050E005E0220F331F441F551FDC
:1017E0000A95D1F7620F731F841F951F60938203C0
:1017F0007093830380938403909385039401225014
:10180000304002C020E030E0C901E0960FB6F89405
:10181000DEBF0FBECDBFCF91DF911F910F91FF9023
:10182000EF90DF90CF90BF90AF909F908F907F9080
:101830006F905F904F903F902F90089580916C0330
:1018400090916D03892BF1F64FCE10926D0310929B
:101850006C03D8CF2F923F924F925F926F927F92FC
:101860008F929F92AF92BF92CF92DF92EF92FF92B0
:101870000F931F93DF93CF93CDB7DEB72A970FB6A1
:10188000F894DEBF0FBECDBF2C013B011A010097BB
:1018900009F4C6C0DC0116962D913D914D915C91E5
:1018A00019972F83388749875A871A968D919D916A
:1018B0000D90BC91A02DB695A795979587959E8381
:1018C0008D83410100E010E0AA24BB2440C0C50183
:1018D000880F991F6C01EE24FF242F8138854985DC
:1018E0005A85C20ED31EE41EF51EC701B601AE0115
:1018F0004F5F5F4F22E030E00E943C04882309F4F0
:101900008FC08981882301F58A818823E9F48214B4
:10191000930421F43FEF39833A8302C009831A8389
:10192000C701B601AE014F5F5F4F22E030E00E9479
:101930005303882391F0089481089108811491043D
:1019400011F485010CC085010894A11CB11C4D81C6
:101950005E81A416B50608F4BACF8928F1F452E0E6
:101960006516710408F45EC009831A83660C771C3F
:10197000B30180E090E02F81388549855A85620F58
:10198000731F841F951FAE014F5F5F4F22E030E051
:101990000E945303882309F045C00230110508F462
:1019A0003FC0D20116966D907D908D909C901997B6
:1019B00093E0492E512C4C0E5D1E000F111F680143
:1019C000EE24FF24C60CD71CE81CF91CC701B60185
:1019D000A20122E030E00E943C04882309F1BC808F
:1019E000AA248B81082F10E00A291B290115110553
:1019F000C9F0C8014096089798F0BFEF083F1B0751
:101A000010F000E010E01B821C82C701B601A201A9
:101A100022E030E00E9453030115110571F602C067
:101A200000E010E0C8012A960FB6F894DEBF0FBEA2
:101A3000CDBFCF91DF911F910F91FF90EF90DF907D
:101A4000CF90BF90AF909F908F907F906F905F905E
:101A50004F903F902F9008952F923F924F925F9218
:101A60006F927F928F929F92AF92BF92CF92DF92AE
:101A7000EF92FF920F931F93DF93CF93CDB7DEB713
:101A800028970FB6F894DEBF0FBECDBF6C017C83E4
:101A90006B835E834D83009709F427C1672B09F49C
:101AA00024C1452B09F421C1DC015A968D909D90EB
:101AB000AD90BC905D9752968D919D910D90BC918B
:101AC000A02D88159905AA05BB0508F40EC1D601FD
:101AD000ED91FC911197208931893A8329835E9693
:101AE0008D919C915F9798878F8319014424552489
:101AF000892B09F053C050960D90BC91A02DB8874A
:101B0000AF83AB2BA9F481149104A104B10409F0B3
:101B1000ECC0CF0160E070E041E050E00E942A0C90
:101B200098878F83F601918B808B892B09F4DDC018
:101B3000D6015A96ED90FD900D911C915D97E114A0
:101B4000F1040105110529F529C0E218F30804097B
:101B50001509F601808191816F8178850E949A072D
:101B6000009719F098878F8314C0E114F1040105E0
:101B7000110509F0BAC0D6018D919C916F817885CD
:101B800041E050E00E942A0C009709F4AEC098870B
:101B90008F83E214F30404051505B8F6C501B401FA
:101BA000A20191010E94C02E3B018D809E80A980E0
:101BB000BA80A618B7088A149B0408F4540173016C
:101BC00000E010E0D601ED91FC9186899789A08D07
:101BD000B18DE80EF91E0A1F1B1FEF81F8853297A1
:101BE000BF0180E090E03296F887EF83A201910177
:101BF0000E947A2EE60EF71E081F191FC801B701B2
:101C00004B815C8195010E945303882309F44FC0E6
:101C10008A189B08C501A0E0B0E0F601228D338D43
:101C2000448D558D280F391F4A1F5B1FD6015A96C8
:101C30002D933D934D935C935D97C501860D971D44
:101C4000E981FA818E179F0708F18D919C916F8130
:101C500078850E949A07009719F098878F8314C09F
:101C60008114910459F0D6018D919C916F817885F2
:101C700041E050E00E942A0C009721F4F601178EF3
:101C8000168E15C098878F8366247724EF81F88598
:101C9000D6015F96FC93EE935E978114910439F020
:101CA0002B813C812A0D3B1D3C832B8380CFD601A9
:101CB0005A962D913D914D915C915D9752968D91E3
:101CC0009D910D90BC91A02D82179307A407B50795
:101CD00038F4F601228B338B448B558B81E080A343
:101CE0004D815E814819590902C04FEF5FEFCA016B
:101CF00028960FB6F894DEBF0FBECDBFCF91DF910F
:101D00001F910F91FF90EF90DF90CF90BF90AF9019
:101D10009F908F907F906F905F904F903F902F900B
:101D200008959F92AF92BF92CF92DF92EF92FF926F
:101D30000F931F93DF93CF93CDB7DEB7A0970FB666
:101D4000F894DEBF0FBECDBF8B01892B09F4ABC069
:101D50006115710509F4A7C0DB015496AD90BD90E3
:101D6000CD90DC905797E62E912EFB01019000203C
:101D7000E9F73197FE2EF61ACE01019660E270E087
:101D80004BE050E00E94C200C8016EE270E00E9489
:101D9000E100FC010097E1F09C012F5F3F4F818142
:101DA0008823B1F0D9010D900020E9F71197A21B0B
:101DB000B30B8A2F8095F80EBE01675F7F4F4A2FC5
:101DC000A43008F043E0CB01B90150E00E94B90013
:101DD000CE010196B8E0BF1538F06E2D792D4F2D4C
:101DE00050E00E94B90028C0DC018E2D992D9C0185
:101DF000F90188E001900D928150E1F7F801268504
:101E0000822F90E0203A40F4F4E095958795FA957A
:101E1000E1F7982F905D07C0E4E095958795EA95E6
:101E2000E1F7982F9F59822F8F708A3010F4805DD0
:101E300001C08F599F8388878981853E11F485E091
:101E4000898385E1FE013C96DF011D928A95E9F7C1
:101E5000F80185858C8786858B8F87858C8F808917
:101E60008D8F80899189A289B389292F3A2F4B2F91
:101E700055272E8F9D01442755272F8F8B2F99276C
:101E8000AA27BB2788A3C601B501AE014F5F5F4FEC
:101E900020E230E00E94530390E0882309F491E0AF
:101EA00081E0982701C090E0892FA0960FB6F894A2
:101EB000DEBF0FBECDBFCF91DF911F910F91FF907D
:101EC000EF90DF90CF90BF90AF909F9008952F92AA
:101ED0003F924F925F926F927F928F929F92AF92BA
:101EE000BF92CF92DF92EF92FF920F931F93DF93F7
:101EF000CF93CDB7DEB765970FB6F894DEBF0FBEB0
:101F0000CDBF7C018B015D8B4C8B009709F418C110
:101F10006115710509F414C1DB018C91882309F462
:101F20000FC1452B09F40CC1DC88CD88C7016C8931
:101F30007D890E94D707882359F0C8016D2D7C2D1B
:101F40000E94C900009791F7F701138E128EF8C016
:101F5000D7012D903C9088E1EC89FD8911928A95FA
:101F6000E9F78D2D9C2DB8014CE050E00E94D20085
:101F70002114310409F4CCC0AC89BD89FD01019064
:101F80000020E9F7EA1BFB0BCF010B966DE070E038
:101F90000E94992EF62FFF5FFA8BD70150964D9035
:101FA0005C9051974114510451F0EE24FF248701B5
:101FB000AA24BB2465016624772443010BC0F101E8
:101FC000A288B388C488D588E688F788008D118DEB
:101FD000350146011B8AAE14BF04C006D10609F0C4
:101FE0006FC04114510409F493C0A114B104C10499
:101FF000D104F1F1C101B2010E949A070097B9F52D
:10200000C101B20141E050E00E942A0C8C0100970E
:1020100009F47EC0D1015096ED90FC90519702508A
:102020001040B80180E090E00E5F1F4F970140E044
:1020300050E00E947A2E3B014C01F101868997897C
:10204000A08DB18D680E791E8A1E9B1E023011056F
:1020500008F461C0C401B301AE014E5F5F4F970148
:1020600000E817E0EE24FF240E94070654C02C016C
:10207000D1015096ED90FC90519700E010E0EEEF0A
:10208000FFEF4E0E5F1EB20180E090E022E030E0F4
:10209000420E531EA80197010E947A2E5B016C012B
:1020A000F10186899789A08DB18DA80EB91ECA1E2F
:1020B000DB1EEA0CFB1C0C1D1D1D350146011B8A95
:1020C000C601B501AE014F5F5F4F21E030E00E94D5
:1020D0003C048823E9F08981853E11F0882379F456
:1020E000FB89FF5FFB8B2A89F217A8F480E290E05E
:1020F000A0E0B0E0A80EB91ECA1EDB1E6CCF80E2C5
:1021000090E0A0E0B0E0A80EB91ECA1EDB1E60CFB2
:10211000662477244301AC89BD8954966D927D92E3
:102120008D929C925797611471048104910441F03F
:10213000C101BD010E94910E882319F081E001C008
:1021400080E065960FB6F894DEBF0FBECDBFCF918D
:10215000DF911F910F91FF90EF90DF90CF90BF9094
:10216000AF909F908F907F906F905F904F903F9037
:102170002F900895CF93DF93EC01009771F088A121
:10218000882349F0FE0181919191BF010E94910E37
:10219000882309F418A219821882DF91CF9108953B
:1021A0009C01FB01009731F06115710519F08585DF
:1021B00084FD16C020E030E0C9010895A9EAB3E02B
:1021C00088E101900D928150E1F73093A8032093AC
:1021D000A7031092C2031092C10327EA33E0ECCFA9
:1021E0008091A7039091A803892B21F7E7CFCF9384
:1021F000DF93AC01DB01009729F16115710511F145
:102200001D968C911D9784FF23C01CC0E7EAF3E064
:102210009F012E5F3F4FBD0188E1EB010990BE0198
:10222000E90109929E018150C1F751834083128ECA
:10223000138E148E158E1E968D919C911F97978FDD
:10224000868F02C0E0E0F0E0CF01DF91CF910895EA
:102250008091860390918703892BC1F6E6E8F3E02D
:10226000D7CFDC0113961C92139708C0FD01E80F2D
:10227000F11D14828F5F13968C93139713968C9194
:102280001397803298F395961C92959708C0FD019C
:10229000E80FF11D16A28F5F95968C9395979596F2
:1022A0008C919597803298F311961C921E92A95B9F
:1022B000BF4F81E090E011969C938E93A754B0405D
:1022C00012961C92129713961C92139794961C9236
:1022D000949795961C929597AA5BBF4F1C92089570
:1022E000FC01E75BFF4F71836083E954F040CF014D
:1022F0000E9431110895CF93DF93EC012881398139
:102300002115310541F4653D09F046C00E943111A7
:1023100081E090E03FC02130310561F46A831B8287
:1023200082E090E099838883613208F435C0C95B0C
:10233000DF4F2EC022303105F9F49B818A81981736
:10234000A0F48CA1862728E03CE880FB86950EF45B
:1023500083272A95D1F78CA3903220F4FE01E90F50
:10236000F11D64838B818F5F8B839B818A8198179A
:1023700098F083E090E00EC02330310569F48CA121
:10238000861731F0C95BDF4F39832883C754D040AB
:1023900084E090E099838883DF91CF910895FC01D8
:1023A00020E080819181049709F421E0822F089533
:1023B000FC0183810895FC01E95BFF4F80819181DD
:1023C0000895FC01E95BFF4F85E090E091838083F5
:1023D0000895FC01E95BFF4F82E090E091838083E8
:1023E00008956F927F928F929F92AF92BF92DF92E9
:1023F000EF92FF920F931F93CF93DF93EC0196E43C
:10240000A92EB12CAC0EBD1E8E01095B1F4FD80149
:102410009C9180E0892798E02CE880FB86950EF45B
:1024200082279A95D1F7F501808389E4E82EF12C73
:10243000EC0EFD1ED701ED91FC9185ED09958DA166
:10244000D701ED91FC918F5F0995D701ED91FC913A
:10245000D8018C910995DD24450137011AC08E0100
:102460000D0D111DD301ED91FC91D80196968C9123
:102470000995F4018081D80196969C91892798E06E
:102480002CE880FB86950EF482279A95D1F78083FD
:10249000D3948DA1D81618F3D701ED91FC91D501F5
:1024A0008C910995CE010E943111DF91CF911F913E
:1024B0000F91FF90EF90DF90BF90AF909F908F9023
:1024C0007F906F9008956F927F928F929F92BF92AC
:1024D000CF92DF92EF92FF920F931F93CF93DF93F0
:1024E000EC0136E4C32ED12CC80ED91ED6011C92A5
:1024F00029E4E22EF12CE80EF91ED701ED91FC91B2
:1025000085ED0995D701ED91FC918DA10995BB242D
:10251000460137011AC08E010B0D111DD301ED913B
:10252000FC91D80196968C910995F4018081D8018F
:1025300096969C91892798E02CE880FB86950EF46E
:1025400082279A95D1F78083B3948DA1B81618F39A
:10255000D701ED91FC91D6018C910995DF91CF9136
:102560001F910F91FF90EF90DF90CF90BF909F90C1
:102570008F907F906F900895DC01952F95968C91A8
:102580009597803240F4FD01E80FF11D46A38F5F5F
:1025900095968C93959795968C919597803240F46B
:1025A000FD01E80FF11D96A38F5F95968C9395978B
:1025B000AB0166277727952F95968C91959780325A
:1025C00040F4FD01E80FF11D46A38F5F95968C93B3
:1025D000959795968C919597803238F4FD01E80F88
:1025E000F11D96A38F5F95968C930895DC019596C7
:1025F0008C919597803240F4FD01E80FF11D66A3A0
:102600008F5F95968C93959795968C919597803240
:1026100038F4FD01E80FF11D76A38F5F95968C933A
:102620000895DC0195968C919597803238F4FD01E0
:10263000E80FF11D66A38F5F95968C930895FC01BA
:10264000E60FF11D84810895FC016F5FDC01A60F88
:10265000B11D615014969C9180E0E60FF11D24811C
:1026600030E0282B392BC90108950F931F938C015B
:10267000862F8E5F6D5FF801E60FF11D348120E03B
:10268000F801E80FF11D848190E0282B392B40E000
:1026900050E0A901332722276250F801E60FF11D0F
:1026A0006150948180E0060F111DF801648170E093
:1026B000862B972BA0E0B0E0282B392B4A2B5B2BE5
:1026C000B901CA011F910F910895F999FECF72BD0A
:1026D00061BDF89A80B50895F999FECF1FBA72BD11
:1026E00061BD40BD0FB6F894FA9AF99A0FBE0895ED
:1026F000CF92DF92EF92FF920F931F936C01DC0158
:10270000ED90FC90119712968D919C9113979C01DE
:102710002F5F3F4F13963C932E931297F7014681FC
:10272000578162817381840F951F0E94992E0081C9
:102730001181F801E80FF91FE081F0E02F5F3F4FB2
:10274000D60113963C932E93129721503040D70117
:1027500016968D919C91179712966D917C91139777
:10276000820F931F0E94992E080F191FD8019C9168
:1027700080E0E82BF92BCF011F910F91FF90EF9094
:10278000DF90CF9008952F923F924F925F926F9279
:102790007F928F929F92AF92BF92CF92DF92EF92F1
:1027A000FF920F931F932C01FC01C080D180828186
:1027B00093818C010F5F1F4F13830283F6012681E3
:1027C000378162817381820F931F0E94992E20802E
:1027D0003180F101E80FF91F80809924AA24BB24DD
:1027E00038010894611C711CF20173826282F60147
:1027F0008681978162817381800F911F0E94992E3B
:10280000F101E80FF91F008110E020E030E0322FE5
:10281000212F102F002773010894E11CF11CF201F5
:10282000F382E282F6018681978162817381860D4F
:10283000971D0E94992EF101E80FF91F808190E009
:10284000A0E0B0E0DC01992788270894E11CF11C86
:10285000F201F382E2820894E108F10808291929BB
:102860002A293B29082B192B2A2B3B2BF601868181
:102870009781628173818E0D9F1D0E94992E280E73
:10288000391EF101808190E0A0E0B0E0B82FAA27C6
:1028900099278827082B192B2A2B3B2BB801C90114
:1028A0001F910F91FF90EF90DF90CF90BF90AF906E
:1028B0009F908F907F906F905F904F903F902F9060
:1028C0000895089586EC93E064EF79E10E94701119
:1028D00080E091E0909315058093140582E194E0E7
:1028E0009093130580931205109219051092180504
:1028F000109217051092160510921B0510921A05DA
:1029000008958EE060E00E94E32D60ED77E080E0C6
:1029100090E00E94CF2A08952F923F924F925F92AB
:102920006F927F928F929F92AF92BF92CF92DF92DF
:10293000EF92FF920F931F93DF93CF93CDB7DEB744
:1029400060970FB6F894DEBF0FBECDBF80914605ED
:10295000882321F542C0E0911205F0911305809182
:10296000160590911705E80FF91F40838091160511
:1029700090911705609114057091150501960E94BC
:10298000992E909317058093160580911A059091C2
:102990001B05019690931B0580931A052091140541
:1029A0003091150580911A0590911B05281739075C
:1029B000C1F00E94791A8823A1F00E94DD1A482FE5
:1029C00080911A0590911B05019620911405309174
:1029D00015052817390710F3BECF80E060E00E948C
:1029E000E32D80911A0590911B05892B09F4BEC136
:1029F00082E195E09A83898381E090E09C838B83D8
:102A00006091140570911505809118059091190534
:102A10000E94992EE0911205F0911305E80FF91F1D
:102A2000E081E13809F082C180E10E94151E88230F
:102A300009F49CC16E010894C11CD11CC6010E94FE
:102A4000C3131B012C01C6010E94C3133B014C019F
:102A5000C6010E94C3137B018C01C6010E94C313EF
:102A60005B016C01C201B101A40193010E946B1FC3
:102A700042C10E94861D882309F478C1F8948E0112
:102A80000F5F1F4FC8010E94C3134B015C01C801B7
:102A90000E94C3136B017C01C8010E94C3138D8285
:102AA0009E82AF82B886C986DA86EB86FC866D8701
:102AB0007E878F87988BCE0105960E94271E78947B
:102AC0001AC10E94861D882309F450C1E981FA8148
:102AD0008B819C8101969C838B8301972681378112
:102AE00062817381820F931F0E94992E0190F08161
:102AF000E02DE80FF91F008110E07E010894E11C31
:102B0000F11CC7010E94C3135B016C01C7010E9445
:102B100078137C01B801769567956170A801569588
:102B20004795569547954170802F81709601850194
:102B30000E943F26E0C00E94861D882309F416C12A
:102B40008E010F5F1F4FC8010E94C3135B016C0110
:102B5000C8010E9478137C0180E060E040E09601AB
:102B600085010E945225C7C00E94861D882309F452
:102B7000FDC0CE0101960E94C3130E94CF2ABBC0A4
:102B80000E94861D882309F4F1C0E981FA818B81B6
:102B90009C8101969C838B8301972681378162817A
:102BA0007381820F931F0E94992E0190F081E02D76
:102BB000E80FF91F80810E94272A9DC00E94861D70
:102BC000882309F4D3C0E981FA818B819C81019625
:102BD0009C838B8301972681378162817381820F69
:102BE000931F0E94992E0190F081E02DE80FF91FAC
:102BF000F0808E010F5F1F4FC8010E9478136C0197
:102C0000C8010E9478138C018F2D0E944F298823C0
:102C100009F071C00E94C12A960140E050E0260FE1
:102C2000371F481F591F2093090830930A08409303
:102C30000B0850930C080E94C12A28EE33E0A9012A
:102C4000049F9001059F300D149F300D112440E02A
:102C500050E0260F371F481F591F20930D0830934F
:102C60000E0840930F085093100881E080932005D0
:102C700042C00E94861D882309F478C0CE010196C7
:102C80000E94D62838C00E94861D882309F46EC091
:102C9000E981FA818B819C8101969C838B830197CA
:102CA0002681378162817381820F931F0E94992E42
:102CB0000190F081E02DE80FF91F2081822F90E034
:102CC000322F317096958795682F6170969587950C
:102CD000482F417027FF04C0832F0E943C2003C06F
:102CE000832F0E94122080E061E00E94E32D86EC99
:102CF00093E00E94E111E981FA818B819C8120851A
:102D000031858217930708F49C018681978162813F
:102D10007381820F931F0E94992E978386838085EB
:102D20009185821B930B9187808720C0E53809F439
:102D30001BCFE63870F4E23809F49BCEE33818F480
:102D4000E13889F677CEE33809F4BBCEE43859F69A
:102D5000F2CEE73809F432CFE73808F411CFE8387B
:102D600009F487CFE93809F0BECF8DCF60960FB652
:102D7000F894DEBF0FBECDBFCF91DF911F910F91B1
:102D8000FF90EF90DF90CF90BF90AF909F908F908B
:102D90007F906F905F904F903F902F9008958EE0BE
:102DA00061E00E94C52D0E94811408958DE061E0CC
:102DB0000E94C52D8CE061E00E94C52D8DE060E091
:102DC0000E94E32D8DE198E040E056E960E070E07C
:102DD0000E94522B80E298E040E056E960E070E00B
:102DE0000E94522B0895109211040E94CF16109247
:102DF0001C0510921D0510921E0510921F050E94C1
:102E00000D270E94E7270E94B91A08950E94D02832
:102E10000E94312010921905109218051092170582
:102E20001092160510921B0510921A050E94F316B7
:102E30000895AF92BF92CF92DF92EF92FF920F93DD
:102E40001F93DF93CF93CDB7DEB7E5970FB6F89416
:102E5000DEBF0FBECDBFE82FF0E0E231F10508F094
:102E60006FC1E25CFF4FEE0FFF1F0590F491E02D64
:102E7000099486EC93E061E00E9424139093C503CB
:102E80008093C40386EC93E068E670E00FC00E9474
:102E9000F3165DC1609114057091150580911A05B6
:102EA00090911B05681B790B86EC93E00E94F6124B
:102EB0004EC1109219051092180510921705109224
:102EC000160510921B0510921A0541C1CE010196FC
:102ED0000E947D1E49815A816B817C8186EC93E042
:102EE0000E94BC124D815E816F81788586EC93E0F3
:102EF0000E94BC1249855A856B857C8586EC93E0DF
:102F00000E94BC120E94DE1F0AC1CE010D960E94D3
:102F1000CA1E4D855E856F85788986EC93E00E9498
:102F2000BC1249895A896B897C8986EC93E00E949E
:102F3000BC124D895E896F89788DCCC086EC93E098
:102F400061E00E9435135B016C0186EC93E065E063
:102F50000E9435137B018C0186EC93E069E00E94AE
:102F60003513A98EBA8ECB8EDC8EED8EFE8E0F8F32
:102F700018A369A37AA38BA39CA3CE0149960E94B0
:102F8000A41EE5C00E940617E2C0809111048823A8
:102F900041F01092110480E00E94E8270E94A020D6
:102FA000D6C081E0809311040E94E8270E9431205E
:102FB000CEC086EC93E00E94A729C9C00E94861D5E
:102FC000882309F4C2C00E94D01D882309F4BDC023
:102FD00080911A0590911B05892B09F0B6C061E01C
:102FE0009FC086EC93E061E00E942413E82E192F25
:102FF00086EC93E063E00E941F13F82E80E18F15AA
:1030000058F18E2D912F9C0189010CC083EC93E027
:10301000B8010E946513682F86EC93E00E9411139B
:103020000F5F1F4F802F8E198F1580F390C086EC95
:1030300093E061E00E9424138C0186EC93E063E04E
:103040000E941F13A82EE0E1E81730F024E0E22EE2
:1030500094E0F92EF80E13C086EC93E00E94E9117B
:1030600076C086EC93E06E2D0E941F13482F83ECF0
:1030700093E0B8010E946C13E3940F5F1F4FEF14AD
:1030800081F786EC93E06A2D4DC000E010E085E208
:10309000E82EF12CEC0EFD1E602F6F5F86EC93E0A6
:1030A0000E941F13882349F0F701E00FF11F80836E
:1030B0000F5F1F4F0031110579F7CE018596080F7C
:1030C000191FF80110820E94981B29C00E94971AAC
:1030D000AB01BC0186EC93E00E94BC1238C000E05A
:1030E00010E0B5E2EB2EF12CEC0EFD1E602F6F5FB1
:1030F00086EC93E00E941F13882349F0F701E00F4C
:10310000F11F80830F5F1F4F0031110579F7CE014A
:103110008596080F191FF80110820E946C1B682FFA
:1031200086EC93E00E94111312C02DE088E190E03C
:103130000FB6F894A895809360000FBE20936000AE
:1031400086EC93E00E94E11102C060E0E9CFE596D1
:103150000FB6F894DEBF0FBECDBFCF91DF911F91A8
:103160000F91FF90EF90DF90CF90BF90AF900895B8
:10317000EF92FF920F931F930E94C12A7B018C0153
:1031800088EE93E0A0E0B0E0E80EF91E0A1F1B1FD6
:103190004CC08DE198E00E944D2B8823C1F18DE158
:1031A00098E00E94482B682F86EC93E00E947B11E8
:1031B00080913D0590913E05A0913F05B09140055D
:1031C0000196A11DB11D80933D0590933E05A093EE
:1031D0003F05B09340050E94C12A7B018C0188EE17
:1031E00093E0A0E0B0E0E80EF91E0A1F1B1F86EC7A
:1031F00093E00E94DB11039751F480E061E00E94AC
:10320000E32D8DE198E060E071E00E94DB2C0E94EC
:10321000C12A6E157F058007910738F08DE198E08F
:1032200062E171E00E94DB2C07C086EC93E00E9413
:10323000CF11882309F4ADCF86EC93E00E94CF1123
:10324000882309F47CC08091410590914205A091AA
:103250004305B09144050196A11DB11D8093410520
:1032600090934205A0934305B093440586EC93E008
:1032700060E00E941F1387FF60C08091450588238E
:1032800029F086EC93E00E94111B59C000911405AF
:103290001091150580911A0590911B05081B190BBB
:1032A00086EC93E00E94D81190E00817190708F403
:1032B0003FC010E036C086EC93E0612F0E941F13E0
:1032C000482F80911A0590911B05019620911405B5
:1032D000309115052817390718F1E0911205F09182
:1032E00013058091160590911705E80FF91F40838B
:1032F0008091160590911705609114057091150540
:1033000001960E94992E909317058093160580913F
:103310001A0590911B05019690931B0580931A0541
:103320001F5F86EC93E00E94D811181720F207C0A7
:1033300086EC93E00E94E91102C00E94191786EC06
:1033400093E00E94F1111F910F91FF90EF9008956B
:103350008DE198E00E944D2B882311F00E94B8184F
:1033600080912005882319F40E948C1404C08130B8
:1033700011F40E9471290E94A82008950F931F93B1
:103380000E94D6160E94F3160DE118E0C8016FE105
:1033900071E00E94AC2CC80148E650E060E070E0AB
:1033A0002AE030E00E94BA2D1F910F9108950E94EB
:1033B000F92A0E94BE190E94A819FDCF83EC93E060
:1033C00060E070E00E9465138A3511F090E00AC059
:1033D00083EC93E061E070E00E94651390E0883731
:1033E00009F491E0892F08952091390530913A052B
:1033F00040913B0550913C052F5F3F4F4F4F5F4F32
:103400002093390530933A0540933B0550933C0592
:10341000482F50E060E070E08DE198E020E030E07F
:103420000E94A52D0895CF92DF92EF92FF920F9305
:103430001F93CF93DF93182F809121059091220540
:10344000A0912305B09124050196A11DB11D809383
:10345000210590932205A0932305B0932405412FC5
:1034600050E060E070E080E298E020E030E00E9410
:10347000A52D0E94C12A6B017C018AE090E0A0E0AA
:10348000B0E0C80ED91EEA1EFB1E80E298E00E9442
:10349000482BEC01012F10E020C080E298E00E9450
:1034A000482BEC010E94C12AC616D706E806F90689
:1034B000A0F480912D0590912E05A0912F05B0913B
:1034C00030050196A11DB11D80932D0590932E0509
:1034D000A0932F05B093300503C0C017D107E9F6BC
:1034E000DF91CF911F910F91FF90EF90DF90CF90E0
:1034F000089580916C0508958BE495E00E94C901C0
:103500000895109246056091690570916A056115EC
:10351000710521F08BE495E00E94D1018BE495E0E8
:103520000E94D20210926A05109269050895809156
:103530004505882389F06091690570916A056115D8
:10354000710521F08BE495E00E94D10110926A058B
:1035500010926905109245058BE495E00E94D20215
:1035600060914705709148058091490590914A0501
:10357000089580914605882311F00E94811A809158
:103580004505882311F00E94971A8BE495E00E946C
:10359000D20208958091690590916A056BE675E005
:1035A00041E050E00E940F0910926C0518161906B0
:1035B0001CF481E080936C0508951F9310916B05B6
:1035C0000E94CA1A812F1F910895DF93CF930F9203
:1035D000CDB7DEB789836091690570916A05611581
:1035E0007105D9F08BE495E0AE014F5F5F4F21E0AC
:1035F0000E94D7018091470590914805A091490507
:10360000B0914A050196A11DB11D80934705909385
:103610004805A0934905B0934A050F90CF91DF91DB
:1036200008951F93CF93DF93EC0110E007C0CE0104
:10363000612F0E941F130E94E51A1F5FCE010E9496
:10364000D8111817A0F3DF91CF911F9108958BE443
:1036500095E00E94CF02882391F48BE495E00E94CC
:10366000C402882331F48BE495E00E94D20281E009
:1036700008958BE495E00E94D20282E008958BE4E5
:1036800095E00E949902882331F48BE495E00E9432
:10369000D20283E008958BE495E00E94860288239D
:1036A00031F48BE495E00E94D20284E008958BE42B
:1036B00095E06CE271E00E945202882331F48BE4C1
:1036C00095E00E94D20285E008958BE495E00E9487
:1036D000C702811186E008951F93CF93DF93EC0119
:1036E0000E94271B182F8823F1F41092470510928F
:1036F00048051092490510924A0510926A051092E9
:1037000069058BE495E0BE010E94490290936A0529
:1037100080936905892B11F417E005C081E080933F
:1037200046050E94CA1A812FDF91CF911F910895FB
:103730001F93CF93DF93EC010E94271B182F882340
:1037400029F51092470510924805109249051092EC
:103750004A0510926A05109269058BE495E0BE0156
:103760000E94DE018BE495E0BE010E944902909325
:103770006A05809369058091690590916A05892B96
:1037800011F418E003C081E080934505812FDF919B
:10379000CF911F910895CF93DF93EC018885998590
:1037A00001962A813B8128173907A8F0E881F98121
:1037B0008C819D81E80FF91F60838C819D816A81D6
:1037C0007B8101960E94992E9D838C8388859985A3
:1037D000019699878887DF91CF910895CF92DF92E4
:1037E000EF92FF920F931F936C017A018B01642F6C
:1037F0000E94CB1B5527412F302F2F2DC601622F42
:103800000E94CB1B980144275527C601622F0E94B6
:10381000CB1BE12EFF2400271127C6016E2D0E942D
:10382000CB1B1F910F91FF90EF90DF90CF900895E9
:103830000F931F93CF93DF93EC01288539852115D2
:10384000310511F400E012C08E819F81E881F98179
:10385000E80FF91F00816A817B8101960E94992EF1
:103860009F838E832150304039872887288539856A
:103870002115310511F440E012C08E819F81E8814D
:10388000F981E80FF91F40816A817B8101960E94CE
:10389000992E9F838E832150304039872887288531
:1038A00039852115310511F410E012C08E819F81F8
:1038B000E881F981E80FF91F10816A817B81019607
:1038C0000E94992E9F838E8321503040398728870C
:1038D000288539852115310511F4E0E012C08E816B
:1038E0009F81E881F981E80FF91FE0816A817B817E
:1038F00001960E94992E9F838E83215030403987F4
:103900002887242F30E040E050E0542F432F322FFF
:103910002227802F90E0A0E0B0E0282B392B4A2B03
:103920005B2B812F90E0A0E0B0E0DC019927882795
:10393000282B392B4A2B5B2B8E2F90E0A0E0B0E098
:10394000B82FAA2799278827282B392B4A2B5B2B9E
:10395000B901CA01DF91CF911F910F910895603095
:1039600020E0720721E0820720E0920708F440C0BF
:10397000693F2FEF720727E0820720E0920740F4AB
:1039800033E096958795779567953A95D1F730C04E
:10399000613C2FEF72072FE3820720E0920740F48B
:1039A00026E096958795779567952A95D1F720C05B
:1039B00061302FEF72072FEF820720E0920730F47B
:1039C000BB27A92F982F872FBC0112C061302CEF85
:1039D00072072FEF820723E0920718F06FEF7FEF57
:1039E00007C0AAE09695879577956795AA95D1F730
:1039F000CB010895EF92FF920F931F937B018C01EF
:103A000044E0EE0CFF1C001F111F4A95D1F7C801BE
:103A1000B7010E94AF1C909389008093880080E0DA
:103A2000E81680E0F80681E0080780E0180710F447
:103A300091E022C089EFE8168FEFF80687E00807CB
:103A400080E0180710F492E017C081ECE8168FEFC1
:103A5000F8068FE3080780E0180710F493E00CC025
:103A600081E0E8168FEFF8068FEF080780E018076F
:103A700010F095E001C094E080918100887F8093F0
:103A8000810080918100982B909381001F910F916C
:103A9000FF90EF900895CF93DF93E0E8F0E010827D
:103AA000A1E8B0E01C92109282002FE630E0E9011C
:103AB00018828C918F7E8C938C9188608C938081FE
:103AC0008D7F808380818E7F808380818F778083CC
:103AD00080818F7B808380818F7D808380818F7EBA
:103AE00080838C91887F8C938C9185608C938FEFF1
:103AF0009FEF909389008093880088818D7F8883D1
:103B000088818F7D8883DF91CF91089580914F01C7
:103B1000882309F442C020918A0730918B07409195
:103B20008C0750918D078091960790919707A091EF
:103B30009807B0919907281739074A075B0769F575
:103B400020918E0730918F074091900750919107F7
:103B500080919A0790919B07A0919C07B0919D0737
:103B6000281739074A075B07C1F420919207309163
:103B70009307409194075091950780919E079091EB
:103B80009F07A091A007B091A10760E0281739070F
:103B90004A075B0719F461E001C060E0862F0895D1
:103BA00020918A0730918B0740918C0750918D07A7
:103BB0008091960790919707A0919807B0919907E7
:103BC000281739074A075B0769F520918E0730915E
:103BD0008F07409190075091910780919A0790919B
:103BE0009B07A0919C07B0919D07281739074A07AA
:103BF0005B07C1F42091920730919307409194079D
:103C00005091950780919E0790919F07A091A007E2
:103C1000B091A10760E0281739074A075B0719F43C
:103C200061E001C060E0862F089560E020916F0799
:103C3000309170074091750750917607241B350B22
:103C400090E02817390708F061E0862F0895FC01FD
:103C500080819181A281B38180938A0790938B07A1
:103C6000A0938C07B0938D0780918A0790918B0762
:103C7000A0918C07B0918D0780939607909397073A
:103C8000A0939807B093990784819581A681B78105
:103C900080938E0790938F07A0939007B09391071E
:103CA00080918E0790918F07A0919007B091910716
:103CB00080939A0790939B07A0939C07B0939D07CE
:103CC00080859185A285B385809392079093930711
:103CD000A0939407B09395078091920790919307D2
:103CE000A0919407B091950780939E0790939F07AA
:103CF000A093A007B093A1070895FC0180918A07C3
:103D000090918B07A0918C07B0918D078083918350
:103D1000A283B38380918E0790918F07A091900723
:103D2000B091910784839583A683B783809192078E
:103D300090919307A0919407B09195078087918700
:103D4000A287B387CF010895FC0180819181A28170
:103D5000B3818093AE079093AF07A093B007B09361
:103D6000B10784819581A681B7818093B207909332
:103D7000B307A093B407B093B50780859185A2855A
:103D8000B3858093B6079093B707A093B807B09315
:103D9000B9070895FC018091AE079091AF07A091FB
:103DA000B007B091B10780839183A283B3838091E0
:103DB000B2079091B307A091B407B091B50784837F
:103DC0009583A683B7838091B6079091B707A0919A
:103DD000B807B091B90780879187A287B387CF01D1
:103DE000089580E092E09093700780936F078DE6CE
:103DF00095E090936E0780936D0710927407109270
:103E00007307109272071092710710927607109242
:103E1000750710928A0710928B0710928C071092E8
:103E20008D0710928E0710928F07109290071092B4
:103E30009107109292071092930710929407109294
:103E40009507109296071092970710929807109274
:103E5000990710929A0710929B0710929C07109254
:103E60009D0710929E0710929F071092A007109234
:103E7000A1071092A2071092A3071092A407109214
:103E8000A5071092A6071092A7071092A8071092F4
:103E9000A9071092AA071092AB071092AC071092D4
:103EA000AD071092AE071092AF071092B0071092B4
:103EB000B1071092B2071092B3071092B407109294
:103EC000B5071092B6071092B7071092B807109274
:103ED000B907089508952F923F924F925F926F9283
:103EE0007F928F929F92AF92BF92CF92DF92EF928A
:103EF000FF920F931F933B014C0119012A0106C049
:103F000061E070E080E090E00E94CF2A80916F072E
:103F1000909170072091750730917607821B930B63
:103F2000409770F380916F008D7F80936F00809138
:103F30006F008F7D80936F008DE697E0B401A30141
:103F40000E94EE1B8DE697E0B201A1010E94EE1BDC
:103F50008DE697E0B801A7010E94EE1B8DE697E081
:103F6000B601A5010E94EE1B10924F0180916F00D7
:103F7000826080936F001F910F91FF90EF90DF9010
:103F8000CF90BF90AF909F908F907F906F905F90F9
:103F90004F903F902F9008951F93182F0E942E2E20
:103FA000892B11F020E007C0812F0E942E2E20E0E7
:103FB000892B09F421E0822F1F910895DF92EF925F
:103FC000FF920F931F938FE10E94CC1FD82E8EE19A
:103FD0000E94CC1F182F8AE10E94CC1FF82E89E185
:103FE0000E94CC1F082F85E10E94CC1FE82E84E19F
:103FF0000E94CC1FD294DD0C50EED5221295107F7A
:104000001D29182BFF0CFF0CFF0CF12A000F000FCD
:104010000F29EE0C8E2D802B1F910F91FF90EF90AA
:10402000DF9008950F931F93162F042F882321F0FC
:1040300083E161E00E94E32D112321F088E161E03A
:104040000E94E32D002321F08DE161E00E94E32D29
:104050001F910F91089581E061E041E00E941220DC
:104060000895EFE6F0E080818D7F808380818F7DF1
:1040700080830E942B2008950F931F93162F042FE7
:10408000882321F083E160E00E94E32D112321F0D9
:1040900088E160E00E94E32D002321F08DE160E0E3
:1040A0000E94E32D1F910F910895EF92FF920F93BD
:1040B0001F938091A2079091A307A091A407B091AC
:1040C000A5072091A6073091A7074091A807509116
:1040D000A907E090AA07F090AB070091AC071091F8
:1040E000AD0770E0181619061A061B060CF471E0ED
:1040F00060E012161306140615060CF461E040E0A9
:104100001E141F04100611060CF441E0872F0E94B4
:104110003C208091AA079091AB07A091AC07B09189
:10412000AD07181619061A061B062CF080E060E091
:1041300041E00E9412201F910F91FF90EF9008958F
:104140000E945520EFE6F0E0808182608083089530
:1041500080917F07882329F085E10E94CC1F882366
:1041600049F480917F07882349F484E10E94CC1FA1
:10417000882321F083E161E00E94E32D8091840790
:10418000882329F08AE10E94CC1F882349F480917A
:104190008407882349F489E10E94CC1F882321F0F9
:1041A00088E161E00E94E32D80918907882329F04E
:1041B0008FE10E94CC1F882349F4809189078823CE
:1041C00049F48EE10E94CC1F882321F08DE161E04B
:1041D0000E94E32D08951F93182F61E00E94E32DA4
:1041E00081E090E00E94472A812F60E00E94E32D49
:1041F0001F9108951F920F920FB60F9211242F93C3
:104200003F934F935F936F937F938F939F93AF935E
:10421000BF93EF93FF930E94A82020918A073091CB
:104220008B0740918C0750918D0780919607909154
:104230009707A0919807B0919907281739074A075F
:104240005B0709F46CC080917B0790917C07A0917B
:104250007D07B0917E072091A2073091A30740917E
:10426000A4075091A507280F391F4A1F5B1F2093F1
:104270007B0730937C0740937D0750937E078091A6
:104280007B0790917C07A0917D07B0917E0718165F
:1042900019061A061B060CF042C08FE00E94EB20A4
:1042A00080917B0790917C07A0917D07B0917E075C
:1042B00020917707309178074091790750917A07DC
:1042C000821B930BA40BB50B80937B0790937C0709
:1042D000A0937D07B0937E0780917F07882361F0CC
:1042E00080918A0790918B07A0918C07B0918D07E0
:1042F0000196A11DB11D0BC080918A0790918B077B
:10430000A0918C07B0918D070197A109B109809305
:104310008A0790938B07A0938C07B0938D07209109
:104320008E0730918F0740919007509191078091AF
:104330009A0790919B07A0919C07B0919D07281721
:1043400039074A075B0709F46CC080918007909198
:104350008107A0918207B09183072091A607309131
:10436000A7074091A8075091A907280F391F4A1F96
:104370005B1F2093800730938107409382075093FF
:1043800083078091800790918107A0918207B09167
:104390008307181619061A061B060CF042C087E19F
:1043A0000E94EB208091800790918107A091820765
:1043B000B091830720917707309178074091790772
:1043C00050917A07821B930BA40BB50B8093800747
:1043D00090938107A0938207B0938307809184070D
:1043E000882361F080918E0790918F07A0919007AC
:1043F000B09191070196A11DB11D0BC080918E0750
:1044000090918F07A0919007B09191070197A10912
:10441000B10980938E0790938F07A0939007B09374
:104420009107209192073091930740919407509102
:10443000950780919E0790919F07A091A007B0914A
:10444000A107281739074A075B0709F46CC0809158
:10445000850790918607A0918707B09188072091E2
:10446000AA073091AB074091AC075091AD07280FD8
:10447000391F4A1F5B1F209385073093860740939F
:104480008707509388078091850790918607A091B0
:104490008707B0918807181619061A061B060CF034
:1044A00042C08BE10E94EB208091850790918607A6
:1044B000A0918707B09188072091770730917807FE
:1044C0004091790750917A07821B930BA40BB50B8F
:1044D0008093850790938607A0938707B0938807FA
:1044E00080918907882361F08091920790919307CA
:1044F000A0919407B09195070196A11DB11D0BC025
:104500008091920790919307A0919407B09195079D
:104510000197A109B1098093920790939307A09303
:104520009407B093950720918A0730918B074091AB
:104530008C0750918D078091960790919707A091D5
:104540009807B0919907281739074A075B0709F0C0
:1045500061C220918E0730918F0740919007509152
:10456000910780919A0790919B07A0919C07B09129
:104570009D07281739074A075B0709F04BC22091AE
:10458000920730919307409194075091950780913D
:104590009E0790919F07A091A007B091A1072817AF
:1045A00039074A075B0709F035C28091750790917A
:1045B0007607409708F42BC28DE697E00E94181CFE
:1045C0009B01AC012093960730939707409398077F
:1045D000509399078DE697E00E94181C9B01AC014F
:1045E00020939A0730939B0740939C0750939D0715
:1045F0008DE697E00E94181C9B01AC0120939E075A
:1046000030939F074093A0075093A107809196078E
:1046100090919707A0919807B091990720918A07E8
:1046200030918B0740918C0750918D07821B930B23
:10463000A40BB50B8093A2079093A307A093A407A4
:10464000B093A50780919A0790919B07A0919C0732
:10465000B0919D0720918E0730918F074091900770
:1046600050919107821B930BA40BB50B8093A60767
:104670009093A707A093A807B093A90780919E07DE
:1046800090919F07A091A007B091A1072091920758
:10469000309193074091940750919507821B930B9B
:1046A000A40BB50B8093AA079093AB07A093AC071C
:1046B000B093AD078091A2079091A307A091A407A2
:1046C000B091A50780959095A095B0958827B7FDE6
:1046D00083959927AA27BB2780937F078091A607F8
:1046E0009091A707A091A807B091A90780959095F0
:1046F000A095B0958827B7FD83959927AA27BB2752
:10470000809384078091AA079091AB07A091AC0792
:10471000B091AD0780959095A095B0958827B7FD8D
:1047200083959927AA27BB278093890760917F07E4
:104730008091BA07882311F081E0682782E10E9406
:10474000E32D609184078091BB07882311F081E0FD
:10475000682786E10E94E32D609189078091BC075C
:10476000882311F081E068278CE10E94E32D80917D
:10477000A2079091A307A091A407B091A5071816CE
:1047800019061A061B064CF42091A2073091A307C4
:104790004091A4075091A5070FC08091A207909166
:1047A000A307A091A407B091A50722273327A90149
:1047B000281B390B4A0B5B0B2093A2073093A307EE
:1047C0004093A4075093A5078091A6079091A7074F
:1047D000A091A807B091A907181619061A061B067A
:1047E0004CF42091A6073091A7074091A80750915B
:1047F000A9070FC08091A6079091A707A091A807CD
:10480000B091A90722273327A901281B390B4A0B8E
:104810005B0B2093A6073093A7074093A8075093FC
:10482000A9078091AA079091AB07A091AC07B0911E
:10483000AD07181619061A061B064CF42091AA0794
:104840003091AB074091AC075091AD070FC08091FC
:10485000AA079091AB07A091AC07B091AD072227B2
:104860003327A901281B390B4A0B5B0B2093AA079E
:104870003093AB074093AC075093AD070E9455208F
:1048800010927707109278071092790710927A07A2
:104890002091A2073091A3074091A4075091A5074A
:1048A0008091A6079091A707A091A807B091A907AA
:1048B00082179307A407B5074CF48091A207909143
:1048C000A307A091A407B091A50708C08091A607EF
:1048D0009091A707A091A807B091A90780937707A7
:1048E00090937807A0937907B0937A072091AA074D
:1048F0003091AB074091AC075091AD07809177079D
:1049000090917807A0917907B0917A078217930761
:10491000A407B5074CF48091AA079091AB07A0912A
:10492000AC07B091AD0708C08091770790917807E8
:10493000A0917907B0917A078093770790937807D1
:10494000A0937907B0937A07609177077091780701
:104950008091790790917A0722E030E040E050E0C2
:104960000E94E22E50954095309521953F4F4F4F34
:104970005F4F20937B0730937C0740937D075093D4
:104980007E07609177077091780780917907909101
:104990007A0722E030E040E050E00E94E22E50959D
:1049A0004095309521953F4F4F4F5F4F20938007A3
:1049B0003093810740938207509383076091770774
:1049C000709178078091790790917A0722E030E022
:1049D00040E050E00E94E22E5095409530952195A0
:1049E0003F4F4F4F5F4F209385073093860740938B
:1049F0008707509388078DE697E00E94181C0E9455
:104A0000FA1C80916F00826080936F0003C081E088
:104A100080934F01FF91EF91BF91AF919F918F9143
:104A20007F916F915F914F913F912F910F900FBEAA
:104A30000F901F901895EF92FF920F931F93F82EEF
:104A4000162FE42E022F842F0E94CC1F8823E9F01A
:104A500061E06027812F0E94E32D09C08F2D0E9405
:104A6000EB2064EF71E080E090E00E94CF2A8E2D71
:104A70000E94CC1F882391F7812F602F0E94E32D85
:104A80008F2D0E94EB2081E008C0812F602F0E94B3
:104A9000E32D8F2D0E94EB2080E01F910F91FF905E
:104AA000EF9008952F923F924F925F926F927F9274
:104AB0008F929F92AF92BF92CF92DF92EF92FF922E
:104AC0000F931F93DF93CF9300D00F92CDB7DEB734
:104AD000382E462E542E380149010E94C12A0E94C8
:104AE000C12A5B016C0188EE93E09C01E29EC0014B
:104AF000E39E900DF29E900D1124A0E0B0E0A80E70
:104B0000B91ECA1EDB1E80916F008D7F80936F00DF
:104B100080916F008F7D80936F00832D642D452DD4
:104B20000E943C20C401B30128EE33E040E050E095
:104B30000E94C02E29833A834B83252EFF2400E058
:104B400010E0EE24E39476C03320D9F0FF20C9F4BE
:104B50002091BA072E258FE062E145E10E941B25D6
:104B6000F82E80918A0790918B07A0918C07B091C5
:104B70008D078093AE079093AF07A093B007B093D3
:104B8000B1074420D9F00023C9F42091BB072E259A
:104B900087E166E14AE10E941B25082F80918E077C
:104BA00090918F07A0919007B09191078093B207E1
:104BB0009093B307A093B407B093B5075520D9F0ED
:104BC0001123C9F42091BC072E258BE16CE14FE144
:104BD0000E941B25182F8091920790919307A09116
:104BE0009407B09195078093B6079093B707A09369
:104BF000B807B093B907332011F0FF2041F04420EB
:104C000011F0002321F05520E9F01123D9F430E010
:104C1000631630E0730631E0830630E0930620F43B
:104C2000C3010E94472A06C069817A818B81922D37
:104C30000E94CF2A0E94C12A6A157B058C059D051A
:104C400008F482CF0E942B2080916F0082608093B5
:104C50006F000F900F900F90CF91DF911F910F91E8
:104C6000FF90EF90DF90CF90BF90AF909F908F908C
:104C70007F906F905F904F903F902F9008952F926C
:104C80003F924F925F926F927F928F929F92AF92DC
:104C9000BF92CF92DF92EF92FF920F931F93DF9319
:104CA000CF9300D0CDB7DEB7382E462E542E380124
:104CB00049010E94C12A0E94C12A5B016C0188EE51
:104CC00093E09C01E29EC001E39E900DF29E900D48
:104CD0001124A0E0B0E0A80EB91ECA1EDB1E809110
:104CE0006F008D7F80936F0080916F008F7D809328
:104CF0006F00832D642D452D0E943C20C401B3011B
:104D000028EE33E040E050E00E94C02E29833A8331
:104D1000242EE52EFF2400E010E05BC0332091F04C
:104D2000FF2081F48FE062E144E12091BA070E9404
:104D30001B25F82E10928A0710928B0710928C0771
:104D400010928D07442091F0002381F487E166E101
:104D500049E12091BB070E941B25082F10928E0766
:104D600010928F071092900710929107552091F0A2
:104D7000112381F48BE16CE14EE12091BC070E948C
:104D80001B25182F109292071092930710929407E8
:104D900010929507332011F0FF2041F0442011F0CC
:104DA000002321F05520E9F01123D9F430E06316F7
:104DB00030E0730631E0830630E0930620F4C3014F
:104DC0000E94472A06C069817A81822D9E2D0E9409
:104DD000CF2A0E94C12A6A157B058C059D0508F41F
:104DE0009DCF0E942B2080916F00826080936F0086
:104DF0000F900F90CF91DF911F910F91FF90EF9047
:104E0000DF90CF90BF90AF909F908F907F906F90EA
:104E10005F904F903F902F900895109274071092DA
:104E20007307109272071092710710927607109212
:104E300075078FE061E00E94C52D82E161E00E946C
:104E4000C52D83E161E00E94C52D84E160E00E94F0
:104E5000C52D85E160E00E94C52D87E161E00E94DB
:104E6000C52D86E161E00E94C52D88E161E00E94C8
:104E7000C52D89E160E00E94C52D8AE160E00E94B5
:104E8000C52D8BE161E00E94C52D8CE161E00E949F
:104E9000C52D8DE161E00E94C52D8EE160E00E948C
:104EA000C52D8FE160E00E94C52D0E94DE19882388
:104EB000C1F083EC93E062E070E00E94651390E043
:104EC0009C01217030702093BA0796958795282F02
:104ED00021702093BB079695879581708093BC07BE
:104EE00006C01092BC071092BB071092BA0784E16B
:104EF00061E00E94E32D85E161E00E94E32D89E1FC
:104F000061E00E94E32D8AE161E00E94E32D8EE1E1
:104F100061E00E94E32D8FE161E00E94E32D0E9499
:104F20002B201092A2071092A3071092A4071092B0
:104F3000A5071092A6071092A7071092A807109233
:104F4000A9071092AA071092AB071092AC07109213
:104F5000AD0710928A0710928B0710928C0710925F
:104F60008D0710928E0710928F0710929007109263
:104F70009107109292071092930710929407109243
:104F80009507109296071092970710929807109223
:104F9000990710929A0710929B0710929C07109203
:104FA0009D0710929E0710929F071092A0071092E3
:104FB000A1070E944B1D64EC79E080E090E00E9424
:104FC000FA1C80916F00826080936F0008950895AD
:104FD00008958DEB97E063E17AE10E9470110895E6
:104FE0008F929F92AF92BF92CF92DF92EF92FF92F9
:104FF0000F931F938C010E94C12A6B017C01480111
:10500000AA2497FCA094BA2CC80CD91CEA1CFB1C3F
:105010006CC080E298E00E944D2B882309F443C0C5
:1050200080E298E00E94482B682F8DEB97E00E9469
:105030007B118091250590912605A0912705B091BF
:1050400028050196A11DB11D809325059093260585
:10505000A0932705B09328050E94C12A6B017C010B
:10506000C80CD91CEA1CFB1C8DEB97E00E94DB11DD
:105070000397C9F48091310590913205A0913305D1
:10508000B09134050196A11DB11D80933105909317
:105090003205A0933305B09334058DE198E06EE2BC
:1050A00071E00E94DB2C0E94C12AC616D706E806D2
:1050B000F906D8F48091350590913605A091370511
:1050C000B09138050196A11DB11D809335059093CF
:1050D0003605A0933705B09338058DE198E061E47B
:1050E00071E00E94DB2C80E008C08DEB97E00E940D
:1050F000CF11882309F48DCF81E01F910F91FF908C
:10510000EF90DF90CF90BF90AF909F908F900895D9
:1051100082E390E00E94472A8CE061E00E94E32D48
:105120008AE090E00E94472A8DEB97E00E9463128C
:105130008CE060E00E94E32D8091290590912A0582
:10514000A0912B05B0912C050196A11DB11D809356
:10515000290590932A05A0932B05B0932C0588EE82
:1051600093E00E94F0270895EF92FF920F931F9310
:10517000182F062F8DEBE82E87E0F82EC7010E942E
:105180003111C701612F0E941113C701602F0E94C6
:1051900011130E9488281F910F91FF90EF9008959E
:1051A0008091080868E10E94B42808950F931F9326
:1051B000CF93DF93EC018DEB97E00E943111E881F2
:1051C000F9818A819B8101969B838A83019726813D
:1051D000378162817381820F931F0E94992E019003
:1051E000F081E02DE80FF91F8DEB97E060810E94C0
:1051F0001113E881F9818A819B8101969B838A83BF
:1052000001972681378162817381820F931F0E94EB
:10521000992E0190F081E02DE80FF91F8DEB97E0BA
:1052200060810E941113E881F9818A819B81019636
:105230009B838A8301972681378162817381820FE4
:10524000931F0E94992E0190F081E02DE80FF91F25
:10525000008110E01BC0E881F9818A819B81019661
:105260009B838A8301972681378162817381820FB4
:10527000931F0E94992E0190F081E02DE80FF91FF5
:105280008DEB97E060810E9411131F5F101718F3D8
:105290000E948828DF91CF911F910F9108951F934D
:1052A000182F8DEB97E00E9431118DEB97E0612F65
:1052B0000E9411138DEB97E066E10E9411130E948A
:1052C0008828882311F490E009C08DEB97E061E015
:1052D0000E941F1390E0813009F491E0892F1F9103
:1052E00008950E94C12A20910D0830910E08409126
:1052F0000F08509110086217730784079507A8F4E8
:105300000E94C12A2091090830910A0840910B0897
:1053100050910C086217730784079507B8F08091C5
:1053200008080E944F29882319F01092200508953B
:105330000E94C12A6C597F4F8F4F9F4F609309087D
:1053400070930A0880930B0890930C0808951F939C
:10535000CF93DF93EC018DEB97E00E94311111E0C8
:105360000AC0CE01612F0E941F13682F8DEB97E0BA
:105370000E9411131F5FCE010E94D811181788F3E5
:105380000E94882811E00AC08DEB97E0612F0E94EF
:105390001F13682FCE010E9411131F5F8DEB97E042
:1053A0000E94D811181780F3DF91CF911F910895B3
:1053B0009F92AF92BF92CF92DF92EF92FF920F93A4
:1053C0001F93CF93DF93982EEB018A01611571052E
:1053D00011F4C4E6D0E00115110511F40CE310E05E
:1053E0000E94C12A28EE33E0A901049F9001059F85
:1053F000300D149F300D112479010027F7FC009522
:10540000102FE60EF71E081F191F5E01CC24B7FCF3
:10541000C094DC2C0E94C12A6E157F05800791077D
:1054200050F4892D0E944F29882329F4C601B50123
:105430000E94CF2AEFCFDF91CF911F910F91FF9064
:10544000EF90DF90CF90BF90AF909F900895FF9224
:105450000F931F93F82E809308080DEB17E0C801F7
:105460000E943111C8016F2D0E941113C80165E11E
:105470000E9411130E9488288F2D60E070E040E0A8
:1054800050E00E94D8291F910F91FF900895019735
:1054900039F0880F991F880F991F02970197F1F72C
:1054A00008951F920F920FB60F9211242F938F938E
:1054B0009F93AF93BF938091110890911208A09190
:1054C0001308B09114080196A11DB11D8093110815
:1054D00090931208A0931308B093140880911508B4
:1054E00090911608A0911708B09118088050904C20
:1054F000AF4FBF4F8093150890931608A0931708DD
:10550000B093180827C08091150890911608A091B3
:105510001708B091180880589E43A040B04080936F
:10552000150890931608A0931708B0931808809157
:10553000190890911A08A0911B08B0911C080196B7
:10554000A11DB11D8093190890931A08A0931B0800
:10555000B0931C088091150890911608A091170827
:10556000B091180881589E43A040B04060F6BF91AA
:10557000AF919F918F912F910F900FBE0F901F9021
:1055800018958FB7F8942091190830911A08409116
:105590001B0850911C088FBFB901CA010895EF92F2
:1055A000FF920F931F937B018C018FB7F89440916A
:1055B000190850911A0860911B0870911C088FBF40
:1055C0002FB7F8948091190890911A08A0911B08A0
:1055D000B0911C082FBF841B950BA60BB70BE816C8
:1055E000F9060A071B0760F71F910F91FF90EF90D4
:1055F0000895789484B5826084BD84B5816084BD4B
:1056000085B5826085BD85B5816085BDEEE6F0E03B
:10561000808181608083E1E8F0E080818260808326
:10562000808181608083E0E8F0E080818160808318
:10563000E1EBF0E0808184608083E0EBF0E080814A
:1056400081608083EAE7F0E08081846080838081EC
:105650008260808380818160808380818068808394
:105660001092C100089584E591E090931E08809304
:105670001D0810921F08909321088093200881E054
:10568000809322080895FC0182810E94DF2B0895F7
:10569000FC0182810E94052C0895FC0182810E94F8
:1056A000EF2B0895FC0182810E94572B0895EF9201
:1056B000FF920F931F937A018B018823F1F5CB01A1
:1056C000BA0122E030E040E050E00E94E22E205C8F
:1056D0003D4B404F5F4FCA01B901A80197010E949D
:1056E000E22EC901DA010197A109B109292F3A2F48
:1056F0004B2F552747FD5A950196A11DB11D2093AB
:10570000C50081508093C4001092C0001092C10067
:105710001092C2008091C10080618093C10080918D
:10572000C10088608093C1008091C100806880932F
:10573000C10086E08093C2003DC0CB01BA0122E0E7
:1057400030E040E050E00E94E22E205C3D4B404FB4
:105750005F4FCA01B901A80197010E94E22EC90159
:10576000DA010197A109B109292F3A2F4B2F5527AB
:1057700047FD5A950196A11DB11D2093CD00815082
:105780008093CC001092C8001092C9001092CA00F9
:105790008091C90080618093C9008091C9008860B0
:1057A0008093C9008091C90080688093C90086E019
:1057B0008093CA001F910F91FF90EF900895882366
:1057C00039F48091C00085FFFCCF6093C600089536
:1057D0008091C80085FFFCCF6093CE000895E82F2C
:1057E000F0E0EE0FFF1FDF01AD5DB74F8D919C9193
:1057F00080589F4FE95DF74F20813181821B930BC9
:1058000060E870E00E94AD2E0895CF93DF93A82F3B
:10581000B0E0FD01EE0FFF1FEF01C95DD74F4881DA
:105820005981ED5DF74F808191818417950719F4B7
:105830002FEF3FEF13C0B695BA2FAA27B795A795BC
:10584000A40FB51FA55DB74F2C91CA01019660E862
:1058500070E00E94AD2E9983888330E0C901DF910A
:10586000CF9108951F920F920FB60F9211242F938C
:105870003F934F935F936F937F938F939F93AF93D8
:10588000BF93EF93FF934091C600E0912308F091FE
:105890002408CF01019660E870E00E94AD2E9C01C3
:1058A00080912708909128082817390739F0E55D7D
:1058B000F74F40833093240820932308FF91EF9102
:1058C000BF91AF919F918F917F916F915F914F9118
:1058D0003F912F910F900FBE0F901F9018951F9220
:1058E0000F920FB60F9211242F933F934F935F9314
:1058F0006F937F938F939F93AF93BF93EF93FF9398
:105900004091CE00E0912508F0912608CF01019644
:1059100060E870E00E94AD2E9C0180912908909172
:105920002A082817390739F0E555F74F4083309397
:10593000260820932508FF91EF91BF91AF919F9189
:105940008F917F916F915F914F913F912F910F9028
:105950000FBE0F901F9018950F931F93CF93DF9357
:105960008C01EB0109C02196D801ED91FC910190C9
:10597000F081E02DC801099568816623A1F7DF91C8
:10598000CF911F910F9108950F931F938C01DC010C
:10599000ED91FC910190F081E02D6DE00995D80129
:1059A000ED91FC910190F081E02DC8016AE009952C
:1059B0001F910F9108950F931F938C010E94AC2C9F
:1059C000C8010E94C42C1F910F9108952F923F92FD
:1059D0004F925F926F927F928F929F92AF92BF92FF
:1059E000CF92DF92EF92FF920F931F93DF93CF93AB
:1059F000CDB7DEB7A0970FB6F894DEBF0FBECDBF10
:105A00001C016A017B01411551056105710549F4CD
:105A1000DC01ED91FC910190F081E02D60E30995AE
:105A200054C0882499245401422E55246624772496
:105A300001E010E00C0F1D1F080D191DC701B60174
:105A4000A30192010E94C02EF80160830894811C7A
:105A5000911CA11CB11CC701B601A30192010E94B7
:105A6000C02EC901DA016C017D01C114D104E10429
:105A7000F104F1F681E0E82EF12CEC0EFD1EE80CAD
:105A8000F91C3E010894611C711CD501C4010197E9
:105A9000A109B1096C01C818D90814C0F601EE0DAE
:105AA000FF1D60816A3010F4605D01C0695CD10146
:105AB000ED91FC910190F081E02DC10109950894D0
:105AC000E108F1086E147F0449F7A0960FB6F89428
:105AD000DEBF0FBECDBFCF91DF911F910F91FF9021
