:100000000C9490000C94B8000C94B8000C94B800B8
:100010000C94B8000C94B8000C94B8000C94B80080
:100020000C94B8000C94B8000C94B8000C94B80070
:100030000C94B8000C947B220C94B8000C94B8007B
:100040000C94B8000C94B8000C94D22B0C94B8000B
:100050000C94B32D0C94B8000C94B8000C94B80018
:100060000C94B8000C94B8000C94B8000C94B80030
:100070000C94F02D0C94B8000C94B8005D186B181B
:100080006E187D188A18A918C218E618E918F91907
:10009000FD18021915193B1969198A199319B7190D
:1000A000C319002124272A002225282B00202326DB
:1000B00029020202020202020204040404040404EB
:1000C000040303030303030303010101010101010D
:1000D00001010204081020408001020408102040A1
:1000E0008001020408102040808040201008040293
:1000F00001000000010200000000000000040307EE
:1001000006000000000000000000000000000000E9
:1001100000009615E81B72206A29B42C9515EB2077
:1001200011241FBECFEFD0E1DEBFCDBF11E0A0E0B4
:10013000B1E0E2E2F1E602C005900D92A435B1070C
:10014000D9F719E0A4E5B1E001C01D92A131B107D2
:10015000E1F711E0CCE1D1E004C02297FE010E945A
:100160008030C231D107C9F70E94311B0C94843012
:100170000C940000FB01DC0102C001900D92415083
:100180005040D8F70895DC0101C06D9341505040B4
:10019000E0F70895FB01DC018D91019080190110B9
:1001A000D9F3990B0895FB01DC014150504048F010
:1001B00001900D920020C9F701C01D92415050409E
:1001C000E0F70895FC0181E090E00190061609F443
:1001D000CF010020D1F701970895FC01009711F499
:1001E00080E00895108681E008958F929F92AF92EB
:1001F000BF92CF92DF92EF92FF920F93DF93CF9354
:10020000CDB7DEB760970FB6F894DEBF0FBECDBF97
:100210007C016B015A01490104300CF08CC007FDD0
:100220001DC0602F772767FD7095E4E0660F771F8C
:10023000EA95E1F762547E4F882777FD8095982FE5
:10024000AE014F5F5F4F20E130E0F7010995882351
:1002500009F471C08D81882309F46DC080915C011F
:10026000882309F068C07CC08D8180935C012A8559
:1002700030E040E050E0542F432F322F22278B856F
:1002800090E0A0E0B0E0DC0199278827282B392BEB
:100290004A2B5B2B898590E0A0E0B0E0282B392B1E
:1002A0004A2B5B2B8C8590E0A0E0B0E0B82FAA270A
:1002B00099278827282B392B4A2B5B2B20935D010C
:1002C00030935E0140935F01509360012E8530E0D2
:1002D00040E050E0542F432F322F22278F8590E0AB
:1002E000A0E0B0E0DC0199278827282B392B4A2B86
:1002F0005B2B8D8590E0A0E0B0E0282B392B4A2BBA
:100300005B2B888990E0A0E0B0E0B82FAA2799275E
:100310008827282B392B4A2B5B2B209361013093A4
:100320006201409363015093640103C08FEF809397
:100330005C019F0102C020E030E0C90160960FB669
:10034000F894DEBF0FBECDBFCF91DF910F91FF902C
:10035000EF90DF90CF90BF90AF909F908F900895D7
:10036000E4E5F1E081E1DF011D928A95E9F7F09281
:100370005501E0925401D0925701C0925601B092BB
:100380005901A092580190925B0180925A0107FF97
:100390006BCFCCCFFC0111821082138212821582A6
:1003A00014820895DF92EF92FF920F931F93DF93D1
:1003B000CF93CDB7DEB768970FB6F894DEBF0FBE08
:1003C000CDBF8B01D42EFC01848195817E010894E0
:1003D000E11CF11CB7010E94A70C8823D1F0A0E01A
:1003E000B0E04D2D50E041505040B70105C0F8013C
:1003F000EA0FFB1F80831196A417B50734F4FB01A5
:10040000EA0FFB1F8081882391F7A00FB11F1C9278
:1004100002C0F801108280E068960FB6F894DEBF43
:100420000FBECDBFCF91DF911F910F91FF90EF9045
:10043000DF900895FC01848195810E94D40780E0BB
:1004400008950F931F938B01FB01428D538D648D93
:10045000758DC8010E94CC09C8010E94EE110E944E
:100460004D061F910F910895CB01BA01422F50E024
:100470000E94390B0895DF93CF93CDB7DEB768970D
:100480000FB6F894DEBF0FBECDBFFC01848195810D
:10049000AE014F5F5F4F0E949B1068960FB6F894B5
:1004A000DEBF0FBECDBFCF91DF910895EF92FF92D7
:1004B0000F931F93CF93DF93EB018A0179010BC058
:1004C000C701B8010E94CA00009729F4CE010E941A
:1004D000D40781E006C0CE01B7010E94A70C882393
:1004E00079F7DF91CF911F910F91FF90EF900895D1
:1004F000EF92FF920F931F93DF93CF93CDB7DEB7A9
:1005000068970FB6F894DEBF0FBECDBF8C017E0199
:100510000894E11CF11C97010E945602882319F4EB
:1005200020E030E005C0C801B7010E942B129C01F9
:10053000C90168960FB6F894DEBF0FBECDBFCF914C
:10054000DF911F910F91FF90EF900895FC01AB0197
:1005500064817581828193810E9478020895EF926F
:10056000FF920F931F93DF93CF93CDB7DEB76897BA
:100570000FB6F894DEBF0FBECDBF8C01FC018281A7
:1005800093817E010894E11CF11CB7010E94DF0DEC
:10059000F80182819381B7010E940412F8019583CA
:1005A000848320E0892B09F021E0822F68960FB622
:1005B000F894DEBF0FBECDBFCF91DF911F910F9199
:1005C000FF90EF9008950F931F938C01FC018081A1
:1005D00091810E94F00DF8019383828320E0892BA2
:1005E00009F021E0822F1F910F9108950F93CF936F
:1005F000DF93EC0189E994E069E675E040EB53E0B4
:1006000024E636E000E00E94F50099838883892B78
:1006100069F489E994E069E675E040EB53E024E68B
:1006200036E00FEF0E94F5009983888320E08881EF
:100630009981892B09F021E0822FDF91CF910F91D1
:1006400008950E944D0308950E94540390E088236A
:1006500009F491E0892F08950E94D9050895CF9358
:10066000DF93EC018C819D81009721F00E94CE07E1
:100670001D821C828A819B81009721F00E94BF0607
:100680001B821A8288819981009721F00E94ED00D7
:1006900019821882DF91CF91089583B1869586954E
:1006A000869580958170089583B18695869580950D
:1006B00081700895282F8FEF8EBD0DB407FEFDCFFA
:1006C0008DB58F778DBD8EB5822F80648EBD0DB4B4
:1006D00007FEFDCF8DB58F778DBD872F9927AA2770
:1006E000BB278EBD0DB407FEFDCF8DB58F778DBDB9
:1006F000CB01AA27BB278EBD0DB407FEFDCF8DB55C
:100700008F778DBDBB27A72F962F852F8EBD0DB45C
:1007100007FEFDCF8DB58F778DBD4EBD0DB407FEA5
:10072000FDCF8DB58F778DBD222311F08FEF01C0E6
:1007300085E98EBD0DB407FEFDCF8DB58F778DBDDC
:1007400090E02FEF2EBD0DB407FEFDCF8DB58F7756
:100750008DBD8EB58F3F19F49F5F9A3099F708953C
:100760002F923F924F925F926F927F928F929F92C1
:10077000AF92BF92CF92DF92EF92FF920F931F93AF
:10078000CF93DF934B015C012A0139011A9BB2C060
:10079000BAC0E12C4EEFF42E4FEF042F4FEF142F81
:1007A000E820F9200A211B213FEFC32E31E0D32E90
:1007B000C820D920C0E0D2E0CC19DD096C167D0636
:1007C00008F4E301209165033091660340916703CB
:1007D00050916803E216F3060407150749F180916A
:1007E0006903882359F4CA01B90145E651E020E0C4
:1007F00032E00E94B003882309F485C0C114D104FB
:1008000021F482E0C030D80758F4C801B70145E6AA
:1008100051E020E032E00E949904882309F473C07B
:10082000E0926503F09266030093670310936803F8
:1008300085E6481681E0580671F096012B593E4F27
:10084000C901B201AE010E94BA00109269036C1690
:100850007D0609F45AC02C9888E1B801A7010E94CE
:100860005A03882311F02C9A4EC08EEF8EBD0DB422
:1008700007FEFDCF8DB58F778DBDE5E6F1E0819167
:100880008EBD0DB407FEFDCF8DB58F778DBD83E096
:10089000E536F807A1F73EBC0DB407FEFDCF8DB5D8
:1008A0008F778DBD3EBC0DB407FEFDCF8DB58F7724
:1008B0008DBD3EBC0DB407FEFDCF8DB58F778DBDD0
:1008C0008EB58F3FB1F78EBD0DB407FEFDCF4C0E38
:1008D0005D1E8DB58F778DBD8EB52C9A6C1A7D0AF5
:1008E000CE01A0E0B0E0880E991EAA1EBB1E209289
:1008F000690304C033243A942224239461147104BC
:1009000009F047CF02C080E001C081E0DF91CF91C4
:100910001F910F91FF90EF90DF90CF90BF90AF901D
:100920009F908F907F906F905F904F903F902F900F
:1009300008953F924F925F926F927F928F929F9213
:10094000AF92BF92CF92DF92EF92FF920F931F93DD
:10095000CF93DF934B015C016A01290133243A9460
:10096000A1C0E12C6EEFF62E6FEF062F6FEF162F62
:10097000E820F9200A211B215FEF652E51E0752E3A
:1009800068207920C0E0D2E0C619D7094C165D0670
:1009900008F4E201209165033091660340916703FA
:1009A00050916803E216F3060407150709F467C0BF
:1009B00080916903882359F4CA01B90145E651E0E1
:1009C00020E032E00E94B003882309F470C02C9824
:1009D00081E1B801A7010E945A03882339F003C0BE
:1009E0002150304029F42C9A80E061C020E030E0B2
:1009F0003EBC0DB407FEFDCF8DB58F778DBD8EB596
:100A00008E3F71F7E5E6F1E03EBC0DB407FEFDCF89
:100A10008DB58F778DBD8EB5808383E0E436F80782
:100A200011F03196F1CFE0926503F09266030093E6
:100A300067031093680393012B593E4FC601B90118
:100A4000AE010E94BA003EBC0DB407FEFDCF8DB5CD
:100A50008F778DBD8EB53EBC0DB407FEFDCF8DB535
:100A60008F778DBD8EB52C9A3EBC0DB407FEFDCFA1
:100A7000CC0EDD1E8DB58F778DBD8EB50AC093016E
:100A80002B593E4FC601B901AE010E94BA00CC0EEF
:100A9000DD1E4C1A5D0ACE01A0E0B0E0880E991E62
:100AA000AA1EBB1E4114510409F05BCF81E0DF9107
:100AB000CF911F910F91FF90EF90DF90CF90BF905B
:100AC000AF909F908F907F906F905F904F903F90EE
:100AD00008952F923F924F925F926F927F928F92E2
:100AE0009F92AF92BF92CF92DF92EF92FF920F93BD
:100AF0001F93DF93CF9300D000D0CDB7DEB74B016B
:100B00005C013A013C832B832701DA82C9824115BB
:100B10005105A9F12115310591F10217130778F15B
:100B2000E114F10461F119013094219431083394F6
:100B3000021B130B6901EE24FF24C501B401A301BC
:100B40002B813C810E9499048823C9F0C301B5011F
:100B5000A40129813A81F2010995882391F0020DBF
:100B6000131D8B819C81800F911F2B813C818217EB
:100B7000930738F08C0C9D1CAE1CBF1CDECF80E0B0
:100B800001C081E00F900F900F900F90CF91DF91F7
:100B90001F910F91FF90EF90DF90CF90BF90AF909B
:100BA0009F908F907F906F905F904F903F902F908D
:100BB0000895CF93DF9323982298259A279A249A11
:100BC00026982C9A83E58CBD8DB58E7F8DBD1B99A3
:100BD00021C020E030E09FEF9EBD0DB407FEFDCFA9
:100BE0008DB58F778DBD8EB52F5F3F4F2A30310584
:100BF00099F72C98C0E0D0E080E040E050E060E061
:100C000070E00E945A03813049F081E0CF3FD8075D
:100C100019F42C9A80E03EC02196EECFC0E0D0E0DF
:100C200081E040E050E060E070E00E945A0380FF05
:100C300006C08FE7CF3FD80761F32196F1CF80E15F
:100C400040E052E060E070E00E945A03882309F718
:100C50002C9A8CB58C7F8CBD8DB581608DBD8FEF4E
:100C60009FEFAFEFBFEF8093650390936603A09370
:100C70006703B093680381E08093690360E070E0EC
:100C800080E090E045E651E020E032E00E949904E7
:100C9000811181E0DF91CF910895809169038823CC
:100CA00011F081E008956091650370916603809171
:100CB00067039091680345E651E020E032E00E942E
:100CC000B003811181E008954F925F926F927F92FD
:100CD0008F929F92AF92BF92CF92DF92EF92FF924C
:100CE0000F931F93CF93DF935B016C014A01E901DE
:100CF000380127014115510571F10115110559F10F
:100D0000FF242115310511F5FF24F3941FC0C40100
:100D1000B601A5019201F30109958C010097E9F054
:100D2000FF2019F4C817D907B0F0C601B501A40116
:100D300098010E94B003882371F0C801A0E0B0E0E0
:100D4000A80EB91ECA1EDB1EC01BD10BFF20F9F670
:100D50002097E9F602C080E001C081E0DF91CF91E9
:100D60001F910F91FF90EF90DF90CF90BF90AF90C9
:100D70009F908F907F906F905F904F900895FC01AF
:100D8000009711F0118210820895DC018C91853E4C
:100D900039F1882329F1F901208131818281938100
:100DA0002817390799F444835583668377831B9604
:100DB0008C911B978F3011F080E205C08C91829549
:100DC000880F807E805E808780E008951B968C91DE
:100DD0008F3031F02F5F3F4F3183208381E00895C2
:100DE00081E00895EF92FF920F931F93CF93DF93CB
:100DF000EC017A018B018881853E09F4C7C0882304
:100E000009F4C4C0B901F90184899589A689B78913
:100E10000097A105B10521F4E48AF58A068B178BAA
:100E20006115710509F4B2C0209709F4AFC098812B
:100E3000992309F4ABC08B858F30C9F5892F90E0D9
:100E40008F7390702DE030E0AC01429FC001439F52
:100E5000900D529F900D11249C012D503040AC01FB
:100E6000415050404D30510500F5FB01E20FF31F9A
:100E7000898180838B8181838D8182838F8183832C
:100E8000898584838E858583888986838A898783FB
:100E90008C8980878E898187888D82878C8D8387D6
:100EA000640F751F8E8DFB01808381E070C0FB0194
:100EB00080818823A9F5AE01DE0180E090E0282F33
:100EC0003C91303251F0FB01E80FF91F30832F5F66
:100ED000019611968830910591F7FB01808185304C
:100EE00011F485EE808388858032B1F0FB01E20F3A
:100EF000F11D8EE28083822F8F5F2C5FFA01908537
:100F0000903249F0FB01E80FF11D90838F5F4F5F36
:100F10005F4F821799F7282FFB01E20FF11D108216
:100F20008B85FB0185879B8D80E02A8D30E0822BAD
:100F3000932B978786872D8D30E040E050E0542F2B
:100F4000432F322F22278E8D90E0A0E0B0E0DC010D
:100F500099278827282B392B4A2B5B2B8C8D90E0E7
:100F6000A0E0B0E0282B392B4A2B5B2B8F8D90E033
:100F7000A0E0B0E0B82FAA2799278827282B392B83
:100F80004A2B5B2B208B318B428B538B80E0DF9184
:100F9000CF911F910F91FF90EF900895FC01009762
:100FA00011F0118210820895FC01009711F480E085
:100FB0000895138E128E81E00895DF93CF9300D0B1
:100FC000CDB7DEB7FC01009769F16230710550F1D1
:100FD000660F771F80E090E026813781408551853C
:100FE000620F731F841F951FAE014F5F5F4F22E09A
:100FF00030E00E9499048823A9F09A8180E0298139
:1010000030E0282B392B2115310571F08FEF273F68
:10101000380741F0C9014096079720F08FEF283F2D
:10102000380710F020E030E0C9010F900F90CF9109
:10103000DF9108952F923F924F925F926F927F922D
:101040008F929F92AF92BF92CF92DF92EF92FF92D8
:101050000F931F93DF93CF93CDB7DEB72A970FB6C9
:10106000F894DEBF0FBECDBF2C017C836B831A01C9
:10107000009709F406C1672B09F403C14115510516
:1010800009F4FFC0DC015A96AD90BD90CD90DC9084
:101090005D9752962D913D914D915C915597C1016F
:1010A000A0E0B0E08A0D9B1DAC1DBD1D28173907BF
:1010B0004A075B0728F419012A183B0809F4E4C021
:1010C000D201ED91FC911197208931893A832983CE
:1010D0005E968D919C915F979A87898739018824C4
:1010E0009924892BD9F550960D90BC91A02DBA87E3
:1010F000A987AB2B39F4A114B104C104D10409F4BC
:10110000C3C0BFC0A114B104C104D10439F1860128
:10111000750188279927DC0186199709A809B9095B
:101120008D839E83AF83B88714C0D2018D919C912B
:1011300069857A850E94DD079A878987892B09F45A
:10114000A0C08D819E81AF81B885E80EF91E0A1F6F
:101150001B1FE614F7040805190538F7C601B50189
:10116000A40193010E9441305B016101D201ED9025
:10117000FC90E114F10409F1E985FA85E230F1050A
:10118000E0F03297BF0180E090E03296FA87E9877D
:10119000D70150962D913C91519740E050E00E942C
:1011A000FB2F9B01AC01F70186899789A08DB18D3A
:1011B000280F391F4A1F5B1F04C020E030E040E0C9
:1011C00050E009811A810A191B09C016D10608F4DA
:1011D0008601D701ED91FC91C501A0E0B0E0280F98
:1011E000391F4A1F5B1F0190F081E02DCA01B90130
:1011F0004B815C8198010995882361F1C01AD10A5D
:10120000C801A0E0B0E0F201228D338D448D558DF0
:10121000280F391F4A1F5B1FD2015A962D933D9309
:101220004D935C935D97C8018A0D9B1DE981FA81FE
:101230008E179F07A8F08D919C9169857A850E94F1
:10124000DD079A878987892B49F4D2015F961C9222
:101250001E925E97A1014C195D0918C0AA24BB24F7
:1012600029853A85F201378F268FC114D10439F0D0
:101270008B819C81800F911F9C838B8377CFA101F1
:1012800005C04FEF5FEF02C040E050E0CA012A9670
:101290000FB6F894DEBF0FBECDBFCF91DF911F9187
:1012A0000F91FF90EF90DF90CF90BF90AF909F9005
:1012B0008F907F906F905F904F903F902F90089508
:1012C0004F925F926F927F928F929F92AF92BF9256
:1012D000CF92DF92EF92FF920F931F93DF93CF9302
:1012E00000D0CDB7DEB7FC01009709F43FC06230F3
:1012F0007105E0F166807780808491842E010894E6
:10130000411C511C660F771F6B01EE24FF24C60C95
:10131000D71CE81CF91CC701B601A20122E030E08D
:101320000E949904882311F1BA80AA248981082F88
:1013300010E00A291B2901151105D1F0C8014096BA
:101340000897A0F08FEF083F180710F000E010E0BA
:1013500019821A82C701B601A20122E030E00E9480
:10136000B003B8010115110569F602C080E001C0A3
:1013700081E00F900F90CF91DF911F910F91FF901F
:10138000EF90DF90CF90BF90AF909F908F907F9025
:101390006F905F904F9008954F925F926F927F92FF
:1013A0008F929F92AF92BF92CF92DF92EF92FF9275
:1013B0000F931F93DF93CF9300D000D000D0CDB711
:1013C000DEB78C016A017B01009709F479C0FC014A
:1013D00082899389A489B589481759076A077B07C9
:1013E00008F06FC0D80152964D935D936D937C9336
:1013F000559781E090968C9390975096AD90BC90C5
:101400005197ED91FC9180899189A114B10499F4CF
:1014100057C0C401B5010E94DD075C01009711F4BB
:101420008FEF4FC08B819C81AD81BE81C80ED91ECC
:10143000EA1EFB1E0EC02C016624772488279927FC
:10144000DC0184199509A609B7098B839C83AD83B8
:10145000BE83D8018D909C90C414D504E604F70493
:10146000C0F68114910451F1B2E0AB16B10430F131
:10147000C401B5010E94DD078C018FEF89838A8347
:10148000B501660F771F80E090E0F4012681378177
:1014900040855185620F731F841F951FAE014F5FFA
:1014A0005F4F22E030E00E94B003882339F001153D
:1014B000110521F0C401B8010E9460098A2D01C004
:1014C00080E026960FB6F894DEBF0FBECDBFCF9159
:1014D000DF911F910F91FF90EF90DF90CF90BF9021
:1014E000AF909F908F907F906F905F904F900895F6
:1014F0002F923F924F925F926F927F928F929F9224
:10150000AF92BF92CF92DF92EF92FF920F931F9311
:10151000DF93CF93CDB7DEB728970FB6F894DEBF31
:101520000FBECDBF2C013B011A01009709F485C005
:10153000DC0116962D913D914D915C9119972D836B
:101540003E834F8358871A968D919D910D90BC9143
:10155000A02DB695A795979587959C838B83410180
:10156000CC24DD24AA24BB2440C0C501880F991FC8
:101570007C0100E010E02D813E814F815885E20E14
:10158000F31E041F151FC801B701AE014F5F5F4F67
:1015900022E030E00E949904882309F44EC089813A
:1015A000882301F58A818823E9F48214930421F4C5
:1015B0003FEF39833A8302C0C982DA82C801B7019A
:1015C000AE014F5F5F4F22E030E00E94B0038823FE
:1015D00091F00894810891088114910411F4650137
:1015E0000CC065010894A11CB11C4B815C81A41640
:1015F000B50608F4BACF8928E1F452E06516710403
:10160000F0F0C982DA82660C771CB30180E090E0CA
:101610002D813E814F815885620F731F841F951F56
:10162000AE014F5F5F4F22E030E00E94B00388239D
:1016300031F4C201B6010E946009CC24DD24C60148
:1016400028960FB6F894DEBF0FBECDBFCF91DF91C5
:101650001F910F91FF90EF90DF90CF90BF90AF90D0
:101660009F908F907F906F905F904F903F902F90C2
:1016700008952F923F924F925F926F927F928F9236
:101680009F92AF92BF92CF92DF92EF92FF920F9311
:101690001F93DF93CF93CDB7DEB728970FB6F8949B
:1016A000DEBF0FBECDBF6C017C836B835E834D8339
:1016B000009709F427C1672B09F424C1452B09F4CD
:1016C00021C1DC015A968D909D90AD90BC905D97A4
:1016D00052968D919D910D90BC91A02D88159905E4
:1016E000AA05BB0508F40EC1D601ED91FC91119736
:1016F000208931893A8329835E968D919C915F97E9
:1017000098878F83190144245524892B09F053C0ED
:1017100050960D90BC91A02DB887AF83AB2BA9F448
:1017200081149104A104B10409F0ECC0CF0160E080
:1017300070E041E050E00E94780A98878F83F601BC
:10174000918B808B892B09F4DDC0D6015A96ED90E0
:10175000FD900D911C915D97E114F10401051105B7
:1017600029F529C0E218F30804091509F60180815A
:1017700091816F8178850E94DD07009719F0988725
:101780008F8314C0E114F1040105110509F0BAC0FA
:10179000D6018D919C916F81788541E050E00E9447
:1017A000780A009709F4AEC098878F83E214F30497
:1017B00004051505B8F6C501B401A20191010E9406
:1017C00041303B018D809E80A980BA80A618B70861
:1017D0008A149B0408F45401730100E010E0D60160
:1017E000ED91FC9186899789A08DB18DE80EF91E47
:1017F0000A1F1B1FEF81F8853297BF0180E090E040
:101800003296F887EF83A20191010E94FB2FE60E2A
:10181000F71E081F191FC801B7014B815C81950194
:101820000E94B003882309F44FC08A189B08C501A1
:10183000A0E0B0E0F601228D338D448D558D280F48
:10184000391F4A1F5B1FD6015A962D933D934D9326
:101850005C935D97C501860D971DE981FA818E170E
:101860009F0708F18D919C916F8178850E94DD071B
:10187000009719F098878F8314C08114910459F050
:10188000D6018D919C916F81788541E050E00E9456
:10189000780A009721F4F601178E168E15C09887E6
:1018A0008F8366247724EF81F885D6015F96FC93B9
:1018B000EE935E978114910439F02B813C812A0DBF
:1018C0003B1D3C832B8380CFD6015A962D913D91B1
:1018D0004D915C915D9752968D919D910D90BC912B
:1018E000A02D82179307A407B50738F4F601228BC1
:1018F000338B448B558B81E080A34D815E814819E9
:10190000590902C04FEF5FEFCA0128960FB6F8944D
:10191000DEBF0FBECDBFCF91DF911F910F91FF9022
:10192000EF90DF90CF90BF90AF909F908F907F907F
:101930006F905F904F903F902F900895FC0180E151
:10194000DF011D928A95E9F780E190E008952F92DA
:101950003F924F925F926F927F928F929F92AF923F
:10196000BF92CF92DF92EF92FF920F931F93DF937C
:10197000CF93CDB7DEB7E1970FB6F894DEBF0FBEB9
:10198000CDBF3C012B01009709F4D6C0611571054C
:1019900009F4D2C0DC015096AD90BC9051978D9067
:1019A0009C9011975A96ED91FC915B97FBA7EAA743
:1019B000A114B10409F03FC08114910409F4B9C025
:1019C000FE01319689E0DF011D928A95E9F72AA58B
:1019D0003BA53C832B83D40152966D917D918D91D3
:1019E0009C9155971AE0A12EB12CAC0EBD1E5696B7
:1019F0000D911C915797061B170BA50120E230E0B3
:101A0000A5ECEA2EA6E0FA2E6F010E946905882354
:101A100009F48FC02D813E814F81588521153105F4
:101A20004105510509F485C0A1C0F20180818823D8
:101A300009F0B2C07EC08114910409F47AC0DC01BF
:101A40001F968C9184FF75C0F40120883188C101F4
:101A5000A0E0B0E08CA79DA7AEA7BFA7DE011196BE
:101A6000B9ABA8ABEEEFFFEFAE0EBF1EB50180E045
:101A700090E022E030E0A20EB31E2CA53DA54EA5BD
:101A80005FA50E94FB2F9B01AC01D40156966D917E
:101A90007D918D919C915997620F731F841F951FA3
:101AA000E8A9F9A929E011922A95E9F7AAA5BBA509
:101AB000BC83AB83AE01465F5F4F20E230E0810123
:101AC000E5ECEE2EE6E0FE2E6E010894C11CD11C62
:101AD0000E946905882369F12D813E814F815885D7
:101AE000211531054105510549F4C401B5010E9494
:101AF000DD075C01009709F0B5CF1BC088E1F2015A
:101B000011928A95E9F70985CA01B901AE01465FCC
:101B10005F4F20E230E010E0B2EFEB2EB6E0FB2E9C
:101B200062010E946905882321F0D2018C918823EB
:101B3000D1F5F301138E128E80E0E1960FB6F89482
:101B4000DEBF0FBECDBFCF91DF911F910F91FF90F0
:101B5000EF90DF90CF90BF90AF909F908F907F904D
:101B60006F905F904F903F902F90089588E1D20141
:101B70001D928A95E9F70985CA01B901A50120E2FC
:101B800030E010E0A2EFEA2EA6E0FA2E62010E94F9
:101B90006905882371F249CFF301828D938D0196F7
:101BA000938F828F0AC0D3015A968D919C915B9737
:101BB00001965B969C938E935A9781E0BECFFB0172
:101BC000892B61F06115710549F088E1DB011D92F7
:101BD0008A95E9F780E1858781E0089580E008959E
:101BE0002F923F924F925F926F927F928F929F922D
:101BF000AF92BF92CF92DF92EF92FF920F931F931B
:101C0000DF93CF93CDB7DEB7E0970FB6F894DEBF82
:101C10000FBECDBF6C01009709F48FC1AAC1EAE6DF
:101C2000F3E08AE1DF011D928A95E9F7D0926B0318
:101C3000C0926A03D60119962D913D914D915C9108
:101C40001C97B9E0220F331F441F551FBA95D1F7D7
:101C50002AA33BA34CA35DA3CA01B901655F7F4FD3
:101C60008F4F9F4FAE014F5F5F4F29E130E00E94E1
:101C70009904882309F484C1A9804A80BB81BEA34A
:101C80000C81FD801E813F81588469847A849D8502
:101C900080E02C85E22FF0E0E82BF92B8E883F883E
:101CA000288DE98C309709F46BC1432D50E060E03A
:101CB00070E0962F852F742F662769A77AA78BA7C8
:101CC0009CA7822F90E0A0E0B0E0BC0155274427FC
:101CD00089A59AA5ABA5BCA5842B952BA62BB72BC4
:101CE000482D50E060E070E0842B952BA62BB72B9D
:101CF00089A79AA7ABA7BCA78E2D90E0A0E0B0E083
:101D0000782F66275527442789A59AA5ABA5BCA59A
:101D1000842B952BA62BB72B89A79AA7ABA7BCA77B
:101D20000097A105B10589F4972D80E0662D70E03C
:101D3000682B792B6115710509F422C1CB01A0E054
:101D4000B0E089A79AA7ABA7BCA7942D80E02A2C66
:101D50003324282A392A952D80E0A32FB0E0A82B20
:101D6000B92BB8A7AFA39F2D80E0202F30E0822BA6
:101D7000932B9C0140E050E02A8F3B8F4C8F5D8F6E
:101D8000BF0180E090E0212F30E040E050E00E9471
:101D9000FB2F6E8F7F8F88A399A3E9A4FAA40BA5CC
:101DA0001CA54A8D5B8D6C8D7D8DE41AF50A060BA2
:101DB000170B6E8D7F8D88A199A1E61AF70A080B83
:101DC000190BC10101972FA138A545E0220F331F40
:101DD0004A95E1F7820F931FB1010E941A3080E00B
:101DE00090E0E61AF70A080B190B7EA1272F30E0C6
:101DF00040E050E0C801B7010E94413029013A019A
:101E0000D301C201855F9F40A040B0408050904FF9
:101E1000A040B04008F0B4C086E0D60118968C937C
:101E20009CE6892E93E0992E88E1F40111928A951F
:101E3000E9F75101CC24DD2469A57AA58BA59CA5E1
:101E4000A60195010E94FB2F60936C0370936D03B4
:101E500080936E0390936F03C601B5012A8D3B8D6D
:101E60004C8D5D8D0E94FB2F7B018C012AA13BA133
:101E70004CA15DA1E20EF31E041F151FE09270033A
:101E8000F0927103009372031093730342E050E0E9
:101E900060E070E0440E551E661E771E440C551C13
:101EA000661C771C4092740350927503609276030F
:101EB0007092770330927903209278035EA1852F88
:101EC00090E0BC01269EC001279E900D369E900D8D
:101ED000112490937B0380937A036E8D7F8D88A16C
:101EE00099A1A60195010E94FB2F6E0D7F1D801FF9
:101EF000911F60937C0370937D0380937E03909386
:101F00007F03AFA1B8A59D0140E050E005E0220F9E
:101F1000331F441F551F0A95D1F7620F731F841F8B
:101F2000951F609380037093810380938203909345
:101F3000830394012250304002C020E030E0C90108
:101F4000E0960FB6F894DEBF0FBECDBFCF91DF9104
:101F50001F910F91FF90EF90DF90CF90BF90AF90C7
:101F60009F908F907F906F905F904F903F902F90B9
:101F7000089580916A0390916B03892BF1F64FCEFF
:101F800010926B0310926A03D8CF9F92AF92BF92C8
:101F9000CF92DF92EF92FF920F931F93DF93CF9335
:101FA000CDB7DEB7A0970FB6F894DEBF0FBECDBF9A
:101FB0008B01892B09F4ABC06115710509F4A7C029
:101FC000DB015496AD90BD90CD90DC905797E62EF6
:101FD000912EFB0101900020E9F73197FE2EF61AB1
:101FE000CE01019660E270E04BE050E00E94C30039
:101FF000C8016EE270E00E94E200FC010097E1F08F
:102000009C012F5F3F4F81818823B1F0D9010D9052
:102010000020E9F71197A21BB30B8A2F8095F80EC9
:10202000BE01675F7F4F4A2FA43008F043E0CB0129
:10203000B90150E00E94BA00CE010196B8E0BF1588
:1020400038F06E2D792D4F2D50E00E94BA0028C037
:10205000DC018E2D992D9C01F90188E001900D92F3
:102060008150E1F7F8012685822F90E0203A40F474
:1020700044E0959587954A95E1F7982F905D07C0C4
:1020800034E0959587953A95E1F7982F9F59822FDF
:102090008F708A3010F4805D01C08F599F838887CC
:1020A0008981853E11F485E0898385E1FE013C96B6
:1020B000DF011D928A95E9F7F80185858C87868571
:1020C0008B8F87858C8F80898D8F80899189A2895C
:1020D000B389292F3A2F4B2F55272E8F9D01442747
:1020E00055272F8F8B2F9927AA27BB2788A3C60197
:1020F000B501AE014F5F5F4F20E230E00E94B003B8
:1021000090E0882309F491E081E0982701C090E0F5
:10211000892FA0960FB6F894DEBF0FBECDBFCF912A
:10212000DF911F910F91FF90EF90DF90CF90BF90C4
:10213000AF909F9008952F923F924F925F926F922F
:102140007F928F929F92AF92BF92CF92DF92EF9247
:10215000FF920F931F93DF93CF93CDB7DEB76597B1
:102160000FB6F894DEBF0FBECDBF7C018B015D8B37
:102170004C8B009709F418C16115710509F414C15D
:10218000DB018C91882309F40FC1452B09F40CC1A4
:10219000DC88CD88C7016C897D890E94A70C8823C3
:1021A00059F0C8016D2D7C2D0E94CA00009791F74F
:1021B000F701138E128EF8C0D7012D903C9088E164
:1021C000EC89FD8911928A95E9F78D2D9C2DB80136
:1021D0004CE050E00E94D3002114310409F4CCC03B
:1021E000AC89BD89FD0101900020E9F7EA1BFB0BDA
:1021F000CF010B966DE070E00E941A30F62FFF5F62
:10220000FA8BD70150964D905C9051974114510430
:1022100051F0EE24FF248701AA24BB246501662423
:10222000772443010BC0F101A288B388C488D58804
:10223000E688F788008D118D350146011B8AAE14A2
:10224000BF04C006D10609F06FC04114510409F45F
:1022500093C0A114B104C104D104F1F1C101B201D0
:102260000E94DD070097B9F5C101B20141E050E0DD
:102270000E94780A8C01009709F47EC0D101509623
:10228000ED90FC90519702501040B80180E090E032
:102290000E5F1F4F970140E050E00E94FB2F3B0173
:1022A0004C01F10186899789A08DB18D680E791E48
:1022B0008A1E9B1E0230110508F461C0C401B301DF
:1022C000AE014E5F5F4F97010EE91CE0EE24FF2444
:1022D0000E94640654C02C01D1015096ED90FC90F0
:1022E000519700E010E0EEEFFFEF4E0E5F1EB201DF
:1022F00080E090E022E030E0420E531EA8019701FA
:102300000E94FB2F5B016C01F10186899789A08DEA
:10231000B18DA80EB91ECA1EDB1EEA0CFB1C0C1DDB
:102320001D1D350146011B8AC601B501AE014F5F77
:102330005F4F21E030E00E9499048823E9F0898111
:10234000853E11F0882379F4FB89FF5FFB8B2A8996
:10235000F217A8F480E290E0A0E0B0E0A80EB91E69
:10236000CA1EDB1E6CCF80E290E0A0E0B0E0A80EB9
:10237000B91ECA1EDB1E60CF662477244301AC89D8
:10238000BD8954966D927D928D929C92579761145F
:1023900071048104910441F0C101BD010E94C50F87
:1023A000882319F081E001C080E065960FB6F894AB
:1023B000DEBF0FBECDBFCF91DF911F910F91FF9078
:1023C000EF90DF90CF90BF90AF909F908F907F90D5
:1023D0006F905F904F903F902F900895CF93DF9331
:1023E000EC01009771F088A1882349F0FE018191EA
:1023F0009191BF010E94C50F882309F418A2198288
:102400001882DF91CF9108959C01FB01009731F074
:102410006115710519F0858584FD16C020E030E056
:10242000C9010895A7EAB3E088E101900D928150B7
:10243000E1F73093A6032093A5031092C0031092F6
:10244000BF0325EA33E0ECCF8091A5039091A6036A
:10245000892B21F7E7CFCF93DF93AC01DB01009706
:1024600029F16115710511F11D968C911D9784FF5D
:1024700023C01CC0E5EAF3E09F012E5F3F4FBD0182
:1024800088E1EB010990BE01E90109929E018150AA
:10249000C1F751834083128E138E148E158E1E96B3
:1024A0008D919C911F97978F868F02C0E0E0F0E09E
:1024B000CF01DF91CF91089580918403909185039E
:1024C000892BC1F6E4E8F3E0D7CFDC0113961C9228
:1024D000139708C0FD01E80FF11D14828F5F13965A
:1024E0008C93139713968C911397803298F395964B
:1024F0001C92959708C0FD01E80FF11D16A28F5F91
:1025000095968C93959795968C919597803298F3A4
:1025100011961C921E92A95BBF4F81E090E011962C
:102520009C938E93A754B04012961C9212971396C8
:102530001C92139794961C92949795961C9295973B
:10254000AA5BBF4F1C920895FC01E75BFF4F7183AC
:102550006083E954F040CF010E9465120895CF9343
:10256000DF93EC01288139812115310541F4653D66
:1025700009F046C00E94651281E090E03FC0213022
:10258000310561F46A831B8282E090E0998388833D
:10259000613208F435C0C95BDF4F2EC022303105EF
:1025A000F9F49B818A819817A0F48CA1862728E0F2
:1025B0003CE880FB86950EF483272A95D1F78CA3FF
:1025C000903220F4FE01E90FF11D64838B818F5F4F
:1025D0008B839B818A81981798F083E090E00EC0EE
:1025E0002330310569F48CA1861731F0C95BDF4FC8
:1025F00039832883C754D04084E090E0998388834E
:10260000DF91CF910895FC0120E0808191810497B2
:1026100009F421E0822F0895FC0183810895FC01D3
:10262000E95BFF4F808191810895FC01E95BFF4FD9
:1026300085E090E0918380830895FC01E95BFF4F82
:1026400082E090E09183808308956F927F928F92D1
:102650009F92AF92BF92DF92EF92FF920F931F93E0
:10266000CF93DF93EC0196E4A92EB12CAC0EBD1EE6
:102670008E01095B1F4FD8019C9180E0892798E06B
:102680002CE880FB86950EF482279A95D1F7F50108
:10269000808389E4E82EF12CEC0EFD1ED701ED912C
:1026A000FC9185ED09958DA1D701ED91FC918F5F8E
:1026B0000995D701ED91FC91D8018C910995DD2404
:1026C000450137011AC08E010D0D111DD301ED9189
:1026D000FC91D80196968C910995F4018081D801DE
:1026E00096969C91892798E02CE880FB86950EF4BD
:1026F00082279A95D1F78083D3948DA1D81618F3A9
:10270000D701ED91FC91D5018C910995CE010E94E4
:102710006512DF91CF911F910F91FF90EF90DF90A5
:10272000BF90AF909F908F907F906F9008956F9221
:102730007F928F929F92BF92CF92DF92EF92FF9201
:102740000F931F93CF93DF93EC0136E4C32ED12C6C
:10275000C80ED91ED6011C9229E4E22EF12CE80EF7
:10276000F91ED701ED91FC9185ED0995D701ED9109
:10277000FC918DA10995BB24460137011AC08E0139
:102780000B0D111DD301ED91FC91D80196968C9102
:102790000995F4018081D80196969C91892798E04B
:1027A0002CE880FB86950EF482279A95D1F78083DA
:1027B000B3948DA1B81618F3D701ED91FC91D60111
:1027C0008C910995DF91CF911F910F91FF90EF9020
:1027D000DF90CF90BF909F908F907F906F900895E3
:1027E000DC01952F95968C919597803240F4FD01F0
:1027F000E80FF11D46A38F5F95968C93959795965C
:102800008C919597803240F4FD01E80FF11D96A35D
:102810008F5F95968C939597AB0166277727952FB9
:1028200095968C919597803240F4FD01E80FF11D4B
:1028300046A38F5F95968C93959795968C919597D7
:10284000803238F4FD01E80FF11D96A38F5F959655
:102850008C930895DC0195968C919597803240F485
:10286000FD01E80FF11D66A38F5F95968C939597F8
:1028700095968C919597803238F4FD01E80FF11D03
:1028800076A38F5F95968C930895DC0195968C9135
:102890009597803238F4FD01E80FF11D66A38F5F34
:1028A00095968C930895FC01E60FF11D848108959F
:1028B000FC016F5FDC01A60FB11D615014969C9165
:1028C00080E0E60FF11D248130E0282B392BC9016F
:1028D00008950F931F938C01862F8E5F6D5FF80113
:1028E000E60FF11D348120E0F801E80FF11D84812D
:1028F00090E0282B392B40E050E0A9013327222714
:102900006250F801E60FF11D6150948180E0060FDE
:10291000111DF801648170E0862B972BA0E0B0E0D8
:10292000282B392B4A2B5B2BB901CA011F910F9120
:102930000895F999FECF72BD61BDF89A80B50895EA
:10294000F999FECF1FBA72BD61BD40BD0FB6F894B4
:10295000FA9AF99A0FBE0895CF92DF92EF92FF9202
:102960000F931F936C01DC01ED90FC901197129670
:102970008D919C9113979C012F5F3F4F13963C9331
:102980002E931297F7014681578162817381840FDC
:10299000951F0E941A3000811181F801E80FF91F7C
:1029A000E081F0E02F5F3F4FD60113963C932E93CA
:1029B000129721503040D70116968D919C91179710
:1029C00012966D917C911397820F931F0E941A307B
:1029D000080F191FD8019C9180E0E82BF92BCF013B
:1029E0001F910F91FF90EF90DF90CF9008952F925D
:1029F0003F924F925F926F927F928F929F92AF928F
:102A0000BF92CF92DF92EF92FF920F931F932C0110
:102A1000FC01C080D180828193818C010F5F1F4FA8
:102A200013830283F6012681378162817381820FCD
:102A3000931F0E941A3020803180F101E80FF91FA6
:102A400080809924AA24BB2438010894611C711C3D
:102A5000F20173826282F6018681978162817381BD
:102A6000800F911F0E941A30F101E80FF91F0081B9
:102A700010E020E030E0322F212F102F00277301CB
:102A80000894E11CF11CF201F382E282F6018681D6
:102A9000978162817381860D971D0E941A30F10122
:102AA000E80FF91F808190E0A0E0B0E0DC019927F9
:102AB00088270894E11CF11CF201F382E282089459
:102AC000E108F108082919292A293B29082B192B83
:102AD0002A2B3B2BF60186819781628173818E0DB3
:102AE0009F1D0E941A30280E391EF101808190E04E
:102AF000A0E0B0E0B82FAA2799278827082B192B28
:102B00002A2B3B2BB801C9011F910F91FF90EF9029
:102B1000DF90CF90BF90AF909F908F907F906F90FD
:102B20005F904F903F902F900895089584EC93E02C
:102B300060E67BE10E94A41280E091E0909313058F
:102B40008093120580E194E0909311058093100525
:102B50001092170510921605109215051092140583
:102B6000109219051092180508952F923F924F92D6
:102B70005F926F927F928F929F92AF92BF92CF920D
:102B8000DF92EF92FF920F931F93DF93CF93CDB716
:102B9000DEB760970FB6F894DEBF0FBECDBF809151
:102BA0004405882321F542C0E0911005F0911105FC
:102BB0008091140590911505E80FF91F40838091CD
:102BC00014059091150560911205709113050196F9
:102BD0000E941A3090931505809314058091180572
:102BE00090911905019690931905809318052091ED
:102BF0001205309113058091180590911905281739
:102C00003907C1F00E94E51B8823A1F00E94511CE6
:102C1000482F809118059091190501962091120571
:102C2000309113052817390710F3BECF80E060E01C
:102C30000E94642F8091180590911905892B09F441
:102C4000BFC180E195E09A83898381E090E09C8315
:102C50008B836091120570911305809116059091F8
:102C600017050E941A30E0911005F0911105E80F48
:102C7000F91FE081E13809F083C180E10E94961FCD
:102C8000882309F49DC16E010894C11CD11CC601A2
:102C90000E94F7141B012C01C6010E94F7143B018E
:102CA0004C01C6010E94F7147B018C01C6010E94F1
:102CB000F7145B016C01C201B101A40193010E94F0
:102CC000EC2043C10E94071F882309F479C1F894BE
:102CD0008E010F5F1F4FC8010E94F7144B015C016A
:102CE000C8010E94F7146B017C01C8010E94F7140F
:102CF0008D829E82AF82B886C986DA86EB86FC8694
:102D00006D877E878F87988BCE0105960E94A81FBE
:102D100078941BC10E94071F882309F451C1E981DF
:102D2000FA818B819C8101969C838B8301972681FC
:102D3000378162817381820F931F0E941A30019044
:102D4000F081E02DE80FF91F008110E07E0108946A
:102D5000E11CF11CC7010E94F7145B016C01C70163
:102D60000E94AC147C01B801769567956170A8014A
:102D700056954795569547954170802F81709601DD
:102D800085010E94C027E1C00E94071F882309F423
:102D900017C18E010F5F1F4FC8010E94F7145B011E
:102DA0006C01C8010E94AC147C0180E060E040E04E
:102DB000960185010E94D326C8C00E94071F882360
:102DC00009F4FEC0CE0101960E94F7140E94502C17
:102DD000BCC00E94071F882309F4F2C0E981FA8170
:102DE0008B819C8101969C838B83019726813781FF
:102DF00062817381820F931F0E941A300190F081CB
:102E0000E02DE80FF91F80810E94A82B9EC00E9430
:102E1000071F882309F4D4C0E981FA818B819C8142
:102E200001969C838B830197268137816281738110
:102E3000820F931F0E941A300190F081E02DE80F5D
:102E4000F91FF0808E010F5F1F4FC8010E94AC1464
:102E50006C01C8010E94AC148C018F2D0E94D02AF5
:102E6000882309F072C00E94422C960140E050E095
:102E7000260F371F481F591F2093EF073093F00785
:102E80004093F1075093F2070E94422C28EE33E062
:102E9000A901049F9001059F300D149F300D11244E
:102EA00040E050E0260F371F481F591F2093F307BB
:102EB0003093F4074093F5075093F60781E0809331
:102EC0001E0543C00E94071F882309F479C0CE0164
:102ED00001960E94572A39C00E94071F882309F4CF
:102EE0006FC0E981FA818B819C8101969C838B83E1
:102EF00001972681378162817381820F931F0E941F
:102F00001A300190F081E02DE80FF91F2081822F07
:102F100090E0322F317096958795682F6170969565
:102F20008795482F417027FF04C0832F0E94BD2141
:102F30000CC0832F0E94932108C080E061E00E94B2
:102F4000642F84EC93E00E941513E981FA818B8150
:102F50009C81208531858217930708F49C01868126
:102F6000978162817381820F931F0E941A30978329
:102F7000868380859185821B930B9187808720C0F3
:102F8000E53809F41ACFE63870F4E23809F49ACE3D
:102F9000E33818F4E13889F676CEE33809F4BACE8E
:102FA000E43859F6F1CEE73809F431CFE73808F4C0
:102FB00010CFE83809F486CFE93809F0BECF8CCFBE
:102FC00060960FB6F894DEBF0FBECDBFCF91DF91F4
:102FD0001F910F91FF90EF90DF90CF90BF90AF9037
:102FE0009F908F907F906F905F904F903F902F9029
:102FF00008958DE061E00E94462F8CE061E00E9420
:10300000462F8DE060E00E94642F83E098E040E06E
:1030100056E960E070E00E94D32C86E098E040E042
:1030200056E960E070E00E94D32C089510920F04DE
:103030000E94591B10921A0510921B0510921C0534
:1030400010921D050E948E280E9468290E942D1C46
:1030500008950E94512A0E94B221109217051092E1
:10306000160510921505109214051092190510926C
:1030700018050E9416180895AF92BF92CF92DF9262
:10308000EF92FF920F931F93DF93CF93CDB7DEB7ED
:10309000C554D0400FB6F894DEBF0FBECDBFE82FA9
:1030A000F0E0E331F10508F0A4C1E25CFF4FEE0F60
:1030B000FF1F0590F491E02D099484EC93E061E00A
:1030C0000E9458149093C3038093C20384EC93E04E
:1030D00068E670E00FC00E94161892C16091120558
:1030E000709113058091180590911905681B790B53
:1030F00084EC93E00E942A1483C110921705109269
:1031000016051092150510921405109219051092CB
:10311000180576C1CE0101960E94FE1F49815A8191
:103120006B817C8184EC93E00E94F0134D815E8181
:103130006F81788584EC93E00E94F01349855A856D
:103140006B857C8584EC93E00E94F0130E945F21E4
:103150000AC1CE010D960E944B204D855E856F857C
:10316000788984EC93E00E94F01349895A896B892D
:103170007C8984EC93E00E94F0134D895E896F890D
:10318000788DCCC084EC93E061E00E9469145B010F
:103190006C0184EC93E065E00E9469147B018C0172
:1031A00084EC93E069E00E946914A98EBA8ECB8EFC
:1031B000DC8EED8EFE8E0F8F18A369A37AA38BA3EE
:1031C0009CA3CE0149960E9425201AC10E9429186D
:1031D00017C180910F04882341F010920F0480E002
:1031E0000E9469290E9421220BC181E080930F0473
:1031F0000E9469290E94B22103C184EC93E00E94DD
:10320000282BFEC00E94071F882309F4F7C00E94E4
:10321000511F882309F4F2C0809118059091190577
:10322000892B09F0EBC061E09FC084EC93E061E082
:103230000E945814E82E192F84EC93E063E00E945A
:103240005314F82E80E18F1558F18E2D912F9C018B
:1032500089010CC081EC93E0B8010E949914682F99
:1032600084EC93E00E9445140F5F1F4F802F8E194E
:103270008F1580F3C5C084EC93E061E00E94581480
:103280008C0184EC93E063E00E945314A82EE0E1EB
:10329000E81730F034E0E32E24E0F22EF80E13C0ED
:1032A00084EC93E00E941D13ABC084EC93E06E2D80
:1032B0000E945314482F81EC93E0B8010E94A0149F
:1032C000E3940F5F1F4FEF1481F784EC93E06A2DB6
:1032D0008DC000E010E095E3E92EF12CEC0EFD1E10
:1032E000602F6F5F84EC93E00E945314882349F0B1
:1032F000F701E00FF11F80830F5F1F4F00311105B1
:1033000079F7CE01C596080F191FF80110820E94A7
:10331000171D29C00E940B1CAB01BC0184EC93E07B
:103320000E94F0136DC000E010E085E3E82EF12C60
:10333000EC0EFD1E602F6F5F84EC93E00E9453142F
:10334000882349F0F701E00FF11F80830F5F1F4FC3
:103350000031110579F7CE01C596080F191FF80144
:1033600010820E94E91C682F84EC93E03FC02DE09E
:1033700088E190E00FB6F894A895809360000FBEA6
:10338000209360003DC084EC93E061E00E94531400
:10339000882351F00E94DE1C682F882329F084ECDA
:1033A00093E00E9445141FC08E010B5D1F4FC801A2
:1033B00060E10E94ED1B682F84EC93E00E944514AD
:1033C000B5E3EB2EF12CEC0EFD1E09C084EC93E06E
:1033D0000E9445140F5F1F4F0E151F0521F0F801C5
:1033E0006081662399F784EC93E060E00E944514C5
:1033F00007C084EC93E00E94151302C060E0B4CFD4
:10340000CB5BDF4F0FB6F894DEBF0FBECDBFCF91C1
:10341000DF911F910F91FF90EF90DF90CF90BF90C1
:10342000AF900895EF92FF920F931F930E94422C4A
:103430007B018C0188EE93E0A0E0B0E0E80EF91E7D
:103440000A1F1B1F4CC083E098E00E94CE2C8823EB
:10345000C1F183E098E00E94C92C682F84EC93E0CE
:103460000E94AF1280913B0590913C05A0913D05D3
:10347000B0913E050196A11DB11D80933B0590932F
:103480003C05A0933D05B0933E050E94422C7B0174
:103490008C0188EE93E0A0E0B0E0E80EF91E0A1F70
:1034A0001B1F84EC93E00E940F13039751F480E0FC
:1034B00061E00E94642F83E098E060E071E00E9488
:1034C0005C2E0E94422C6E157F058007910738F014
:1034D00083E098E062E171E00E945C2E07C084EC1A
:1034E00093E00E940313882309F4ADCF84EC93E0AA
:1034F0000E940313882309F47CC080913F059091BA
:103500004005A0914105B09142050196A11DB11D54
:1035100080933F0590934005A0934105B0934205E9
:1035200084EC93E060E00E94531487FF60C08091B8
:103530004305882329F084EC93E00E94851C59C040
:1035400000911205109113058091180590911905AD
:10355000081B190B84EC93E00E940C1390E00817F1
:10356000190708F43FC010E036C084EC93E0612FE7
:103570000E945314482F80911805909119050196C7
:1035800020911205309113052817390718F1E091A1
:103590001005F09111058091140590911505E80F23
:1035A000F91F4083809114059091150560911205D3
:1035B0007091130501960E941A309093150580931F
:1035C000140580911805909119050196909319059D
:1035D000809318051F5F84EC93E00E940C1318176A
:1035E00020F207C084EC93E00E941D1302C00E94E9
:1035F0003C1884EC93E00E9425131F910F91FF90DB
:10360000EF90089583E098E00E94CE2C882311F07B
:103610000E94121A80911E05882319F40E94B51584
:1036200004C0813011F40E94F22A0E9429220895D8
:103630000F931F930E94F9170E94161803E018E0D9
:10364000C8016FE171E00E942D2EC80148E650E0EC
:1036500060E070E02AE030E00E943B2F1F910F9164
:1036600008950E947A2C0E94181B0E94021BFDCF15
:1036700081EC93E060E070E00E9499148A3511F0CB
:1036800090E00AC081EC93E061E070E00E94991440
:1036900090E0883709F491E0892F08958EE060E08A
:1036A0000E94642F60ED77E080E090E00E94502C53
:1036B00008958EE061E00E94462F0E944E1B0895FF
:1036C00020913705309138054091390550913A05E0
:1036D0002F5F3F4F4F4F5F4F209337053093380593
:1036E0004093390550933A05482F50E060E070E070
:1036F00083E098E020E030E00E94262F0895CF92EA
:10370000DF92EF92FF920F931F93CF93DF93182FC7
:1037100080911F0590912005A0912105B09122056F
:103720000196A11DB11D80931F0590932005A093C4
:103730002105B0932205412F50E060E070E086E063
:1037400098E020E030E00E94262F0E94422C6B017E
:103750007C018AE090E0A0E0B0E0C80ED91EEA1E2D
:10376000FB1E86E098E00E94C92CEC01012F10E0BE
:1037700020C086E098E00E94C92CEC010E94422CF7
:10378000C616D706E806F906A0F480912B0590919D
:103790002C05A0912D05B0912E050196A11DB11DFE
:1037A00080932B0590932C05A0932D05B0932E05A7
:1037B00003C0C017D107E9F6DF91CF911F910F9198
:1037C000FF90EF90DF90CF9008958091520508957B
:1037D00089E495E00E94CA0108959C01462F89E47E
:1037E00095E0B9010E94D2010895109244056091BC
:1037F0004F05709150056115710521F089E495E040
:103800000E94210289E495E00E942F031092500546
:1038100010924F05089580914305882389F06091A7
:103820004F05709150056115710521F089E495E00F
:103830000E9421021092500510924F0510924305EC
:1038400089E495E00E942F0360914505709146053B
:1038500080914705909148050895809144058823FB
:1038600011F00E94F51B80914305882311F00E94FE
:103870000B1C89E495E00E942F03089580914F0569
:103880009091500561E575E041E050E00E941A0812
:1038900010925205181619061CF481E08093520507
:1038A00008951F93109151050E943E1C812F1F9176
:1038B0000895DF93CF930F92CDB7DEB789836091E0
:1038C0004F057091500561157105D9F089E495E0B7
:1038D000AE014F5F5F4F21E00E94340280914505A9
:1038E00090914605A0914705B09148050196A11D0C
:1038F000B11D8093450590934605A0934705B0936D
:1039000048050F90CF91DF9108951F93CF93DF93D8
:10391000EC0110E007C0CE01612F0E9453140E94F9
:10392000591C1F5FCE010E940C131817A0F3DF91E2
:10393000CF911F91089589E495E00E942C0388237C
:1039400091F489E495E00E942103882331F489E40D
:1039500095E00E942F0381E0089589E495E00E949C
:103960002F0382E0089589E495E00E94F6028823FF
:1039700031F489E495E00E942F0383E0089589E4FF
:1039800095E00E94E302882331F489E495E00E94E7
:103990002F0384E0089589E495E00E94AF02882314
:1039A00031F489E495E00E942F0385E0089589E4CD
:1039B00095E00E942403811186E008950E942D1C49
:1039C0000E949B1C882321F489E495E00E941A023E
:1039D00008951F93CF93DF93EC010E942D1C0E944A
:1039E0009B1C182F8823F1F4109245051092460570
:1039F00010924705109248051092500510924F05FD
:103A000089E495E0BE010E94A60290935005809340
:103A10004F05892B11F417E005C081E08093440520
:103A20000E943E1C812FDF91CF911F9108951F931B
:103A3000CF93DF93EC010E942D1C0E949B1C182F3A
:103A4000882329F5109245051092460510924705E6
:103A5000109248051092500510924F0589E495E0A8
:103A6000BE010E943B0289E495E0BE010E94A602CD
:103A70009093500580934F0580914F05909150058C
:103A8000892B11F418E003C081E080934305812F56
:103A9000DF91CF911F910895CF93DF93EC0188853B
:103AA000998501962A813B8128173907A8F0E8817A
:103AB000F9818C819D81E80FF91F60838C819D8144
:103AC0006A817B8101960E941A309D838C83888550
:103AD0009985019699878887DF91CF910895CF9234
:103AE000DF92EF92FF920F931F936C017A018B018B
:103AF000642F0E944C1D5527412F302F2F2DC601BA
:103B0000622F0E944C1D980144275527C601622F41
:103B10000E944C1DE12EFF2400271127C6016E2DA7
:103B20000E944C1D1F910F91FF90EF90DF90CF905E
:103B300008950F931F93CF93DF93EC012885398568
:103B40002115310511F400E012C08E819F81E881BA
:103B5000F981E80FF91F00816A817B8101960E943B
:103B60001A309F838E8321503040398728872885DB
:103B700039852115310511F440E012C08E819F81F5
:103B8000E881F981E80FF91F40816A817B81019604
:103B90000E941A309F838E832150304039872887B6
:103BA000288539852115310511F410E012C08E8168
:103BB0009F81E881F981E80FF91F10816A817B817B
:103BC00001960E941A309F838E832150304039879E
:103BD0002887288539852115310511F4E0E012C0C8
:103BE0008E819F81E881F981E80FF91FE0816A8168
:103BF0007B8101960E941A309F838E832150304032
:103C000039872887242F30E040E050E0542F432F9D
:103C1000322F2227802F90E0A0E0B0E0282B392B14
:103C20004A2B5B2B812F90E0A0E0B0E0DC019927CC
:103C30008827282B392B4A2B5B2B8E2F90E0A0E076
:103C4000B0E0B82FAA2799278827282B392B4A2B91
:103C50005B2BB901CA01DF91CF911F910F9108959C
:103C6000603020E0720721E0820720E0920708F42C
:103C700040C0693F2FEF720727E0820720E09207DC
:103C800040F433E096958795779567953A95D1F707
:103C900030C0613C2FEF72072FE3820720E09207CC
:103CA00040F426E096958795779567952A95D1F704
:103CB00020C061302FEF72072FEF820720E09207BC
:103CC00030F4BB27A92F982F872FBC0112C0613079
:103CD0002CEF72072FEF820723E0920718F06FEFA7
:103CE0007FEF07C0AAE09695879577956795AA9587
:103CF000D1F7CB010895EF92FF920F931F937B01B1
:103D00008C0144E0EE0CFF1C001F111F4A95D1F7F7
:103D1000C801B7010E94301E9093890080938800EB
:103D200080E0E81680E0F80681E0080780E01807E8
:103D300010F491E022C089EFE8168FEFF80687E0D3
:103D4000080780E0180710F492E017C081ECE8162D
:103D50008FEFF8068FE3080780E0180710F493E070
:103D60000CC081E0E8168FEFF8068FEF080780E0BF
:103D7000180710F095E001C094E080918100887FE1
:103D80008093810080918100982B909381001F91F6
:103D90000F91FF90EF900895CF93DF93E0E8F0E06C
:103DA0001082A1E8B0E01C92109282002FE630E071
:103DB000E90118828C918F7E8C938C9188608C9312
:103DC00080818D7F808380818E7F808380818F77CB
:103DD000808380818F7B808380818F7D80838081C1
:103DE0008F7E80838C91887F8C938C9185608C935F
:103DF0008FEF9FEF909389008093880088818D7F5B
:103E0000888388818F7D8883DF91CF910895809109
:103E10004D01882309F442C0209170073091710749
:103E2000409172075091730780917C0790917D07B4
:103E3000A0917E07B0917F07281739074A075B07D3
:103E400069F520917407309175074091760750917C
:103E500077078091800790918107A0918207B091A8
:103E60008307281739074A075B07C1F420917807B1
:103E70003091790740917A0750917B0780918407B0
:103E800090918507A0918607B091870760E0281779
:103E900039074A075B0719F461E001C060E0862F2B
:103EA00008952091700730917107409172075091E9
:103EB000730780917C0790917D07A0917E07B09158
:103EC0007F07281739074A075B0769F520917407B0
:103ED0003091750740917607509177078091800760
:103EE00090918107A0918207B09183072817390725
:103EF0004A075B07C1F42091780730917907409118
:103F00007A0750917B078091840790918507A09153
:103F10008607B091870760E0281739074A075B07D3
:103F200019F461E001C060E0862F089560E02091FF
:103F300055073091560740915B0750915C07241B51
:103F4000350B90E02817390708F061E0862F0895B7
:103F5000FC0180819181A281B3818093700790934D
:103F60007107A0937207B0937307809170079091C7
:103F70007107A0917207B091730780937C079093AB
:103F80007D07A0937E07B0937F0784819581A681EA
:103F9000B7818093740790937507A0937607B093C9
:103FA00077078091740790917507A0917607B0917B
:103FB00077078093800790938107A0938207B0933F
:103FC000830780859185A285B38580937807909338
:103FD0007907A0937A07B0937B0780917807909137
:103FE0007907A0917A07B0917B078093840790931B
:103FF0008507A0938607B09387070895FC018091F9
:10400000700790917107A0917207B0917307808338
:104010009183A283B3838091740790917507A091D7
:104020007607B091770784839583A683B7838091C1
:10403000780790917907A0917A07B0917B078087E4
:104040009187A287B387CF010895FC018081918178
:10405000A281B3818093940790939507A0939607CC
:10406000B093970784819581A681B7818093980743
:1040700090939907A0939A07B0939B0780859185A9
:10408000A285B38580939C0790939D07A0939E077C
:10409000B0939F070895FC01809194079091950734
:1040A000A0919607B091970780839183A283B383F1
:1040B0008091980790919907A0919A07B0919B07DA
:1040C00084839583A683B78380919C0790919D07F5
:1040D000A0919E07B0919F0780879187A287B387A1
:1040E000CF01089580E092E09093560780935507A2
:1040F00083E595E0909354078093530710925A07F5
:1041000010925907109258071092570710925C07A7
:1041100010925B071092700710927107109272074D
:104120001092730710927407109275071092760719
:1041300010927707109278071092790710927A07F9
:1041400010927B0710927C0710927D0710927E07D9
:1041500010927F07109280071092810710928207B9
:104160001092830710928407109285071092860799
:1041700010928707109288071092890710928A0779
:1041800010928B0710928C0710928D0710928E0759
:1041900010928F0710929007109291071092920739
:1041A0001092930710929407109295071092960719
:1041B00010929707109298071092990710929A07F9
:1041C00010929B0710929C0710929D0710929E07D9
:1041D00010929F07089508952F923F924F925F92F9
:1041E0006F927F928F929F92AF92BF92CF92DF9207
:1041F000EF92FF920F931F933B014C0119012A018B
:1042000006C061E070E080E090E00E94502C809158
:1042100055079091560720915B0730915C07821BF0
:10422000930B409770F380916F008D7F80936F00A8
:1042300080916F008F7D80936F0083E597E0B401DC
:10424000A3010E946F1D83E597E0B201A1010E94C6
:104250006F1D83E597E0B801A7010E946F1D83E5FC
:1042600097E0B601A5010E946F1D10924D0180914B
:104270006F00826080936F001F910F91FF90EF900D
:10428000DF90CF90BF90AF909F908F907F906F9076
:104290005F904F903F902F9008951F93182F0E948A
:1042A000AF2F892B11F020E007C0812F0E94AF2F84
:1042B00020E0892B09F421E0822F1F910895DF92DD
:1042C000EF92FF920F931F938FE10E944D21D82E02
:1042D0008EE10E944D21182F8AE10E944D21F82E77
:1042E00089E10E944D21082F85E10E944D21E82E91
:1042F00084E10E944D21D294DD0C50EED52212951E
:10430000107F1D29182BFF0CFF0CFF0CF12A000F4A
:10431000000F0F29EE0C8E2D802B1F910F91FF9017
:10432000EF90DF9008950F931F93162F042F88238B
:1043300021F083E161E00E94642F112321F088E1E4
:1043400061E00E94642F002321F08DE161E00E9472
:10435000642F1F910F91089581E061E041E00E9478
:1043600093210895EFE6F0E080818D7F8083808146
:104370008F7D80830E94AC2108950F931F93162F89
:10438000042F882321F083E160E00E94642F112331
:1043900021F088E160E00E94642F002321F08DE18C
:1043A00060E00E94642F1F910F910895EF92FF9299
:1043B0000F931F938091880790918907A0918A0796
:1043C000B0918B0720918C0730918D0740918E071B
:1043D00050918F07E0909007F0909107009192071D
:1043E0001091930770E0181619061A061B060CF4B4
:1043F00071E060E012161306140615060CF461E075
:1044000040E01E141F04100611060CF441E0872F33
:104410000E94BD218091900790919107A0919207F1
:10442000B0919307181619061A061B062CF080E0A7
:1044300060E041E00E9493211F910F91FF90EF9067
:1044400008950E94D621EFE6F0E0808182608083AB
:10445000089580916507882329F085E10E944D2108
:10446000882349F480916507882349F484E10E94F8
:104470004D21882321F083E161E00E94642F809127
:104480006A07882329F08AE10E944D21882349F494
:1044900080916A07882349F489E10E944D2188238D
:1044A00021F088E161E00E94642F80916F078823EA
:1044B00029F08FE10E944D21882349F480916F07F4
:1044C000882349F48EE10E944D21882321F08DE15B
:1044D00061E00E94642F08951F93182F61E00E94ED
:1044E000642F81E090E00E94C82B812F60E00E9441
:1044F000642F1F9108951F920F920FB60F921124EF
:104500002F933F934F935F936F937F938F939F93DB
:10451000AF93BF93EF93FF930E94292220917007DE
:1045200030917107409172075091730780917C0719
:1045300090917D07A0917E07B0917F0728173907DA
:104540004A075B0709F46CC080916107909162078C
:10455000A0916307B0916407209188073091890783
:1045600040918A0750918B07280F391F4A1F5B1F04
:104570002093610730936207409363075093640769
:104580008091610790916207A0916307B0916407E1
:10459000181619061A061B060CF042C08FE00E947E
:1045A0006C228091610790916207A0916307B0919E
:1045B000640720915D0730915E0740915F0750913D
:1045C0006007821B930BA40BB50B8093610790933C
:1045D0006207A0936307B0936407809165078823FF
:1045E00061F08091700790917107A0917207B0916E
:1045F00073070196A11DB11D0BC0809170079091AA
:104600007107A0917207B09173070197A109B109D1
:104610008093700790937107A0937207B09373070C
:104620002091740730917507409176075091770774
:104630008091800790918107A0918207B0918307B4
:10464000281739074A075B0709F46CC08091660791
:1046500090916707A0916807B091690720918C0736
:1046600030918D0740918E0750918F07280F391F89
:104670004A1F5B1F209366073093670740936807C4
:10468000509369078091660790916707A09168072A
:10469000B0916907181619061A061B060CF042C0DD
:1046A00087E10E946C228091660790916707A09134
:1046B0006807B091690720915D0730915E074091CE
:1046C0005F0750916007821B930BA40BB50B80937F
:1046D000660790936707A0936807B0936907809176
:1046E0006A07882361F08091740790917507A09103
:1046F0007607B09177070196A11DB11D0BC080917F
:10470000740790917507A0917607B091770701978C
:10471000A109B1098093740790937507A093760758
:10472000B0937707209178073091790740917A0705
:1047300050917B078091840790918507A09186070F
:10474000B0918707281739074A075B0709F46CC03F
:1047500080916B0790916C07A0916D07B0916E07E7
:1047600020919007309191074091920750919307C3
:10477000280F391F4A1F5B1F20936B0730936C076C
:1047800040936D0750936E0780916B0790916C0773
:10479000A0916D07B0916E07181619061A061B0630
:1047A0000CF042C08BE10E946C2280916B079091CB
:1047B0006C07A0916D07B0916E0720915D07309155
:1047C0005E0740915F0750916007821B930BA40B1B
:1047D000B50B80936B0790936C07A0936D07B09314
:1047E0006E0780916F07882361F080917807909120
:1047F0007907A0917A07B0917B070196A11DB11DA1
:104800000BC08091780790917907A0917A07B091B9
:104810007B070197A109B1098093780790937907E5
:10482000A0937A07B0937B072091700730917107AE
:10483000409172075091730780917C0790917D079A
:10484000A0917E07B0917F07281739074A075B07B9
:1048500009F061C220917407309175074091760785
:10486000509177078091800790918107A0918207EE
:10487000B0918307281739074A075B0709F04BC235
:10488000209178073091790740917A0750917B0702
:104890008091840790918507A0918607B091870742
:1048A000281739074A075B0709F035C280915B0773
:1048B00090915C07409708F42BC283E597E00E9433
:1048C000991D9B01AC0120937C0730937D07409399
:1048D0007E0750937F0783E597E00E94991D9B0117
:1048E000AC01209380073093810740938207509357
:1048F000830783E597E00E94991D9B01AC012093FB
:1049000084073093850740938607509387078091EB
:104910007C0790917D07A0917E07B0917F07209141
:104920007007309171074091720750917307821B95
:10493000930BA40BB50B8093880790938907A093E2
:104940008A07B0938B078091800790918107A0918F
:104950008207B091830720917407309175074091C9
:10496000760750917707821B930BA40BB50B8093AE
:104970008C0790938D07A0938E07B0938F0780913B
:10498000840790918507A0918607B09187072091B1
:1049900078073091790740917A0750917B07821B05
:1049A000930BA40BB50B8093900790939107A09362
:1049B0009207B09393078091880790918907A091FF
:1049C0008A07B0918B0780959095A095B095882720
:1049D000B7FD83959927AA27BB2780936507809108
:1049E0008C0790918D07A0918E07B0918F078095CD
:1049F0009095A095B0958827B7FD83959927AA270C
:104A0000BB2780936A078091900790919107A091AE
:104A10009207B091930780959095A095B0958827BF
:104A2000B7FD83959927AA27BB2780936F076091CD
:104A300065078091A007882311F081E0682782E153
:104A40000E94642F60916A078091A107882311F06A
:104A500081E0682786E10E94642F60916F07809152
:104A6000A207882311F081E068278CE10E94642F5F
:104A70008091880790918907A0918A07B0918B0750
:104A8000181619061A061B064CF420918807309157
:104A9000890740918A0750918B070FC08091880742
:104AA00090918907A0918A07B0918B07222733271D
:104AB000A901281B390B4A0B5B0B20938807309305
:104AC000890740938A0750938B0780918C079091B8
:104AD0008D07A0918E07B0918F07181619061A0638
:104AE0001B064CF420918C0730918D0740918E0766
:104AF00050918F070FC080918C0790918D07A091E6
:104B00008E07B0918F0722273327A901281B390B65
:104B10004A0B5B0B20938C0730938D0740938E07D5
:104B200050938F078091900790919107A0919207E1
:104B3000B0919307181619061A061B064CF420911B
:104B400090073091910740919207509193070FC0C1
:104B50008091900790919107A0919207B09193074F
:104B600022273327A901281B390B4A0B5B0B209303
:104B700090073093910740939207509393070E94B8
:104B8000D62110925D0710925E0710925F07109277
:104B90006007209188073091890740918A075091DA
:104BA0008B0780918C0790918D07A0918E07B09113
:104BB0008F0782179307A407B5074CF480918807E5
:104BC00090918907A0918A07B0918B0708C08091C6
:104BD0008C0790918D07A0918E07B0918F078093DD
:104BE0005D0790935E07A0935F07B09360072091E5
:104BF00090073091910740919207509193078091CF
:104C00005D0790915E07A0915F07B09160078217E2
:104C10009307A407B5074CF48091900790919107F2
:104C2000A0919207B091930708C080915D07909181
:104C30005E07A0915F07B091600780935D07909336
:104C40005E07A0935F07B093600760915D07709166
:104C50005E0780915F079091600722E030E040E0BE
:104C600050E00E94633050954095309521953F4F1C
:104C70004F4F5F4F20936107309362074093630764
:104C80005093640760915D0770915E0780915F07A4
:104C90009091600722E030E040E050E00E946330F5
:104CA00050954095309521953F4F4F4F5F4F209342
:104CB00066073093670740936807509369076091D0
:104CC0005D0770915E0780915F079091600722E019
:104CD00030E040E050E00E946330509540953095C0
:104CE00021953F4F4F4F5F4F20936B0730936C07D9
:104CF00040936D0750936E0783E597E00E94991DDE
:104D00000E947B1E80916F00826080936F0003C0C1
:104D100081E080934D01FF91EF91BF91AF919F9101
:104D20008F917F916F915F914F913F912F910F9054
:104D30000FBE0F901F901895EF92FF920F931F9345
:104D4000F82E162FE42E022F842F0E944D21882347
:104D5000E9F061E06027812F0E94642F09C08F2D48
:104D60000E946C2264EF71E080E090E00E94502C81
:104D70008E2D0E944D21882391F7812F602F0E9454
:104D8000642F8F2D0E946C2281E008C0812F602F3C
:104D90000E94642F8F2D0E946C2280E01F910F9142
:104DA000FF90EF9008952F923F924F925F926F92F3
:104DB0007F928F929F92AF92BF92CF92DF92EF92AB
:104DC000FF920F931F93DF93CF9300D00F92CDB735
:104DD000DEB7382E462E542E380149010E94422C4F
:104DE0000E94422C5B016C0188EE93E09C01E29EE4
:104DF000C001E39E900DF29E900D1124A0E0B0E062
:104E0000A80EB91ECA1EDB1E80916F008D7F809395
:104E10006F0080916F008F7D80936F00832D642DD4
:104E2000452D0E94BD21C401B30128EE33E040E0CE
:104E300050E00E94413029833A834B83252EFF2482
:104E400000E010E0EE24E39476C03320D9F0FF2098
:104E5000C9F42091A0072E258FE062E145E10E9470
:104E60009C26F82E8091700790917107A09172078F
:104E7000B09173078093940790939507A09396073A
:104E8000B09397074420D9F00023C9F42091A107DB
:104E90002E2587E166E14AE10E949C26082F809139
:104EA000740790917507A0917607B091770780936A
:104EB000980790939907A0939A07B0939B07552062
:104EC000D9F01123C9F42091A2072E258BE16CE1C2
:104ED0004FE10E949C26182F8091780790917907C6
:104EE000A0917A07B0917B0780939C0790939D07D0
:104EF000A0939E07B0939F07332011F0FF2041F04D
:104F0000442011F0002321F05520E9F01123D9F4B9
:104F100030E0631630E0730631E0830630E093063C
:104F200020F4C3010E94C82B06C069817A818B815D
:104F3000922D0E94502C0E94422C6A157B058C05F4
:104F40009D0508F482CF0E94AC2180916F008260A1
:104F500080936F000F900F900F90CF91DF911F9172
:104F60000F91FF90EF90DF90CF90BF90AF909F9008
:104F70008F907F906F905F904F903F902F9008950B
:104F80002F923F924F925F926F927F928F929F9259
:104F9000AF92BF92CF92DF92EF92FF920F931F9347
:104FA000DF93CF9300D0CDB7DEB7382E462E542EE8
:104FB000380149010E94422C0E94422C5B016C0185
:104FC00088EE93E09C01E29EC001E39E900DF29E6C
:104FD000900D1124A0E0B0E0A80EB91ECA1EDB1E81
:104FE00080916F008D7F80936F0080916F008F7D27
:104FF00080936F00832D642D452D0E94BD21C40137
:10500000B30128EE33E040E050E00E9441302983B4
:105010003A83242EE52EFF2400E010E05BC033200D
:1050200091F0FF2081F48FE062E144E12091A0073C
:105030000E949C26F82E1092700710927107109211
:10504000720710927307442091F0002381F487E1E6
:1050500066E149E12091A1070E949C26082F109249
:1050600074071092750710927607109277075520F3
:1050700091F0112381F48BE16CE14EE12091A207C4
:105080000E949C26182F1092780710927907109290
:105090007A0710927B07332011F0FF2041F0442063
:1050A00011F0002321F05520E9F01123D9F430E06C
:1050B000631630E0730631E0830630E0930620F497
:1050C000C3010E94C82B06C069817A81822D9E2D62
:1050D0000E94502C0E94422C6A157B058C059D0570
:1050E00008F49DCF0E94AC2180916F008260809374
:1050F0006F000F900F90CF91DF911F910F91FF9054
:10510000EF90DF90CF90BF90AF909F908F907F9067
:105110006F905F904F903F902F90089510925A0794
:1051200010925907109258071092570710925C0777
:1051300010925B078FE061E00E94462F82E161E000
:105140000E94462F83E161E00E94462F84E160E0E7
:105150000E94462F85E160E00E94462F87E161E0D2
:105160000E94462F86E161E00E94462F88E161E0BF
:105170000E94462F89E160E00E94462F8AE160E0AC
:105180000E94462F8BE161E00E94462F8CE161E096
:105190000E94462F8DE161E00E94462F8EE160E083
:1051A0000E94462F8FE160E00E94462F0E94381B2C
:1051B0008823C1F081EC93E062E070E00E949914D2
:1051C00090E09C01217030702093A0079695879500
:1051D000282F21702093A107969587958170809341
:1051E000A20706C01092A2071092A1071092A00772
:1051F00084E161E00E94642F85E161E00E94642FF8
:1052000089E161E00E94642F8AE161E00E94642FDD
:105210008EE161E00E94642F8FE161E00E94642FC3
:105220000E94AC21109288071092890710928A0779
:1052300010928B0710928C0710928D0710928E0798
:1052400010928F0710929007109291071092920778
:1052500010929307109270071092710710927207C4
:1052600010927307109274071092750710927607C8
:1052700010927707109278071092790710927A07A8
:1052800010927B0710927C0710927D0710927E0788
:1052900010927F0710928007109281071092820768
:1052A0001092830710928407109285071092860748
:1052B000109287070E94CC1E64EC79E080E090E0B9
:1052C0000E947B1E80916F00826080936F00089522
:1052D0000895089583EA97E06FE77BE10E94A412A6
:1052E00008958F929F92AF92BF92CF92DF92EF92EA
:1052F000FF920F931F938C010E94422C6B017C0143
:105300004801AA2497FCA094BA2CC80CD91CEA1C0A
:10531000FB1C6CC086E098E00E94CE2C882309F428
:1053200043C086E098E00E94C92C682F83EA97E08A
:105330000E94AF128091230590912405A09125052C
:10534000B09126050196A11DB11D80932305909370
:105350002405A0932505B09326050E94422C6B01DD
:105360007C01C80CD91CEA1CFB1C83EA97E00E9454
:105370000F130397C9F480912F0590913005A091E8
:105380003105B09132050196A11DB11D80932F0505
:1053900090933005A0933105B093320583E098E0F7
:1053A0006CE271E00E945C2E0E94422CC616D70669
:1053B000E806F906D8F48091330590913405A09160
:1053C0003505B09136050196A11DB11D80933305B9
:1053D00090933405A0933505B093360583E098E0AB
:1053E0006FE371E00E945C2E80E008C083EA97E0E2
:1053F0000E940313882309F48DCF81E01F910F9140
:10540000FF90EF90DF90CF90BF90AF909F908F90E4
:10541000089582E390E00E94C82B8CE061E00E9436
:10542000642F8AE090E00E94C82B83EA97E00E94F4
:1054300097138CE060E00E94642F80912705909183
:105440002805A0912905B0912A050196A11DB11D3D
:105450008093270590932805A0932905B0932A05EA
:1054600088EE93E00E9471290895EF92FF920F93C6
:105470001F93182F062F83EAE82E87E0F82EC70126
:105480000E946512C701612F0E944514C701602F59
:105490000E9445140E94092A1F910F91FF90EF90DE
:1054A00008958091EE0768E10E94352A08950F93D0
:1054B0001F93CF93DF93EC0183EA97E00E9465127C
:1054C000E881F9818A819B8101969B838A83019778
:1054D0002681378162817381820F931F0E941A3067
:1054E0000190F081E02DE80FF91F83EA97E06081D9
:1054F0000E944514E881F9818A819B8101969B83F2
:105500008A8301972681378162817381820F931F7D
:105510000E941A300190F081E02DE80FF91F83EA14
:1055200097E060810E944514E881F9818A819B811E
:1055300001969B838A8301972681378162817381DB
:10554000820F931F0E941A300190F081E02DE80F26
:10555000F91F008110E01BC0E881F9818A819B81DD
:1055600001969B838A8301972681378162817381AB
:10557000820F931F0E941A300190F081E02DE80FF6
:10558000F91F83EA97E060810E9445141F5F10179E
:1055900018F30E94092ADF91CF911F910F9108956E
:1055A0001F93182F83EA97E00E94651283EA97E021
:1055B000612F0E94451483EA97E066E10E9445143A
:1055C0000E94092A882311F490E009C083EA97E039
:1055D00061E00E94531490E0813009F491E0892F3A
:1055E0001F9108950E94422C2091F3073091F407F7
:1055F0004091F5075091F6076217730784079507E6
:10560000A8F40E94422C2091EF073091F0074091BE
:10561000F1075091F2076217730784079507B8F0F6
:105620008091EE070E94D02A882319F010921E055F
:1056300008950E94422C6C597F4F8F4F9F4F60936B
:10564000EF077093F0078093F1079093F2070895A6
:105650001F93CF93DF93EC0183EA97E00E946512DA
:1056600011E00AC0CE01612F0E945314682F83EA13
:1056700097E00E9445141F5FCE010E940C1318177B
:1056800088F30E94092A11E00AC083EA97E0612F9B
:105690000E945314682FCE010E9445141F5F83EAB5
:1056A00097E00E940C13181780F3DF91CF911F91A0
:1056B00008959F92AF92BF92CF92DF92EF92FF92A6
:1056C0000F931F93CF93DF93982EEB018A016115FF
:1056D000710511F4C4E6D0E00115110511F40CE3D5
:1056E00010E00E94422C28EE33E0A901049F9001B3
:1056F000059F300D149F300D112479010027F7FC10
:105700000095102FE60EF71E081F191F5E01CC240E
:10571000B7FCC094DC2C0E94422C6E157F058007DC
:10572000910750F4892D0E94D02A882329F4C601BC
:10573000B5010E94502CEFCFDF91CF911F910F91B7
:10574000FF90EF90DF90CF90BF90AF909F90089523
:10575000FF920F931F93F82E8093EE0703EA17E052
:10576000C8010E946512C8016F2D0E944514C8012E
:1057700065E10E9445140E94092A8F2D60E070E0C7
:1057800040E050E00E94592B1F910F91FF90089527
:10579000019739F0880F991F880F991F0297019779
:1057A000F1F708951F920F920FB60F9211242F93C5
:1057B0008F939F93AF93BF938091F7079091F807D2
:1057C000A091F907B091FA070196A11DB11D809330
:1057D000F7079093F807A093F907B093FA07809121
:1057E000FB079091FC07A091FD07B091FE07805048
:1057F000904CAF4FBF4F8093FB079093FC07A09353
:10580000FD07B093FE0727C08091FB079091FC072E
:10581000A091FD07B091FE0780589E43A040B04084
:105820008093FB079093FC07A093FD07B093FE07BE
:105830008091FF0790910008A0910108B0910208A3
:105840000196A11DB11D8093FF0790930008A093BE
:105850000108B09302088091FB079091FC07A0918A
:10586000FD07B091FE0781589E43A040B04060F60E
:10587000BF91AF919F918F912F910F900FBE0F907D
:105880001F9018958FB7F8942091FF07309100086A
:1058900040910108509102088FBFB901CA010895D3
:1058A000EF92FF920F931F937B018C018FB7F894B7
:1058B0004091FF0750910008609101087091020823
:1058C0008FBF2FB7F8948091FF0790910008A091A7
:1058D0000108B09102082FBF841B950BA60BB70BD4
:1058E000E816F9060A071B0760F71F910F91FF9052
:1058F000EF900895789484B5826084BD84B581600A
:1059000084BD85B5826085BD85B5816085BDEEE6C7
:10591000F0E0808181608083E1E8F0E08081826056
:105920008083808181608083E0E8F0E08081816015
:105930008083E1EBF0E0808184608083E0EBF0E045
:10594000808181608083EAE7F0E0808184608083E9
:105950008081826080838081816080838081806893
:1059600080831092C100089582E591E0909304082D
:105970008093030810920508909307088093060807
:1059800081E0809308080895FC0182810E94602DC7
:105990000895FC0182810E94862D0895FC01828178
:1059A0000E94702D0895FC0182810E94D82C0895D8
:1059B000EF92FF920F931F937A018B018823F1F5E9
:1059C000CB01BA0122E030E040E050E00E946330B9
:1059D000205C3D4B404F5F4FCA01B901A8019701C0
:1059E0000E946330C901DA010197A109B109292F89
:1059F0003A2F4B2F552747FD5A950196A11DB11DF2
:105A00002093C50081508093C4001092C000109272
:105A1000C1001092C2008091C10080618093C100DA
:105A20008091C10088608093C1008091C10080682E
:105A30008093C10086E08093C2003DC0CB01BA01D3
:105A400022E030E040E050E00E946330205C3D4BBB
:105A5000404F5F4FCA01B901A80197010E9463300E
:105A6000C901DA010197A109B109292F3A2F4B2F5A
:105A7000552747FD5A950196A11DB11D2093CD00D4
:105A800081508093CC001092C8001092C9001092EF
:105A9000CA008091C90080618093C9008091C900CB
:105AA00088608093C9008091C90080688093C90094
:105AB00086E08093CA001F910F91FF90EF900895A8
:105AC000882339F48091C00085FFFCCF6093C60025
:105AD00008958091C80085FFFCCF6093CE000895A3
