:100000000C948E000C94B6000C94B6000C94B600C0
:100010000C94B6000C94B6000C94B6000C94B60088
:100020000C94B6000C94B6000C94B6000C94B60078
:100030000C94B6000C9467220C94B6000C94B60095
:100040000C94B6000C94B6000C945E290C94B60087
:100050000C943F2B0C94B6000C94B6000C94B60094
:100060000C94B6000C94B6000C94B6000C94B60038
:100070000C947C2B0C94B6000C94B60032194019E9
:10008000431952195F197E199719BB19BE19921A93
:10009000CD19D019E319091A371A581A611A871A93
:1000A000002124272A002225282B0020232629028C
:1000B000020202020202020404040404040404030F
:1000C0000303030303030301010101010101010112
:1000D0000204081020408001020408102040800122
:1000E0000204081020408080402010080402010013
:1000F00000000102000000000000000403070600E9
:1001000000000000000000000000000000000000EF
:100110003014E91B5E20402A2914D72011241FBE69
:10012000CFEFD0E1DEBFCDBF12E0A0E0B1E0EAE367
:10013000FCE502C005900D92A432B107D9F719E091
:10014000A4E2B2E001C01D92A93FB107E1F711E0BE
:10015000C8E1D1E004C02297FE010E940C2EC031FC
:10016000D107C9F70E94C91B0C94102E0C940000F3
:10017000FB01DC0102C001900D9241505040D8F7C4
:100180000895DC0101C06D9341505040E0F708959F
:10019000FB01DC018D91019080190110D9F3990BBD
:1001A0000895FB01DC014150504048F001900D9250
:1001B0000020C9F701C01D9241505040E0F708955A
:1001C000FC0181E090E00190061609F4CF010020C7
:1001D000D1F701970895FC01009711F480E008958C
:1001E000108681E008958F929F92AF92BF92CF9236
:1001F000DF92EF92FF920F93DF93CF93CDB7DEB7ED
:1002000060970FB6F894DEBF0FBECDBF7C016B01C7
:100210005A01490104300CF08CC007FD1DC0602F4D
:10022000772767FD7095E4E0660F771FEA95E1F7A1
:1002300062547E4F882777FD8095982FAE014F5FDF
:100240005F4F20E130E0F7010995882309F471C080
:100250008D81882309F46DC080912C02882309F0D8
:1002600068C07CC08D8180932C022A8530E040E0FC
:1002700050E0542F432F322F22278B8590E0A0E0AF
:10028000B0E0DC0199278827282B392B4A2B5B2BE0
:10029000898590E0A0E0B0E0282B392B4A2B5B2B1E
:1002A0008C8590E0A0E0B0E0B82FAA279927882796
:1002B000282B392B4A2B5B2B20932D0230932E02B7
:1002C00040932F02509330022E8530E040E050E002
:1002D000542F432F322F22278F8590E0A0E0B0E0EB
:1002E000DC0199278827282B392B4A2B5B2B8D85FE
:1002F00090E0A0E0B0E0282B392B4A2B5B2B8889BB
:1003000090E0A0E0B0E0B82FAA2799278827282BF3
:10031000392B4A2B5B2B20933102309332024093CE
:1003200033025093340203C08FEF80932C029F015D
:1003300002C020E030E0C90160960FB6F894DEBF3D
:100340000FBECDBFCF91DF910F91FF90EF90DF9067
:10035000CF90BF90AF909F908F900895E4E2F2E02D
:1003600081E1DF011D928A95E9F7F0922502E09282
:100370002402D0922702C0922602B0922902A092B3
:10038000280290922B0280922A0207FF6BCFCCCFDB
:10039000FC01118210821382128215821482089548
:1003A000CB010E94B9100E94EF050895CB01BA015C
:1003B000422F50E00E942B0D0895DF93CF93CDB7CD
:1003C000DEB768970FB6F894DEBF0FBECDBFFC0155
:1003D00084819581AE014F5F5F4F0E94660F6896E2
:1003E0000FB6F894DEBF0FBECDBFCF91DF91089559
:1003F000EF92FF920F931F93CF93DF93EB018A014C
:1004000079010BC0C701B8010E94C800009729F408
:10041000CE010E94760781E006C0CE01B7010E949E
:10042000D607882379F7DF91CF911F910F91FF9025
:10043000EF900895EF92FF920F931F93DF93CF9366
:10044000CDB7DEB768970FB6F894DEBF0FBECDBF4D
:100450008C017E010894E11CF11C97010E94F801B7
:10046000882319F420E030E005C0C801B7010E94DC
:10047000F6109C01C90168960FB6F894DEBF0FBE56
:10048000CDBFCF91DF911F910F91FF90EF90089515
:10049000FC01AB0164817581828193810E941A0203
:1004A0000895EF92FF920F931F93DF93CF93CDB7F1
:1004B000DEB768970FB6F894DEBF0FBECDBF8C01D4
:1004C000FC01828193817E010894E11CF11CB7013B
:1004D0000E948807F80182819381B7010E94CF10A2
:1004E000F8019583848320E0892B09F021E0822F95
:1004F00068960FB6F894DEBF0FBECDBFCF91DF91E7
:100500001F910F91FF90EF9008950F931F938C010F
:10051000FC01808191810E94540AF80193838283B7
:1005200020E0892B09F021E0822F1F910F9108957F
:100530000F93CF93DF93EC018BE394E06BE075E0D6
:1005400042E553E026E036E000E00E94F3009983A4
:100550008883892B69F48BE394E06BE075E042E5D6
:1005600053E026E036E00FEF0E94F3009983888382
:1005700020E088819981892B09F021E0822FDF9189
:10058000CF910F9108950E94EF0208950E94F60204
:1005900090E0882309F491E0892F08950E947B055B
:1005A0000895CF93DF93EC018C819D81009721F01A
:1005B0000E9470071D821C828A819B81009721F016
:1005C0000E9461061B821A8288819981009721F01E
:1005D0000E94EB0019821882DF91CF91089583B1B8
:1005E00086958695869580958170089583B18695C8
:1005F0008695809581700895282F8FEF8EBD0DB45C
:1006000007FEFDCF8DB58F778DBD8EB5822F8064AF
:100610008EBD0DB407FEFDCF8DB58F778DBD872FB5
:100620009927AA27BB278EBD0DB407FEFDCF8DB538
:100630008F778DBDCB01AA27BB278EBD0DB407FEDA
:10064000FDCF8DB58F778DBDBB27A72F962F852F1B
:100650008EBD0DB407FEFDCF8DB58F778DBD4EBD20
:100660000DB407FEFDCF8DB58F778DBD222311F020
:100670008FEF01C085E98EBD0DB407FEFDCF8DB5AE
:100680008F778DBD90E02FEF2EBD0DB407FEFDCF0F
:100690008DB58F778DBD8EB58F3F19F49F5F9A30E2
:1006A00099F708952F923F924F925F926F927F92A7
:1006B0008F929F92AF92BF92CF92DF92EF92FF9272
:1006C0000F931F93CF93DF934B015C012A013901F4
:1006D0001A9BB2C0BAC0E12C4EEFF42E4FEF042F9C
:1006E0004FEF142FE820F9200A211B213FEFC32EE2
:1006F00031E0D32EC820D920C0E0D2E0CC19DD09EA
:100700006C167D0608F4E30120913504309136041F
:100710004091370450913804E216F3060407150798
:1007200049F180913904882359F4CA01B90145E39C
:1007300052E020E032E00E945203882309F485C091
:10074000C114D10421F482E0C030D80758F4C801A4
:10075000B70145E352E020E032E00E943B048823E9
:1007600009F473C0E0923504F09236040093370424
:100770001093380485E3481682E0580671F096011C
:100780002B5C3D4FC901B201AE010E94B80010922E
:1007900039046C167D0609F45AC02C9888E1B8011A
:1007A000A7010E94FC02882311F02C9A4EC08EEF04
:1007B0008EBD0DB407FEFDCF8DB58F778DBDE5E302
:1007C000F2E081918EBD0DB407FEFDCF8DB58F7720
:1007D0008DBD84E0E533F807A1F73EBC0DB407FEFC
:1007E000FDCF8DB58F778DBD3EBC0DB407FEFDCF1F
:1007F0008DB58F778DBD3EBC0DB407FEFDCF8DB599
:100800008F778DBD8EB58F3FB1F78EBD0DB407FECE
:10081000FDCF4C0E5D1E8DB58F778DBD8EB52C9A9C
:100820006C1A7D0ACE01A0E0B0E0880E991EAA1EC7
:10083000BB1E2092390404C033243A94222423940A
:100840006114710409F047CF02C080E001C081E06B
:10085000DF91CF911F910F91FF90EF90DF90CF909C
:10086000BF90AF909F908F907F906F905F904F90D0
:100870003F902F9008953F924F925F926F927F9298
:100880008F929F92AF92BF92CF92DF92EF92FF92A0
:100890000F931F93CF93DF934B015C016A012901F2
:1008A00033243A94A1C0E12C6EEFF62E6FEF062FA1
:1008B0006FEF162FE820F9200A211B215FEF652E2C
:1008C00051E0752E68207920C0E0D2E0C619D70922
:1008D0004C165D0608F4E20120913504309136048F
:1008E0004091370450913804E216F30604071507C7
:1008F00009F467C080913904882359F4CA01B90109
:1009000045E352E020E032E00E945203882309F4DC
:1009100070C02C9881E1B801A7010E94FC028823D5
:1009200039F003C02150304029F42C9A80E061C096
:1009300020E030E03EBC0DB407FEFDCF8DB58F77D3
:100940008DBD8EB58E3F71F7E5E3F2E03EBC0DB490
:1009500007FEFDCF8DB58F778DBD8EB5808384E08A
:10096000E433F80711F03196F1CFE0923504F092BC
:100970003604009337041093380493012B5C3D4FE9
:10098000C601B901AE010E94B8003EBC0DB407FE1D
:10099000FDCF8DB58F778DBD8EB53EBC0DB407FEF6
:1009A000FDCF8DB58F778DBD8EB52C9A3EBC0DB425
:1009B00007FEFDCFCC0EDD1E8DB58F778DBD8EB5BC
:1009C0000AC093012B5C3D4FC601B901AE010E94E4
:1009D000B800CC0EDD1E4C1A5D0ACE01A0E0B0E0DE
:1009E000880E991EAA1EBB1E4114510409F05BCF4C
:1009F00081E0DF91CF911F910F91FF90EF90DF90F9
:100A0000CF90BF90AF909F908F907F906F905F90AE
:100A10004F903F9008952F923F924F925F926F9226
:100A20007F928F929F92AF92BF92CF92DF92EF927E
:100A3000FF920F931F93DF93CF9300D000D0CDB7D9
:100A4000DEB74B015C013A013C832B832701DA823C
:100A5000C98241155105A9F12115310591F10217FE
:100A6000130778F1E114F10461F119013094219434
:100A700031083394021B130B6901EE24FF24C501D6
:100A8000B401A3012B813C810E943B048823C9F05F
:100A9000C301B501A40129813A81F2010995882396
:100AA00091F0020D131D8B819C81800F911F2B8172
:100AB0003C818217930738F08C0C9D1CAE1CBF1C28
:100AC000DECF80E001C081E00F900F900F900F907B
:100AD000CF91DF911F910F91FF90EF90DF90CF901A
:100AE000BF90AF909F908F907F906F905F904F904E
:100AF0003F902F900895CF93DF9323982298259AC3
:100B0000279A249A26982C9A83E58CBD8DB58E7FE2
:100B10008DBD1B9921C020E030E09FEF9EBD0DB43C
:100B200007FEFDCF8DB58F778DBD8EB52F5F3F4F03
:100B30002A30310599F72C98C0E0D0E080E040E001
:100B400050E060E070E00E94FC02813049F081E0FA
:100B5000CF3FD80719F42C9A80E03EC02196EECF03
:100B6000C0E0D0E081E040E050E060E070E00E9452
:100B7000FC0280FF06C08FE7CF3FD80761F32196C4
:100B8000F1CF80E140E052E060E070E00E94FC02C2
:100B9000882309F72C9A8CB58C7F8CBD8DB581602C
:100BA0008DBD8FEF9FEFAFEFBFEF80933504909334
:100BB0003604A0933704B093380481E0809339045D
:100BC00060E070E080E090E045E352E020E032E059
:100BD0000E943B04811181E0DF91CF9108958091C3
:100BE0003904882311F081E00895609135047091F3
:100BF0003604809137049091380445E352E020E0B8
:100C000032E00E945203811181E008954F925F9279
:100C10006F927F928F929F92AF92BF92CF92DF920C
:100C2000EF92FF920F931F93CF93DF935B016C01C1
:100C30004A01E901380127014115510571F10115FA
:100C4000110559F1FF242115310511F5FF24F39405
:100C50001FC0C401B601A5019201F30109958C01E1
:100C60000097E9F0FF2019F4C817D907B0F0C601C2
:100C7000B501A40198010E945203882371F0C801B4
:100C8000A0E0B0E0A80EB91ECA1EDB1EC01BD10B2F
:100C9000FF20F9F62097E9F602C080E001C081E06C
:100CA000DF91CF911F910F91FF90EF90DF90CF9048
:100CB000BF90AF909F908F907F906F905F904F907C
:100CC0000895FC01009711F0118210820895DC0153
:100CD0008C91853E39F1882329F1F90120813181F8
:100CE000828193812817390799F444835583668359
:100CF00077831B968C911B978F3011F080E205C093
:100D00008C918295880F807E805E808780E0089538
:100D10001B968C918F3031F02F5F3F4F31832083B2
:100D200081E0089581E00895EF92FF920F931F9361
:100D3000CF93DF93EC017A018B018881853E09F422
:100D4000C7C0882309F4C4C0B901F9018489958911
:100D5000A689B7890097A105B10521F4E48AF58A2F
:100D6000068B178B6115710509F4B2C0209709F441
:100D7000AFC09881992309F4ABC08B858F30C9F53A
:100D8000892F90E08F7390702DE030E0AC01429F8E
:100D9000C001439F900D529F900D11249C012D5036
:100DA0003040AC01415050404D30510500F5FB0141
:100DB000E20FF31F898180838B8181838D81828300
:100DC0008F818383898584838E85858388898683C3
:100DD0008A8987838C8980878E898187888D82879D
:100DE0008C8D8387640F751F8E8DFB01808381E05E
:100DF00070C0FB0180818823A9F5AE01DE0180E08F
:100E000090E0282F3C91303251F0FB01E80FF91FA0
:100E100030832F5F019611968830910591F7FB0181
:100E20008081853011F485EE808388858032B1F031
:100E3000FB01E20FF11D8EE28083822F8F5F2C5F1A
:100E4000FA019085903249F0FB01E80FF11D908383
:100E50008F5F4F5F5F4F821799F7282FFB01E20FDB
:100E6000F11D10828B85FB0185879B8D80E02A8D8B
:100E700030E0822B932B978786872D8D30E040E0E2
:100E800050E0542F432F322F22278E8D90E0A0E088
:100E9000B0E0DC0199278827282B392B4A2B5B2BC4
:100EA0008C8D90E0A0E0B0E0282B392B4A2B5B2BF7
:100EB0008F8D90E0A0E0B0E0B82FAA27992788276F
:100EC000282B392B4A2B5B2B208B318B428B538B5E
:100ED00080E0DF91CF911F910F91FF90EF900895E7
:100EE000FC01009711F0118210820895FC01009717
:100EF00011F480E00895138E128E81E00895FC01B4
:100F000080E1DF011D928A95E9F780E190E0089584
:100F1000FB01892B61F06115710549F088E1DB0166
:100F20001D928A95E9F780E1858781E0089580E048
:100F30000895DF93CF9300D0CDB7DEB7FC010097C3
:100F400069F16230710550F1660F771F80E090E023
:100F50002681378140855185620F731F841F951F3D
:100F6000AE014F5F5F4F22E030E00E943B048823D8
:100F7000A9F09A8180E0298130E0282B392B2115B6
:100F8000310571F08FEF273F380741F0C9014096D6
:100F9000079720F08FEF283F380710F020E030E06F
:100FA000C9010F900F90CF91DF9108952F923F923A
:100FB0004F925F926F927F928F929F92AF92BF9269
:100FC000CF92DF92EF92FF920F931F93DF93CF9315
:100FD000CDB7DEB7E1970FB6F894DEBF0FBECDBF39
:100FE0003C012B01009709F4D6C06115710509F485
:100FF000D2C0DC015096AD90BC9051978D909C90E2
:1010000011975A96ED91FC915B97FBA7EAA7A11463
:10101000B10409F03FC08114910409F4B9C0FE0184
:10102000319689E0DF011D928A95E9F72AA53BA553
:101030003C832B83D40152966D917D918D919C912F
:1010400055971AE0A12EB12CAC0EBD1E56960D91EF
:101050001C915797061B170BA50120E230E0A7E66D
:10106000EA2EA6E0FA2E6F010E940B05882309F4F0
:101070008FC02D813E814F81588521153105410555
:10108000510509F485C0A1C0F2018081882309F0CF
:10109000B2C07EC08114910409F47AC0DC011F96AD
:1010A0008C9184FF75C0F40120883188C101A0E0D3
:1010B000B0E08CA79DA7AEA7BFA7DE011196B9AB84
:1010C000A8ABEEEFFFEFAE0EBF1EB50180E090E0E3
:1010D00022E030E0A20EB31E2CA53DA54EA55FA5D3
:1010E0000E94872D9B01AC01D40156966D917D9194
:1010F0008D919C915997620F731F841F951FE8A9CA
:10110000F9A929E011922A95E9F7AAA5BBA5BC8304
:10111000AB83AE01465F5F4F20E230E08101F7E62E
:10112000EF2EF6E0FF2E6E010894C11CD11C0E9428
:101130000B05882369F12D813E814F81588521154A
:1011400031054105510549F4C401B5010E949907D3
:101150005C01009709F0B5CF1BC088E1F201119244
:101160008A95E9F70985CA01B901AE01465F5F4F6B
:1011700020E230E010E0E4E9EE2EE6E0FE2E62012F
:101180000E940B05882321F0D2018C918823D1F590
:10119000F301138E128E80E0E1960FB6F894DEBF55
:1011A0000FBECDBFCF91DF911F910F91FF90EF90B8
:1011B000DF90CF90BF90AF909F908F907F906F9077
:1011C0005F904F903F902F90089588E1D2011D923B
:1011D0008A95E9F70985CA01B901A50120E230E045
:1011E00010E0B4E9EB2EB6E0FB2E62010E940B0585
:1011F000882371F249CFF301828D938D0196938FED
:10120000828F0AC0D3015A968D919C915B9701966B
:101210005B969C938E935A9781E0BECF2F923F921C
:101220004F925F926F927F928F929F92AF92BF92F6
:10123000CF92DF92EF92FF920F931F93DF93CF93A2
:10124000CDB7DEB72A970FB6F894DEBF0FBECDBF7D
:101250002C017C836B831A01009709F406C1672B6C
:1012600009F403C14115510509F4FFC0DC015A9688
:10127000AD90BD90CD90DC905D9752962D913D91B3
:101280004D915C915597C101A0E0B0E08A0D9B1D86
:10129000AC1DBD1D281739074A075B0728F4190143
:1012A0002A183B0809F4E4C0D201ED91FC91119792
:1012B000208931893A8329835E968D919C915F972D
:1012C0009A878987390188249924892BD9F55096E2
:1012D0000D90BC91A02DBA87A987AB2B39F4A1142E
:1012E000B104C104D10409F4C3C0BFC0A114B10446
:1012F000C104D10439F18601750188279927DC01E1
:1013000086199709A809B9098D839E83AF83B88789
:1013100014C0D2018D919C9169857A850E949907AC
:101320009A878987892B09F4A0C08D819E81AF811E
:10133000B885E80EF91E0A1F1B1FE614F7040805FE
:10134000190538F7C601B501A40193010E94CD2DFE
:101350005B016101D201ED90FC90E114F10409F10F
:10136000E985FA85E230F105E0F03297BF0180E0CF
:1013700090E03296FA87E987D70150962D913C91FB
:10138000519740E050E00E94872D9B01AC01F7018E
:1013900086899789A08DB18D280F391F4A1F5B1F41
:1013A00004C020E030E040E050E009811A810A19D1
:1013B0001B09C016D10608F48601D701ED91FC91F6
:1013C000C501A0E0B0E0280F391F4A1F5B1F019044
:1013D000F081E02DCA01B9014B815C81980109952A
:1013E000882361F1C01AD10AC801A0E0B0E0F2017F
:1013F000228D338D448D558D280F391F4A1F5B1F59
:10140000D2015A962D933D934D935C935D97C801FD
:101410008A0D9B1DE981FA818E179F07A8F08D9197
:101420009C9169857A850E9499079A878987892B7B
:1014300049F4D2015F961C921E925E97A1014C194D
:101440005D0918C0AA24BB2429853A85F201378F8B
:10145000268FC114D10439F08B819C81800F911F9C
:101460009C838B8377CFA10105C04FEF5FEF02C054
:1014700040E050E0CA012A960FB6F894DEBF0FBED6
:10148000CDBFCF91DF911F910F91FF90EF90DF9033
:10149000CF90BF90AF909F908F907F906F905F9014
:1014A0004F903F902F9008952F923F924F925F92CE
:1014B0006F927F928F929F92AF92BF92CF92DF9264
:1014C000EF92FF920F931F93DF93CF93CDB7DEB7C9
:1014D000E0970FB6F894DEBF0FBECDBF6C0100974A
:1014E00009F48FC1AAC1EAE3F4E08AE1DF011D92A9
:1014F0008A95E9F7D0923B04C0923A04D601199636
:101500002D913D914D915C911C97B9E0220F331FB5
:10151000441F551FBA95D1F72AA33BA34CA35DA343
:10152000CA01B901655F7F4F8F4F9F4FAE014F5F7B
:101530005F4F29E130E00E943B04882309F484C115
:10154000A9804A80BB81BEA30C81FD801E813F81A2
:10155000588469847A849D8580E02C85E22FF0E0B0
:10156000E82BF92B8E883F88288DE98C309709F479
:101570006BC1432D50E060E070E0962F852F742FF3
:10158000662769A77AA78BA79CA7822F90E0A0E087
:10159000B0E0BC015527442789A59AA5ABA5BCA5F9
:1015A000842B952BA62BB72B482D50E060E070E0E4
:1015B000842B952BA62BB72B89A79AA7ABA7BCA7E3
:1015C0008E2D90E0A0E0B0E0782F662755274427C5
:1015D00089A59AA5ABA5BCA5842B952BA62BB72BCB
:1015E00089A79AA7ABA7BCA70097A105B10589F465
:1015F000972D80E0662D70E0682B792B61157105C1
:1016000009F422C1CB01A0E0B0E089A79AA7ABA75B
:10161000BCA7942D80E02A2C3324282A392A952D22
:1016200080E0A32FB0E0A82BB92BB8A7AFA39F2DC4
:1016300080E0202F30E0822B932B9C0140E050E093
:101640002A8F3B8F4C8F5D8FBF0180E090E0212F70
:1016500030E040E050E00E94872D6E8F7F8F88A39E
:1016600099A3E9A4FAA40BA51CA54A8D5B8D6C8DEA
:101670007D8DE41AF50A060B170B6E8D7F8D88A100
:1016800099A1E61AF70A080B190BC10101972FA1BE
:1016900038A545E0220F331F4A95E1F7820F931FCB
:1016A000B1010E94A62D80E090E0E61AF70A080B2F
:1016B000190B7EA1272F30E040E050E0C801B701B0
:1016C0000E94CD2D29013A01D301C201855F9F40BF
:1016D000A040B0408050904FA040B04008F0B4C04F
:1016E00086E0D60118968C939CE3892E94E0992E7F
:1016F00088E1F40111928A95E9F75101CC24DD24A7
:1017000069A57AA58BA59CA5A60195010E94872DA8
:1017100060933C0470933D0480933E0490933F0497
:10172000C601B5012A8D3B8D4C8D5D8D0E94872DA4
:101730007B018C012AA13BA14CA15DA1E20EF31E0D
:10174000041F151FE0924004F092410400934204EC
:101750001093430442E050E060E070E0440E551EF8
:10176000661E771E440C551C661C771C4092440470
:1017700050924504609246047092470430924904A6
:10178000209248045EA1852F90E0BC01269EC001F6
:10179000279E900D369E900D112490934B048093BC
:1017A0004A046E8D7F8D88A199A1A60195010E94A2
:1017B000872D6E0D7F1D801F911F60934C047093C9
:1017C0004D0480934E0490934F04AFA1B8A59D01A2
:1017D00040E050E005E0220F331F441F551F0A95DB
:1017E000D1F7620F731F841F951F6093500470938D
:1017F000510480935204909353049401225030403A
:1018000002C020E030E0C901E0960FB6F894DEBFD8
:101810000FBECDBFCF91DF911F910F91FF90EF9041
:10182000DF90CF90BF90AF909F908F907F906F9000
:101830005F904F903F902F90089580913A0490913F
:101840003B04892BF1F64FCE10923B0410923A04E0
:10185000D8CF2F923F924F925F926F927F928F924A
:101860009F92AF92BF92CF92DF92EF92FF920F932F
:101870001F93DF93CF93CDB7DEB72A970FB6F894B7
:10188000DEBF0FBECDBF2C013B011A01009709F44A
:10189000C6C0DC0116962D913D914D915C91199732
:1018A0002F83388749875A871A968D919D910D907D
:1018B000BC91A02DB695A795979587959E838D830E
:1018C000410100E010E0AA24BB2440C0C501880FFC
:1018D000991F6C01EE24FF242F81388549855A8594
:1018E000C20ED31EE41EF51EC701B601AE014F5F46
:1018F0005F4F22E030E00E943B04882309F48FC050
:101900008981882301F58A818823E9F4821493046C
:1019100021F43FEF39833A8302C009831A83C70158
:10192000B601AE014F5F5F4F22E030E00E945203EC
:10193000882391F00894810891088114910411F48E
:1019400085010CC085010894A11CB11C4D815E81EC
:10195000A416B50608F4BACF8928F1F452E065164A
:10196000710408F45EC009831A83660C771CB30106
:1019700080E090E02F81388549855A85620F731F7A
:10198000841F951FAE014F5F5F4F22E030E00E9441
:101990005203882309F045C00230110508F43FC006
:1019A000D20116966D907D908D909C90199793E042
:1019B000492E512C4C0E5D1E000F111F6801EE24A4
:1019C000FF24C60CD71CE81CF91CC701B601A201F4
:1019D00022E030E00E943B04882309F1BC80AA2465
:1019E0008B81082F10E00A291B2901151105C9F068
:1019F000C8014096089798F0BFEF083F1B0710F00A
:101A000000E010E01B821C82C701B601A20122E0A7
:101A100030E00E9452030115110571F602C000E08A
:101A200010E0C8012A960FB6F894DEBF0FBECDBFF6
:101A3000CF91DF911F910F91FF90EF90DF90CF90AA
:101A4000BF90AF909F908F907F906F905F904F90DE
:101A50003F902F9008952F923F924F925F926F92F6
:101A60007F928F929F92AF92BF92CF92DF92EF922E
:101A7000FF920F931F93DF93CF93CDB7DEB72897D5
:101A80000FB6F894DEBF0FBECDBF6C017C836B83B5
:101A90005E834D83009709F427C1672B09F424C1A5
:101AA000452B09F421C1DC015A968D909D90AD9093
:101AB000BC905D9752968D919D910D90BC91A02DFB
:101AC00088159905AA05BB0508F40EC1D601ED914C
:101AD000FC911197208931893A8329835E968D91F3
:101AE0009C915F9798878F83190144245524892BF3
:101AF00009F053C050960D90BC91A02DB887AF83CC
:101B0000AB2BA9F481149104A104B10409F0ECC039
:101B1000CF0160E070E041E050E00E94290C98871E
:101B20008F83F601918B808B892B09F4DDC0D60160
:101B30005A96ED90FD900D911C915D97E114F10482
:101B40000105110529F529C0E218F3080409150952
:101B5000F601808191816F8178850E9499070097B5
:101B600019F098878F8314C0E114F1040105110561
:101B700009F0BAC0D6018D919C916F81788541E0C2
:101B800050E00E94290C009709F4AEC098878F831B
:101B9000E214F30404051505B8F6C501B401A20169
:101BA00091010E94CD2D3B018D809E80A980BA803D
:101BB000A618B7088A149B0408F45401730100E0C6
:101BC00010E0D601ED91FC9186899789A08DB18DA9
:101BD000E80EF91E0A1F1B1FEF81F8853297BF011F
:101BE00080E090E03296F887EF83A20191010E9495
:101BF000872DE60EF71E081F191FC801B7014B817C
:101C00005C8195010E945203882309F44FC08A1811
:101C10009B08C501A0E0B0E0F601228D338D448D14
:101C2000558D280F391F4A1F5B1FD6015A962D93D9
:101C30003D934D935C935D97C501860D971DE9819A
:101C4000FA818E179F0708F18D919C916F8178859D
:101C50000E949907009719F098878F8314C0811408
:101C6000910459F0D6018D919C916F81788541E066
:101C700050E00E94290C009721F4F601178E168E71
:101C800015C098878F8366247724EF81F885D60165
:101C90005F96FC93EE935E978114910439F02B814B
:101CA0003C812A0D3B1D3C832B8380CFD6015A9665
:101CB0002D913D914D915C915D9752968D919D91A5
:101CC0000D90BC91A02D82179307A407B50738F497
:101CD000F601228B338B448B558B81E080A34D81A1
:101CE0005E814819590902C04FEF5FEFCA0128967B
:101CF0000FB6F894DEBF0FBECDBFCF91DF911F911D
:101D00000F91FF90EF90DF90CF90BF90AF909F909A
:101D10008F907F906F905F904F903F902F9008959D
:101D20009F92AF92BF92CF92DF92EF92FF920F936A
:101D30001F93DF93CF93CDB7DEB7A0970FB6F8947C
:101D4000DEBF0FBECDBF8B01892B09F4ABC061157F
:101D5000710509F4A7C0DB015496AD90BD90CD90FC
:101D6000DC905797E62E912EFB0101900020E9F7B9
:101D70003197FE2EF61ACE01019660E270E04BE03C
:101D800050E00E94C100C8016EE270E00E94E000D5
:101D9000FC010097E1F09C012F5F3F4F8181882378
:101DA000B1F0D9010D900020E9F71197A21BB30BF8
:101DB0008A2F8095F80EBE01675F7F4F4A2FA430AF
:101DC00008F043E0CB01B90150E00E94B800CE0119
:101DD0000196B8E0BF1538F06E2D792D4F2D50E0EB
:101DE0000E94B80028C0DC018E2D992D9C01F901BC
:101DF00088E001900D928150E1F7F8012685822F4D
:101E000090E0203A40F4F4E095958795FA95E1F753
:101E1000982F905D07C0E4E095958795EA95E1F7E6
:101E2000982F9F59822F8F708A3010F4805D01C0E7
:101E30008F599F8388878981853E11F485E0898346
:101E400085E1FE013C96DF011D928A95E9F7F801D4
:101E500085858C8786858B8F87858C8F80898D8FF4
:101E600080899189A289B389292F3A2F4B2F552731
:101E70002E8F9D01442755272F8F8B2F9927AA2717
:101E8000BB2788A3C601B501AE014F5F5F4F20E2BB
:101E900030E00E94520390E0882309F491E081E051
:101EA000982701C090E0892FA0960FB6F894DEBF66
:101EB0000FBECDBFCF91DF911F910F91FF90EF909B
:101EC000DF90CF90BF90AF909F9008952F923F9258
:101ED0004F925F926F927F928F929F92AF92BF923A
:101EE000CF92DF92EF92FF920F931F93DF93CF93E6
:101EF000CDB7DEB765970FB6F894DEBF0FBECDBF86
:101F00007C018B015D8B4C8B009709F418C1611526
:101F1000710509F414C1DB018C91882309F40FC108
:101F2000452B09F40CC1DC88CD88C7016C897D89FB
:101F30000E94D607882359F0C8016D2D7C2D0E9480
:101F4000C800009791F7F701138E128EF8C0D701E1
:101F50002D903C9088E1EC89FD8911928A95E9F7F2
:101F60008D2D9C2DB8014CE050E00E94D100211431
:101F7000310409F4CCC0AC89BD89FD010190002079
:101F8000E9F7EA1BFB0BCF010B966DE070E00E94B6
:101F9000A62DF62FFF5FFA8BD70150964D905C90DF
:101FA00051974114510451F0EE24FF248701AA24D3
:101FB000BB2465016624772443010BC0F101A2888C
:101FC000B388C488D588E688F788008D118D3501DF
:101FD00046011B8AAE14BF04C006D10609F06FC0CB
:101FE0004114510409F493C0A114B104C104D104F3
:101FF000F1F1C101B2010E9499070097B9F5C10141
:10200000B20141E050E00E94290C8C01009709F4D4
:102010007EC0D1015096ED90FC9051970250104037
:10202000B80180E090E00E5F1F4F970140E050E064
:102030000E94872D3B014C01F10186899789A08D73
:10204000B18D680E791E8A1E9B1E0230110508F4A0
:1020500061C0C401B301AE014E5F5F4F97010FE74E
:1020600017E0EE24FF240E94060654C02C01D10183
:102070005096ED90FC90519700E010E0EEEFFFEFEE
:102080004E0E5F1EB20180E090E022E030E0420E92
:10209000531EA80197010E94872D5B016C01F1017D
:1020A00086899789A08DB18DA80EB91ECA1EDB1E28
:1020B000EA0CFB1C0C1D1D1D350146011B8AC601C7
:1020C000B501AE014F5F5F4F21E030E00E943B045D
:1020D0008823E9F08981853E11F0882379F4FB8912
:1020E000FF5FFB8B2A89F217A8F480E290E0A0E062
:1020F000B0E0A80EB91ECA1EDB1E6CCF80E290E0D5
:10210000A0E0B0E0A80EB91ECA1EDB1E60CF662498
:1021100077244301AC89BD8954966D927D928D924E
:102120009C925797611471048104910441F0C1019C
:10213000BD010E94900E882319F081E001C080E06B
:1021400065960FB6F894DEBF0FBECDBFCF91DF917D
:102150001F910F91FF90EF90DF90CF90BF90AF90C5
:102160009F908F907F906F905F904F903F902F90B7
:102170000895CF93DF93EC01009771F088A1882335
:1021800049F0FE0181919191BF010E94900E882338
:1021900009F418A219821882DF91CF9108959C0149
:1021A000FB01009731F06115710519F0858584FDFB
:1021B00016C020E030E0C9010895A7E7B4E088E147
:1021C00001900D928150E1F73093760420937504CD
:1021D0001092900410928F0425E734E0ECCF8091A8
:1021E000750490917604892B21F7E7CFCF93DF9385
:1021F000AC01DB01009729F16115710511F11D9604
:102200008C911D9784FF23C01CC0E5E7F4E09F017B
:102210002E5F3F4FBD0188E1EB010990BE01E9014E
:1022200009929E018150C1F751834083128E138E13
:10223000148E158E1E968D919C911F97978F868F69
:1022400002C0E0E0F0E0CF01DF91CF9108958091EE
:10225000540490915504892BC1F6E4E5F4E0D7CFFE
:10226000DC0113961C92139708C0FD01E80FF11DC5
:1022700014828F5F13968C93139713968C911397F8
:10228000803298F395961C92959708C0FD01E80F4F
:10229000F11D16A28F5F95968C93959795968C91CC
:1022A0009597803298F311961C921E92A95BBF4FAE
:1022B00081E090E011969C938E93A754B0401296C3
:1022C0001C92129713961C92139794961C929497B3
:1022D00095961C929597AA5BBF4F1C920895FC019E
:1022E000E75BFF4F71836083E954F040CF010E94A8
:1022F00030110895CF93DF93EC01288139812115A6
:10230000310541F4653D09F046C00E94301181E07D
:1023100090E03FC02130310561F46A831B8282E086
:1023200090E099838883613208F435C0C95BDF4F40
:102330002EC022303105F9F49B818A819817A0F4D0
:102340008CA1862728E03CE880FB86950EF4832745
:102350002A95D1F78CA3903220F4FE01E90FF11DEC
:1023600064838B818F5F8B839B818A81981798F020
:1023700083E090E00EC02330310569F48CA186170C
:1023800031F0C95BDF4F39832883C754D04084E0E4
:1023900090E099838883DF91CF910895FC0120E03C
:1023A00080819181049709F421E0822F0895FC0136
:1023B00083810895FC01E95BFF4F8081918108953D
:1023C000FC01E95BFF4F85E090E0918380830895F5
:1023D000FC01E95BFF4F82E090E0918380830895E8
:1023E0006F927F928F929F92AF92BF92DF92EF9205
:1023F000FF920F931F93CF93DF93EC0196E4A92EE6
:10240000B12CAC0EBD1E8E01095B1F4FD8019C91F3
:1024100080E0892798E02CE880FB86950EF48227DF
:102420009A95D1F7F501808389E4E82EF12CEC0E22
:10243000FD1ED701ED91FC9185ED09958DA1D70188
:10244000ED91FC918F5F0995D701ED91FC91D80139
:102450008C910995DD24450137011AC08E010D0DBF
:10246000111DD301ED91FC91D80196968C9109959F
:10247000F4018081D80196969C91892798E02CE8F8
:1024800080FB86950EF482279A95D1F78083D394AA
:102490008DA1D81618F3D701ED91FC91D5018C913F
:1024A0000995CE010E943011DF91CF911F910F91BC
:1024B000FF90EF90DF90BF90AF909F908F907F90B4
:1024C0006F9008956F927F928F929F92BF92CF925A
:1024D000DF92EF92FF920F931F93CF93DF93EC0164
:1024E00036E4C32ED12CC80ED91ED6011C9229E485
:1024F000E22EF12CE80EF91ED701ED91FC9185ED4D
:102500000995D701ED91FC918DA10995BB24460158
:1025100037011AC08E010B0D111DD301ED91FC91F5
:10252000D80196968C910995F4018081D8019696F0
:102530009C91892798E02CE880FB86950EF48227F1
:102540009A95D1F78083B3948DA1B81618F3D7016B
:10255000ED91FC91D6018C910995DF91CF911F915E
:102560000F91FF90EF90DF90CF90BF909F908F9052
:102570007F906F900895DC01952F95968C9195979B
:10258000803240F4FD01E80FF11D46A38F5F959660
:102590008C93959795968C919597803240F4FD0198
:1025A000E80FF11D96A38F5F95968C939597AB01DD
:1025B00066277727952F95968C919597803240F4D2
:1025C000FD01E80FF11D46A38F5F95968C939597BB
:1025D00095968C919597803238F4FD01E80FF11DA6
:1025E00096A38F5F95968C930895DC0195968C91B8
:1025F0009597803240F4FD01E80FF11D66A38F5FCF
:1026000095968C93959795968C919597803238F402
:10261000FD01E80FF11D76A38F5F95968C930895C9
:10262000DC0195968C919597803238F4FD01E80F86
:10263000F11D66A38F5F95968C930895FC01E60FBC
:10264000F11D84810895FC016F5FDC01A60FB11DAF
:10265000615014969C9180E0E60FF11D248130E0DA
:10266000282B392BC90108950F931F938C01862FB6
:102670008E5F6D5FF801E60FF11D348120E0F801F7
:10268000E80FF11D848190E0282B392B40E050E0C9
:10269000A901332722276250F801E60FF11D61508E
:1026A000948180E0060F111DF801648170E0862B93
:1026B000972BA0E0B0E0282B392B4A2B5B2BB901DC
:1026C000CA011F910F910895F999FECF72BD61BDA6
:1026D000F89A80B50895F999FECF1FBA72BD61BD11
:1026E00040BD0FB6F894FA9AF99A0FBE08950F9369
:1026F0001F93FC0100811181828193810196938354
:1027000082830197D80116962D913C9117971296C6
:102710006D917C911397820F931F0E94A62DD80173
:10272000ED91FC91E80FF91F80811F910F910895A1
:10273000EF92FF920F931F937C010E947713082F53
:10274000C7010E947713382F20E010E0022B132BD3
:10275000C8011F910F91FF90EF9008954F925F92E3
:102760006F927F928F929F92AF92BF92CF92DF92A1
:10277000EF92FF920F931F932C010E947713682E04
:10278000C2010E947713E82EC2010E947713A82E7F
:10279000C2010E947713FF2400E010E0102F0F2DDC
:1027A000FE2CEE24BB24CC24DD246501BB24AA240A
:1027B000EA28FB280C291D29772488249924E62857
:1027C000F7280829192990E0A0E0B0E0B82FAA273F
:1027D00099278827E82AF92A0A2B1B2BB701C80159
:1027E0001F910F91FF90EF90DF90CF90BF90AF902F
:1027F0009F908F907F906F905F904F90089501977A
:1028000039F56F5F7F4F21F588EB94E066E478E15E
:102810000E946F1183E095E065E678E10E946F11F8
:1028200080E091E090935206809351068FE495E00A
:102830009093500680934F061092560610925506BC
:102840001092540610925306109258061092570692
:10285000089580E090E06FEF7FEF0E94FF130895EE
:1028600081E090E06FEF7FEF0E94FF1308958F9259
:102870009F92AF92BF92CF92DF92EF92FF920F930F
:102880001F938C010E94CE296B017C014801AA2470
:1028900097FCA094BA2CC80CD91CEA1CFB1C6CC079
:1028A0008EEE98E00E945A2A882309F443C08EEEE7
:1028B00098E00E94552A682F83E095E00E947A11E3
:1028C0008091960490919704A0919804B0919904F6
:1028D0000196A11DB11D8093960490939704A09337
:1028E0009804B09399040E94CE296B017C01C80C16
:1028F000D91CEA1CFB1C83E095E00E94DA110397C7
:10290000C9F48091A2049091A304A091A404B09171
:10291000A5040196A11DB11D8093A2049093A30468
:10292000A093A404B093A5048BEE98E060E071E05E
:102930000E94E82B0E94CE29C616D706E806F906A3
:10294000D8F48091A6049091A704A091A804B09116
:10295000A9040196A11DB11D8093A6049093A7041C
:10296000A093A804B093A9048BEE98E063E171E012
:102970000E94E82B80E008C083E095E00E94CE1121
:10298000882309F48DCF81E01F910F91FF90EF9084
:10299000DF90CF90BF90AF909F908F90089582E38B
:1029A00090E00E9454298CE061E00E94F02C8AE0C3
:1029B00090E00E94542983E095E00E9462128CE02E
:1029C00060E00E94F02C80919A0490919B04A09169
:1029D0009C04B0919D040196A11DB11D80939A04A1
:1029E00090939B04A0939C04B0939D0488EE93E085
:1029F0000E9437140895EF92FF920F931F93182FA0
:102A0000062F53E0E52E55E0F52EC7010E94301148
:102A1000C701612F0E941013C701602F0E9410137D
:102A20000E94CF141F910F91FF90EF900895809115
:102A3000660668E10E94FB1408950F931F93CF93DD
:102A4000DF93EC0183E095E00E943011CE010E94FB
:102A50007713682F83E095E00E941013CE010E9447
:102A60007713682F83E095E00E941013CE010E9437
:102A70007713082F10E009C0CE010E947713682F4A
:102A800083E095E00E9410131F5F1017A8F30E94C7
:102A9000CF14DF91CF911F910F9108951F93182F9D
:102AA00083E095E00E94301183E095E0612F0E9461
:102AB000101383E095E066E10E9410130E94CF148A
:102AC000882311F490E009C083E095E061E00E9462
:102AD0001E1390E0813009F491E0892F1F91089531
:102AE0000E94CE29209162063091630640916406CF
:102AF000509165066217730784079507A8F40E9432
:102B0000CE2920915E0630915F064091600650917B
:102B100061066217730784079507B8F0809166060F
:102B20000E944E15882319F010925D0608950E94A8
:102B3000CE296C597F4F8F4F9F4F60935E067093E5
:102B40005F06809360069093610608951F9383E06B
:102B500095E00E94301111E00BC088EB94E0612FEA
:102B60000E941E13682F83E095E00E9410131F5FE0
:102B700088EB94E00E94D711181778F30E94CF14C5
:102B800011E00BC083E095E0612F0E941E13682FB7
:102B900088EB94E00E9410131F5F83E095E00E9491
:102BA000D711181778F31F9108959F92AF92BF9293
:102BB000CF92DF92EF92FF920F931F93CF93DF9309
:102BC000982EEB018A016115710511F4C4E6D0E07D
:102BD0000115110511F40CE310E00E94CE2928EE36
:102BE00033E0A901049F9001059F300D149F300D23
:102BF000112479010027F7FC0095102FE60EF71E2F
:102C0000081F191F5E01CC24B7FCC094DC2C0E9465
:102C1000CE296E157F058007910750F4892D0E94FB
:102C20004E15882329F4C601B5010E94DC29EFCF97
:102C3000DF91CF911F910F91FF90EF90DF90CF9098
:102C4000BF90AF909F900895FF920F931F93F82E1F
:102C50008093660603E015E0C8010E943011C801A8
:102C60006F2D0E941013C80165E10E9410130E948D
:102C7000CF148F2D60E070E040E050E00E94D51549
:102C80001F910F91FF9008958EE060E00E94F02C5C
:102C900060ED77E080E090E00E94DC2908952F92BB
:102CA0003F924F925F926F927F928F929F92AF92DC
:102CB000BF92CF92DF92EF92FF920F931F93DF9319
:102CC000CF93CDB7DEB760970FB6F894DEBF0FBED7
:102CD000CDBF80916806882321F542C0E0914F0660
:102CE000F09150068091530690915406E80FF91F19
:102CF00040838091530690915406609151067091E3
:102D0000520601960E94A62D909354068093530676
:102D1000809157069091580601969093580680939B
:102D20005706209151063091520680915706909196
:102D3000580628173907C1F00E94E61B8823A1F026
:102D40000E944A1C482F8091570690915806019680
:102D500020915106309152062817390710F3BECF43
:102D600080E060E00E94F02C809157069091580618
:102D7000892B09F46BC11C821B828FE496E09A8335
:102D800089837E010894E11CF11CC7010E9477131E
:102D9000813809F03BC180E10E94821F882309F439
:102DA00055C16E010894C11CD11CC6010E94AE130E
:102DB0001B012C01C6010E94AE133B014C01C60150
:102DC0000E94AE137B018C01C6010E94AE135B0111
:102DD0006C01C201B101A40193010E94D820FBC083
:102DE0000E94F31E882309F431C1F8948E010F5F0D
:102DF0001F4FC8010E94AE134B015C01C8010E9425
:102E0000AE136B017C01C8010E94AE138D829E82BD
:102E1000AF82B886C986DA86EB86FC866D877E87A8
:102E20008F87988BCE0105960E94941F7894D3C00B
:102E30000E94F31E882309F409C1C7010E94771379
:102E4000082F10E0C7010E94AE135B016C01C7019F
:102E50000E9498137C01B801769567956170A8016E
:102E600056954795569547954170802F81709601EC
:102E700085010E94AC27AFC00E94F31E882309F48D
:102E8000E5C0C7010E94AE135B016C01C7010E943F
:102E900098137C0180E060E040E0960185010E948B
:102EA000BF2699C00E94F31E882309F4CFC0C70132
:102EB0000E94AE130E94DC298EC00E94F31E88235C
:102EC00009F4C4C0C7010E9477130E94241683C06E
:102ED0000E94F31E882309F4B9C0C7010E9477132A
:102EE00080936606C7010E949813909319028093FD
:102EF0001802C7010E94981390931B0280931A0234
:102F0000809166060E944E15882309F064C00E94D5
:102F1000CE29209118023091190240E050E0260F8E
:102F2000371F481F591F20935E0630935F0640935A
:102F30006006509361060E94CE2940911A0250917A
:102F40001B0228EE33E0F9014E9F90014F9F300D98
:102F50005E9F300D112440E050E0260F371F481FC0
:102F6000591F209362063093630640936406509382
:102F7000650681E080935D062EC00E94F31E8823C3
:102F800009F464C0C7010E941D1525C00E94F31EEC
:102F9000882309F45BC0C7010E947713282F30E013
:102FA000982F917036952795622F617036952795E9
:102FB000422F417087FF04C0892F0E94A92103C0BE
:102FC000892F0E947F2180E061E00E94F02C88EB35
:102FD00094E00E94E011E981FA818B819C81208537
:102FE00031858217930708F49C018681978162815D
:102FF0007381820F931F0E94A62D978386838085FD
:103000009185821B930B9187808720C0853809F4B6
:1030100049CF863870F4823809F4E2CE833818F448
:10302000813889F6BECE833809F402CF843859F648
:1030300023CF873809F44CCF873808F43ECF88383F
:1030400009F49BCF893809F0BECFA0CF60960FB6A8
:10305000F894DEBF0FBECDBFCF91DF911F910F91CE
:10306000FF90EF90DF90CF90BF90AF909F908F90A8
:103070007F906F905F904F903F902F9008958EE0DB
:1030800061E00E94D22C0E94441608952091AA0467
:103090003091AB044091AC045091AD042F5F3F4F91
:1030A0004F4F5F4F2093AA043093AB044093AC047E
:1030B0005093AD04482F50E060E070E08BEE98E054
:1030C00020E030E00E94B22C0895CF92DF92EF9280
:1030D000FF920F931F93CF93DF93182F8091920449
:1030E00090919304A0919404B09195040196A11D30
:1030F000B11D8093920490939304A0939404B09391
:103100009504412F50E060E070E08EEE98E020E002
:1031100030E00E94B22C0E94CE296B017C018AE033
:1031200090E0A0E0B0E0C80ED91EEA1EFB1E8EEEB5
:1031300098E00E94552AEC01012F10E026C08EEE87
:1031400098E00E94552AEC010E94CE29C616D706A7
:10315000E806F906D0F480919E0490919F04A09116
:10316000A004B091A1040196A11DB11D80939E04FD
:1031700090939F04A093A004B093A1048BEE98E0D9
:103180006CED71E00E94E82B03C0C017D107B9F6BF
:10319000DF91CF911F910F91FF90EF90DF90CF9033
:1031A00008958DE061E00E94D22C8CE061E00E94E5
:1031B000D22C8DE060E00E94F02C8BEE98E040E095
:1031C00056E960E070E00E945F2A8EEE98E040E0F1
:1031D00056E960E070E00E945F2A089510924E0563
:1031E0000E943F181092590610925A0610925B06E0
:1031F00010925C060E947A280E94261C08950E9464
:1032000017150E949E211092560610925506109294
:1032100054061092530610925806109257060E94B8
:10322000EE180895AF92BF92CF92DF92EF92FF9285
:103230000F931F93DF93CF93CDB7DEB7E5970FB60C
:10324000F894DEBF0FBECDBFE82FF0E0E231F1050C
:1032500008F068C1E25CFF4FEE0FFF1F0590F4918C
:10326000E02D099488EB94E061E00E942313909391
:10327000B7048093B60488EB94E068E670E00FC072
:103280000E94EE1856C160915106709152068091CD
:10329000570690915806681B790B88EB94E00E94C2
:1032A000F51247C110925606109255061092540618
:1032B0001092530610925806109257063AC1CE014A
:1032C00001960E94EA1F49815A816B817C8188EBBB
:1032D00094E00E94BB124D815E816F81788588EBFE
:1032E00094E00E94BB1249855A856B857C8588EBEA
:1032F00094E00E94BB120E944B2103C1CE010D96A7
:103300000E9437204D855E856F85788988EB94E033
:103310000E94BB1249895A896B897C8988EB94E0A9
:103320000E94BB124D895E896F89788DC5C088EB7C
:1033300094E061E00E9434135B016C0188EB94E03F
:1033400065E00E9434137B018C0188EB94E069E016
:103350000E943413A98EBA8ECB8EDC8EED8EFE8E3B
:103360000F8F18A369A37AA38BA39CA3CE014996C0
:103370000E941120DEC00E94FF18DBC080914E0524
:10338000882329F010924E050E940D22D2C081E0C0
:1033900080934E050E949E21CCC00E94A615C9C0F4
:1033A0000E94F31E882309F4C2C00E943D1F882397
:1033B00009F4BDC08091570690915806892B09F0F9
:1033C000B6C061E09FC088EB94E061E00E942313E7
:1033D000E82E192F88EB94E063E00E941E13F82E6C
:1033E00080E18F1558F18E2D912F9C0189010CC021
:1033F00081E994E0B8010E946413682F88EB94E09F
:103400000E9410130F5F1F4F802F8E198F1580F3AE
:1034100090C088EB94E061E00E9423138C0188EB5C
:1034200094E063E00E941E13A82EE0E1E81730F05C
:1034300084E0E82EB4E0FB2EFA0C13C088EB94E095
:103440000E94E81176C088EB94E06E2D0E941E1356
:10345000482F81E994E0B8010E946B13E3940F5F59
:103460001F4FEF1481F788EB94E06A2D4DC000E008
:1034700010E0A5E2EA2EF12CEC0EFD1E602F6F5F2E
:1034800088EB94E00E941E13882349F0F701E00FB7
:10349000F11F80830F5F1F4F0031110579F7CE01B7
:1034A0008596080F191FF80110820E94051D29C07A
:1034B0000E94041CAB01BC0188EB94E00E94BB128B
:1034C00038C000E010E0F5E2EF2EF12CEC0EFD1E0E
:1034D000602F6F5F88EB94E00E941E13882349F0F1
:1034E000F701E00FF11F80830F5F1F4F00311105BF
:1034F00079F7CE018596080F191FF80110820E94F6
:10350000D91C682F88EB94E00E94101312C02DE0A4
:1035100088E190E00FB6F894A895809360000FBE04
:103520002093600088EB94E00E94E01102C060E00C
:10353000E9CFE5960FB6F894DEBF0FBECDBFCF91B1
:10354000DF911F910F91FF90EF90DF90CF90BF9090
:10355000AF900895EF92FF920F931F930E94CE2990
:103560007B018C0188EE93E0A0E0B0E0E80EF91E4C
:103570000A1F1B1F4CC08BEE98E00E945A2A88231A
:10358000C1F18BEE98E00E94552A682F88EB94E0F9
:103590000E947A118091AE049091AF04A091B00482
:1035A000B091B1040196A11DB11D8093AE0490931A
:1035B000AF04A093B004B093B1040E94CE297B0164
:1035C0008C0188EE93E0A0E0B0E0E80EF91E0A1F3F
:1035D0001B1F88EB94E00E94DA11039751F480E0FE
:1035E00061E00E94F02C8BEE98E06AEE71E00E94A0
:1035F000E82B0E94CE296E157F058007910738F0D1
:103600008BEE98E06CEF71E00E94E82B07C088EB2E
:1036100094E00E94CE11882309F4ADCF88EB94E0AA
:103620000E94CE11882309F47CC08091B20490914D
:10363000B304A091B404B091B5040196A11DB11DCD
:103640008093B2049093B304A093B404B093B504F0
:1036500088EB94E060E00E941E1387FF60C08091B9
:103660006706882329F088EB94E00E947E1C59C0ED
:10367000009151061091520680915706909158067C
:10368000081B190B88EB94E00E94D71190E00817F3
:10369000190708F43FC010E036C088EB94E0612FB2
:1036A0000E941E13482F809157069091580601964C
:1036B00020915106309152062817390718F1E091F0
:1036C0004F06F09150068091530690915406E80FF2
:1036D000F91F4083809153069091540660915106E2
:1036E0007091520601960E94A62D909354068093E5
:1036F000530680915706909158060196909358066C
:10370000809357061F5F88EB94E00E94D71118172B
:1037100020F207C088EB94E00E94E81102C00E94EA
:10372000121988EB94E00E94F0111F910F91FF9005
:10373000EF9008958BEE98E00E945A2A882311F0AA
:103740000E94AA1A80915D06882319F40E944F16E0
:1037500004C0813011F40E9470150E941522089552
:103760000F931F930E94D1180E94EE180BEE18E0E1
:10377000C80169E072E00E94B92BC80148E650E038
:1037800060E070E02AE030E00E94C72C1F910F91AA
:1037900008950E94062A0E94B01B0E949A1BFDCF2A
:1037A00081E994E060E070E00E9464138A3511F0D2
:1037B00090E00AC081E994E061E070E00E94641347
:1037C00090E0883709F491E0892F089580918E0662
:1037D00008958DE696E00E94C8010895109268064B
:1037E00060918B0670918C066115710521F08DE654
:1037F00096E00E94D0018DE696E00E94D1021092E0
:103800008C0610928B06089580916706882389F0B4
:1038100060918B0670918C066115710521F08DE623
:1038200096E00E94D00110928C0610928B061092A6
:1038300067068DE696E00E94D1026091690670915C
:103840006A0680916B0690916C06089580916806D7
:10385000882311F00E94EE1B80916706882311F0E7
:103860000E94041C8DE696E00E94D102089580918A
:103870008B0690918C066DE876E041E050E00E9466
:103880000E0910928E06181619061CF481E080931A
:103890008E0608951F9310918D060E94371C812F6C
:1038A0001F910895DF93CF930F92CDB7DEB7898331
:1038B00060918B0670918C0661157105D9F08DE6CB
:1038C00096E0AE014F5F5F4F21E00E94D6018091EC
:1038D000690690916A06A0916B06B0916C060196FC
:1038E000A11DB11D8093690690936A06A0936B0693
:1038F000B0936C060F90CF91DF9108951F93CF93F3
:10390000DF93EC0110E007C0CE01612F0E941E136F
:103910000E94521C1F5FCE010E94D7111817A0F3FE
:10392000DF91CF911F9108958DE696E00E94CE021F
:10393000882391F48DE696E00E94C302882331F437
:103940008DE696E00E94D10281E008958DE696E032
:103950000E94D10282E008958DE696E00E949802CE
:10396000882331F48DE696E00E94D10283E0089529
:103970008DE696E00E948502882331F48DE696E07C
:103980000E94D10284E008958DE696E066E172E03F
:103990000E945102882331F48DE696E00E94D10204
:1039A00085E008958DE696E00E94C602811186E0CA
:1039B00008951F93CF93DF93EC010E94941C182F5E
:1039C0008823F1F41092690610926A0610926B0631
:1039D00010926C0610928C0610928B068DE696E083
:1039E000BE010E94480290938C0680938B06892B1F
:1039F00011F417E005C081E0809368060E94371C2F
:103A0000812FDF91CF911F9108951F93CF93DF9363
:103A1000EC010E94941C182F882329F51092690646
:103A200010926A0610926B0610926C0610928C0629
:103A300010928B068DE696E0BE010E94DD018DE6B8
:103A400096E0BE010E94480290938C0680938B06FC
:103A500080918B0690918C06892B11F418E003C09D
:103A600081E080936706812FDF91CF911F910895A8
:103A7000CF93DF93EC018885998501962A813B815C
:103A800028173907A8F0E881F9818C819D81E80F1A
:103A9000F91F60838C819D816A817B8101960E94E0
:103AA000A62D9D838C838885998501969987888723
:103AB000DF91CF910895CF92DF92EF92FF920F9313
:103AC0001F936C017A018B01642F0E94381D5527CA
:103AD000412F302F2F2DC601622F0E94381D9801D3
:103AE00044275527C601622F0E94381DE12EFF246E
:103AF00000271127C6016E2D0E94381D1F910F91BE
:103B0000FF90EF90DF90CF9008950F931F93CF9386
:103B1000DF93EC01288539852115310511F400E08A
:103B200012C08E819F81E881F981E80FF91F008121
:103B30006A817B8101960E94A62D9F838E832150EE
:103B4000304039872887288539852115310511F4BA
:103B500040E012C08E819F81E881F981E80FF91F52
:103B600040816A817B8101960E94A62D9F838E836E
:103B7000215030403987288728853985211531051E
:103B800011F410E012C08E819F81E881F981E80F65
:103B9000F91F10816A817B8101960E94A62D9F8367
:103BA0008E83215030403987288728853985211513
:103BB000310511F4E0E012C08E819F81E881F98126
:103BC000E80FF91FE0816A817B8101960E94A62D92
:103BD0009F838E832150304039872887242F30E0FF
:103BE00040E050E0542F432F322F2227802F90E0C7
:103BF000A0E0B0E0282B392B4A2B5B2B812F90E0E3
:103C0000A0E0B0E0DC0199278827282B392B4A2B2C
:103C10005B2B8E2F90E0A0E0B0E0B82FAA27992769
:103C20008827282B392B4A2B5B2BB901CA01DF913E
:103C3000CF911F910F910895603020E0720721E02D
:103C4000820720E0920708F440C0693F2FEF720717
:103C500027E0820720E0920740F433E096958795AD
:103C6000779567953A95D1F730C0613C2FEF720791
:103C70002FE3820720E0920740F426E0969587958F
:103C8000779567952A95D1F720C061302FEF72079D
:103C90002FEF820720E0920730F4BB27A92F982F3F
:103CA000872FBC0112C061302CEF72072FEF820703
:103CB00023E0920718F06FEF7FEF07C0AAE0969518
:103CC000879577956795AA95D1F7CB010895EF92DF
:103CD000FF920F931F937B018C0144E0EE0CFF1CBD
:103CE000001F111F4A95D1F7C801B7010E941C1E81
:103CF000909389008093880080E0E81680E0F806C1
:103D000081E0080780E0180710F491E022C089EFF5
:103D1000E8168FEFF80687E0080780E0180710F430
:103D200092E017C081ECE8168FEFF8068FE30807E2
:103D300080E0180710F493E00CC081E0E8168FEFE4
:103D4000F8068FEF080780E0180710F095E001C033
:103D500094E080918100887F809381008091810030
:103D6000982B909381001F910F91FF90EF900895F1
:103D7000CF93DF93E0E8F0E01082A1E8B0E01C927E
:103D8000109282002FE630E0E90118828C918F7E3C
:103D90008C938C9188608C9380818D7F80838081CF
:103DA0008E7F808380818F77808380818F7B8083EB
:103DB00080818F7D808380818F7E80838C91887FBE
:103DC0008C938C9185608C938FEF9FEF90938900FB
:103DD0008093880088818D7F888388818F7D888308
:103DE000DF91CF91089580911C02882309F442C08D
:103DF0002091AC083091AD084091AE085091AF08C9
:103E00008091B8089091B908A091BA08B091BB0808
:103E1000281739074A075B0769F52091B0083091E8
:103E2000B1084091B2085091B3088091BC089091BC
:103E3000BD08A091BE08B091BF08281739074A07EE
:103E40005B07C1F42091B4083091B5084091B608E1
:103E50005091B7088091C0089091C108A091C20804
:103E6000B091C30860E0281739074A075B0719F4C7
:103E700061E001C060E0862F08952091AC08309188
:103E8000AD084091AE085091AF088091B80890916C
:103E9000B908A091BA08B091BB08281739074A079A
:103EA0005B0769F52091B0083091B1084091B208E4
:103EB0005091B3088091BC089091BD08A091BE08B4
:103EC000B091BF08281739074A075B07C1F4209152
:103ED000B4083091B5084091B6085091B708809168
:103EE000C0089091C108A091C208B091C30860E0D9
:103EF000281739074A075B0719F461E001C060E041
:103F0000862F089560E020919108309192084091A9
:103F1000970850919808241B350B90E02817390713
:103F200008F061E0862F0895FC0180819181A281D3
:103F3000B3818093AC089093AD08A093AE08B09382
:103F4000AF088091AC089091AD08A091AE08B091F7
:103F5000AF088093B8089093B908A093BA08B093BB
:103F6000BB0884819581A681B7818093B008909326
:103F7000B108A093B208B093B3088091B0089091B3
:103F8000B108A091B208B091B3088093BC08909397
:103F9000BD08A093BE08B093BF0880859185A28517
:103FA000B3858093B4089093B508A093B608B093F6
:103FB000B7088091B4089091B508A091B608B09167
:103FC000B7088093C0089093C108A093C208B0932B
:103FD000C3080895FC018091AC089091AD08A091B0
:103FE000AE08B091AF0880839183A283B3838091A0
:103FF000B0089091B108A091B208B091B308848341
:104000009583A683B7838091B4089091B508A09159
:10401000B608B091B70880879187A287B387CF0190
:104020000895FC0180819181A281B3818093D008A1
:104030009093D108A093D208B093D308848195813E
:10404000A681B7818093D4089093D508A093D60811
:10405000B093D70880859185A285B3858093D808D1
:104060009093D908A093DA08B093DB080895FC0177
:104070008091D0089091D108A091D208B091D30836
:1040800080839183A283B3838091D4089091D508D3
:10409000A091D608B091D70884839583A683B7836F
:1040A0008091D8089091D908A091DA08B091DB08E6
:1040B00080879187A287B387CF01089580E092E03F
:1040C00090939208809391088FE896E090939008DF
:1040D00080938F0810929608109295081092940879
:1040E0001092930810929808109297081092AC08BA
:1040F0001092AD081092AE081092AF081092B0085E
:104100001092B1081092B2081092B3081092B4083D
:104110001092B5081092B6081092B7081092B8081D
:104120001092B9081092BA081092BB081092BC08FD
:104130001092BD081092BE081092BF081092C008DD
:104140001092C1081092C2081092C3081092C408BD
:104150001092C5081092C6081092C7081092C8089D
:104160001092C9081092CA081092CB081092CC087D
:104170001092CD081092CE081092CF081092D0085D
:104180001092D1081092D2081092D3081092D4083D
:104190001092D5081092D6081092D7081092D8081D
:1041A0001092D9081092DA081092DB080895089549
:1041B0002F923F924F925F926F927F928F929F9237
:1041C000AF92BF92CF92DF92EF92FF920F931F9325
:1041D0003B014C0119012A0106C061E070E080E05A
:1041E00090E00E94DC2980919108909192082091A2
:1041F000970830919808821B930B409770F3809139
:104200006F008D7F80936F0080916F008F7D809312
:104210006F008FE898E0B401A3010E945B1D8FE856
:1042200098E0B201A1010E945B1D8FE898E0B801FF
:10423000A7010E945B1D8FE898E0B601A5010E94CE
:104240005B1D10921C0280916F00826080936F0052
:104250001F910F91FF90EF90DF90CF90BF90AF90A4
:104260009F908F907F906F905F904F903F902F9096
:1042700008951F93182F0E943B2D892B11F020E0E9
:1042800007C0812F0E943B2D20E0892B09F421E0FB
:10429000822F1F910895DF92EF92FF920F931F9349
:1042A0008FE10E943921D82E8EE10E943921182FEA
:1042B0008AE10E943921F82E89E10E943921082FD4
:1042C00085E10E943921E82E84E10E943921D294AF
:1042D000DD0C50EED5221295107F1D29182BFF0CF6
:1042E000FF0CFF0CF12A000F000F0F29EE0C8E2D92
:1042F000802B1F910F91FF90EF90DF9008950F9307
:104300001F93162F042F882321F083E161E00E9480
:10431000F02C112321F088E161E00E94F02C0023B1
:1043200021F08DE161E00E94F02C1F910F91089522
:1043300081E061E041E00E947F210895EFE6F0E036
:1043400080818D7F808380818F7D80830E949821F2
:1043500008950F931F93162F042F882321F083E1D4
:1043600060E00E94F02C112321F088E160E00E94BF
:10437000F02C002321F08DE160E00E94F02C1F91D1
:104380000F910895EF92FF920F931F938091C408AD
:104390009091C508A091C608B091C7082091C8089F
:1043A0003091C9084091CA085091CB08E090CC08E0
:1043B000F090CD080091CE081091CF0870E018164B
:1043C00019061A061B060CF471E060E012161306BB
:1043D000140615060CF461E040E01E141F041006DC
:1043E00011060CF441E0872F0E94A9218091CC088E
:1043F0009091CD08A091CE08B091CF08181619065B
:104400001A061B062CF080E060E041E00E947F214C
:104410001F910F91FF90EF9008950E94C221EFE647
:10442000F0E080818260808308958091A1088823D4
:1044300029F085E10E943921882349F48091A1085F
:10444000882349F484E10E943921882321F083E103
:1044500061E00E94F02C8091A608882329F08AE16F
:104460000E943921882349F48091A608882349F4C1
:1044700089E10E943921882321F088E161E00E94CE
:10448000F02C8091AB08882329F08FE10E9439211C
:10449000882349F48091AB08882349F48EE10E9477
:1044A0003921882321F08DE161E00E94F02C0895EC
:1044B0001F93182F61E00E94F02C81E090E00E9491
:1044C0005429812F60E00E94F02C1F9108951F92C3
:1044D0000F920FB60F9211242F933F934F935F9338
:1044E0006F937F938F939F93AF93BF93EF93FF93BC
:1044F0000E9415222091AC083091AD084091AE0881
:104500005091AF088091B8089091B908A091BA086D
:10451000B091BB08281739074A075B0709F46CC03C
:1045200080919D0890919E08A0919F08B091A0084D
:104530002091C4083091C5084091C6085091C70821
:10454000280F391F4A1F5B1F20939D0830939E0838
:1045500040939F085093A00880919D0890919E08D9
:10456000A0919F08B091A008181619061A061B06FC
:104570000CF042C08FE00E94582280919D089091DB
:104580009E08A0919F08B091A008209199083091B1
:104590009A0840919B0850919C08821B930BA40B96
:1045A000B50B80939D0890939E08A0939F08B093AD
:1045B000A0088091A108882361F08091AC089091B7
:1045C000AD08A091AE08B091AF080196A11DB11D34
:1045D0000BC08091AC089091AD08A091AE08B0914D
:1045E000AF080197A109B1098093AC089093AD0879
:1045F000A093AE08B093AF082091B0083091B108F5
:104600004091B2085091B3088091BC089091BD08C8
:10461000A091BE08B091BF08281739074A075B0769
:1046200009F46CC08091A2089091A308A091A408FD
:10463000B091A5082091C8083091C9084091CA08D6
:104640005091CB08280F391F4A1F5B1F2093A208E7
:104650003093A3084093A4085093A5088091A20822
:104660009091A308A091A408B091A5081816190666
:104670001A061B060CF042C087E10E945822809166
:10468000A2089091A308A091A408B091A508209138
:10469000990830919A0840919B0850919C08821B80
:1046A000930BA40BB50B8093A2089093A308A0933F
:1046B000A408B093A5088091A608882361F0809192
:1046C000B0089091B108A091B208B091B3080196DA
:1046D000A11DB11D0BC08091B0089091B108A091AF
:1046E000B208B091B3080197A109B1098093B0084D
:1046F0009093B108A093B208B093B3082091B40886
:104700003091B5084091B6085091B7088091C00823
:104710009091C108A091C208B091C3082817390729
:104720004A075B0709F46CC08091A7089091A8081C
:10473000A091A908B091AA082091CC083091CD0889
:104740004091CE085091CF08280F391F4A1F5B1F98
:104750002093A7083093A8084093A9085093AA086B
:104760008091A7089091A808A091A908B091AA08E3
:10477000181619061A061B060CF042C08BE10E949F
:1047800058228091A7089091A808A091A908B091FB
:10479000AA082091990830919A0840919B0850915D
:1047A0009C08821B930BA40BB50B8093A7089093D6
:1047B000A808A093A908B093AA088091AB08882301
:1047C00061F08091B4089091B508A091B608B091BD
:1047D000B7080196A11DB11D0BC08091B40890913E
:1047E000B508A091B608B091B7080197A109B10921
:1047F0008093B4089093B508A093B608B093B70817
:104800002091AC083091AD084091AE085091AF08AE
:104810008091B8089091B908A091BA08B091BB08EE
:10482000281739074A075B0709F061C22091B008D1
:104830003091B1084091B2085091B3088091BC0802
:104840009091BD08A091BE08B091BF082817390704
:104850004A075B0709F04BC22091B4083091B508B4
:104860004091B6085091B7088091C0089091C10856
:10487000A091C208B091C308281739074A075B07FF
:1048800009F035C28091970890919808409708F4F4
:104890002BC28FE898E00E94851D9B01AC012093FC
:1048A000B8083093B9084093BA085093BB088FE812
:1048B00098E00E94851D9B01AC012093BC083093B9
:1048C000BD084093BE085093BF088FE898E00E944F
:1048D000851D9B01AC012093C0083093C108409313
:1048E000C2085093C3088091B8089091B908A0916C
:1048F000BA08B091BB082091AC083091AD08409146
:10490000AE085091AF08821B930BA40BB50B80939C
:10491000C4089093C508A093C608B093C7088091B7
:10492000BC089091BD08A091BE08B091BF0820912D
:10493000B0083091B1084091B2085091B308821B81
:10494000930BA40BB50B8093C8089093C908A09350
:10495000CA08B093CB088091C0089091C108A0917B
:10496000C208B091C3082091B4083091B5084091B5
:10497000B6085091B708821B930BA40BB50B80931C
:10498000CC089093CD08A093CE08B093CF08809127
:10499000C4089091C508A091C608B091C708809539
:1049A0009095A095B0958827B7FD83959927AA275C
:1049B000BB278093A1088091C8089091C908A09155
:1049C000CA08B091CB0880959095A095B09588279E
:1049D000B7FD83959927AA27BB278093A6088091C6
:1049E000CC089091CD08A091CE08B091CF088095C9
:1049F0009095A095B0958827B7FD83959927AA270C
:104A0000BB278093AB086091A1088091DC088823C4
:104A100011F081E0682782E10E94F02C6091A608E5
:104A20008091DD08882311F081E0682786E10E94EB
:104A3000F02C6091AB088091DE08882311F081E0B2
:104A400068278CE10E94F02C8091C4089091C508E1
:104A5000A091C608B091C708181619061A061B06B9
:104A60004CF42091C4083091C5084091C60850917B
:104A7000C7080FC08091C4089091C508A091C608CE
:104A8000B091C70822273327A901281B390B4A0BED
:104A90005B0B2093C4083093C5084093C60850931D
:104AA000C7088091C8089091C908A091CA08B09120
:104AB000CB08181619061A061B064CF42091C808D4
:104AC0003091C9084091CA085091CB080FC080911D
:104AD000C8089091C908A091CA08B091CB082227B4
:104AE0003327A901281B390B4A0B5B0B2093C808FD
:104AF0003093C9084093CA085093CB088091CC08E2
:104B00009091CD08A091CE08B091CF081816190643
:104B10001A061B064CF42091CC083091CD08409128
:104B2000CE085091CF080FC08091CC089091CD084D
:104B3000A091CE08B091CF0822273327A901281BC6
:104B4000390B4A0B5B0B2093CC083093CD08409374
:104B5000CE085093CF080E94C2211092990810925B
:104B60009A0810929B0810929C082091C4083091DA
:104B7000C5084091C6085091C7088091C808909117
:104B8000C908A091CA08B091CB0882179307A4075F
:104B9000B5074CF48091C4089091C508A091C6084F
:104BA000B091C70808C08091C8089091C908A09129
:104BB000CA08B091CB088093990890939A08A09363
:104BC0009B08B0939C082091CC083091CD0840916F
:104BD000CE085091CF088091990890919A08A091A1
:104BE0009B08B0919C0882179307A407B5074CF463
:104BF0008091CC089091CD08A091CE08B091CF08BB
:104C000008C08091990890919A08A0919B08B09152
:104C10009C088093990890939A08A0939B08B0935E
:104C20009C086091990870919A0880919B089091D6
:104C30009C0822E030E040E050E00E94EF2D5095CB
:104C40004095309521953F4F4F4F5F4F20939D08E2
:104C500030939E0840939F085093A0086091990854
:104C600070919A0880919B0890919C0822E030E016
:104C700040E050E00E94EF2D5095409530952195F1
:104C80003F4F4F4F5F4F2093A2083093A3084093AC
:104C9000A4085093A5086091990870919A08809192
:104CA0009B0890919C0822E030E040E050E00E9498
:104CB000EF2D50954095309521953F4F4F4F5F4FC9
:104CC0002093A7083093A8084093A9085093AA08F6
:104CD0008FE898E00E94851D0E94671E80916F00FA
:104CE000826080936F0003C081E080931C02FF917B
:104CF000EF91BF91AF919F918F917F916F915F9154
:104D00004F913F912F910F900FBE0F901F901895CC
:104D1000EF92FF920F931F93F82E162FE42E022F7F
:104D2000842F0E9439218823E9F061E06027812FD8
:104D30000E94F02C09C08F2D0E94582264EF71E070
:104D400080E090E00E94DC298E2D0E94392188238A
:104D500091F7812F602F0E94F02C8F2D0E945822F6
:104D600081E008C0812F602F0E94F02C8F2D0E94BF
:104D7000582280E01F910F91FF90EF9008952F929D
:104D80003F924F925F926F927F928F929F92AF92DB
:104D9000BF92CF92DF92EF92FF920F931F93DF9318
:104DA000CF9300D00F92CDB7DEB7382E462E542EBB
:104DB000380149010E94CE290E94CE295B016C0175
:104DC00088EE93E09C01E29EC001E39E900DF29E6E
:104DD000900D1124A0E0B0E0A80EB91ECA1EDB1E83
:104DE00080916F008D7F80936F0080916F008F7D29
:104DF00080936F00832D642D452D0E94A921C4014D
:104E0000B30128EE33E040E050E00E94CD2D29832D
:104E10003A834B83252EFF2400E010E0EE24E39438
:104E200076C03320D9F0FF20C9F42091DC082E256C
:104E30008FE062E145E10E948826F82E8091AC085F
:104E40009091AD08A091AE08B091AF088093D008C2
:104E50009093D108A093D208B093D3084420D9F0FE
:104E60000023C9F42091DD082E2587E166E14AE19F
:104E70000E948826082F8091B0089091B108A091D7
:104E8000B208B091B3088093D4089093D508A0934A
:104E9000D608B093D7085520D9F01123C9F4209132
:104EA000DE082E258BE16CE14FE10E948826182F49
:104EB0008091B4089091B508A091B608B091B70858
:104EC0008093D8089093D908A093DA08B093DB08B0
:104ED000332011F0FF2041F0442011F0002321F095
:104EE0005520E9F01123D9F430E0631630E0730661
:104EF00031E0830630E0930620F4C3010E94542978
:104F000006C069817A818B81922D0E94DC290E94E2
:104F1000CE296A157B058C059D0508F482CF0E9479
:104F2000982180916F00826080936F000F900F90A6
:104F30000F90CF91DF911F910F91FF90EF90DF9035
:104F4000CF90BF90AF909F908F907F906F905F9029
:104F50004F903F902F9008952F923F924F925F92E3
:104F60006F927F928F929F92AF92BF92CF92DF9279
:104F7000EF92FF920F931F93DF93CF9300D0CDB7A3
:104F8000DEB7382E462E542E380149010E94CE2914
:104F90000E94CE295B016C0188EE93E09C01E29EA9
:104FA000C001E39E900DF29E900D1124A0E0B0E0B0
:104FB000A80EB91ECA1EDB1E80916F008D7F8093E4
:104FC0006F0080916F008F7D80936F00832D642D23
:104FD000452D0E94A921C401B30128EE33E040E031
:104FE00050E00E94CD2D29833A83242EE52EFF2404
:104FF00000E010E05BC0332091F0FF2081F48FE0EF
:1050000062E144E12091DC080E948826F82E10928B
:10501000AC081092AD081092AE081092AF08442070
:1050200091F0002381F487E166E149E12091DD08F8
:105030000E948826082F1092B0081092B108109292
:10504000B2081092B308552091F0112381F48BE13E
:105050006CE14EE12091DE080E948826182F109204
:10506000B4081092B5081092B6081092B708332011
:1050700011F0FF2041F0442011F0002321F05520D1
:10508000E9F01123D9F430E0631630E0730631E023
:10509000830630E0930620F4C3010E94542906C021
:1050A00069817A81822D9E2D0E94DC290E94CE2961
:1050B0006A157B058C059D0508F49DCF0E949821FB
:1050C00080916F00826080936F000F900F90CF915E
:1050D000DF911F910F91FF90EF90DF90CF90BF90E5
:1050E000AF909F908F907F906F905F904F903F9088
:1050F0002F90089510929608109295081092940897
:105100001092930810929808109297088FE061E02F
:105110000E94D22C82E161E00E94D22C83E161E006
:105120000E94D22C84E160E00E94D22C85E160E0F4
:105130000E94D22C87E161E00E94D22C86E161E0DE
:105140000E94D22C88E161E00E94D22C89E160E0CB
:105150000E94D22C8AE160E00E94D22C8BE161E0B7
:105160000E94D22C8CE161E00E94D22C8DE161E0A2
:105170000E94D22C8EE160E00E94D22C8FE160E090
:105180000E94D22C0E94D01B8823C1F081E994E0B8
:1051900062E070E00E94641390E09C012170307026
:1051A0002093DC0896958795282F21702093DD08A1
:1051B0009695879581708093DE0806C01092DE0870
:1051C0001092DD081092DC0884E161E00E94F02C6E
:1051D00085E161E00E94F02C89E161E00E94F02C01
:1051E0008AE161E00E94F02C8EE161E00E94F02CE7
:1051F0008FE161E00E94F02C0E9498211092C40877
:105200001092C5081092C6081092C7081092C808DC
:105210001092C9081092CA081092CB081092CC08BC
:105220001092CD081092CE081092CF081092AC08C0
:105230001092AD081092AE081092AF081092B0080C
:105240001092B1081092B2081092B3081092B408EC
:105250001092B5081092B6081092B7081092B808CC
:105260001092B9081092BA081092BB081092BC08AC
:105270001092BD081092BE081092BF081092C0088C
:105280001092C1081092C2081092C3080E94B81E62
:1052900064EC79E080E090E00E94671E80916F00EE
:1052A000826080936F000895019739F0880F991FED
:1052B000880F991F02970197F1F708951F920F9297
:1052C0000FB60F9211242F938F939F93AF93BF9399
:1052D0008091DF089091E008A091E108B091E20888
:1052E0000196A11DB11D8093DF089093E008A09363
:1052F000E108B093E2088091E3089091E408A0915E
:10530000E508B091E6088050904CAF4FBF4F8093B6
:10531000E3089093E408A093E508B093E60827C05B
:105320008091E3089091E408A091E508B091E60827
:1053300080589E43A040B0408093E3089093E408D7
:10534000A093E508B093E6088091E7089091E808FB
:10535000A091E908B091EA080196A11DB11D8093C2
:10536000E7089093E808A093E908B093EA088091D1
:10537000E3089091E408A091E508B091E60881580F
:105380009E43A040B04060F6BF91AF919F918F9136
:105390002F910F900FBE0F901F9018958FB7F89414
:1053A0002091E7083091E8084091E9085091EA0817
:1053B0008FBFB901CA010895EF92FF920F931F9317
:1053C0007B018C018FB7F8944091E7085091E80871
:1053D0006091E9087091EA088FBF2FB7F894809127
:1053E000E7089091E808A091E908B091EA082FBF7A
:1053F000841B950BA60BB70BE816F9060A071B07CB
:1054000060F71F910F91FF90EF900895789484B505
:10541000826084BD84B5816084BD85B5826085BDB0
:1054200085B5816085BDEEE6F0E080818160808396
:10543000E1E8F0E080818260808380818160808308
:10544000E0E8F0E0808181608083E1EBF0E0808142
:1054500084608083E0EBF0E0808181608083EAE714
:10546000F0E080818460808380818260808380819D
:10547000816080838081806880831092C10008955C
:1054800081E292E09093EC088093EB081092ED0893
:105490009093EF088093EE0881E08093F0080895E0
:1054A000FC0182810E94EC2A0895FC0182810E9405
:1054B000122B0895FC0182810E94FC2A0895FC01B0
:1054C00082810E94642A0895EF92FF920F931F93A6
:1054D0007A018B018823F1F5CB01BA0122E030E09B
:1054E00040E050E00E94EF2D205C3D4B404F5F4F6D
:1054F000CA01B901A80197010E94EF2DC901DA0183
:105500000197A109B109292F3A2F4B2F552747FDA4
:105510005A950196A11DB11D2093C500815080931D
:10552000C4001092C0001092C1001092C20080917D
:10553000C10080618093C1008091C1008860809328
:10554000C1008091C10080688093C10086E0809393
:10555000C2003DC0CB01BA0122E030E040E050E0A3
:105560000E94EF2D205C3D4B404F5F4FCA01B901B7
:10557000A80197010E94EF2DC901DA010197A10945
:10558000B109292F3A2F4B2F552747FD5A950196E0
:10559000A11DB11D2093CD0081508093CC001092AD
:1055A000C8001092C9001092CA008091C9008061A1
:1055B0008093C9008091C90088608093C900809160
:1055C000C90080688093C90086E08093CA001F915B
:1055D0000F91FF90EF900895882339F48091C000D7
:1055E00085FFFCCF6093C60008958091C80085FFB9
:1055F000FCCF6093CE000895E82FF0E0EE0FFF1F80
:10560000DF01AF50B74F8D919C9180589F4FEB5069
:10561000F74F20813181821B930B60E870E00E947C
:10562000BA2D0895CF93DF93A82FB0E0FD01EE0FC0
:10563000FF1FEF01CB50D74F48815981EF50F74FF3
:10564000808191818417950719F42FEF3FEF13C0E4
:10565000B695BA2FAA27B795A795A40FB51FA7503F
:10566000B74F2C91CA01019660E870E00E94BA2DF4
:105670009983888330E0C901DF91CF9108951F920B
:105680000F920FB60F9211242F933F934F935F9376
:105690006F937F938F939F93AF93BF93EF93FF93FA
:1056A0004091C600E091F108F091F208CF01019617
:1056B00060E870E00E94BA2D9C018091F5089091FD
:1056C000F6082817390739F0E750F74F4083309331
:1056D000F2082093F108FF91EF91BF91AF919F9154
:1056E0008F917F916F915F914F913F912F910F908B
:1056F0000FBE0F901F9018951F920F920FB60F922A
:1057000011242F933F934F935F936F937F938F93C6
:105710009F93AF93BF93EF93FF934091CE00E0919F
:10572000F308F091F408CF01019660E870E00E9460
:10573000BA2D9C018091F7089091F8082817390735
:1057400039F0E758F64F40833093F4082093F3087C
:10575000FF91EF91BF91AF919F918F917F916F9149
:105760005F914F913F912F910F900FBE0F901F901F
:1057700018950F931F93CF93DF938C01EB0109C012
:105780002196D801ED91FC910190F081E02DC801A6
:10579000099568816623A1F7DF91CF911F910F9141
:1057A00008950F931F938C01DC01ED91FC91019002
:1057B000F081E02D6DE00995D801ED91FC9101900B
:1057C000F081E02DC8016AE009951F910F910895BD
:1057D0000F931F938C010E94B92BC8010E94D12BFB
:1057E0001F910F9108952F923F924F925F926F9267
:1057F0007F928F929F92AF92BF92CF92DF92EF9261
:10580000FF920F931F93DF93CF93CDB7DEB7A0978F
:105810000FB6F894DEBF0FBECDBF1C016A017B013D
:10582000411551056105710549F4DC01ED91FC91CB
:105830000190F081E02D60E3099554C088249924FB
:105840005401422E55246624772401E010E00C0F09
:105850001D1F080D191DC701B601A30192010E9469
:10586000CD2DF80160830894811C911CA11CB11CF2
:10587000C701B601A30192010E94CD2DC901DA0131
:105880006C017D01C114D104E104F104F1F681E061
:10589000E82EF12CEC0EFD1EE80CF91C3E010894DC
:1058A000611C711CD501C4010197A109B1096C01EA
:1058B000C818D90814C0F601EE0DFF1D60816A30CA
:1058C00010F4605D01C0695CD101ED91FC91019023
:1058D000F081E02DC10109950894E108F1086E14EA
:1058E0007F0449F7A0960FB6F894DEBF0FBECDBF78
:1058F000CF91DF911F910F91FF90EF90DF90CF90AC
:10590000BF90AF909F908F907F906F905F904F90DF
:105910003F902F900895EF92FF920F931F93CF9394
:10592000DF93EC017A018B0177FF0FC0E881F981E9
:105930000190F081E02D6DE2099510950095F094AD
:10594000E094E11CF11C011D111DCE01B801A7015D
:105950002AE00E94F32BDF91CF911F910F91FF90CE
:10596000EF900895DC012115310541F4ED91FC9192
:105970000190F081E02D642F099508952A303105BA
:1059800019F40E948B2C08950E94F32B08950F9315
:105990001F938C010E94B22CC8010E94D12B1F9131
:1059A0000F910895282F30E0C90181539F4FFC01CA
:1059B000949121553F4FF9018491882381F0E82F7C
:1059C000F0E0E056FF4FE491F0E0662329F4808197
:1059D00090958923808308958081892B8083089501
:1059E000482F50E0CA0181519F4FFC012491CA0108
:1059F00081539F4FFC01949141555F4FFA013491BF
:105A00003323C1F1222331F1213019F484B58F778A
:105A100004C0223021F484B58F7D84BD1BC02330A7
:105A200021F4809180008F7705C0243031F480917B
:105A300080008F7D809380000DC0263021F48091FE
:105A4000B0008F7705C0273029F48091B0008F7D9A
:105A50008093B000E32FF0E0EB55FF4FE491F0E0CE
:105A6000662329F48081909589238083089580811D
:105A7000892B80830895482F50E0CA0181519F4FA0
:105A8000FC012491CA0181539F4FFC01949141551F
:105A90005F4FFA013491332319F420E030E035C030
:105AA000222331F1213019F484B58F7704C02230DC
:105AB00021F484B58F7D84BD1BC0233021F48091F7
:105AC00080008F7705C0243031F4809180008F7D75
:105AD000809380000DC0263021F48091B0008F7734
